{
  "_format": "hh-sol-artifact-1",
  "contractName": "TokensPool",
  "sourceName": "contracts/pools/TokensPool.sol",
  "abi": [
    {
      "anonymous": false,
      "inputs": [
        {
          "indexed": false,
          "internalType": "uint8",
          "name": "version",
          "type": "uint8"
        }
      ],
      "name": "Initialized",
      "type": "event"
    },
    {
      "inputs": [
        {
          "internalType": "address",
          "name": "_token1",
          "type": "address"
        },
        {
          "internalType": "address",
          "name": "_token2",
          "type": "address"
        }
      ],
      "name": "initialize",
      "outputs": [],
      "stateMutability": "nonpayable",
      "type": "function"
    }
  ],
  "bytecode": "0x608060405234801561001057600080fd5b5061021a806100206000396000f3fe608060405234801561001057600080fd5b506004361061002b5760003560e01c8063485cc95514610030575b600080fd5b61004361003e3660046101b1565b610045565b005b600054610100900460ff16158080156100655750600054600160ff909116105b8061007f5750303b15801561007f575060005460ff166001145b6100e65760405162461bcd60e51b815260206004820152602e60248201527f496e697469616c697a61626c653a20636f6e747261637420697320616c72656160448201526d191e481a5b9a5d1a585b1a5e995960921b606482015260840160405180910390fd5b6000805460ff191660011790558015610109576000805461ff0019166101001790555b6000805462010000600160b01b031916620100006001600160a01b038681169190910291909117909155600180546001600160a01b0319169184169190911790558015610190576000805461ff0019169055604051600181527f7f26b83ff96e1f2b6a682f133852f6798a09c465da95921460cefb38474024989060200160405180910390a15b505050565b80356001600160a01b03811681146101ac57600080fd5b919050565b600080604083850312156101c457600080fd5b6101cd83610195565b91506101db60208401610195565b9050925092905056fea2646970667358221220c2aa861047c1093fc29a3e2ff93b5a3bf976ffda4b874bccba3d8d7f3d8d083664736f6c63430008110033",
  "linkReferences": {},
  "deployedLinkReferences": {}
}