{
  "_format": "hh-sol-artifact-1",
  "contractName": "PoolFactory",
  "sourceName": "contracts/pools/PoolFactory.sol",
  "abi": [
    {
      "inputs": [],
      "stateMutability": "nonpayable",
      "type": "constructor"
    },
    {
      "anonymous": false,
      "inputs": [
        {
          "indexed": true,
          "internalType": "address",
          "name": "previousOwner",
          "type": "address"
        },
        {
          "indexed": true,
          "internalType": "address",
          "name": "newOwner",
          "type": "address"
        }
      ],
      "name": "OwnershipTransferred",
      "type": "event"
    },
    {
      "anonymous": false,
      "inputs": [
        {
          "indexed": false,
          "internalType": "address",
          "name": "pool",
          "type": "address"
        },
        {
          "indexed": false,
          "internalType": "address",
          "name": "token1",
          "type": "address"
        },
        {
          "indexed": false,
          "internalType": "address",
          "name": "token2",
          "type": "address"
        }
      ],
      "name": "PoolCreated",
      "type": "event"
    },
    {
      "inputs": [
        {
          "internalType": "address",
          "name": "_token1",
          "type": "address"
        },
        {
          "internalType": "address",
          "name": "_token2",
          "type": "address"
        }
      ],
      "name": "createPool",
      "outputs": [
        {
          "internalType": "address",
          "name": "poolAddress",
          "type": "address"
        }
      ],
      "stateMutability": "nonpayable",
      "type": "function"
    },
    {
      "inputs": [
        {
          "internalType": "address",
          "name": "_token1",
          "type": "address"
        },
        {
          "internalType": "address",
          "name": "_token2",
          "type": "address"
        }
      ],
      "name": "getPool",
      "outputs": [
        {
          "internalType": "address",
          "name": "pool",
          "type": "address"
        }
      ],
      "stateMutability": "view",
      "type": "function"
    },
    {
      "inputs": [
        {
          "internalType": "address",
          "name": "_token",
          "type": "address"
        }
      ],
      "name": "getTokenPools",
      "outputs": [
        {
          "internalType": "address[]",
          "name": "",
          "type": "address[]"
        }
      ],
      "stateMutability": "view",
      "type": "function"
    },
    {
      "inputs": [],
      "name": "owner",
      "outputs": [
        {
          "internalType": "address",
          "name": "",
          "type": "address"
        }
      ],
      "stateMutability": "view",
      "type": "function"
    },
    {
      "inputs": [],
      "name": "renounceOwnership",
      "outputs": [],
      "stateMutability": "nonpayable",
      "type": "function"
    },
    {
      "inputs": [
        {
          "internalType": "address",
          "name": "newOwner",
          "type": "address"
        }
      ],
      "name": "transferOwnership",
      "outputs": [],
      "stateMutability": "nonpayable",
      "type": "function"
    }
  ],
  "bytecode": "0x60a060405234801561001057600080fd5b5061001a33610054565b604051610026906100a4565b604051809103906000f080158015610042573d6000803e3d6000fd5b506001600160a01b03166080526100b1565b600080546001600160a01b038381166001600160a01b0319831681178455604051919092169283917f8be0079c531659141344cd1fd0a4f28419497f9722a3daafe3b4186f6b6457e09190a35050565b61023a806108e783390190565b6080516108146100d36000396000818161010e01526102a101526108146000f3fe608060405234801561001057600080fd5b50600436106100625760003560e01c8063531aa03e14610067578063715018a6146100975780638da5cb5b146100a1578063d75a2d72146100b2578063e3433615146100d2578063f2fde38b146100e5575b600080fd5b61007a610075366004610743565b6100f8565b6040516001600160a01b0390911681526020015b60405180910390f35b61009f61013d565b005b6000546001600160a01b031661007a565b6100c56100c0366004610776565b610151565b60405161008e9190610791565b61007a6100e0366004610743565b610223565b61009f6100f3366004610776565b6103d5565b600080610105848461044e565b925050506101337f0000000000000000000000000000000000000000000000000000000000000000826104aa565b9150505b92915050565b610145610517565b61014f6000610571565b565b6001600160a01b038116600090815260016020526040812054606091036101af5760405162461bcd60e51b815260206004820152600d60248201526c1b9bc81c1bdbdb08199bdd5b99609a1b60448201526064015b60405180910390fd5b6001600160a01b0382166000908152600160209081526040918290208054835181840281018401909452808452909183018282801561021757602002820191906000526020600020905b81546001600160a01b031681526001909101906020018083116101f9575b50505050509050919050565b600080600080610233868661044e565b92509250925061024c866001600160a01b03163b151590565b801561026157506001600160a01b0385163b15155b61029c5760405162461bcd60e51b815260206004820152600c60248201526b1b9bdd0818dbdb9d1c9858dd60a21b60448201526064016101a6565b6102c67f0000000000000000000000000000000000000000000000000000000000000000826105c1565b60405163485cc95560e01b81526001600160a01b03858116600483015284811660248301529195509085169063485cc95590604401600060405180830381600087803b15801561031557600080fd5b505af1158015610329573d6000803e3d6000fd5b505050506001600160a01b038381166000818152600160208181526040808420805480850182559085528285200180546001600160a01b03199081168c8916908117909255968916808652828620805495860181558652948390209093018054909616831790955584519182528101929092528183015290517f9c5d829b9b23efc461f9aeef91979ec04bb903feb3bee4f26d22114abfc7335b9181900360600190a150505092915050565b6103dd610517565b6001600160a01b0381166104425760405162461bcd60e51b815260206004820152602660248201527f4f776e61626c653a206e6577206f776e657220697320746865207a65726f206160448201526564647265737360d01b60648201526084016101a6565b61044b81610571565b50565b600080600061045d8585610661565b6040516bffffffffffffffffffffffff19606084811b8216602084015283901b16603482015291945092506048016040516020818303038152906040528051906020012090509250925092565b6000610510838330604051733d602d80600a3d3981f3363d3d373d3d3d363d7360601b8152606093841b60148201526f5af43d82803e903d91602b57fd5bf3ff60801b6028820152921b6038830152604c8201526037808220606c830152605591012090565b9392505050565b6000546001600160a01b0316331461014f5760405162461bcd60e51b815260206004820181905260248201527f4f776e61626c653a2063616c6c6572206973206e6f7420746865206f776e657260448201526064016101a6565b600080546001600160a01b038381166001600160a01b0319831681178455604051919092169283917f8be0079c531659141344cd1fd0a4f28419497f9722a3daafe3b4186f6b6457e09190a35050565b6000604051733d602d80600a3d3981f3363d3d373d3d3d363d7360601b81528360601b60148201526e5af43d82803e903d91602b57fd5bf360881b6028820152826037826000f59150506001600160a01b0381166101375760405162461bcd60e51b815260206004820152601760248201527f455243313136373a2063726561746532206661696c656400000000000000000060448201526064016101a6565b600080826001600160a01b0316846001600160a01b0316036106b25760405162461bcd60e51b815260206004820152600a60248201526939b0b6b2903a37b5b2b760b11b60448201526064016101a6565b826001600160a01b0316846001600160a01b0316106106d25782846106d5565b83835b90925090506001600160a01b0382166107205760405162461bcd60e51b815260206004820152600d60248201526c34b73b30b634b2103a37b5b2b760991b60448201526064016101a6565b9250929050565b80356001600160a01b038116811461073e57600080fd5b919050565b6000806040838503121561075657600080fd5b61075f83610727565b915061076d60208401610727565b90509250929050565b60006020828403121561078857600080fd5b61051082610727565b6020808252825182820181905260009190848201906040850190845b818110156107d25783516001600160a01b0316835292840192918401916001016107ad565b5090969550505050505056fea2646970667358221220d852b66fe531ef2ddd1d1471884f19b1881240143d809cf075164cc0de20693964736f6c63430008110033608060405234801561001057600080fd5b5061021a806100206000396000f3fe608060405234801561001057600080fd5b506004361061002b5760003560e01c8063485cc95514610030575b600080fd5b61004361003e3660046101b1565b610045565b005b600054610100900460ff16158080156100655750600054600160ff909116105b8061007f5750303b15801561007f575060005460ff166001145b6100e65760405162461bcd60e51b815260206004820152602e60248201527f496e697469616c697a61626c653a20636f6e747261637420697320616c72656160448201526d191e481a5b9a5d1a585b1a5e995960921b606482015260840160405180910390fd5b6000805460ff191660011790558015610109576000805461ff0019166101001790555b6000805462010000600160b01b031916620100006001600160a01b038681169190910291909117909155600180546001600160a01b0319169184169190911790558015610190576000805461ff0019169055604051600181527f7f26b83ff96e1f2b6a682f133852f6798a09c465da95921460cefb38474024989060200160405180910390a15b505050565b80356001600160a01b03811681146101ac57600080fd5b919050565b600080604083850312156101c457600080fd5b6101cd83610195565b91506101db60208401610195565b9050925092905056fea2646970667358221220d84450da82a2610587f318b7201e155119b1754e1eee540f657b20c91ec95bab64736f6c63430008110033",
  "linkReferences": {},
  "deployedLinkReferences": {}
}