{
    "contractName": "Pool",
    "abi": [
        {
            "anonymous": false,
            "inputs": [
                {
                    "indexed": true,
                    "internalType": "address",
                    "name": "owner",
                    "type": "address"
                },
                {
                    "indexed": true,
                    "internalType": "address",
                    "name": "spender",
                    "type": "address"
                },
                {
                    "indexed": false,
                    "internalType": "uint256",
                    "name": "value",
                    "type": "uint256"
                }
            ],
            "name": "Approval",
            "type": "event"
        },
        {
            "anonymous": false,
            "inputs": [
                {
                    "indexed": false,
                    "internalType": "uint8",
                    "name": "version",
                    "type": "uint8"
                }
            ],
            "name": "Initialized",
            "type": "event"
        },
        {
            "anonymous": false,
            "inputs": [
                {
                    "indexed": true,
                    "internalType": "address",
                    "name": "provider",
                    "type": "address"
                },
                {
                    "indexed": false,
                    "internalType": "uint256",
                    "name": "amountX",
                    "type": "uint256"
                },
                {
                    "indexed": false,
                    "internalType": "uint256",
                    "name": "amountY",
                    "type": "uint256"
                }
            ],
            "name": "LPBurnt",
            "type": "event"
        },
        {
            "anonymous": false,
            "inputs": [
                {
                    "indexed": true,
                    "internalType": "address",
                    "name": "provider",
                    "type": "address"
                },
                {
                    "indexed": false,
                    "internalType": "uint256",
                    "name": "amountX",
                    "type": "uint256"
                },
                {
                    "indexed": false,
                    "internalType": "uint256",
                    "name": "amountY",
                    "type": "uint256"
                }
            ],
            "name": "LPMinted",
            "type": "event"
        },
        {
            "anonymous": false,
            "inputs": [
                {
                    "indexed": false,
                    "internalType": "address",
                    "name": "tokenIn",
                    "type": "address"
                },
                {
                    "indexed": false,
                    "internalType": "uint256",
                    "name": "amountIn",
                    "type": "uint256"
                },
                {
                    "indexed": false,
                    "internalType": "address",
                    "name": "tokenOut",
                    "type": "address"
                },
                {
                    "indexed": false,
                    "internalType": "uint256",
                    "name": "amountOut",
                    "type": "uint256"
                }
            ],
            "name": "PoolSwapped",
            "type": "event"
        },
        {
            "anonymous": false,
            "inputs": [
                {
                    "indexed": false,
                    "internalType": "uint256",
                    "name": "reserveX",
                    "type": "uint256"
                },
                {
                    "indexed": false,
                    "internalType": "uint256",
                    "name": "reserveY",
                    "type": "uint256"
                }
            ],
            "name": "ReservesUpdated",
            "type": "event"
        },
        {
            "anonymous": false,
            "inputs": [
                {
                    "indexed": true,
                    "internalType": "address",
                    "name": "from",
                    "type": "address"
                },
                {
                    "indexed": true,
                    "internalType": "address",
                    "name": "to",
                    "type": "address"
                },
                {
                    "indexed": false,
                    "internalType": "uint256",
                    "name": "value",
                    "type": "uint256"
                }
            ],
            "name": "Transfer",
            "type": "event"
        },
        {
            "inputs": [
                {
                    "internalType": "address",
                    "name": "owner",
                    "type": "address"
                },
                {
                    "internalType": "address",
                    "name": "spender",
                    "type": "address"
                }
            ],
            "name": "allowance",
            "outputs": [
                {
                    "internalType": "uint256",
                    "name": "",
                    "type": "uint256"
                }
            ],
            "stateMutability": "view",
            "type": "function"
        },
        {
            "inputs": [
                {
                    "internalType": "address",
                    "name": "spender",
                    "type": "address"
                },
                {
                    "internalType": "uint256",
                    "name": "amount",
                    "type": "uint256"
                }
            ],
            "name": "approve",
            "outputs": [
                {
                    "internalType": "bool",
                    "name": "",
                    "type": "bool"
                }
            ],
            "stateMutability": "nonpayable",
            "type": "function"
        },
        {
            "inputs": [
                {
                    "internalType": "address",
                    "name": "account",
                    "type": "address"
                }
            ],
            "name": "balanceOf",
            "outputs": [
                {
                    "internalType": "uint256",
                    "name": "",
                    "type": "uint256"
                }
            ],
            "stateMutability": "view",
            "type": "function"
        },
        {
            "inputs": [
                {
                    "internalType": "uint256",
                    "name": "amount",
                    "type": "uint256"
                }
            ],
            "name": "burn",
            "outputs": [],
            "stateMutability": "nonpayable",
            "type": "function"
        },
        {
            "inputs": [
                {
                    "internalType": "address",
                    "name": "account",
                    "type": "address"
                },
                {
                    "internalType": "uint256",
                    "name": "amount",
                    "type": "uint256"
                }
            ],
            "name": "burnFrom",
            "outputs": [],
            "stateMutability": "nonpayable",
            "type": "function"
        },
        {
            "inputs": [
                {
                    "internalType": "address",
                    "name": "provider",
                    "type": "address"
                }
            ],
            "name": "burnLP",
            "outputs": [
                {
                    "internalType": "uint256",
                    "name": "amountX",
                    "type": "uint256"
                },
                {
                    "internalType": "uint256",
                    "name": "amountY",
                    "type": "uint256"
                }
            ],
            "stateMutability": "nonpayable",
            "type": "function"
        },
        {
            "inputs": [
                {
                    "internalType": "address",
                    "name": "_tokenIn",
                    "type": "address"
                },
                {
                    "internalType": "uint256",
                    "name": "_amountOut",
                    "type": "uint256"
                }
            ],
            "name": "computeAmountIn",
            "outputs": [
                {
                    "internalType": "uint256",
                    "name": "",
                    "type": "uint256"
                }
            ],
            "stateMutability": "view",
            "type": "function"
        },
        {
            "inputs": [
                {
                    "internalType": "address",
                    "name": "_tokenIn",
                    "type": "address"
                },
                {
                    "internalType": "uint256",
                    "name": "_amountIn",
                    "type": "uint256"
                }
            ],
            "name": "computeAmountOut",
            "outputs": [
                {
                    "internalType": "uint256",
                    "name": "",
                    "type": "uint256"
                }
            ],
            "stateMutability": "view",
            "type": "function"
        },
        {
            "inputs": [
                {
                    "internalType": "address",
                    "name": "_tokenIn",
                    "type": "address"
                },
                {
                    "internalType": "uint256",
                    "name": "_amountIn",
                    "type": "uint256"
                }
            ],
            "name": "computePriceOut",
            "outputs": [
                {
                    "internalType": "uint256",
                    "name": "",
                    "type": "uint256"
                }
            ],
            "stateMutability": "view",
            "type": "function"
        },
        {
            "inputs": [],
            "name": "decimals",
            "outputs": [
                {
                    "internalType": "uint8",
                    "name": "",
                    "type": "uint8"
                }
            ],
            "stateMutability": "view",
            "type": "function"
        },
        {
            "inputs": [
                {
                    "internalType": "address",
                    "name": "spender",
                    "type": "address"
                },
                {
                    "internalType": "uint256",
                    "name": "subtractedValue",
                    "type": "uint256"
                }
            ],
            "name": "decreaseAllowance",
            "outputs": [
                {
                    "internalType": "bool",
                    "name": "",
                    "type": "bool"
                }
            ],
            "stateMutability": "nonpayable",
            "type": "function"
        },
        {
            "inputs": [
                {
                    "internalType": "address",
                    "name": "_tokenX",
                    "type": "address"
                }
            ],
            "name": "getReserves",
            "outputs": [
                {
                    "internalType": "uint256",
                    "name": "_reserveX",
                    "type": "uint256"
                },
                {
                    "internalType": "uint256",
                    "name": "_reserveY",
                    "type": "uint256"
                }
            ],
            "stateMutability": "view",
            "type": "function"
        },
        {
            "inputs": [
                {
                    "internalType": "address",
                    "name": "spender",
                    "type": "address"
                },
                {
                    "internalType": "uint256",
                    "name": "addedValue",
                    "type": "uint256"
                }
            ],
            "name": "increaseAllowance",
            "outputs": [
                {
                    "internalType": "bool",
                    "name": "",
                    "type": "bool"
                }
            ],
            "stateMutability": "nonpayable",
            "type": "function"
        },
        {
            "inputs": [
                {
                    "internalType": "address",
                    "name": "_amm",
                    "type": "address"
                },
                {
                    "internalType": "address",
                    "name": "_fansSocietyAddress",
                    "type": "address"
                },
                {
                    "internalType": "address",
                    "name": "_tokenX",
                    "type": "address"
                },
                {
                    "internalType": "address",
                    "name": "_tokenY",
                    "type": "address"
                }
            ],
            "name": "initialize",
            "outputs": [],
            "stateMutability": "nonpayable",
            "type": "function"
        },
        {
            "inputs": [
                {
                    "internalType": "address",
                    "name": "provider",
                    "type": "address"
                }
            ],
            "name": "mintLP",
            "outputs": [
                {
                    "internalType": "uint256",
                    "name": "liquidity",
                    "type": "uint256"
                }
            ],
            "stateMutability": "nonpayable",
            "type": "function"
        },
        {
            "inputs": [],
            "name": "name",
            "outputs": [
                {
                    "internalType": "string",
                    "name": "",
                    "type": "string"
                }
            ],
            "stateMutability": "view",
            "type": "function"
        },
        {
            "inputs": [
                {
                    "internalType": "address",
                    "name": "from",
                    "type": "address"
                },
                {
                    "internalType": "address",
                    "name": "to",
                    "type": "address"
                },
                {
                    "internalType": "uint256",
                    "name": "value",
                    "type": "uint256"
                }
            ],
            "name": "safeTransferFrom",
            "outputs": [],
            "stateMutability": "nonpayable",
            "type": "function"
        },
        {
            "inputs": [
                {
                    "internalType": "address",
                    "name": "_tokenIn",
                    "type": "address"
                }
            ],
            "name": "swap",
            "outputs": [
                {
                    "internalType": "address",
                    "name": "tokenIn",
                    "type": "address"
                },
                {
                    "internalType": "uint256",
                    "name": "amountIn",
                    "type": "uint256"
                },
                {
                    "internalType": "address",
                    "name": "tokenOut",
                    "type": "address"
                },
                {
                    "internalType": "uint256",
                    "name": "amountOut",
                    "type": "uint256"
                }
            ],
            "stateMutability": "nonpayable",
            "type": "function"
        },
        {
            "inputs": [],
            "name": "symbol",
            "outputs": [
                {
                    "internalType": "string",
                    "name": "",
                    "type": "string"
                }
            ],
            "stateMutability": "view",
            "type": "function"
        },
        {
            "inputs": [],
            "name": "totalSupply",
            "outputs": [
                {
                    "internalType": "uint256",
                    "name": "",
                    "type": "uint256"
                }
            ],
            "stateMutability": "view",
            "type": "function"
        },
        {
            "inputs": [
                {
                    "internalType": "address",
                    "name": "to",
                    "type": "address"
                },
                {
                    "internalType": "uint256",
                    "name": "amount",
                    "type": "uint256"
                }
            ],
            "name": "transfer",
            "outputs": [
                {
                    "internalType": "bool",
                    "name": "",
                    "type": "bool"
                }
            ],
            "stateMutability": "nonpayable",
            "type": "function"
        },
        {
            "inputs": [
                {
                    "internalType": "address",
                    "name": "from",
                    "type": "address"
                },
                {
                    "internalType": "address",
                    "name": "to",
                    "type": "address"
                },
                {
                    "internalType": "uint256",
                    "name": "amount",
                    "type": "uint256"
                }
            ],
            "name": "transferFrom",
            "outputs": [
                {
                    "internalType": "bool",
                    "name": "",
                    "type": "bool"
                }
            ],
            "stateMutability": "nonpayable",
            "type": "function"
        }
    ],
    "bytecode": "608060405234801561001057600080fd5b50612123806100206000396000f3fe608060405234801561001057600080fd5b50600436106101425760003560e01c806379cc6790116100b8578063a9059cbb1161007c578063a9059cbb146102e4578063b4167c6d146102f7578063dd62ed3e1461030a578063e343aed51461031d578063f8c8765e14610330578063fc085e091461034357600080fd5b806379cc6790146102905780638f01e2df146102a357806395d89b41146102b6578063a457c2d7146102be578063a4dd03d7146102d157600080fd5b8063313ce5671161010a578063313ce567146101f557806339509351146102045780633e99c1e41461021757806342842e0e1461023f57806342966c681461025457806370a082311461026757600080fd5b806303438dd01461014757806306fdde0314610198578063095ea7b3146101ad57806318160ddd146101d057806323b872dd146101e2575b600080fd5b61015a610155366004611cbc565b610356565b60405161018f94939291906001600160a01b039485168152602081019390935292166040820152606081019190915260800190565b60405180910390f35b6101a06105fd565b60405161018f9190611cfb565b6101c06101bb366004611d2e565b61068f565b604051901515815260200161018f565b6035545b60405190815260200161018f565b6101c06101f0366004611d58565b6106a9565b6040516012815260200161018f565b6101c0610212366004611d2e565b6106cf565b61022a610225366004611cbc565b6106f1565b6040805192835260208301919091520161018f565b61025261024d366004611d58565b610794565b005b610252610262366004611d94565b61080a565b6101d4610275366004611cbc565b6001600160a01b031660009081526033602052604090205490565b61025261029e366004611d2e565b610817565b6101d46102b1366004611cbc565b610830565b6101a0610ad5565b6101c06102cc366004611d2e565b610ae4565b61022a6102df366004611cbc565b610b6a565b6101c06102f2366004611d2e565b610dc6565b6101d4610305366004611d2e565b610dd4565b6101d4610318366004611dad565b610e93565b6101d461032b366004611d2e565b610ebe565b61025261033e366004611de0565b610efb565b6101d4610351366004611d2e565b61104e565b6099546000908190819081906001600160a01b03868116911614806103885750609a546001600160a01b038681169116145b6103c55760405162461bcd60e51b81526020600482015260096024820152683130b2103a37b5b2b760b91b60448201526064015b60405180910390fd5b6099546000908190819081906001600160a01b038a811691161461040457609a54609954609c54609b546001600160a01b039384169390921691610421565b609954609a54609b54609c546001600160a01b0393841693909216915b6040516370a0823160e01b8152306004820152939750919550935091506000906001600160a01b038616906370a0823190602401602060405180830381865afa158015610472573d6000803e3d6000fd5b505050506040513d601f19601f820116820180604052508101906104969190611e34565b90506104a28382611e63565b97506104af888484611087565b95506104bc843388611128565b6099546040516370a0823160e01b815230600482015261059c916001600160a01b0316906370a08231906024015b602060405180830381865afa158015610507573d6000803e3d6000fd5b505050506040513d601f19601f8201168201806040525081019061052b9190611e34565b609a546040516370a0823160e01b81523060048201526001600160a01b03909116906370a0823190602401602060405180830381865afa158015610573573d6000803e3d6000fd5b505050506040513d601f19601f820116820180604052508101906105979190611e34565b61117a565b604080516001600160a01b038781168252602082018b90528616818301526060810188905290517f902b64a4d94eeb875918b85efad01138a0c7d96ef645d71aa349eecf842c57c79181900360800190a15092965090935050509193509193565b60606036805461060c90611e76565b80601f016020809104026020016040519081016040528092919081815260200182805461063890611e76565b80156106855780601f1061065a57610100808354040283529160200191610685565b820191906000526020600020905b81548152906001019060200180831161066857829003601f168201915b5050505050905090565b60003361069d8185856111c1565b60019150505b92915050565b6000336106b78582856112e5565b6106c285858561135f565b60019150505b9392505050565b60003361069d8185856106e28383610e93565b6106ec9190611eb0565b6111c1565b60995460009081906001600160a01b038481169116148061071f5750609a546001600160a01b038481169116145b6107635760405162461bcd60e51b8152602060048201526015602482015274696e76616c696420746f6b656e206164647265737360581b60448201526064016103bc565b6099546001600160a01b0384811691161461078357609c54609b5461078a565b609b54609c545b9094909350915050565b6097546001600160a01b031633146107e25760405162461bcd60e51b815260206004820152601160248201527043616c6c6572206973206e6f7420414d4d60781b60448201526064016103bc565b6097546107fa9084906001600160a01b0316836111c1565b61080583838361135f565b505050565b610814338261150a565b50565b6108228233836112e5565b61082c828261150a565b5050565b609b54609c546099546040516370a0823160e01b8152306004820152600093929184916001600160a01b03909116906370a0823190602401602060405180830381865afa158015610885573d6000803e3d6000fd5b505050506040513d601f19601f820116820180604052508101906108a99190611e34565b609a546040516370a0823160e01b81523060048201529192506000916001600160a01b03909116906370a0823190602401602060405180830381865afa1580156108f7573d6000803e3d6000fd5b505050506040513d601f19601f8201168201806040525081019061091b9190611e34565b905060006109298584611e63565b905060006109378584611e63565b905060008611806109485750600085115b156109a1576109578286611ec3565b6109618288611ec3565b146109a15760405162461bcd60e51b815260206004820152601060248201526f78202f207920213d206478202f20647960801b60448201526064016103bc565b6109ab868661163e565b60006109b660355490565b9050806000036109d9576109d26109cd8385611ec3565b6116eb565b9750610a0e565b610a0b876109e78386611ec3565b6109f19190611ef0565b876109fc8486611ec3565b610a069190611ef0565b611859565b97505b60008811610a5e5760405162461bcd60e51b815260206004820152601b60248201527f6e6f7420656e6f756768206c697175696469747920746f20616464000000000060448201526064016103bc565b610a68898961186f565b610a72858561117a565b609c54609b54610a829190611ec3565b609d5560408051848152602081018490526001600160a01b038b16917f2f2cd4b80c51252509ab761348cdb69c09c8db33480f8a76ae14fdade273b0ce910160405180910390a250505050505050919050565b60606037805461060c90611e76565b60003381610af28286610e93565b905083811015610b525760405162461bcd60e51b815260206004820152602560248201527f45524332303a2064656372656173656420616c6c6f77616e63652062656c6f77604482015264207a65726f60d81b60648201526084016103bc565b610b5f82868684036111c1565b506001949350505050565b609b54609c54609954609a546040516370a0823160e01b81523060048201526000948594909390926001600160a01b0391821692911690859083906370a0823190602401602060405180830381865afa158015610bcb573d6000803e3d6000fd5b505050506040513d601f19601f82011682018060405250810190610bef9190611e34565b6040516370a0823160e01b81523060048201529091506000906001600160a01b038416906370a0823190602401602060405180830381865afa158015610c39573d6000803e3d6000fd5b505050506040513d601f19601f82011682018060405250810190610c5d9190611e34565b30600090815260336020526040902054909150610c7a878761163e565b6000610c8560355490565b905080610c928584611ec3565b610c9c9190611ef0565b995080610ca98484611ec3565b610cb39190611ef0565b985060008a118015610cc55750600089115b610d115760405162461bcd60e51b815260206004820152601e60248201527f4e6f7420656e6f756768206c697175696469747920746f2072656d6f7665000060448201526064016103bc565b610d1b308361150a565b610d26868c8c611128565b610d31858c8b611128565b6099546040516370a0823160e01b8152306004820152610d63916001600160a01b0316906370a08231906024016104ea565b609c54609b54610d739190611ec3565b609d55604080518b8152602081018b90526001600160a01b038d16917e522c0d9179b17550a3adaca1485c7374ca7798515681b3ca3aed8ce57a9d0a910160405180910390a25050505050505050915091565b60003361069d81858561135f565b609954600090819081906001600160a01b03868116911614610dfb57609c54609b54610e02565b609b54609c545b9150915060008411610e495760405162461bcd60e51b815260206004820152601060248201526f139bdd08195b9bdd59da081a5b9c1d5d60821b60448201526064016103bc565b600082118015610e595750600081115b610e755760405162461bcd60e51b81526004016103bc90611f12565b81610e808286611ec3565b610e8a9190611ef0565b95945050505050565b6001600160a01b03918216600090815260346020908152604080832093909416825291909152205490565b609954600090819081906001600160a01b03868116911614610ee557609c54609b54610eec565b609b54609c545b91509150610e8a848383611930565b600054610100900460ff1615808015610f1b5750600054600160ff909116105b80610f355750303b158015610f35575060005460ff166001145b610f985760405162461bcd60e51b815260206004820152602e60248201527f496e697469616c697a61626c653a20636f6e747261637420697320616c72656160448201526d191e481a5b9a5d1a585b1a5e995960921b60648201526084016103bc565b6000805460ff191660011790558015610fbb576000805461ff0019166101001790555b610fc4856119e2565b609880546001600160a01b038087166001600160a01b03199283161790925560998054868416908316179055609a8054928516929091169190911790558015611047576000805461ff0019169055604051600181527f7f26b83ff96e1f2b6a682f133852f6798a09c465da95921460cefb38474024989060200160405180910390a15b5050505050565b609954600090819081906001600160a01b0386811691161461107557609c54609b5461107c565b609b54609c545b91509150610e8a8483835b60008084116110cb5760405162461bcd60e51b815260206004820152601060248201526f139bdd08195b9bdd59da081a5b9c1d5d60821b60448201526064016103bc565b6000831180156110db5750600083115b6110f75760405162461bcd60e51b81526004016103bc90611f12565b6000611105856103de611ec3565b905080611114856103e8611ec3565b61111e9190611eb0565b610e808285611ec3565b604080516001600160a01b038416602482015260448082018490528251808303909101815260649091019091526020810180516001600160e01b031663a9059cbb60e01b179052610805908490611a7a565b609b829055609c81905560408051838152602081018390527f5141ecc84a35c12ca2bf76bb33d393bd2fc22f906da0743534beef4ae63c6c8e910160405180910390a15050565b6001600160a01b0383166112235760405162461bcd60e51b8152602060048201526024808201527f45524332303a20617070726f76652066726f6d20746865207a65726f206164646044820152637265737360e01b60648201526084016103bc565b6001600160a01b0382166112845760405162461bcd60e51b815260206004820152602260248201527f45524332303a20617070726f766520746f20746865207a65726f206164647265604482015261737360f01b60648201526084016103bc565b6001600160a01b0383811660008181526034602090815260408083209487168084529482529182902085905590518481527f8c5be1e5ebec7d5bd14f71427d1e84f3dd0314c0f7b2291e5b200ac8c7c3b925910160405180910390a3505050565b60006112f18484610e93565b90506000198114611359578181101561134c5760405162461bcd60e51b815260206004820152601d60248201527f45524332303a20696e73756666696369656e7420616c6c6f77616e636500000060448201526064016103bc565b61135984848484036111c1565b50505050565b6001600160a01b0383166113c35760405162461bcd60e51b815260206004820152602560248201527f45524332303a207472616e736665722066726f6d20746865207a65726f206164604482015264647265737360d81b60648201526084016103bc565b6001600160a01b0382166114255760405162461bcd60e51b815260206004820152602360248201527f45524332303a207472616e7366657220746f20746865207a65726f206164647260448201526265737360e81b60648201526084016103bc565b6001600160a01b0383166000908152603360205260409020548181101561149d5760405162461bcd60e51b815260206004820152602660248201527f45524332303a207472616e7366657220616d6f756e7420657863656564732062604482015265616c616e636560d01b60648201526084016103bc565b6001600160a01b0380851660008181526033602052604080822086860390559286168082529083902080548601905591517fddf252ad1be2c89b69c2b068fc378daa952ba7f163c4a11628f55a4df523b3ef906114fd9086815260200190565b60405180910390a3611359565b6001600160a01b03821661156a5760405162461bcd60e51b815260206004820152602160248201527f45524332303a206275726e2066726f6d20746865207a65726f206164647265736044820152607360f81b60648201526084016103bc565b6001600160a01b038216600090815260336020526040902054818110156115de5760405162461bcd60e51b815260206004820152602260248201527f45524332303a206275726e20616d6f756e7420657863656564732062616c616e604482015261636560f01b60648201526084016103bc565b6001600160a01b03831660008181526033602090815260408083208686039055603580548790039055518581529192917fddf252ad1be2c89b69c2b068fc378daa952ba7f163c4a11628f55a4df523b3ef910160405180910390a3505050565b609d5480156108055760006116566109cd8486611ec3565b90506000611663836116eb565b9050808211156110475760006116798284611e63565b6035546116869190611ec3565b611691906008611ec3565b905060006116a0836008611ec3565b6116ab856011611ec3565b6116b59190611eb0565b905060006116c38284611ef0565b905080156116e1576098546116e1906001600160a01b03168261186f565b5050505050505050565b6000816000036116fd57506000919050565b600182608081901c156117155760409190911b9060801c5b604081901c1561172a5760209190911b9060401c5b602081901c1561173f5760109190911b9060201c5b601081901c156117545760089190911b9060101c5b600881901c156117695760049190911b9060081c5b600481901c1561177e5760029190911b9060041c5b600281901c1561179057600182901b91505b60018285816117a1576117a1611eda565b048301901c915060018285816117b9576117b9611eda565b048301901c915060018285816117d1576117d1611eda565b048301901c915060018285816117e9576117e9611eda565b048301901c9150600182858161180157611801611eda565b048301901c9150600182858161181957611819611eda565b048301901c9150600182858161183157611831611eda565b048301901c91506118518283868161184b5761184b611eda565b04611859565b949350505050565b600081831061186857816106c8565b5090919050565b6001600160a01b0382166118c55760405162461bcd60e51b815260206004820152601f60248201527f45524332303a206d696e7420746f20746865207a65726f20616464726573730060448201526064016103bc565b80603560008282546118d79190611eb0565b90915550506001600160a01b0382166000818152603360209081526040808320805486019055518481527fddf252ad1be2c89b69c2b068fc378daa952ba7f163c4a11628f55a4df523b3ef910160405180910390a35050565b60008084116119755760405162461bcd60e51b8152602060048201526011602482015270139bdd08195b9bdd59da081bdd5d1c1d5d607a1b60448201526064016103bc565b6000831180156119855750600083115b6119a15760405162461bcd60e51b81526004016103bc90611f12565b6119ab8483611e63565b6119b7906103de611ec3565b6119c18585611ec3565b6119cd906103e8611ec3565b6119d79190611ef0565b611851906001611eb0565b600054610100900460ff16611a095760405162461bcd60e51b81526004016103bc90611f40565b611a58604051806040016040528060128152602001712330b7399029b7b1b4b2ba3c902a37b5b2b760711b815250604051806040016040528060038152602001621194d560ea1b815250611b4c565b609780546001600160a01b0319166001600160a01b0392909216919091179055565b6000611acf826040518060400160405280602081526020017f5361666545524332303a206c6f772d6c6576656c2063616c6c206661696c6564815250856001600160a01b0316611b8c9092919063ffffffff16565b8051909150156108055780806020019051810190611aed9190611f8b565b6108055760405162461bcd60e51b815260206004820152602a60248201527f5361666545524332303a204552433230206f7065726174696f6e20646964206e6044820152691bdd081cdd58d8d9595960b21b60648201526084016103bc565b600054610100900460ff16611b735760405162461bcd60e51b81526004016103bc90611f40565b6036611b7f8382612011565b5060376108058282612011565b60606118518484600085856001600160a01b0385163b611bee5760405162461bcd60e51b815260206004820152601d60248201527f416464726573733a2063616c6c20746f206e6f6e2d636f6e747261637400000060448201526064016103bc565b600080866001600160a01b03168587604051611c0a91906120d1565b60006040518083038185875af1925050503d8060008114611c47576040519150601f19603f3d011682016040523d82523d6000602084013e611c4c565b606091505b5091509150611c5c828286611c67565b979650505050505050565b60608315611c765750816106c8565b825115611c865782518084602001fd5b8160405162461bcd60e51b81526004016103bc9190611cfb565b80356001600160a01b0381168114611cb757600080fd5b919050565b600060208284031215611cce57600080fd5b6106c882611ca0565b60005b83811015611cf2578181015183820152602001611cda565b50506000910152565b6020815260008251806020840152611d1a816040850160208701611cd7565b601f01601f19169190910160400192915050565b60008060408385031215611d4157600080fd5b611d4a83611ca0565b946020939093013593505050565b600080600060608486031215611d6d57600080fd5b611d7684611ca0565b9250611d8460208501611ca0565b9150604084013590509250925092565b600060208284031215611da657600080fd5b5035919050565b60008060408385031215611dc057600080fd5b611dc983611ca0565b9150611dd760208401611ca0565b90509250929050565b60008060008060808587031215611df657600080fd5b611dff85611ca0565b9350611e0d60208601611ca0565b9250611e1b60408601611ca0565b9150611e2960608601611ca0565b905092959194509250565b600060208284031215611e4657600080fd5b5051919050565b634e487b7160e01b600052601160045260246000fd5b818103818111156106a3576106a3611e4d565b600181811c90821680611e8a57607f821691505b602082108103611eaa57634e487b7160e01b600052602260045260246000fd5b50919050565b808201808211156106a3576106a3611e4d565b80820281158282048414176106a3576106a3611e4d565b634e487b7160e01b600052601260045260246000fd5b600082611f0d57634e487b7160e01b600052601260045260246000fd5b500490565b6020808252601490820152734e6f7420656e6f756768206c697175696469747960601b604082015260600190565b6020808252602b908201527f496e697469616c697a61626c653a20636f6e7472616374206973206e6f74206960408201526a6e697469616c697a696e6760a81b606082015260800190565b600060208284031215611f9d57600080fd5b815180151581146106c857600080fd5b634e487b7160e01b600052604160045260246000fd5b601f82111561080557600081815260208120601f850160051c81016020861015611fea5750805b601f850160051c820191505b8181101561200957828155600101611ff6565b505050505050565b815167ffffffffffffffff81111561202b5761202b611fad565b61203f816120398454611e76565b84611fc3565b602080601f831160018114612074576000841561205c5750858301515b600019600386901b1c1916600185901b178555612009565b600085815260208120601f198616915b828110156120a357888601518255948401946001909101908401612084565b50858210156120c15787850151600019600388901b60f8161c191681555b5050505050600190811b01905550565b600082516120e3818460208701611cd7565b919091019291505056fea264697066735822122059443fb2ac29a096caf23ab79dbaf4eda7070d6b5b4d9a64918ae520e445562e64736f6c63430008110033",
    "sourcePath": "/home/ted/repositories/fans-society/packages/fans-society-contracts/contracts/pools/Pool.sol",
    "compiler": {
        "name": "solc",
        "version": "0.8.17+commit.8df45f5f"
    },
    "functionHashes": {
        "allowance(address,address)": "dd62ed3e",
        "approve(address,uint256)": "095ea7b3",
        "balanceOf(address)": "70a08231",
        "burn(uint256)": "42966c68",
        "burnFrom(address,uint256)": "79cc6790",
        "burnLP(address)": "a4dd03d7",
        "computeAmountIn(address,uint256)": "e343aed5",
        "computeAmountOut(address,uint256)": "fc085e09",
        "computePriceOut(address,uint256)": "b4167c6d",
        "decimals()": "313ce567",
        "decreaseAllowance(address,uint256)": "a457c2d7",
        "getReserves(address)": "3e99c1e4",
        "increaseAllowance(address,uint256)": "39509351",
        "initialize(address,address,address,address)": "f8c8765e",
        "mintLP(address)": "8f01e2df",
        "name()": "06fdde03",
        "safeTransferFrom(address,address,uint256)": "42842e0e",
        "swap(address)": "03438dd0",
        "symbol()": "95d89b41",
        "totalSupply()": "18160ddd",
        "transfer(address,uint256)": "a9059cbb",
        "transferFrom(address,address,uint256)": "23b872dd"
    },
    "gasEstimates": {
        "creation": {
            "codeDepositCost": "1696600",
            "executionCost": "1785",
            "totalCost": "1698385"
        },
        "external": {
            "allowance(address,address)": "infinite",
            "approve(address,uint256)": "24673",
            "balanceOf(address)": "2670",
            "burn(uint256)": "50859",
            "burnFrom(address,uint256)": "77481",
            "burnLP(address)": "infinite",
            "computeAmountIn(address,uint256)": "infinite",
            "computeAmountOut(address,uint256)": "infinite",
            "computePriceOut(address,uint256)": "7066",
            "decimals()": "200",
            "decreaseAllowance(address,uint256)": "27039",
            "getReserves(address)": "11155",
            "increaseAllowance(address,uint256)": "infinite",
            "initialize(address,address,address,address)": "infinite",
            "mintLP(address)": "infinite",
            "name()": "infinite",
            "safeTransferFrom(address,address,uint256)": "infinite",
            "swap(address)": "infinite",
            "symbol()": "infinite",
            "totalSupply()": "2371",
            "transfer(address,uint256)": "51081",
            "transferFrom(address,address,uint256)": "infinite"
        },
        "internal": {
            "_computeAmountInWithFees(uint256,uint256,uint256)": "infinite",
            "_computeAmountOutWithFees(uint256,uint256,uint256)": "infinite",
            "_mintFansSocietyFees(uint256,uint256)": "infinite",
            "_updateReserves(uint256,uint256)": "infinite"
        }
    }
}