{
  "_format": "hh-sol-artifact-1",
  "contractName": "ProjectTokenERC20",
  "sourceName": "contracts/tokens/ProjectTokenERC20.sol",
  "abi": [
    {
      "anonymous": false,
      "inputs": [
        {
          "indexed": true,
          "internalType": "address",
          "name": "owner",
          "type": "address"
        },
        {
          "indexed": true,
          "internalType": "address",
          "name": "spender",
          "type": "address"
        },
        {
          "indexed": false,
          "internalType": "uint256",
          "name": "value",
          "type": "uint256"
        }
      ],
      "name": "Approval",
      "type": "event"
    },
    {
      "anonymous": false,
      "inputs": [
        {
          "indexed": false,
          "internalType": "uint8",
          "name": "version",
          "type": "uint8"
        }
      ],
      "name": "Initialized",
      "type": "event"
    },
    {
      "anonymous": false,
      "inputs": [
        {
          "indexed": true,
          "internalType": "address",
          "name": "from",
          "type": "address"
        },
        {
          "indexed": true,
          "internalType": "address",
          "name": "to",
          "type": "address"
        },
        {
          "indexed": false,
          "internalType": "uint256",
          "name": "value",
          "type": "uint256"
        }
      ],
      "name": "Transfer",
      "type": "event"
    },
    {
      "inputs": [
        {
          "internalType": "address",
          "name": "owner",
          "type": "address"
        },
        {
          "internalType": "address",
          "name": "spender",
          "type": "address"
        }
      ],
      "name": "allowance",
      "outputs": [
        {
          "internalType": "uint256",
          "name": "",
          "type": "uint256"
        }
      ],
      "stateMutability": "view",
      "type": "function"
    },
    {
      "inputs": [
        {
          "internalType": "address",
          "name": "spender",
          "type": "address"
        },
        {
          "internalType": "uint256",
          "name": "amount",
          "type": "uint256"
        }
      ],
      "name": "approve",
      "outputs": [
        {
          "internalType": "bool",
          "name": "",
          "type": "bool"
        }
      ],
      "stateMutability": "nonpayable",
      "type": "function"
    },
    {
      "inputs": [
        {
          "internalType": "address",
          "name": "account",
          "type": "address"
        }
      ],
      "name": "balanceOf",
      "outputs": [
        {
          "internalType": "uint256",
          "name": "",
          "type": "uint256"
        }
      ],
      "stateMutability": "view",
      "type": "function"
    },
    {
      "inputs": [],
      "name": "decimals",
      "outputs": [
        {
          "internalType": "uint8",
          "name": "",
          "type": "uint8"
        }
      ],
      "stateMutability": "view",
      "type": "function"
    },
    {
      "inputs": [
        {
          "internalType": "address",
          "name": "spender",
          "type": "address"
        },
        {
          "internalType": "uint256",
          "name": "subtractedValue",
          "type": "uint256"
        }
      ],
      "name": "decreaseAllowance",
      "outputs": [
        {
          "internalType": "bool",
          "name": "",
          "type": "bool"
        }
      ],
      "stateMutability": "nonpayable",
      "type": "function"
    },
    {
      "inputs": [
        {
          "internalType": "address",
          "name": "spender",
          "type": "address"
        },
        {
          "internalType": "uint256",
          "name": "addedValue",
          "type": "uint256"
        }
      ],
      "name": "increaseAllowance",
      "outputs": [
        {
          "internalType": "bool",
          "name": "",
          "type": "bool"
        }
      ],
      "stateMutability": "nonpayable",
      "type": "function"
    },
    {
      "inputs": [
        {
          "internalType": "string",
          "name": "_name",
          "type": "string"
        },
        {
          "internalType": "string",
          "name": "_symbol",
          "type": "string"
        },
        {
          "internalType": "uint40",
          "name": "_totalSupply",
          "type": "uint40"
        },
        {
          "internalType": "uint40",
          "name": "_ammGlobalShare",
          "type": "uint40"
        },
        {
          "internalType": "uint40",
          "name": "_ammPoolShare",
          "type": "uint40"
        },
        {
          "internalType": "uint40",
          "name": "_authorGlobalShare",
          "type": "uint40"
        },
        {
          "internalType": "uint40",
          "name": "_authorPoolShare",
          "type": "uint40"
        },
        {
          "internalType": "address",
          "name": "_amm",
          "type": "address"
        },
        {
          "internalType": "address",
          "name": "_author",
          "type": "address"
        }
      ],
      "name": "initialize",
      "outputs": [],
      "stateMutability": "nonpayable",
      "type": "function"
    },
    {
      "inputs": [],
      "name": "maxTotalSupply",
      "outputs": [
        {
          "internalType": "uint256",
          "name": "",
          "type": "uint256"
        }
      ],
      "stateMutability": "view",
      "type": "function"
    },
    {
      "inputs": [
        {
          "internalType": "address",
          "name": "account",
          "type": "address"
        },
        {
          "internalType": "uint256",
          "name": "amount",
          "type": "uint256"
        }
      ],
      "name": "mint",
      "outputs": [],
      "stateMutability": "nonpayable",
      "type": "function"
    },
    {
      "inputs": [],
      "name": "name",
      "outputs": [
        {
          "internalType": "string",
          "name": "",
          "type": "string"
        }
      ],
      "stateMutability": "view",
      "type": "function"
    },
    {
      "inputs": [],
      "name": "symbol",
      "outputs": [
        {
          "internalType": "string",
          "name": "",
          "type": "string"
        }
      ],
      "stateMutability": "view",
      "type": "function"
    },
    {
      "inputs": [],
      "name": "totalSupply",
      "outputs": [
        {
          "internalType": "uint256",
          "name": "",
          "type": "uint256"
        }
      ],
      "stateMutability": "view",
      "type": "function"
    },
    {
      "inputs": [
        {
          "internalType": "address",
          "name": "to",
          "type": "address"
        },
        {
          "internalType": "uint256",
          "name": "amount",
          "type": "uint256"
        }
      ],
      "name": "transfer",
      "outputs": [
        {
          "internalType": "bool",
          "name": "",
          "type": "bool"
        }
      ],
      "stateMutability": "nonpayable",
      "type": "function"
    },
    {
      "inputs": [
        {
          "internalType": "address",
          "name": "from",
          "type": "address"
        },
        {
          "internalType": "address",
          "name": "to",
          "type": "address"
        },
        {
          "internalType": "uint256",
          "name": "amount",
          "type": "uint256"
        }
      ],
      "name": "transferFrom",
      "outputs": [
        {
          "internalType": "bool",
          "name": "",
          "type": "bool"
        }
      ],
      "stateMutability": "nonpayable",
      "type": "function"
    }
  ],
  "bytecode": "0x608060405234801561001057600080fd5b50610f84806100206000396000f3fe608060405234801561001057600080fd5b50600436106100ea5760003560e01c806340c10f191161008c57806395d89b411161006657806395d89b41146101d1578063a457c2d7146101d9578063a9059cbb146101ec578063dd62ed3e146101ff57600080fd5b806340c10f19146101805780634267f0861461019557806370a08231146101a857600080fd5b806323b872dd116100c857806323b872dd146101425780632ab4d05214610155578063313ce5671461015e578063395093511461016d57600080fd5b806306fdde03146100ef578063095ea7b31461010d57806318160ddd14610130575b600080fd5b6100f7610212565b6040516101049190610aec565b60405180910390f35b61012061011b366004610b56565b6102a4565b6040519015158152602001610104565b6035545b604051908152602001610104565b610120610150366004610b80565b6102be565b61013460655481565b60405160128152602001610104565b61012061017b366004610b56565b6102e2565b61019361018e366004610b56565b610304565b005b6101936101a3366004610c74565b6103bf565b6101346101b6366004610d4d565b6001600160a01b031660009081526033602052604090205490565b6100f7610507565b6101206101e7366004610b56565b610516565b6101206101fa366004610b56565b610591565b61013461020d366004610d6f565b61059f565b60606036805461022190610da2565b80601f016020809104026020016040519081016040528092919081815260200182805461024d90610da2565b801561029a5780601f1061026f5761010080835404028352916020019161029a565b820191906000526020600020905b81548152906001019060200180831161027d57829003601f168201915b5050505050905090565b6000336102b28185856105ca565b60019150505b92915050565b6000336102cc8582856106ee565b6102d7858585610768565b506001949350505050565b6000336102b28185856102f5838361059f565b6102ff9190610ddc565b6105ca565b6066546001600160a01b031633146103505760405162461bcd60e51b815260206004820152600a60248201526937b7363c9037bbb732b960b11b60448201526064015b60405180910390fd5b600061035b60355490565b60655490915061036b8383610ddc565b11156103b05760405162461bcd60e51b81526020600482015260146024820152731b585e151bdd185b14dd5c1c1b1e481b1a5b5a5d60621b6044820152606401610347565b6103ba8383610913565b505050565b600054610100900460ff16158080156103df5750600054600160ff909116105b806103f95750303b1580156103f9575060005460ff166001145b61045c5760405162461bcd60e51b815260206004820152602e60248201527f496e697469616c697a61626c653a20636f6e747261637420697320616c72656160448201526d191e481a5b9a5d1a585b1a5e995960921b6064820152608401610347565b6000805460ff19166001179055801561047f576000805461ff0019166101001790555b606680546001600160a01b0319166001600160a01b03851617905564ffffffffff88166065556104b58a8a8989898989896109d4565b80156104fb576000805461ff0019169055604051600181527f7f26b83ff96e1f2b6a682f133852f6798a09c465da95921460cefb38474024989060200160405180910390a15b50505050505050505050565b60606037805461022190610da2565b60003381610524828661059f565b9050838110156105845760405162461bcd60e51b815260206004820152602560248201527f45524332303a2064656372656173656420616c6c6f77616e63652062656c6f77604482015264207a65726f60d81b6064820152608401610347565b6102d782868684036105ca565b6000336102b2818585610768565b6001600160a01b03918216600090815260346020908152604080832093909416825291909152205490565b6001600160a01b03831661062c5760405162461bcd60e51b8152602060048201526024808201527f45524332303a20617070726f76652066726f6d20746865207a65726f206164646044820152637265737360e01b6064820152608401610347565b6001600160a01b03821661068d5760405162461bcd60e51b815260206004820152602260248201527f45524332303a20617070726f766520746f20746865207a65726f206164647265604482015261737360f01b6064820152608401610347565b6001600160a01b0383811660008181526034602090815260408083209487168084529482529182902085905590518481527f8c5be1e5ebec7d5bd14f71427d1e84f3dd0314c0f7b2291e5b200ac8c7c3b925910160405180910390a3505050565b60006106fa848461059f565b9050600019811461076257818110156107555760405162461bcd60e51b815260206004820152601d60248201527f45524332303a20696e73756666696369656e7420616c6c6f77616e63650000006044820152606401610347565b61076284848484036105ca565b50505050565b6001600160a01b0383166107cc5760405162461bcd60e51b815260206004820152602560248201527f45524332303a207472616e736665722066726f6d20746865207a65726f206164604482015264647265737360d81b6064820152608401610347565b6001600160a01b03821661082e5760405162461bcd60e51b815260206004820152602360248201527f45524332303a207472616e7366657220746f20746865207a65726f206164647260448201526265737360e81b6064820152608401610347565b6001600160a01b038316600090815260336020526040902054818110156108a65760405162461bcd60e51b815260206004820152602660248201527f45524332303a207472616e7366657220616d6f756e7420657863656564732062604482015265616c616e636560d01b6064820152608401610347565b6001600160a01b0380851660008181526033602052604080822086860390559286168082529083902080548601905591517fddf252ad1be2c89b69c2b068fc378daa952ba7f163c4a11628f55a4df523b3ef906109069086815260200190565b60405180910390a3610762565b6001600160a01b0382166109695760405162461bcd60e51b815260206004820152601f60248201527f45524332303a206d696e7420746f20746865207a65726f2061646472657373006044820152606401610347565b806035600082825461097b9190610ddc565b90915550506001600160a01b0382166000818152603360209081526040808320805486019055518481527fddf252ad1be2c89b69c2b068fc378daa952ba7f163c4a11628f55a4df523b3ef910160405180910390a35050565b600054610100900460ff166109fb5760405162461bcd60e51b815260040161034790610dfd565b610a058888610a1d565b610a13868686868686610a5d565b5050505050505050565b600054610100900460ff16610a445760405162461bcd60e51b815260040161034790610dfd565b6036610a508382610e8e565b5060376103ba8282610e8e565b600054610100900460ff16610a845760405162461bcd60e51b815260040161034790610dfd565b610a95828764ffffffffff16610913565b610aa6818564ffffffffff16610913565b606654610ac59083906001600160a01b031664ffffffffff88166105ca565b606654610ae49082906001600160a01b031664ffffffffff86166105ca565b505050505050565b600060208083528351808285015260005b81811015610b1957858101830151858201604001528201610afd565b506000604082860101526040601f19601f8301168501019250505092915050565b80356001600160a01b0381168114610b5157600080fd5b919050565b60008060408385031215610b6957600080fd5b610b7283610b3a565b946020939093013593505050565b600080600060608486031215610b9557600080fd5b610b9e84610b3a565b9250610bac60208501610b3a565b9150604084013590509250925092565b634e487b7160e01b600052604160045260246000fd5b600082601f830112610be357600080fd5b813567ffffffffffffffff80821115610bfe57610bfe610bbc565b604051601f8301601f19908116603f01168101908282118183101715610c2657610c26610bbc565b81604052838152866020858801011115610c3f57600080fd5b836020870160208301376000602085830101528094505050505092915050565b803564ffffffffff81168114610b5157600080fd5b60008060008060008060008060006101208a8c031215610c9357600080fd5b893567ffffffffffffffff80821115610cab57600080fd5b610cb78d838e01610bd2565b9a5060208c0135915080821115610ccd57600080fd5b50610cda8c828d01610bd2565b985050610ce960408b01610c5f565b9650610cf760608b01610c5f565b9550610d0560808b01610c5f565b9450610d1360a08b01610c5f565b9350610d2160c08b01610c5f565b9250610d2f60e08b01610b3a565b9150610d3e6101008b01610b3a565b90509295985092959850929598565b600060208284031215610d5f57600080fd5b610d6882610b3a565b9392505050565b60008060408385031215610d8257600080fd5b610d8b83610b3a565b9150610d9960208401610b3a565b90509250929050565b600181811c90821680610db657607f821691505b602082108103610dd657634e487b7160e01b600052602260045260246000fd5b50919050565b808201808211156102b857634e487b7160e01b600052601160045260246000fd5b6020808252602b908201527f496e697469616c697a61626c653a20636f6e7472616374206973206e6f74206960408201526a6e697469616c697a696e6760a81b606082015260800190565b601f8211156103ba57600081815260208120601f850160051c81016020861015610e6f5750805b601f850160051c820191505b81811015610ae457828155600101610e7b565b815167ffffffffffffffff811115610ea857610ea8610bbc565b610ebc81610eb68454610da2565b84610e48565b602080601f831160018114610ef15760008415610ed95750858301515b600019600386901b1c1916600185901b178555610ae4565b600085815260208120601f198616915b82811015610f2057888601518255948401946001909101908401610f01565b5085821015610f3e5787850151600019600388901b60f8161c191681555b5050505050600190811b0190555056fea2646970667358221220d41a937291ed12c61dc65c9a4129cd55294afa2be480ec436317a67ac8413ad864736f6c63430008110033",
  "linkReferences": {},
  "deployedLinkReferences": {}
}