{
  "_format": "hh-sol-artifact-1",
  "contractName": "ProjectTokenERC20",
  "sourceName": "contracts/tokens/ProjectTokenERC20.sol",
  "abi": [
    {
      "anonymous": false,
      "inputs": [
        {
          "indexed": true,
          "internalType": "address",
          "name": "owner",
          "type": "address"
        },
        {
          "indexed": true,
          "internalType": "address",
          "name": "spender",
          "type": "address"
        },
        {
          "indexed": false,
          "internalType": "uint256",
          "name": "value",
          "type": "uint256"
        }
      ],
      "name": "Approval",
      "type": "event"
    },
    {
      "anonymous": false,
      "inputs": [
        {
          "indexed": false,
          "internalType": "uint8",
          "name": "version",
          "type": "uint8"
        }
      ],
      "name": "Initialized",
      "type": "event"
    },
    {
      "anonymous": false,
      "inputs": [
        {
          "indexed": true,
          "internalType": "address",
          "name": "from",
          "type": "address"
        },
        {
          "indexed": true,
          "internalType": "address",
          "name": "to",
          "type": "address"
        },
        {
          "indexed": false,
          "internalType": "uint256",
          "name": "value",
          "type": "uint256"
        }
      ],
      "name": "Transfer",
      "type": "event"
    },
    {
      "inputs": [
        {
          "internalType": "address",
          "name": "owner",
          "type": "address"
        },
        {
          "internalType": "address",
          "name": "spender",
          "type": "address"
        }
      ],
      "name": "allowance",
      "outputs": [
        {
          "internalType": "uint256",
          "name": "",
          "type": "uint256"
        }
      ],
      "stateMutability": "view",
      "type": "function"
    },
    {
      "inputs": [
        {
          "internalType": "address",
          "name": "spender",
          "type": "address"
        },
        {
          "internalType": "uint256",
          "name": "amount",
          "type": "uint256"
        }
      ],
      "name": "approve",
      "outputs": [
        {
          "internalType": "bool",
          "name": "",
          "type": "bool"
        }
      ],
      "stateMutability": "nonpayable",
      "type": "function"
    },
    {
      "inputs": [
        {
          "internalType": "address",
          "name": "account",
          "type": "address"
        }
      ],
      "name": "balanceOf",
      "outputs": [
        {
          "internalType": "uint256",
          "name": "",
          "type": "uint256"
        }
      ],
      "stateMutability": "view",
      "type": "function"
    },
    {
      "inputs": [],
      "name": "decimals",
      "outputs": [
        {
          "internalType": "uint8",
          "name": "",
          "type": "uint8"
        }
      ],
      "stateMutability": "view",
      "type": "function"
    },
    {
      "inputs": [
        {
          "internalType": "address",
          "name": "spender",
          "type": "address"
        },
        {
          "internalType": "uint256",
          "name": "subtractedValue",
          "type": "uint256"
        }
      ],
      "name": "decreaseAllowance",
      "outputs": [
        {
          "internalType": "bool",
          "name": "",
          "type": "bool"
        }
      ],
      "stateMutability": "nonpayable",
      "type": "function"
    },
    {
      "inputs": [
        {
          "internalType": "address",
          "name": "spender",
          "type": "address"
        },
        {
          "internalType": "uint256",
          "name": "addedValue",
          "type": "uint256"
        }
      ],
      "name": "increaseAllowance",
      "outputs": [
        {
          "internalType": "bool",
          "name": "",
          "type": "bool"
        }
      ],
      "stateMutability": "nonpayable",
      "type": "function"
    },
    {
      "inputs": [
        {
          "internalType": "string",
          "name": "_name",
          "type": "string"
        },
        {
          "internalType": "string",
          "name": "_symbol",
          "type": "string"
        },
        {
          "internalType": "uint40",
          "name": "_totalSupply",
          "type": "uint40"
        },
        {
          "internalType": "uint40",
          "name": "_ammGlobalShare",
          "type": "uint40"
        },
        {
          "internalType": "uint40",
          "name": "_ammPoolShare",
          "type": "uint40"
        },
        {
          "internalType": "uint40",
          "name": "_authorGlobalShare",
          "type": "uint40"
        },
        {
          "internalType": "uint40",
          "name": "_authorPoolShare",
          "type": "uint40"
        },
        {
          "internalType": "address",
          "name": "_amm",
          "type": "address"
        },
        {
          "internalType": "address",
          "name": "_author",
          "type": "address"
        }
      ],
      "name": "initialize",
      "outputs": [],
      "stateMutability": "nonpayable",
      "type": "function"
    },
    {
      "inputs": [],
      "name": "maxTotalSupply",
      "outputs": [
        {
          "internalType": "uint256",
          "name": "",
          "type": "uint256"
        }
      ],
      "stateMutability": "view",
      "type": "function"
    },
    {
      "inputs": [
        {
          "internalType": "address",
          "name": "account",
          "type": "address"
        },
        {
          "internalType": "uint256",
          "name": "amount",
          "type": "uint256"
        }
      ],
      "name": "mint",
      "outputs": [],
      "stateMutability": "nonpayable",
      "type": "function"
    },
    {
      "inputs": [],
      "name": "name",
      "outputs": [
        {
          "internalType": "string",
          "name": "",
          "type": "string"
        }
      ],
      "stateMutability": "view",
      "type": "function"
    },
    {
      "inputs": [],
      "name": "symbol",
      "outputs": [
        {
          "internalType": "string",
          "name": "",
          "type": "string"
        }
      ],
      "stateMutability": "view",
      "type": "function"
    },
    {
      "inputs": [],
      "name": "totalSupply",
      "outputs": [
        {
          "internalType": "uint256",
          "name": "",
          "type": "uint256"
        }
      ],
      "stateMutability": "view",
      "type": "function"
    },
    {
      "inputs": [
        {
          "internalType": "address",
          "name": "to",
          "type": "address"
        },
        {
          "internalType": "uint256",
          "name": "amount",
          "type": "uint256"
        }
      ],
      "name": "transfer",
      "outputs": [
        {
          "internalType": "bool",
          "name": "",
          "type": "bool"
        }
      ],
      "stateMutability": "nonpayable",
      "type": "function"
    },
    {
      "inputs": [
        {
          "internalType": "address",
          "name": "from",
          "type": "address"
        },
        {
          "internalType": "address",
          "name": "to",
          "type": "address"
        },
        {
          "internalType": "uint256",
          "name": "amount",
          "type": "uint256"
        }
      ],
      "name": "transferFrom",
      "outputs": [
        {
          "internalType": "bool",
          "name": "",
          "type": "bool"
        }
      ],
      "stateMutability": "nonpayable",
      "type": "function"
    }
  ],
  "bytecode": "0x608060405234801561001057600080fd5b506110d4806100206000396000f3fe608060405234801561001057600080fd5b50600436106100ea5760003560e01c806340c10f191161008c57806395d89b411161006657806395d89b41146101d1578063a457c2d7146101d9578063a9059cbb146101ec578063dd62ed3e146101ff57600080fd5b806340c10f19146101805780634267f0861461019557806370a08231146101a857600080fd5b806323b872dd116100c857806323b872dd146101425780632ab4d05214610155578063313ce5671461015e578063395093511461016d57600080fd5b806306fdde03146100ef578063095ea7b31461010d57806318160ddd14610130575b600080fd5b6100f7610212565b6040516101049190610c0f565b60405180910390f35b61012061011b366004610c79565b6102a4565b6040519015158152602001610104565b6035545b604051908152602001610104565b610120610150366004610ca3565b6102be565b61013460655481565b60405160128152602001610104565b61012061017b366004610c79565b6102e2565b61019361018e366004610c79565b610304565b005b6101936101a3366004610d97565b6103c6565b6101346101b6366004610e70565b6001600160a01b031660009081526033602052604090205490565b6100f761056e565b6101206101e7366004610c79565b61057d565b6101206101fa366004610c79565b6105f8565b61013461020d366004610e92565b610606565b60606036805461022190610ec5565b80601f016020809104026020016040519081016040528092919081815260200182805461024d90610ec5565b801561029a5780601f1061026f5761010080835404028352916020019161029a565b820191906000526020600020905b81548152906001019060200180831161027d57829003601f168201915b5050505050905090565b6000336102b2818585610631565b60019150505b92915050565b6000336102cc858285610755565b6102d78585856107cf565b506001949350505050565b6000336102b28185856102f58383610606565b6102ff9190610f15565b610631565b6066546001600160a01b031633146103575760405162461bcd60e51b815260206004820152601160248201527043616c6c6572206973206e6f7420414d4d60781b60448201526064015b60405180910390fd5b600061036260355490565b6065549091506103728383610f15565b11156103b75760405162461bcd60e51b81526020600482015260146024820152731b585e151bdd185b14dd5c1c1b1e481b1a5b5a5d60621b604482015260640161034e565b6103c1838361097a565b505050565b600054610100900460ff16158080156103e65750600054600160ff909116105b806104005750303b158015610400575060005460ff166001145b6104635760405162461bcd60e51b815260206004820152602e60248201527f496e697469616c697a61626c653a20636f6e747261637420697320616c72656160448201526d191e481a5b9a5d1a585b1a5e995960921b606482015260840161034e565b6000805460ff191660011790558015610486576000805461ff0019166101001790555b6104908588610f28565b64ffffffffff168864ffffffffff1610156104e65760405162461bcd60e51b81526020600482015260166024820152751d1bdd185b081cdd5c1c1b1e481d1bdbc81cdb585b1b60521b604482015260640161034e565b606680546001600160a01b0319166001600160a01b03851617905564ffffffffff881660655561051c8a8a898989898989610a3b565b8015610562576000805461ff0019169055604051600181527f7f26b83ff96e1f2b6a682f133852f6798a09c465da95921460cefb38474024989060200160405180910390a15b50505050505050505050565b60606037805461022190610ec5565b6000338161058b8286610606565b9050838110156105eb5760405162461bcd60e51b815260206004820152602560248201527f45524332303a2064656372656173656420616c6c6f77616e63652062656c6f77604482015264207a65726f60d81b606482015260840161034e565b6102d78286868403610631565b6000336102b28185856107cf565b6001600160a01b03918216600090815260346020908152604080832093909416825291909152205490565b6001600160a01b0383166106935760405162461bcd60e51b8152602060048201526024808201527f45524332303a20617070726f76652066726f6d20746865207a65726f206164646044820152637265737360e01b606482015260840161034e565b6001600160a01b0382166106f45760405162461bcd60e51b815260206004820152602260248201527f45524332303a20617070726f766520746f20746865207a65726f206164647265604482015261737360f01b606482015260840161034e565b6001600160a01b0383811660008181526034602090815260408083209487168084529482529182902085905590518481527f8c5be1e5ebec7d5bd14f71427d1e84f3dd0314c0f7b2291e5b200ac8c7c3b925910160405180910390a3505050565b60006107618484610606565b905060001981146107c957818110156107bc5760405162461bcd60e51b815260206004820152601d60248201527f45524332303a20696e73756666696369656e7420616c6c6f77616e6365000000604482015260640161034e565b6107c98484848403610631565b50505050565b6001600160a01b0383166108335760405162461bcd60e51b815260206004820152602560248201527f45524332303a207472616e736665722066726f6d20746865207a65726f206164604482015264647265737360d81b606482015260840161034e565b6001600160a01b0382166108955760405162461bcd60e51b815260206004820152602360248201527f45524332303a207472616e7366657220746f20746865207a65726f206164647260448201526265737360e81b606482015260840161034e565b6001600160a01b0383166000908152603360205260409020548181101561090d5760405162461bcd60e51b815260206004820152602660248201527f45524332303a207472616e7366657220616d6f756e7420657863656564732062604482015265616c616e636560d01b606482015260840161034e565b6001600160a01b0380851660008181526033602052604080822086860390559286168082529083902080548601905591517fddf252ad1be2c89b69c2b068fc378daa952ba7f163c4a11628f55a4df523b3ef9061096d9086815260200190565b60405180910390a36107c9565b6001600160a01b0382166109d05760405162461bcd60e51b815260206004820152601f60248201527f45524332303a206d696e7420746f20746865207a65726f206164647265737300604482015260640161034e565b80603560008282546109e29190610f15565b90915550506001600160a01b0382166000818152603360209081526040808320805486019055518481527fddf252ad1be2c89b69c2b068fc378daa952ba7f163c4a11628f55a4df523b3ef910160405180910390a35050565b600054610100900460ff16610a625760405162461bcd60e51b815260040161034e90610f4d565b610a6c8888610a84565b610a7a868686868686610ac4565b5050505050505050565b600054610100900460ff16610aab5760405162461bcd60e51b815260040161034e90610f4d565b6036610ab78382610fde565b5060376103c18282610fde565b600054610100900460ff16610aeb5760405162461bcd60e51b815260040161034e90610f4d565b8464ffffffffff168664ffffffffff161015610b495760405162461bcd60e51b815260206004820152601860248201527f414d4d20706f6f6c20736861726520746f6f206c617267650000000000000000604482015260640161034e565b8264ffffffffff168464ffffffffff161015610ba75760405162461bcd60e51b815260206004820152601b60248201527f417574686f7220706f6f6c20736861726520746f6f206c617267650000000000604482015260640161034e565b610bb8828764ffffffffff1661097a565b610bc9818564ffffffffff1661097a565b606654610be89083906001600160a01b031664ffffffffff8816610631565b606654610c079082906001600160a01b031664ffffffffff8616610631565b505050505050565b600060208083528351808285015260005b81811015610c3c57858101830151858201604001528201610c20565b506000604082860101526040601f19601f8301168501019250505092915050565b80356001600160a01b0381168114610c7457600080fd5b919050565b60008060408385031215610c8c57600080fd5b610c9583610c5d565b946020939093013593505050565b600080600060608486031215610cb857600080fd5b610cc184610c5d565b9250610ccf60208501610c5d565b9150604084013590509250925092565b634e487b7160e01b600052604160045260246000fd5b600082601f830112610d0657600080fd5b813567ffffffffffffffff80821115610d2157610d21610cdf565b604051601f8301601f19908116603f01168101908282118183101715610d4957610d49610cdf565b81604052838152866020858801011115610d6257600080fd5b836020870160208301376000602085830101528094505050505092915050565b803564ffffffffff81168114610c7457600080fd5b60008060008060008060008060006101208a8c031215610db657600080fd5b893567ffffffffffffffff80821115610dce57600080fd5b610dda8d838e01610cf5565b9a5060208c0135915080821115610df057600080fd5b50610dfd8c828d01610cf5565b985050610e0c60408b01610d82565b9650610e1a60608b01610d82565b9550610e2860808b01610d82565b9450610e3660a08b01610d82565b9350610e4460c08b01610d82565b9250610e5260e08b01610c5d565b9150610e616101008b01610c5d565b90509295985092959850929598565b600060208284031215610e8257600080fd5b610e8b82610c5d565b9392505050565b60008060408385031215610ea557600080fd5b610eae83610c5d565b9150610ebc60208401610c5d565b90509250929050565b600181811c90821680610ed957607f821691505b602082108103610ef957634e487b7160e01b600052602260045260246000fd5b50919050565b634e487b7160e01b600052601160045260246000fd5b808201808211156102b8576102b8610eff565b64ffffffffff818116838216019080821115610f4657610f46610eff565b5092915050565b6020808252602b908201527f496e697469616c697a61626c653a20636f6e7472616374206973206e6f74206960408201526a6e697469616c697a696e6760a81b606082015260800190565b601f8211156103c157600081815260208120601f850160051c81016020861015610fbf5750805b601f850160051c820191505b81811015610c0757828155600101610fcb565b815167ffffffffffffffff811115610ff857610ff8610cdf565b61100c816110068454610ec5565b84610f98565b602080601f83116001811461104157600084156110295750858301515b600019600386901b1c1916600185901b178555610c07565b600085815260208120601f198616915b8281101561107057888601518255948401946001909101908401611051565b508582101561108e5787850151600019600388901b60f8161c191681555b5050505050600190811b0190555056fea26469706673582212209909ae3f30b984e723916e327e22647453fac63b15d7e3e67d6fef7d7179f00564736f6c63430008110033",
  "linkReferences": {},
  "deployedLinkReferences": {}
}