{
  "_format": "hh-sol-artifact-1",
  "contractName": "ProjectTokenERC20",
  "sourceName": "contracts/tokens/ProjectTokenERC20.sol",
  "abi": [
    {
      "anonymous": false,
      "inputs": [
        {
          "indexed": true,
          "internalType": "address",
          "name": "owner",
          "type": "address"
        },
        {
          "indexed": true,
          "internalType": "address",
          "name": "spender",
          "type": "address"
        },
        {
          "indexed": false,
          "internalType": "uint256",
          "name": "value",
          "type": "uint256"
        }
      ],
      "name": "Approval",
      "type": "event"
    },
    {
      "anonymous": false,
      "inputs": [
        {
          "indexed": false,
          "internalType": "uint8",
          "name": "version",
          "type": "uint8"
        }
      ],
      "name": "Initialized",
      "type": "event"
    },
    {
      "anonymous": false,
      "inputs": [
        {
          "indexed": true,
          "internalType": "address",
          "name": "from",
          "type": "address"
        },
        {
          "indexed": true,
          "internalType": "address",
          "name": "to",
          "type": "address"
        },
        {
          "indexed": false,
          "internalType": "uint256",
          "name": "value",
          "type": "uint256"
        }
      ],
      "name": "Transfer",
      "type": "event"
    },
    {
      "inputs": [
        {
          "internalType": "address",
          "name": "owner",
          "type": "address"
        },
        {
          "internalType": "address",
          "name": "spender",
          "type": "address"
        }
      ],
      "name": "allowance",
      "outputs": [
        {
          "internalType": "uint256",
          "name": "",
          "type": "uint256"
        }
      ],
      "stateMutability": "view",
      "type": "function"
    },
    {
      "inputs": [
        {
          "internalType": "address",
          "name": "spender",
          "type": "address"
        },
        {
          "internalType": "uint256",
          "name": "amount",
          "type": "uint256"
        }
      ],
      "name": "approve",
      "outputs": [
        {
          "internalType": "bool",
          "name": "",
          "type": "bool"
        }
      ],
      "stateMutability": "nonpayable",
      "type": "function"
    },
    {
      "inputs": [
        {
          "internalType": "address",
          "name": "account",
          "type": "address"
        }
      ],
      "name": "balanceOf",
      "outputs": [
        {
          "internalType": "uint256",
          "name": "",
          "type": "uint256"
        }
      ],
      "stateMutability": "view",
      "type": "function"
    },
    {
      "inputs": [],
      "name": "decimals",
      "outputs": [
        {
          "internalType": "uint8",
          "name": "",
          "type": "uint8"
        }
      ],
      "stateMutability": "view",
      "type": "function"
    },
    {
      "inputs": [
        {
          "internalType": "address",
          "name": "spender",
          "type": "address"
        },
        {
          "internalType": "uint256",
          "name": "subtractedValue",
          "type": "uint256"
        }
      ],
      "name": "decreaseAllowance",
      "outputs": [
        {
          "internalType": "bool",
          "name": "",
          "type": "bool"
        }
      ],
      "stateMutability": "nonpayable",
      "type": "function"
    },
    {
      "inputs": [
        {
          "internalType": "address",
          "name": "spender",
          "type": "address"
        },
        {
          "internalType": "uint256",
          "name": "addedValue",
          "type": "uint256"
        }
      ],
      "name": "increaseAllowance",
      "outputs": [
        {
          "internalType": "bool",
          "name": "",
          "type": "bool"
        }
      ],
      "stateMutability": "nonpayable",
      "type": "function"
    },
    {
      "inputs": [
        {
          "internalType": "string",
          "name": "_name",
          "type": "string"
        },
        {
          "internalType": "string",
          "name": "_symbol",
          "type": "string"
        },
        {
          "internalType": "address",
          "name": "_fsociety",
          "type": "address"
        },
        {
          "internalType": "uint256",
          "name": "_fsocietySupply",
          "type": "uint256"
        },
        {
          "internalType": "address",
          "name": "_author",
          "type": "address"
        },
        {
          "internalType": "uint256",
          "name": "_authorSupply",
          "type": "uint256"
        },
        {
          "internalType": "address",
          "name": "_other",
          "type": "address"
        },
        {
          "internalType": "uint256",
          "name": "_otherSupply",
          "type": "uint256"
        }
      ],
      "name": "initialize",
      "outputs": [],
      "stateMutability": "nonpayable",
      "type": "function"
    },
    {
      "inputs": [],
      "name": "name",
      "outputs": [
        {
          "internalType": "string",
          "name": "",
          "type": "string"
        }
      ],
      "stateMutability": "view",
      "type": "function"
    },
    {
      "inputs": [],
      "name": "symbol",
      "outputs": [
        {
          "internalType": "string",
          "name": "",
          "type": "string"
        }
      ],
      "stateMutability": "view",
      "type": "function"
    },
    {
      "inputs": [],
      "name": "totalSupply",
      "outputs": [
        {
          "internalType": "uint256",
          "name": "",
          "type": "uint256"
        }
      ],
      "stateMutability": "view",
      "type": "function"
    },
    {
      "inputs": [
        {
          "internalType": "address",
          "name": "to",
          "type": "address"
        },
        {
          "internalType": "uint256",
          "name": "amount",
          "type": "uint256"
        }
      ],
      "name": "transfer",
      "outputs": [
        {
          "internalType": "bool",
          "name": "",
          "type": "bool"
        }
      ],
      "stateMutability": "nonpayable",
      "type": "function"
    },
    {
      "inputs": [
        {
          "internalType": "address",
          "name": "from",
          "type": "address"
        },
        {
          "internalType": "address",
          "name": "to",
          "type": "address"
        },
        {
          "internalType": "uint256",
          "name": "amount",
          "type": "uint256"
        }
      ],
      "name": "transferFrom",
      "outputs": [
        {
          "internalType": "bool",
          "name": "",
          "type": "bool"
        }
      ],
      "stateMutability": "nonpayable",
      "type": "function"
    }
  ],
  "bytecode": "0x608060405234801561001057600080fd5b50610ddd806100206000396000f3fe608060405234801561001057600080fd5b50600436106100b45760003560e01c806370a082311161007157806370a082311461014157806395d89b411461016a578063a238d31114610172578063a457c2d714610187578063a9059cbb1461019a578063dd62ed3e146101ad57600080fd5b806306fdde03146100b9578063095ea7b3146100d757806318160ddd146100fa57806323b872dd1461010c578063313ce5671461011f578063395093511461012e575b600080fd5b6100c16101c0565b6040516100ce9190610980565b60405180910390f35b6100ea6100e53660046109ea565b610252565b60405190151581526020016100ce565b6035545b6040519081526020016100ce565b6100ea61011a366004610a14565b61026c565b604051601281526020016100ce565b6100ea61013c3660046109ea565b610290565b6100fe61014f366004610a50565b6001600160a01b031660009081526033602052604090205490565b6100c16102b2565b610185610180366004610b15565b6102c1565b005b6100ea6101953660046109ea565b6103e7565b6100ea6101a83660046109ea565b610462565b6100fe6101bb366004610bc8565b610470565b6060603680546101cf90610bfb565b80601f01602080910402602001604051908101604052809291908181526020018280546101fb90610bfb565b80156102485780601f1061021d57610100808354040283529160200191610248565b820191906000526020600020905b81548152906001019060200180831161022b57829003601f168201915b5050505050905090565b60003361026081858561049b565b60019150505b92915050565b60003361027a8582856105bf565b610285858585610639565b506001949350505050565b6000336102608185856102a38383610470565b6102ad9190610c35565b61049b565b6060603780546101cf90610bfb565b600054610100900460ff16158080156102e15750600054600160ff909116105b806102fb5750303b1580156102fb575060005460ff166001145b6103635760405162461bcd60e51b815260206004820152602e60248201527f496e697469616c697a61626c653a20636f6e747261637420697320616c72656160448201526d191e481a5b9a5d1a585b1a5e995960921b60648201526084015b60405180910390fd5b6000805460ff191660011790558015610386576000805461ff0019166101001790555b61039689898989898989896107e4565b80156103dc576000805461ff0019169055604051600181527f7f26b83ff96e1f2b6a682f133852f6798a09c465da95921460cefb38474024989060200160405180910390a15b505050505050505050565b600033816103f58286610470565b9050838110156104555760405162461bcd60e51b815260206004820152602560248201527f45524332303a2064656372656173656420616c6c6f77616e63652062656c6f77604482015264207a65726f60d81b606482015260840161035a565b610285828686840361049b565b600033610260818585610639565b6001600160a01b03918216600090815260346020908152604080832093909416825291909152205490565b6001600160a01b0383166104fd5760405162461bcd60e51b8152602060048201526024808201527f45524332303a20617070726f76652066726f6d20746865207a65726f206164646044820152637265737360e01b606482015260840161035a565b6001600160a01b03821661055e5760405162461bcd60e51b815260206004820152602260248201527f45524332303a20617070726f766520746f20746865207a65726f206164647265604482015261737360f01b606482015260840161035a565b6001600160a01b0383811660008181526034602090815260408083209487168084529482529182902085905590518481527f8c5be1e5ebec7d5bd14f71427d1e84f3dd0314c0f7b2291e5b200ac8c7c3b925910160405180910390a3505050565b60006105cb8484610470565b9050600019811461063357818110156106265760405162461bcd60e51b815260206004820152601d60248201527f45524332303a20696e73756666696369656e7420616c6c6f77616e6365000000604482015260640161035a565b610633848484840361049b565b50505050565b6001600160a01b03831661069d5760405162461bcd60e51b815260206004820152602560248201527f45524332303a207472616e736665722066726f6d20746865207a65726f206164604482015264647265737360d81b606482015260840161035a565b6001600160a01b0382166106ff5760405162461bcd60e51b815260206004820152602360248201527f45524332303a207472616e7366657220746f20746865207a65726f206164647260448201526265737360e81b606482015260840161035a565b6001600160a01b038316600090815260336020526040902054818110156107775760405162461bcd60e51b815260206004820152602660248201527f45524332303a207472616e7366657220616d6f756e7420657863656564732062604482015265616c616e636560d01b606482015260840161035a565b6001600160a01b0380851660008181526033602052604080822086860390559286168082529083902080548601905591517fddf252ad1be2c89b69c2b068fc378daa952ba7f163c4a11628f55a4df523b3ef906107d79086815260200190565b60405180910390a3610633565b600054610100900460ff1661080b5760405162461bcd60e51b815260040161035a90610c56565b6108158888610832565b610823868686868686610872565b5050505050505050565b505050565b600054610100900460ff166108595760405162461bcd60e51b815260040161035a90610c56565b60366108658382610ce7565b50603761082d8282610ce7565b600054610100900460ff166108995760405162461bcd60e51b815260040161035a90610c56565b6108a386866108bf565b6108ad84846108bf565b6108b782826108bf565b505050505050565b6001600160a01b0382166109155760405162461bcd60e51b815260206004820152601f60248201527f45524332303a206d696e7420746f20746865207a65726f206164647265737300604482015260640161035a565b80603560008282546109279190610c35565b90915550506001600160a01b0382166000818152603360209081526040808320805486019055518481527fddf252ad1be2c89b69c2b068fc378daa952ba7f163c4a11628f55a4df523b3ef910160405180910390a35050565b600060208083528351808285015260005b818110156109ad57858101830151858201604001528201610991565b506000604082860101526040601f19601f8301168501019250505092915050565b80356001600160a01b03811681146109e557600080fd5b919050565b600080604083850312156109fd57600080fd5b610a06836109ce565b946020939093013593505050565b600080600060608486031215610a2957600080fd5b610a32846109ce565b9250610a40602085016109ce565b9150604084013590509250925092565b600060208284031215610a6257600080fd5b610a6b826109ce565b9392505050565b634e487b7160e01b600052604160045260246000fd5b600082601f830112610a9957600080fd5b813567ffffffffffffffff80821115610ab457610ab4610a72565b604051601f8301601f19908116603f01168101908282118183101715610adc57610adc610a72565b81604052838152866020858801011115610af557600080fd5b836020870160208301376000602085830101528094505050505092915050565b600080600080600080600080610100898b031215610b3257600080fd5b883567ffffffffffffffff80821115610b4a57600080fd5b610b568c838d01610a88565b995060208b0135915080821115610b6c57600080fd5b50610b798b828c01610a88565b975050610b8860408a016109ce565b955060608901359450610b9d60808a016109ce565b935060a08901359250610bb260c08a016109ce565b915060e089013590509295985092959890939650565b60008060408385031215610bdb57600080fd5b610be4836109ce565b9150610bf2602084016109ce565b90509250929050565b600181811c90821680610c0f57607f821691505b602082108103610c2f57634e487b7160e01b600052602260045260246000fd5b50919050565b8082018082111561026657634e487b7160e01b600052601160045260246000fd5b6020808252602b908201527f496e697469616c697a61626c653a20636f6e7472616374206973206e6f74206960408201526a6e697469616c697a696e6760a81b606082015260800190565b601f82111561082d57600081815260208120601f850160051c81016020861015610cc85750805b601f850160051c820191505b818110156108b757828155600101610cd4565b815167ffffffffffffffff811115610d0157610d01610a72565b610d1581610d0f8454610bfb565b84610ca1565b602080601f831160018114610d4a5760008415610d325750858301515b600019600386901b1c1916600185901b1785556108b7565b600085815260208120601f198616915b82811015610d7957888601518255948401946001909101908401610d5a565b5085821015610d975787850151600019600388901b60f8161c191681555b5050505050600190811b0190555056fea2646970667358221220adecc981f9a06c521af1817f233c7a66a8db41805e5342eceabb46be10491c3a64736f6c63430008110033",
  "linkReferences": {},
  "deployedLinkReferences": {}
}