{
  "address": "0x9155497EAE31D432C0b13dBCc0615a37f55a2c87",
  "abi": [
    {
      "inputs": [
        {
          "internalType": "address",
          "name": "_fansSocietyAddress",
          "type": "address"
        },
        {
          "internalType": "address",
          "name": "_wethTokenAddress",
          "type": "address"
        },
        {
          "internalType": "address",
          "name": "_tokenFactoryAddress",
          "type": "address"
        },
        {
          "internalType": "address",
          "name": "_poolFactoryAddress",
          "type": "address"
        }
      ],
      "stateMutability": "nonpayable",
      "type": "constructor"
    },
    {
      "anonymous": false,
      "inputs": [
        {
          "indexed": true,
          "internalType": "uint256",
          "name": "id",
          "type": "uint256"
        },
        {
          "indexed": true,
          "internalType": "address",
          "name": "caller",
          "type": "address"
        },
        {
          "indexed": false,
          "internalType": "uint256",
          "name": "amount",
          "type": "uint256"
        }
      ],
      "name": "Committed",
      "type": "event"
    },
    {
      "anonymous": false,
      "inputs": [
        {
          "indexed": true,
          "internalType": "address",
          "name": "previousOwner",
          "type": "address"
        },
        {
          "indexed": true,
          "internalType": "address",
          "name": "newOwner",
          "type": "address"
        }
      ],
      "name": "OwnershipTransferred",
      "type": "event"
    },
    {
      "anonymous": false,
      "inputs": [
        {
          "indexed": false,
          "internalType": "uint256",
          "name": "id",
          "type": "uint256"
        },
        {
          "components": [
            {
              "internalType": "string",
              "name": "name",
              "type": "string"
            },
            {
              "internalType": "string",
              "name": "symbol",
              "type": "string"
            },
            {
              "internalType": "string",
              "name": "description",
              "type": "string"
            },
            {
              "internalType": "string",
              "name": "avatarCid",
              "type": "string"
            },
            {
              "internalType": "string",
              "name": "coverCid",
              "type": "string"
            }
          ],
          "indexed": false,
          "internalType": "struct Projects.ProjectInfo",
          "name": "info",
          "type": "tuple"
        },
        {
          "components": [
            {
              "internalType": "uint256",
              "name": "target",
              "type": "uint256"
            },
            {
              "internalType": "uint256",
              "name": "minInvest",
              "type": "uint256"
            },
            {
              "internalType": "uint256",
              "name": "maxInvest",
              "type": "uint256"
            }
          ],
          "indexed": false,
          "internalType": "struct Projects.ProjectICO",
          "name": "ico",
          "type": "tuple"
        },
        {
          "indexed": true,
          "internalType": "address",
          "name": "partnerAddress",
          "type": "address"
        },
        {
          "indexed": false,
          "internalType": "uint112",
          "name": "totalSupply",
          "type": "uint112"
        }
      ],
      "name": "ProjectCreated",
      "type": "event"
    },
    {
      "anonymous": false,
      "inputs": [
        {
          "indexed": true,
          "internalType": "uint256",
          "name": "id",
          "type": "uint256"
        },
        {
          "indexed": false,
          "internalType": "enum Projects.ProjectStatus",
          "name": "status",
          "type": "uint8"
        }
      ],
      "name": "ProjectStatusChanged",
      "type": "event"
    },
    {
      "anonymous": false,
      "inputs": [
        {
          "indexed": true,
          "internalType": "address",
          "name": "caller",
          "type": "address"
        },
        {
          "indexed": false,
          "internalType": "address",
          "name": "tokenIn",
          "type": "address"
        },
        {
          "indexed": false,
          "internalType": "uint256",
          "name": "amountIn",
          "type": "uint256"
        },
        {
          "indexed": false,
          "internalType": "address",
          "name": "tokenOut",
          "type": "address"
        },
        {
          "indexed": false,
          "internalType": "uint256",
          "name": "amountOut",
          "type": "uint256"
        }
      ],
      "name": "Swapped",
      "type": "event"
    },
    {
      "anonymous": false,
      "inputs": [
        {
          "indexed": true,
          "internalType": "uint256",
          "name": "projectId",
          "type": "uint256"
        },
        {
          "indexed": true,
          "internalType": "address",
          "name": "token",
          "type": "address"
        },
        {
          "indexed": true,
          "internalType": "address",
          "name": "caller",
          "type": "address"
        },
        {
          "indexed": false,
          "internalType": "uint256",
          "name": "amount",
          "type": "uint256"
        }
      ],
      "name": "TokensClaimed",
      "type": "event"
    },
    {
      "anonymous": false,
      "inputs": [
        {
          "indexed": true,
          "internalType": "uint256",
          "name": "id",
          "type": "uint256"
        },
        {
          "indexed": true,
          "internalType": "address",
          "name": "caller",
          "type": "address"
        },
        {
          "indexed": false,
          "internalType": "uint256",
          "name": "amount",
          "type": "uint256"
        }
      ],
      "name": "Withdrawed",
      "type": "event"
    },
    {
      "inputs": [
        {
          "internalType": "uint256",
          "name": "_id",
          "type": "uint256"
        }
      ],
      "name": "abortProject",
      "outputs": [],
      "stateMutability": "nonpayable",
      "type": "function"
    },
    {
      "inputs": [
        {
          "internalType": "address",
          "name": "_tokenX",
          "type": "address"
        },
        {
          "internalType": "address",
          "name": "_tokenY",
          "type": "address"
        },
        {
          "internalType": "uint256",
          "name": "_amountX",
          "type": "uint256"
        },
        {
          "internalType": "uint256",
          "name": "_amountY",
          "type": "uint256"
        }
      ],
      "name": "addPoolLiquidity",
      "outputs": [],
      "stateMutability": "payable",
      "type": "function"
    },
    {
      "inputs": [
        {
          "internalType": "uint256",
          "name": "_projectId",
          "type": "uint256"
        }
      ],
      "name": "claimProjectTokens",
      "outputs": [],
      "stateMutability": "nonpayable",
      "type": "function"
    },
    {
      "inputs": [
        {
          "internalType": "uint256",
          "name": "_id",
          "type": "uint256"
        }
      ],
      "name": "commitOnProject",
      "outputs": [],
      "stateMutability": "payable",
      "type": "function"
    },
    {
      "inputs": [
        {
          "internalType": "uint256",
          "name": "",
          "type": "uint256"
        },
        {
          "internalType": "address",
          "name": "",
          "type": "address"
        }
      ],
      "name": "commitments",
      "outputs": [
        {
          "internalType": "uint256",
          "name": "",
          "type": "uint256"
        }
      ],
      "stateMutability": "view",
      "type": "function"
    },
    {
      "inputs": [],
      "name": "count",
      "outputs": [
        {
          "internalType": "uint256",
          "name": "",
          "type": "uint256"
        }
      ],
      "stateMutability": "view",
      "type": "function"
    },
    {
      "inputs": [
        {
          "components": [
            {
              "internalType": "string",
              "name": "name",
              "type": "string"
            },
            {
              "internalType": "string",
              "name": "symbol",
              "type": "string"
            },
            {
              "internalType": "string",
              "name": "description",
              "type": "string"
            },
            {
              "internalType": "string",
              "name": "avatarCid",
              "type": "string"
            },
            {
              "internalType": "string",
              "name": "coverCid",
              "type": "string"
            }
          ],
          "internalType": "struct Projects.ProjectInfo",
          "name": "_info",
          "type": "tuple"
        },
        {
          "components": [
            {
              "internalType": "uint256",
              "name": "target",
              "type": "uint256"
            },
            {
              "internalType": "uint256",
              "name": "minInvest",
              "type": "uint256"
            },
            {
              "internalType": "uint256",
              "name": "maxInvest",
              "type": "uint256"
            }
          ],
          "internalType": "struct Projects.ProjectICO",
          "name": "_ico",
          "type": "tuple"
        },
        {
          "internalType": "address",
          "name": "_partnerAddress",
          "type": "address"
        },
        {
          "internalType": "uint112",
          "name": "_totalSupply",
          "type": "uint112"
        }
      ],
      "name": "createProject",
      "outputs": [],
      "stateMutability": "nonpayable",
      "type": "function"
    },
    {
      "inputs": [
        {
          "internalType": "uint256",
          "name": "_id",
          "type": "uint256"
        }
      ],
      "name": "launchProject",
      "outputs": [],
      "stateMutability": "nonpayable",
      "type": "function"
    },
    {
      "inputs": [],
      "name": "owner",
      "outputs": [
        {
          "internalType": "address",
          "name": "",
          "type": "address"
        }
      ],
      "stateMutability": "view",
      "type": "function"
    },
    {
      "inputs": [
        {
          "internalType": "uint256",
          "name": "",
          "type": "uint256"
        }
      ],
      "name": "projects",
      "outputs": [
        {
          "internalType": "uint256",
          "name": "id",
          "type": "uint256"
        },
        {
          "internalType": "uint256",
          "name": "fund",
          "type": "uint256"
        },
        {
          "internalType": "uint112",
          "name": "totalSupply",
          "type": "uint112"
        },
        {
          "components": [
            {
              "internalType": "string",
              "name": "name",
              "type": "string"
            },
            {
              "internalType": "string",
              "name": "symbol",
              "type": "string"
            },
            {
              "internalType": "string",
              "name": "description",
              "type": "string"
            },
            {
              "internalType": "string",
              "name": "avatarCid",
              "type": "string"
            },
            {
              "internalType": "string",
              "name": "coverCid",
              "type": "string"
            }
          ],
          "internalType": "struct Projects.ProjectInfo",
          "name": "info",
          "type": "tuple"
        },
        {
          "components": [
            {
              "internalType": "uint256",
              "name": "target",
              "type": "uint256"
            },
            {
              "internalType": "uint256",
              "name": "minInvest",
              "type": "uint256"
            },
            {
              "internalType": "uint256",
              "name": "maxInvest",
              "type": "uint256"
            }
          ],
          "internalType": "struct Projects.ProjectICO",
          "name": "ico",
          "type": "tuple"
        },
        {
          "internalType": "enum Projects.ProjectStatus",
          "name": "status",
          "type": "uint8"
        },
        {
          "internalType": "address",
          "name": "partnerAddress",
          "type": "address"
        },
        {
          "internalType": "address",
          "name": "tokenAddress",
          "type": "address"
        }
      ],
      "stateMutability": "view",
      "type": "function"
    },
    {
      "inputs": [
        {
          "internalType": "address",
          "name": "_tokenX",
          "type": "address"
        },
        {
          "internalType": "address",
          "name": "_tokenY",
          "type": "address"
        },
        {
          "internalType": "uint256",
          "name": "_amountLP",
          "type": "uint256"
        }
      ],
      "name": "removePoolLiquidity",
      "outputs": [
        {
          "internalType": "uint256",
          "name": "amountX",
          "type": "uint256"
        },
        {
          "internalType": "uint256",
          "name": "amountY",
          "type": "uint256"
        }
      ],
      "stateMutability": "nonpayable",
      "type": "function"
    },
    {
      "inputs": [],
      "name": "renounceOwnership",
      "outputs": [],
      "stateMutability": "nonpayable",
      "type": "function"
    },
    {
      "inputs": [
        {
          "internalType": "address",
          "name": "_pool",
          "type": "address"
        },
        {
          "internalType": "address",
          "name": "_tokenIn",
          "type": "address"
        },
        {
          "internalType": "uint256",
          "name": "_amountOut",
          "type": "uint256"
        }
      ],
      "name": "swap",
      "outputs": [],
      "stateMutability": "payable",
      "type": "function"
    },
    {
      "inputs": [
        {
          "internalType": "address",
          "name": "newOwner",
          "type": "address"
        }
      ],
      "name": "transferOwnership",
      "outputs": [],
      "stateMutability": "nonpayable",
      "type": "function"
    },
    {
      "inputs": [
        {
          "internalType": "uint256",
          "name": "_id",
          "type": "uint256"
        }
      ],
      "name": "withdrawOnProject",
      "outputs": [],
      "stateMutability": "nonpayable",
      "type": "function"
    },
    {
      "stateMutability": "payable",
      "type": "receive"
    }
  ],
  "transactionHash": "0x5592c054fbeacbb83881dc09fa485fe7c5349ede1baeedf9e94ad7ae8e7274aa",
  "args": [
    "0x3827b4a96Ce521f8E408c124D7DbE2B6c1F78E1F",
    "0x245e77E56b1514D77910c9303e4b44dDb44B788c",
    "0xC6c5Ab5039373b0CBa7d0116d9ba7fb9831C3f42",
    "0x46d4674578a2daBbD0CEAB0500c6c7867999db34"
  ],
  "numDeployments": 1,
  "solcInputHash": "1c84f53f37ebf676f6753255c6449982",
  "bytecode": "0x60806040523480156200001157600080fd5b506040516200397d3803806200397d833981016040819052620000349162000100565b6200003f3362000093565b600480546001600160a01b039586166001600160a01b03199182161790915560058054948616948216949094179093556006805492851692841692909217909155600780549190931691161790556200015d565b600080546001600160a01b038381166001600160a01b0319831681178455604051919092169283917f8be0079c531659141344cd1fd0a4f28419497f9722a3daafe3b4186f6b6457e09190a35050565b80516001600160a01b0381168114620000fb57600080fd5b919050565b600080600080608085870312156200011757600080fd5b6200012285620000e3565b93506200013260208601620000e3565b92506200014260408601620000e3565b91506200015260608601620000e3565b905092959194509250565b613810806200016d6000396000f3fe6080604052600436106100ec5760003560e01c8063715018a61161008a578063df791e5011610059578063df791e50146102cc578063e90d4c06146102df578063f1244ad814610317578063f2fde38b1461033757600080fd5b8063715018a61461024f5780638da5cb5b14610264578063a3bfb7bd1461028c578063db304235146102ac57600080fd5b806320fb54b7116100c657806320fb54b7146101c757806341414f1a146101da57806344a9ae8c1461020f57806360ae7c3b1461022f57600080fd5b806306661abd14610157578063107046bd1461018057806316509ee2146101b457600080fd5b36610152576005546001600160a01b031633146101505760405162461bcd60e51b815260206004820152601f60248201527f6f6e6c7920726563656976652066726f6d207765746820636f6e74726163740060448201526064015b60405180910390fd5b005b600080fd5b34801561016357600080fd5b5061016d60015481565b6040519081526020015b60405180910390f35b34801561018c57600080fd5b506101a061019b366004612ce2565b610357565b604051610177989796959493929190612d79565b6101506101c2366004612ce2565b6106ba565b6101506101d5366004612ea2565b6108ad565b3480156101e657600080fd5b506101fa6101f5366004612ee8565b610e68565b60408051928352602083019190915201610177565b34801561021b57600080fd5b5061015061022a366004612ce2565b6110c9565b34801561023b57600080fd5b5061015061024a366004612ce2565b611284565b34801561025b57600080fd5b506101506117eb565b34801561027057600080fd5b506000546040516001600160a01b039091168152602001610177565b34801561029857600080fd5b506101506102a7366004612ce2565b6117ff565b3480156102b857600080fd5b506101506102c7366004612f29565b6118ae565b6101506102da366004612ee8565b611ab9565b3480156102eb57600080fd5b5061016d6102fa366004612fb9565b600360209081526000928352604080842090915290825290205481565b34801561032357600080fd5b50610150610332366004612ce2565b612094565b34801561034357600080fd5b50610150610352366004612fe9565b612a47565b6002602081905260009182526040918290208054600182015492820154845160a0810190955260038301805492956001600160701b0390921693928290829061039f9061300d565b80601f01602080910402602001604051908101604052809291908181526020018280546103cb9061300d565b80156104185780601f106103ed57610100808354040283529160200191610418565b820191906000526020600020905b8154815290600101906020018083116103fb57829003601f168201915b505050505081526020016001820180546104319061300d565b80601f016020809104026020016040519081016040528092919081815260200182805461045d9061300d565b80156104aa5780601f1061047f576101008083540402835291602001916104aa565b820191906000526020600020905b81548152906001019060200180831161048d57829003601f168201915b505050505081526020016002820180546104c39061300d565b80601f01602080910402602001604051908101604052809291908181526020018280546104ef9061300d565b801561053c5780601f106105115761010080835404028352916020019161053c565b820191906000526020600020905b81548152906001019060200180831161051f57829003601f168201915b505050505081526020016003820180546105559061300d565b80601f01602080910402602001604051908101604052809291908181526020018280546105819061300d565b80156105ce5780601f106105a3576101008083540402835291602001916105ce565b820191906000526020600020905b8154815290600101906020018083116105b157829003601f168201915b505050505081526020016004820180546105e79061300d565b80601f01602080910402602001604051908101604052809291908181526020018280546106139061300d565b80156106605780601f1061063557610100808354040283529160200191610660565b820191906000526020600020905b81548152906001019060200180831161064357829003601f168201915b505050919092525050604080516060810182526008850154815260098501546020820152600a85015491810191909152600b840154600c909401549293909260ff821692506001600160a01b036101009092048216911688565b806000806000838152600260205260409020600b015460ff1660038111156106e4576106e4612d41565b146107015760405162461bcd60e51b815260040161014790613047565b60008381526002602090815260408083206009810154600384528285203386529093529220546107319034613089565b101561076c5760405162461bcd60e51b815260206004820152600a60248201526909cdee840cadcdeeaced60b31b6044820152606401610147565b600a81015460008581526003602090815260408083203384529091529020546107959034613089565b11156107ce5760405162461bcd60e51b81526020600482015260086024820152670a8dede40daeac6d60c31b6044820152606401610147565b348160010160008282546107e29190613089565b9091555050600084815260036020908152604080832033845290915281208054349290610810908490613089565b9091555050604051348152339085907f245cbccbc6875e4b0475a653568fd4f7c2dae5fb8929e33c0d66dc530ba11b009060200160405180910390a360088101546001820154106108a757600b8101805460ff1916600290811790915560405185917f35872be4c2085eaf9ca9a10d056eefec79968f825846792411ede75f331e93929161089e91906130a2565b60405180910390a25b50505050565b60075460405163298d501f60e11b81526001600160a01b0386811660048301528581166024830152600092169063531aa03e90604401602060405180830381865afa158015610900573d6000803e3d6000fd5b505050506040513d601f19601f8201168201806040525081019061092491906130b0565b604051630fa6707960e21b81526001600160a01b038781166004830152919250600091829190841690633e99c1e490602401608060405180830381865afa158015610973573d6000803e3d6000fd5b505050506040513d601f19601f8201168201806040525081019061099791906130cd565b60055491955093506001600160a01b03908116908a16039150610b5a905057841580156109c45750600084115b80156109d05750600034115b6109ec5760405162461bcd60e51b815260040161014790613115565b600560009054906101000a90046001600160a01b03166001600160a01b031663d0e30db0346040518263ffffffff1660e01b81526004016000604051808303818588803b158015610a3c57600080fd5b505af1158015610a50573d6000803e3d6000fd5b505060055460405163a9059cbb60e01b81526001600160a01b038881166004830152346024830152909116935063a9059cbb925060440190506020604051808303816000875af1158015610aa8573d6000803e3d6000fd5b505050506040513d601f19601f82011682018060405250810190610acc9190613143565b610ad857610ad8613165565b600082610ae5833461317b565b610aef91906131a8565b604051632142170760e11b81529091506001600160a01b038816906342842e0e90610b22903390889086906004016131bc565b600060405180830381600087803b158015610b3c57600080fd5b505af1158015610b50573d6000803e3d6000fd5b5050505050610df4565b6005546001600160a01b0390811690871603610cdc5783158015610b7e5750600085115b8015610b8a5750600034115b610ba65760405162461bcd60e51b815260040161014790613115565b600560009054906101000a90046001600160a01b03166001600160a01b031663d0e30db0346040518263ffffffff1660e01b81526004016000604051808303818588803b158015610bf657600080fd5b505af1158015610c0a573d6000803e3d6000fd5b505060055460405163a9059cbb60e01b81526001600160a01b038881166004830152346024830152909116935063a9059cbb925060440190506020604051808303816000875af1158015610c62573d6000803e3d6000fd5b505050506040513d601f19601f82011682018060405250810190610c869190613143565b610c9257610c92613165565b600081610c9f843461317b565b610ca991906131a8565b604051632142170760e11b81529091506001600160a01b038916906342842e0e90610b22903390889086906004016131bc565b34158015610cea5750600085115b8015610cf65750600084115b610d125760405162461bcd60e51b815260040161014790613115565b604051632142170760e11b81526001600160a01b038816906342842e0e90610d4290339087908a906004016131bc565b600060405180830381600087803b158015610d5c57600080fd5b505af1158015610d70573d6000803e3d6000fd5b505050506000828234610d83919061317b565b610d8d91906131a8565b604051632142170760e11b81529091506001600160a01b038816906342842e0e90610dc0903390889086906004016131bc565b600060405180830381600087803b158015610dda57600080fd5b505af1158015610dee573d6000803e3d6000fd5b50505050505b604051638f01e2df60e01b81523360048201526001600160a01b03841690638f01e2df906024016020604051808303816000875af1158015610e3a573d6000803e3d6000fd5b505050506040513d601f19601f82011682018060405250810190610e5e91906131e0565b5050505050505050565b60075460405163298d501f60e11b81526001600160a01b0385811660048301528481166024830152600092839283929091169063531aa03e90604401602060405180830381865afa158015610ec1573d6000803e3d6000fd5b505050506040513d601f19601f82011682018060405250810190610ee591906130b0565b604051630fa6707960e21b81526001600160a01b038881166004830152919250600091829190841690633e99c1e490602401608060405180830381865afa158015610f34573d6000803e3d6000fd5b505050506040513d601f19601f82011682018060405250810190610f5891906130cd565b935093505050600082118015610f6e5750600081115b610fb15760405162461bcd60e51b81526020600482015260146024820152736e6f7420656e6f756768206c697175696469747960601b6044820152606401610147565b604051632142170760e11b81526001600160a01b038416906342842e0e90610fe190339087908b906004016131bc565b600060405180830381600087803b158015610ffb57600080fd5b505af115801561100f573d6000803e3d6000fd5b505060405163a4dd03d760e01b8152336004820152600092508291506001600160a01b0386169063a4dd03d79060240160408051808303816000875af115801561105d573d6000803e3d6000fd5b505050506040513d601f19601f8201168201806040525081019061108191906131f9565b9150915060006110918b8b612ac0565b509050806001600160a01b03168b6001600160a01b0316036110b45782826110b7565b81835b909c909b509950505050505050505050565b806002806000838152600260205260409020600b015460ff1660038111156110f3576110f3612d41565b106111105760405162461bcd60e51b815260040161014790613047565b600083815260036020908152604080832033845290915290205483906111685760405162461bcd60e51b815260206004820152600d60248201526c139bc818dbdb5b5a5d1b595b9d609a1b6044820152606401610147565b6000848152600360209081526040808320338452825280832054878452600290925282206001018054919283926111a090849061321d565b909155505060008581526003602090815260408083203380855292528083208390555183908381818185875af1925050503d80600081146111fd576040519150601f19603f3d011682016040523d82523d6000602084013e611202565b606091505b50509050806112455760405162461bcd60e51b815260206004820152600f60248201526e1dda5d1a191c985dc819985a5b1959608a1b6044820152606401610147565b604051828152339087907f7fd902d6e186354d1617b957fc4cb4a144f44a19cc5c4525cfb772d707c405c29060200160405180910390a3505050505050565b806003806000838152600260205260409020600b015460ff1660038111156112ae576112ae612d41565b146112cb5760405162461bcd60e51b815260040161014790613047565b600083815260036020908152604080832033845290915290205483906113235760405162461bcd60e51b815260206004820152600d60248201526c139bc818dbdb5b5a5d1b595b9d609a1b6044820152606401610147565b600084815260026020818152604080842081516101008101835281548152600182015493810193909352928301546001600160701b031682820152805160a0810190915260038301805492939260608501929190829082906113849061300d565b80601f01602080910402602001604051908101604052809291908181526020018280546113b09061300d565b80156113fd5780601f106113d2576101008083540402835291602001916113fd565b820191906000526020600020905b8154815290600101906020018083116113e057829003601f168201915b505050505081526020016001820180546114169061300d565b80601f01602080910402602001604051908101604052809291908181526020018280546114429061300d565b801561148f5780601f106114645761010080835404028352916020019161148f565b820191906000526020600020905b81548152906001019060200180831161147257829003601f168201915b505050505081526020016002820180546114a89061300d565b80601f01602080910402602001604051908101604052809291908181526020018280546114d49061300d565b80156115215780601f106114f657610100808354040283529160200191611521565b820191906000526020600020905b81548152906001019060200180831161150457829003601f168201915b5050505050815260200160038201805461153a9061300d565b80601f01602080910402602001604051908101604052809291908181526020018280546115669061300d565b80156115b35780601f10611588576101008083540402835291602001916115b3565b820191906000526020600020905b81548152906001019060200180831161159657829003601f168201915b505050505081526020016004820180546115cc9061300d565b80601f01602080910402602001604051908101604052809291908181526020018280546115f89061300d565b80156116455780601f1061161a57610100808354040283529160200191611645565b820191906000526020600020905b81548152906001019060200180831161162857829003601f168201915b50505091909252505050815260408051606081018252600884015481526009840154602082810191909152600a85015482840152830152600b83015491019060ff16600381111561169857611698612d41565b60038111156116a9576116a9612d41565b8152600b8201546001600160a01b036101009091048116602080840191909152600c90930154166040918201526000888152600383528181203382529092528082205490830151929350916116fd90612b86565b50509150506000836020015183836001600160701b031661171e919061317b565b61172891906131a8565b60e0850151604051635569f64b60e11b8152336004820152602481018390529192506001600160a01b03169063aad3ec9690604401600060405180830381600087803b15801561177757600080fd5b505af115801561178b573d6000803e3d6000fd5b50505050336001600160a01b03168460e001516001600160a01b0316897f9c4945d842cc8c6704877a0defcd9ab09f6d77b24a369a95c2610506c6c38ee7846040516117d991815260200190565b60405180910390a45050505050505050565b6117f3612bfb565b6117fd6000612c55565b565b611807612bfb565b806000806000838152600260205260409020600b015460ff16600381111561183157611831612d41565b1461184e5760405162461bcd60e51b815260040161014790613047565b6000838152600260205260409020600b0180546001919060ff191682800217905550827f35872be4c2085eaf9ca9a10d056eefec79968f825846792411ede75f331e939260016040516118a191906130a2565b60405180910390a2505050565b6118b6612bfb565b600180549060006118c683613230565b9190505550604051806101000160405280600154815260200160008152602001826001600160701b03168152602001856118ff90613315565b8152602001611913368690038601866133f1565b8152602001600081526001600160a01b038416602080830191909152600060409283018190526001805482526002808452918490208551815592850151908301559183015191810180546dffffffffffffffffffffffffffff19166001600160701b03909316929092179091556060820151805160038301908190611998908261349c565b50602082015160018201906119ad908261349c565b50604082015160028201906119c2908261349c565b50606082015160038201906119d7908261349c565b50608082015160048201906119ec908261349c565b5050506080820151805160088301556020810151600983015560400151600a82015560a0820151600b8201805460ff19166001836003811115611a3157611a31612d41565b021790555060c0820151600b82018054610100600160a81b0319166101006001600160a01b039384160217905560e090920151600c90910180546001600160a01b031916918316919091179055600154604051918416917fd9ecdd15e0d6416fef28e79a5e33b10b35c85a8ddeeee598f5b9afd9304a7acb9161089e918890889087906135cb565b604051630fa6707960e21b81526001600160a01b038381166004830152600091829182918291881690633e99c1e490602401608060405180830381865afa158015611b08573d6000803e3d6000fd5b505050506040513d601f19601f82011682018060405250810190611b2c91906130cd565b60055460405163392dc1a760e01b8152600481018b9052602481018490526044810183905294985092965090945092506001600160a01b0390811681871614916000918a169063392dc1a790606401602060405180830381865afa158015611b98573d6000803e3d6000fd5b505050506040513d601f19601f82011682018060405250810190611bbc91906131e0565b90508115611cf75780341015611c055760405162461bcd60e51b815260206004820152600e60248201526d0dcdee840cadcdeeaced040cae8d60931b6044820152606401610147565b600560009054906101000a90046001600160a01b03166001600160a01b031663d0e30db0826040518263ffffffff1660e01b81526004016000604051808303818588803b158015611c5557600080fd5b505af1158015611c69573d6000803e3d6000fd5b505060055460405163a9059cbb60e01b81526001600160a01b038e8116600483015260248201879052909116935063a9059cbb925060440190506020604051808303816000875af1158015611cc2573d6000803e3d6000fd5b505050506040513d601f19601f82011682018060405250810190611ce69190613143565b611cf257611cf2613165565b611d9b565b3415611d385760405162461bcd60e51b815260206004820152601060248201526f0dcdee840caf0e0cac6e8cac840cae8d60831b6044820152606401610147565b604051632142170760e11b81526001600160a01b038716906342842e0e90611d689033908d9086906004016131bc565b600060405180830381600087803b158015611d8257600080fd5b505af1158015611d96573d6000803e3d6000fd5b505050505b60008215611ecc57604051636d069a6760e01b81526001600160a01b038881166004830152602482018490523360448301528b1690636d069a67906064016020604051808303816000875af1158015611df8573d6000803e3d6000fd5b505050506040513d601f19601f82011682018060405250810190611e1c91906131e0565b905081341115611ec757600033611e33843461321d565b604051600081818185875af1925050503d8060008114611e6f576040519150601f19603f3d011682016040523d82523d6000602084013e611e74565b606091505b5050905080611ec55760405162461bcd60e51b815260206004820152601a60248201527f726566756e6420657863656564656420455448206661696c65640000000000006044820152606401610147565b505b612034565b604051636d069a6760e01b81526001600160a01b038881166004830152602482018490523060448301528b1690636d069a67906064016020604051808303816000875af1158015611f21573d6000803e3d6000fd5b505050506040513d601f19601f82011682018060405250810190611f4591906131e0565b600554604051632e1a7d4d60e01b8152600481018390529192506001600160a01b031690632e1a7d4d90602401600060405180830381600087803b158015611f8c57600080fd5b505af1158015611fa0573d6000803e3d6000fd5b50506040516000925033915083908381818185875af1925050503d8060008114611fe6576040519150601f19603f3d011682016040523d82523d6000602084013e611feb565b606091505b50509050806120325760405162461bcd60e51b81526020600482015260136024820152721dda5d1a191c985dc81155120819985a5b1959606a1b6044820152606401610147565b505b604080516001600160a01b0389811682526020820185905288168183015260608101839052905133917f692315744755ee6d80decaeb993d4b1bb95ff5db042cc47b32d5a7d858b01902919081900360800190a250505050505050505050565b806002806000838152600260205260409020600b015460ff1660038111156120be576120be612d41565b146120db5760405162461bcd60e51b815260040161014790613047565b6000838152600260205260409020600b0154839061010090046001600160a01b031633146121395760405162461bcd60e51b815260206004820152600b60248201526a2737ba103830b93a3732b960a91b6044820152606401610147565b600084815260026020818152604080842081516101008101835281548152600182015493810193909352928301546001600160701b031682820152805160a08101909152600383018054929392606085019291908290829061219a9061300d565b80601f01602080910402602001604051908101604052809291908181526020018280546121c69061300d565b80156122135780601f106121e857610100808354040283529160200191612213565b820191906000526020600020905b8154815290600101906020018083116121f657829003601f168201915b5050505050815260200160018201805461222c9061300d565b80601f01602080910402602001604051908101604052809291908181526020018280546122589061300d565b80156122a55780601f1061227a576101008083540402835291602001916122a5565b820191906000526020600020905b81548152906001019060200180831161228857829003601f168201915b505050505081526020016002820180546122be9061300d565b80601f01602080910402602001604051908101604052809291908181526020018280546122ea9061300d565b80156123375780601f1061230c57610100808354040283529160200191612337565b820191906000526020600020905b81548152906001019060200180831161231a57829003601f168201915b505050505081526020016003820180546123509061300d565b80601f016020809104026020016040519081016040528092919081815260200182805461237c9061300d565b80156123c95780601f1061239e576101008083540402835291602001916123c9565b820191906000526020600020905b8154815290600101906020018083116123ac57829003601f168201915b505050505081526020016004820180546123e29061300d565b80601f016020809104026020016040519081016040528092919081815260200182805461240e9061300d565b801561245b5780601f106124305761010080835404028352916020019161245b565b820191906000526020600020905b81548152906001019060200180831161243e57829003601f168201915b50505091909252505050815260408051606081018252600884015481526009840154602082810191909152600a85015482840152830152600b83015491019060ff1660038111156124ae576124ae612d41565b60038111156124bf576124bf612d41565b8152600b8201546001600160a01b0361010090910481166020830152600c909201549091166040918201528101519091506000908190819061250090612b86565b935093505092506000806125178660200151612ca5565b6006546060890151805160209091015160408b01519496509294506001600160a01b039091169263f39f8242928e92913090896125548c8e6136d9565b61255e91906136d9565b6040518763ffffffff1660e01b815260040161257f96959493929190613700565b6020604051808303816000875af115801561259e573d6000803e3d6000fd5b505050506040513d601f19601f820116820180604052508101906125c291906130b0565b60008b815260026020526040808220600c0180546001600160a01b0319166001600160a01b0394851690811790915560075460055492516311b5751760e11b8152306004820152602481019290925291841660448201529192169063236aea2e906064016020604051808303816000875af1158015612645573d6000803e3d6000fd5b505050506040513d601f19601f8201168201806040525081019061266991906130b0565b60008c81526002602052604090819020600c810154600b909101549151632142170760e11b81529293506001600160a01b03908116926342842e0e926126bd92309261010090920416908b9060040161375d565b600060405180830381600087803b1580156126d757600080fd5b505af11580156126eb573d6000803e3d6000fd5b50505060008c81526002602052604090819020600c0154600480549251632142170760e11b81526001600160a01b0392831694506342842e0e936127369330939116918a910161375d565b600060405180830381600087803b15801561275057600080fd5b505af1158015612764573d6000803e3d6000fd5b50505060008c81526002602052604090819020600c01549051632142170760e11b81526001600160a01b0390911691506342842e0e906127ac90309085908a9060040161375d565b600060405180830381600087803b1580156127c657600080fd5b505af11580156127da573d6000803e3d6000fd5b50505050600560009054906101000a90046001600160a01b03166001600160a01b031663d0e30db0846040518263ffffffff1660e01b81526004016000604051808303818588803b15801561282e57600080fd5b505af1158015612842573d6000803e3d6000fd5b505060055460405163a9059cbb60e01b81526001600160a01b03868116600483015260248201899052909116935063a9059cbb925060440190506020604051808303816000875af115801561289b573d6000803e3d6000fd5b505050506040513d601f19601f820116820180604052508101906128bf9190613143565b6128cb576128cb613165565b60008760c001516001600160a01b03168360405160006040518083038185875af1925050503d806000811461291c576040519150601f19603f3d011682016040523d82523d6000602084013e612921565b606091505b50509050806129725760405162461bcd60e51b815260206004820152601b60248201527f706172746e657220646973747269627574696f6e206661696c656400000000006044820152606401610147565b604051638f01e2df60e01b81523060048201526001600160a01b03831690638f01e2df906024016020604051808303816000875af11580156129b8573d6000803e3d6000fd5b505050506040513d601f19601f820116820180604052508101906129dc91906131e0565b5060008c8152600260205260409020600b0180546003919060ff191660018302179055508b7f35872be4c2085eaf9ca9a10d056eefec79968f825846792411ede75f331e93926003604051612a3191906130a2565b60405180910390a2505050505050505050505050565b612a4f612bfb565b6001600160a01b038116612ab45760405162461bcd60e51b815260206004820152602660248201527f4f776e61626c653a206e6577206f776e657220697320746865207a65726f206160448201526564647265737360d01b6064820152608401610147565b612abd81612c55565b50565b600080826001600160a01b0316846001600160a01b031603612b115760405162461bcd60e51b815260206004820152600a60248201526939b0b6b2903a37b5b2b760b11b6044820152606401610147565b826001600160a01b0316846001600160a01b031610612b31578284612b34565b83835b90925090506001600160a01b038216612b7f5760405162461bcd60e51b815260206004820152600d60248201526c34b73b30b634b2103a37b5b2b760991b6044820152606401610147565b9250929050565b60008080806103e8612b998660c8613789565b612ba391906137b4565b93506103e8612bb4866101ea613789565b612bbe91906137b4565b92506103e8612bce8660b4613789565b612bd891906137b4565b91506103e8612be8866082613789565b612bf291906137b4565b90509193509193565b6000546001600160a01b031633146117fd5760405162461bcd60e51b815260206004820181905260248201527f4f776e61626c653a2063616c6c6572206973206e6f7420746865206f776e65726044820152606401610147565b600080546001600160a01b038381166001600160a01b0319831681178455604051919092169283917f8be0079c531659141344cd1fd0a4f28419497f9722a3daafe3b4186f6b6457e09190a35050565b6000806103e8612cb684606461317b565b612cc091906131a8565b91506103e8612cd18461038461317b565b612cdb91906131a8565b9050915091565b600060208284031215612cf457600080fd5b5035919050565b6000815180845260005b81811015612d2157602081850181015186830182015201612d05565b506000602082860101526020601f19601f83011685010191505092915050565b634e487b7160e01b600052602160045260246000fd5b60048110612d7557634e487b7160e01b600052602160045260246000fd5b9052565b60006101408a83528960208401526001600160701b0389166040840152806060840152875160a082850152612db26101e0850182612cfb565b915050602088015161013f198085840301610160860152612dd38383612cfb565b925060408a015191508085840301610180860152612df18383612cfb565b925060608a0151915080858403016101a0860152612e0f8383612cfb565b925060808a0151915080858403016101c086015250612e2e8282612cfb565b88516080860152602089015160a0860152604089015160c08601529250612e53915050565b612e6060e0830186612d57565b6001600160a01b0384166101008301526001600160a01b0383166101208301529998505050505050505050565b6001600160a01b0381168114612abd57600080fd5b60008060008060808587031215612eb857600080fd5b8435612ec381612e8d565b93506020850135612ed381612e8d565b93969395505050506040820135916060013590565b600080600060608486031215612efd57600080fd5b8335612f0881612e8d565b92506020840135612f1881612e8d565b929592945050506040919091013590565b60008060008084860360c0811215612f4057600080fd5b853567ffffffffffffffff811115612f5757600080fd5b860160a08189031215612f6957600080fd5b94506060601f1982011215612f7d57600080fd5b506020850192506080850135612f9281612e8d565b915060a08501356001600160701b0381168114612fae57600080fd5b939692955090935050565b60008060408385031215612fcc57600080fd5b823591506020830135612fde81612e8d565b809150509250929050565b600060208284031215612ffb57600080fd5b813561300681612e8d565b9392505050565b600181811c9082168061302157607f821691505b60208210810361304157634e487b7160e01b600052602260045260246000fd5b50919050565b6020808252601290820152714261642070726f6a6563742073746174757360701b604082015260600190565b634e487b7160e01b600052601160045260246000fd5b8082018082111561309c5761309c613073565b92915050565b6020810161309c8284612d57565b6000602082840312156130c257600080fd5b815161300681612e8d565b600080600080608085870312156130e357600080fd5b84516130ee81612e8d565b60208601519094506130ff81612e8d565b6040860151606090960151949790965092505050565b602080825260149082015273696e76616c696420616d6f756e7420737461746560601b604082015260600190565b60006020828403121561315557600080fd5b8151801515811461300657600080fd5b634e487b7160e01b600052600160045260246000fd5b808202811582820484141761309c5761309c613073565b634e487b7160e01b600052601260045260246000fd5b6000826131b7576131b7613192565b500490565b6001600160a01b039384168152919092166020820152604081019190915260600190565b6000602082840312156131f257600080fd5b5051919050565b6000806040838503121561320c57600080fd5b505080516020909101519092909150565b8181038181111561309c5761309c613073565b60006001820161324257613242613073565b5060010190565b634e487b7160e01b600052604160045260246000fd5b60405160a0810167ffffffffffffffff8111828210171561328257613282613249565b60405290565b600082601f83011261329957600080fd5b813567ffffffffffffffff808211156132b4576132b4613249565b604051601f8301601f19908116603f011681019082821181831017156132dc576132dc613249565b816040528381528660208588010111156132f557600080fd5b836020870160208301376000602085830101528094505050505092915050565b600060a0823603121561332757600080fd5b61332f61325f565b823567ffffffffffffffff8082111561334757600080fd5b61335336838701613288565b8352602085013591508082111561336957600080fd5b61337536838701613288565b6020840152604085013591508082111561338e57600080fd5b61339a36838701613288565b604084015260608501359150808211156133b357600080fd5b6133bf36838701613288565b606084015260808501359150808211156133d857600080fd5b506133e536828601613288565b60808301525092915050565b60006060828403121561340357600080fd5b6040516060810181811067ffffffffffffffff8211171561342657613426613249565b80604052508235815260208301356020820152604083013560408201528091505092915050565b601f82111561349757600081815260208120601f850160051c810160208610156134745750805b601f850160051c820191505b8181101561349357828155600101613480565b5050505b505050565b815167ffffffffffffffff8111156134b6576134b6613249565b6134ca816134c4845461300d565b8461344d565b602080601f8311600181146134ff57600084156134e75750858301515b600019600386901b1c1916600185901b178555613493565b600085815260208120601f198616915b8281101561352e5788860151825594840194600190910190840161350f565b508582101561354c5787850151600019600388901b60f8161c191681555b5050505050600190811b01905550565b6000808335601e1984360301811261357357600080fd5b830160208101925035905067ffffffffffffffff81111561359357600080fd5b803603821315612b7f57600080fd5b81835281816020850137506000828201602090810191909152601f909101601f19169091010190565b84815260c0602082015260006135e1858661355c565b60a060c08501526135f7610160850182846135a2565b915050613607602087018761355c565b60bf19808685030160e087015261361f8483856135a2565b935061362e60408a018a61355c565b9350915080868503016101008701526136488484846135a2565b935061365760608a018a61355c565b9350915080868503016101208701526136718484846135a2565b935061368060808a018a61355c565b9350915080868503016101408701525061369b8383836135a2565b93505050506136c160408301858035825260208082013590830152604090810135910152565b6001600160701b03831660a083015295945050505050565b6001600160701b038181168382160190808211156136f9576136f9613073565b5092915050565b86815260c06020820152600061371960c0830188612cfb565b828103604084015261372b8188612cfb565b6001600160a01b0396909616606084015250506001600160701b039283166080820152911660a0909101529392505050565b6001600160a01b0393841681529190921660208201526001600160701b03909116604082015260600190565b6001600160701b038181168382160280821691908281146137ac576137ac613073565b505092915050565b60006001600160701b03808416806137ce576137ce613192565b9216919091049291505056fea2646970667358221220e42d02827301dd76a05ad99968111c29f392ba9e3c372b381b042b339b61184a64736f6c63430008110033",
  "devdoc": {
    "kind": "dev",
    "methods": {
      "owner()": {
        "details": "Returns the address of the current owner."
      },
      "renounceOwnership()": {
        "details": "Leaves the contract without owner. It will not be possible to call `onlyOwner` functions anymore. Can only be called by the current owner. NOTE: Renouncing ownership will leave the contract without an owner, thereby removing any functionality that is only available to the owner."
      },
      "transferOwnership(address)": {
        "details": "Transfers ownership of the contract to a new account (`newOwner`). Can only be called by the current owner."
      }
    },
    "version": 1
  },
  "userdoc": {
    "kind": "user",
    "methods": {},
    "version": 1
  },
  "storageLayout": {
    "storage": [
      {
        "astId": 1598,
        "contract": "contracts/AMM.sol:AMM",
        "label": "_owner",
        "offset": 0,
        "slot": "0",
        "type": "t_address"
      },
      {
        "astId": 4726,
        "contract": "contracts/AMM.sol:AMM",
        "label": "count",
        "offset": 0,
        "slot": "1",
        "type": "t_uint256"
      },
      {
        "astId": 4731,
        "contract": "contracts/AMM.sol:AMM",
        "label": "projects",
        "offset": 0,
        "slot": "2",
        "type": "t_mapping(t_uint256,t_struct(Project)4724_storage)"
      },
      {
        "astId": 4737,
        "contract": "contracts/AMM.sol:AMM",
        "label": "commitments",
        "offset": 0,
        "slot": "3",
        "type": "t_mapping(t_uint256,t_mapping(t_address,t_uint256))"
      },
      {
        "astId": 3774,
        "contract": "contracts/AMM.sol:AMM",
        "label": "fansSociety",
        "offset": 0,
        "slot": "4",
        "type": "t_address"
      },
      {
        "astId": 3776,
        "contract": "contracts/AMM.sol:AMM",
        "label": "weth",
        "offset": 0,
        "slot": "5",
        "type": "t_address"
      },
      {
        "astId": 3778,
        "contract": "contracts/AMM.sol:AMM",
        "label": "tokenFactory",
        "offset": 0,
        "slot": "6",
        "type": "t_address"
      },
      {
        "astId": 3780,
        "contract": "contracts/AMM.sol:AMM",
        "label": "poolFactory",
        "offset": 0,
        "slot": "7",
        "type": "t_address"
      }
    ],
    "types": {
      "t_address": {
        "encoding": "inplace",
        "label": "address",
        "numberOfBytes": "20"
      },
      "t_enum(ProjectStatus)4686": {
        "encoding": "inplace",
        "label": "enum Projects.ProjectStatus",
        "numberOfBytes": "1"
      },
      "t_mapping(t_address,t_uint256)": {
        "encoding": "mapping",
        "key": "t_address",
        "label": "mapping(address => uint256)",
        "numberOfBytes": "32",
        "value": "t_uint256"
      },
      "t_mapping(t_uint256,t_mapping(t_address,t_uint256))": {
        "encoding": "mapping",
        "key": "t_uint256",
        "label": "mapping(uint256 => mapping(address => uint256))",
        "numberOfBytes": "32",
        "value": "t_mapping(t_address,t_uint256)"
      },
      "t_mapping(t_uint256,t_struct(Project)4724_storage)": {
        "encoding": "mapping",
        "key": "t_uint256",
        "label": "mapping(uint256 => struct Projects.Project)",
        "numberOfBytes": "32",
        "value": "t_struct(Project)4724_storage"
      },
      "t_string_storage": {
        "encoding": "bytes",
        "label": "string",
        "numberOfBytes": "32"
      },
      "t_struct(Project)4724_storage": {
        "encoding": "inplace",
        "label": "struct Projects.Project",
        "members": [
          {
            "astId": 4706,
            "contract": "contracts/AMM.sol:AMM",
            "label": "id",
            "offset": 0,
            "slot": "0",
            "type": "t_uint256"
          },
          {
            "astId": 4708,
            "contract": "contracts/AMM.sol:AMM",
            "label": "fund",
            "offset": 0,
            "slot": "1",
            "type": "t_uint256"
          },
          {
            "astId": 4710,
            "contract": "contracts/AMM.sol:AMM",
            "label": "totalSupply",
            "offset": 0,
            "slot": "2",
            "type": "t_uint112"
          },
          {
            "astId": 4713,
            "contract": "contracts/AMM.sol:AMM",
            "label": "info",
            "offset": 0,
            "slot": "3",
            "type": "t_struct(ProjectInfo)4697_storage"
          },
          {
            "astId": 4716,
            "contract": "contracts/AMM.sol:AMM",
            "label": "ico",
            "offset": 0,
            "slot": "8",
            "type": "t_struct(ProjectICO)4704_storage"
          },
          {
            "astId": 4719,
            "contract": "contracts/AMM.sol:AMM",
            "label": "status",
            "offset": 0,
            "slot": "11",
            "type": "t_enum(ProjectStatus)4686"
          },
          {
            "astId": 4721,
            "contract": "contracts/AMM.sol:AMM",
            "label": "partnerAddress",
            "offset": 1,
            "slot": "11",
            "type": "t_address"
          },
          {
            "astId": 4723,
            "contract": "contracts/AMM.sol:AMM",
            "label": "tokenAddress",
            "offset": 0,
            "slot": "12",
            "type": "t_address"
          }
        ],
        "numberOfBytes": "416"
      },
      "t_struct(ProjectICO)4704_storage": {
        "encoding": "inplace",
        "label": "struct Projects.ProjectICO",
        "members": [
          {
            "astId": 4699,
            "contract": "contracts/AMM.sol:AMM",
            "label": "target",
            "offset": 0,
            "slot": "0",
            "type": "t_uint256"
          },
          {
            "astId": 4701,
            "contract": "contracts/AMM.sol:AMM",
            "label": "minInvest",
            "offset": 0,
            "slot": "1",
            "type": "t_uint256"
          },
          {
            "astId": 4703,
            "contract": "contracts/AMM.sol:AMM",
            "label": "maxInvest",
            "offset": 0,
            "slot": "2",
            "type": "t_uint256"
          }
        ],
        "numberOfBytes": "96"
      },
      "t_struct(ProjectInfo)4697_storage": {
        "encoding": "inplace",
        "label": "struct Projects.ProjectInfo",
        "members": [
          {
            "astId": 4688,
            "contract": "contracts/AMM.sol:AMM",
            "label": "name",
            "offset": 0,
            "slot": "0",
            "type": "t_string_storage"
          },
          {
            "astId": 4690,
            "contract": "contracts/AMM.sol:AMM",
            "label": "symbol",
            "offset": 0,
            "slot": "1",
            "type": "t_string_storage"
          },
          {
            "astId": 4692,
            "contract": "contracts/AMM.sol:AMM",
            "label": "description",
            "offset": 0,
            "slot": "2",
            "type": "t_string_storage"
          },
          {
            "astId": 4694,
            "contract": "contracts/AMM.sol:AMM",
            "label": "avatarCid",
            "offset": 0,
            "slot": "3",
            "type": "t_string_storage"
          },
          {
            "astId": 4696,
            "contract": "contracts/AMM.sol:AMM",
            "label": "coverCid",
            "offset": 0,
            "slot": "4",
            "type": "t_string_storage"
          }
        ],
        "numberOfBytes": "160"
      },
      "t_uint112": {
        "encoding": "inplace",
        "label": "uint112",
        "numberOfBytes": "14"
      },
      "t_uint256": {
        "encoding": "inplace",
        "label": "uint256",
        "numberOfBytes": "32"
      }
    }
  }
}