{
  "address": "0xFD6F7A6a5c21A3f503EBaE7a473639974379c351",
  "abi": [
    {
      "inputs": [
        {
          "internalType": "address",
          "name": "_fansSocietyAddress",
          "type": "address"
        },
        {
          "internalType": "address",
          "name": "_wethTokenAddress",
          "type": "address"
        },
        {
          "internalType": "address",
          "name": "_ethUsdtAggregatorAddress",
          "type": "address"
        }
      ],
      "stateMutability": "nonpayable",
      "type": "constructor"
    },
    {
      "anonymous": false,
      "inputs": [
        {
          "indexed": true,
          "internalType": "uint256",
          "name": "id",
          "type": "uint256"
        },
        {
          "indexed": true,
          "internalType": "address",
          "name": "caller",
          "type": "address"
        },
        {
          "indexed": false,
          "internalType": "uint256",
          "name": "amount",
          "type": "uint256"
        }
      ],
      "name": "Committed",
      "type": "event"
    },
    {
      "anonymous": false,
      "inputs": [
        {
          "indexed": true,
          "internalType": "address",
          "name": "caller",
          "type": "address"
        },
        {
          "indexed": true,
          "internalType": "address",
          "name": "poolAddress",
          "type": "address"
        },
        {
          "indexed": false,
          "internalType": "address",
          "name": "tokenX",
          "type": "address"
        },
        {
          "indexed": false,
          "internalType": "uint256",
          "name": "amountX",
          "type": "uint256"
        },
        {
          "indexed": false,
          "internalType": "address",
          "name": "tokenY",
          "type": "address"
        },
        {
          "indexed": false,
          "internalType": "uint256",
          "name": "amountY",
          "type": "uint256"
        },
        {
          "indexed": false,
          "internalType": "uint256",
          "name": "liquidity",
          "type": "uint256"
        }
      ],
      "name": "LiquidityAdded",
      "type": "event"
    },
    {
      "anonymous": false,
      "inputs": [
        {
          "indexed": true,
          "internalType": "address",
          "name": "caller",
          "type": "address"
        },
        {
          "indexed": true,
          "internalType": "address",
          "name": "poolAddress",
          "type": "address"
        },
        {
          "indexed": false,
          "internalType": "address",
          "name": "tokenX",
          "type": "address"
        },
        {
          "indexed": false,
          "internalType": "uint256",
          "name": "amountX",
          "type": "uint256"
        },
        {
          "indexed": false,
          "internalType": "address",
          "name": "tokenY",
          "type": "address"
        },
        {
          "indexed": false,
          "internalType": "uint256",
          "name": "amountY",
          "type": "uint256"
        },
        {
          "indexed": false,
          "internalType": "uint256",
          "name": "liquidity",
          "type": "uint256"
        }
      ],
      "name": "LiquidityRemoved",
      "type": "event"
    },
    {
      "anonymous": false,
      "inputs": [
        {
          "indexed": true,
          "internalType": "address",
          "name": "previousOwner",
          "type": "address"
        },
        {
          "indexed": true,
          "internalType": "address",
          "name": "newOwner",
          "type": "address"
        }
      ],
      "name": "OwnershipTransferred",
      "type": "event"
    },
    {
      "anonymous": false,
      "inputs": [
        {
          "indexed": false,
          "internalType": "uint256",
          "name": "id",
          "type": "uint256"
        },
        {
          "components": [
            {
              "internalType": "string",
              "name": "name",
              "type": "string"
            },
            {
              "internalType": "string",
              "name": "symbol",
              "type": "string"
            },
            {
              "internalType": "string",
              "name": "description",
              "type": "string"
            },
            {
              "internalType": "string",
              "name": "avatarCid",
              "type": "string"
            },
            {
              "internalType": "string",
              "name": "coverCid",
              "type": "string"
            }
          ],
          "indexed": false,
          "internalType": "struct Projects.ProjectInfo",
          "name": "info",
          "type": "tuple"
        },
        {
          "components": [
            {
              "internalType": "uint256",
              "name": "target",
              "type": "uint256"
            },
            {
              "internalType": "uint256",
              "name": "minInvest",
              "type": "uint256"
            },
            {
              "internalType": "uint256",
              "name": "maxInvest",
              "type": "uint256"
            }
          ],
          "indexed": false,
          "internalType": "struct Projects.ProjectICO",
          "name": "ico",
          "type": "tuple"
        },
        {
          "indexed": true,
          "internalType": "address",
          "name": "partnerAddress",
          "type": "address"
        },
        {
          "indexed": false,
          "internalType": "uint112",
          "name": "totalSupply",
          "type": "uint112"
        }
      ],
      "name": "ProjectCreated",
      "type": "event"
    },
    {
      "anonymous": false,
      "inputs": [
        {
          "indexed": true,
          "internalType": "uint256",
          "name": "id",
          "type": "uint256"
        },
        {
          "indexed": false,
          "internalType": "enum Projects.ProjectStatus",
          "name": "status",
          "type": "uint8"
        }
      ],
      "name": "ProjectStatusChanged",
      "type": "event"
    },
    {
      "anonymous": false,
      "inputs": [
        {
          "indexed": true,
          "internalType": "address",
          "name": "caller",
          "type": "address"
        },
        {
          "indexed": true,
          "internalType": "address",
          "name": "poolAddress",
          "type": "address"
        },
        {
          "indexed": false,
          "internalType": "address",
          "name": "tokenIn",
          "type": "address"
        },
        {
          "indexed": false,
          "internalType": "uint256",
          "name": "amountIn",
          "type": "uint256"
        },
        {
          "indexed": false,
          "internalType": "address",
          "name": "tokenOut",
          "type": "address"
        },
        {
          "indexed": false,
          "internalType": "uint256",
          "name": "amountOut",
          "type": "uint256"
        }
      ],
      "name": "Swapped",
      "type": "event"
    },
    {
      "anonymous": false,
      "inputs": [
        {
          "indexed": true,
          "internalType": "uint256",
          "name": "projectId",
          "type": "uint256"
        },
        {
          "indexed": true,
          "internalType": "address",
          "name": "token",
          "type": "address"
        },
        {
          "indexed": true,
          "internalType": "address",
          "name": "caller",
          "type": "address"
        },
        {
          "indexed": false,
          "internalType": "uint256",
          "name": "amount",
          "type": "uint256"
        }
      ],
      "name": "TokensClaimed",
      "type": "event"
    },
    {
      "anonymous": false,
      "inputs": [
        {
          "indexed": true,
          "internalType": "uint256",
          "name": "id",
          "type": "uint256"
        },
        {
          "indexed": true,
          "internalType": "address",
          "name": "caller",
          "type": "address"
        },
        {
          "indexed": false,
          "internalType": "uint256",
          "name": "amount",
          "type": "uint256"
        }
      ],
      "name": "Withdrawed",
      "type": "event"
    },
    {
      "inputs": [
        {
          "internalType": "uint256",
          "name": "_id",
          "type": "uint256"
        }
      ],
      "name": "abortProject",
      "outputs": [],
      "stateMutability": "nonpayable",
      "type": "function"
    },
    {
      "inputs": [
        {
          "internalType": "address",
          "name": "_pool",
          "type": "address"
        },
        {
          "internalType": "address",
          "name": "_tokenX",
          "type": "address"
        },
        {
          "internalType": "address",
          "name": "_tokenY",
          "type": "address"
        },
        {
          "internalType": "uint256",
          "name": "_amountX",
          "type": "uint256"
        },
        {
          "internalType": "uint256",
          "name": "_amountY",
          "type": "uint256"
        }
      ],
      "name": "addPoolLiquidity",
      "outputs": [],
      "stateMutability": "payable",
      "type": "function"
    },
    {
      "inputs": [
        {
          "internalType": "uint256",
          "name": "_projectId",
          "type": "uint256"
        }
      ],
      "name": "claimProjectTokens",
      "outputs": [],
      "stateMutability": "nonpayable",
      "type": "function"
    },
    {
      "inputs": [
        {
          "internalType": "uint256",
          "name": "_id",
          "type": "uint256"
        }
      ],
      "name": "commitOnProject",
      "outputs": [],
      "stateMutability": "payable",
      "type": "function"
    },
    {
      "inputs": [
        {
          "internalType": "uint256",
          "name": "",
          "type": "uint256"
        },
        {
          "internalType": "address",
          "name": "",
          "type": "address"
        }
      ],
      "name": "commitments",
      "outputs": [
        {
          "internalType": "uint256",
          "name": "",
          "type": "uint256"
        }
      ],
      "stateMutability": "view",
      "type": "function"
    },
    {
      "inputs": [],
      "name": "count",
      "outputs": [
        {
          "internalType": "uint256",
          "name": "",
          "type": "uint256"
        }
      ],
      "stateMutability": "view",
      "type": "function"
    },
    {
      "inputs": [
        {
          "components": [
            {
              "internalType": "string",
              "name": "name",
              "type": "string"
            },
            {
              "internalType": "string",
              "name": "symbol",
              "type": "string"
            },
            {
              "internalType": "string",
              "name": "description",
              "type": "string"
            },
            {
              "internalType": "string",
              "name": "avatarCid",
              "type": "string"
            },
            {
              "internalType": "string",
              "name": "coverCid",
              "type": "string"
            }
          ],
          "internalType": "struct Projects.ProjectInfo",
          "name": "_info",
          "type": "tuple"
        },
        {
          "components": [
            {
              "internalType": "uint256",
              "name": "target",
              "type": "uint256"
            },
            {
              "internalType": "uint256",
              "name": "minInvest",
              "type": "uint256"
            },
            {
              "internalType": "uint256",
              "name": "maxInvest",
              "type": "uint256"
            }
          ],
          "internalType": "struct Projects.ProjectICO",
          "name": "_ico",
          "type": "tuple"
        },
        {
          "internalType": "address",
          "name": "_partnerAddress",
          "type": "address"
        },
        {
          "internalType": "uint112",
          "name": "_totalSupply",
          "type": "uint112"
        }
      ],
      "name": "createProject",
      "outputs": [],
      "stateMutability": "nonpayable",
      "type": "function"
    },
    {
      "inputs": [],
      "name": "getEthUsdPrice",
      "outputs": [
        {
          "internalType": "uint256",
          "name": "",
          "type": "uint256"
        }
      ],
      "stateMutability": "view",
      "type": "function"
    },
    {
      "inputs": [
        {
          "internalType": "uint256",
          "name": "_id",
          "type": "uint256"
        }
      ],
      "name": "launchProject",
      "outputs": [],
      "stateMutability": "nonpayable",
      "type": "function"
    },
    {
      "inputs": [],
      "name": "owner",
      "outputs": [
        {
          "internalType": "address",
          "name": "",
          "type": "address"
        }
      ],
      "stateMutability": "view",
      "type": "function"
    },
    {
      "inputs": [
        {
          "internalType": "uint256",
          "name": "",
          "type": "uint256"
        }
      ],
      "name": "projects",
      "outputs": [
        {
          "internalType": "uint256",
          "name": "id",
          "type": "uint256"
        },
        {
          "internalType": "uint256",
          "name": "fund",
          "type": "uint256"
        },
        {
          "internalType": "uint112",
          "name": "totalSupply",
          "type": "uint112"
        },
        {
          "components": [
            {
              "internalType": "string",
              "name": "name",
              "type": "string"
            },
            {
              "internalType": "string",
              "name": "symbol",
              "type": "string"
            },
            {
              "internalType": "string",
              "name": "description",
              "type": "string"
            },
            {
              "internalType": "string",
              "name": "avatarCid",
              "type": "string"
            },
            {
              "internalType": "string",
              "name": "coverCid",
              "type": "string"
            }
          ],
          "internalType": "struct Projects.ProjectInfo",
          "name": "info",
          "type": "tuple"
        },
        {
          "components": [
            {
              "internalType": "uint256",
              "name": "target",
              "type": "uint256"
            },
            {
              "internalType": "uint256",
              "name": "minInvest",
              "type": "uint256"
            },
            {
              "internalType": "uint256",
              "name": "maxInvest",
              "type": "uint256"
            }
          ],
          "internalType": "struct Projects.ProjectICO",
          "name": "ico",
          "type": "tuple"
        },
        {
          "internalType": "enum Projects.ProjectStatus",
          "name": "status",
          "type": "uint8"
        },
        {
          "internalType": "address",
          "name": "partnerAddress",
          "type": "address"
        },
        {
          "internalType": "address",
          "name": "tokenAddress",
          "type": "address"
        }
      ],
      "stateMutability": "view",
      "type": "function"
    },
    {
      "inputs": [
        {
          "internalType": "address",
          "name": "_pool",
          "type": "address"
        },
        {
          "internalType": "uint256",
          "name": "_amountLP",
          "type": "uint256"
        }
      ],
      "name": "removePoolLiquidity",
      "outputs": [],
      "stateMutability": "nonpayable",
      "type": "function"
    },
    {
      "inputs": [],
      "name": "renounceOwnership",
      "outputs": [],
      "stateMutability": "nonpayable",
      "type": "function"
    },
    {
      "inputs": [
        {
          "internalType": "address",
          "name": "_tokenFactoryAddress",
          "type": "address"
        },
        {
          "internalType": "address",
          "name": "_poolFactoryAddress",
          "type": "address"
        }
      ],
      "name": "setFactories",
      "outputs": [],
      "stateMutability": "nonpayable",
      "type": "function"
    },
    {
      "inputs": [
        {
          "internalType": "address",
          "name": "_pool",
          "type": "address"
        },
        {
          "internalType": "address",
          "name": "_tokenIn",
          "type": "address"
        },
        {
          "internalType": "uint256",
          "name": "_amountOut",
          "type": "uint256"
        }
      ],
      "name": "swap",
      "outputs": [],
      "stateMutability": "payable",
      "type": "function"
    },
    {
      "inputs": [
        {
          "internalType": "address",
          "name": "newOwner",
          "type": "address"
        }
      ],
      "name": "transferOwnership",
      "outputs": [],
      "stateMutability": "nonpayable",
      "type": "function"
    },
    {
      "inputs": [
        {
          "internalType": "uint256",
          "name": "_id",
          "type": "uint256"
        }
      ],
      "name": "withdrawOnProject",
      "outputs": [],
      "stateMutability": "nonpayable",
      "type": "function"
    },
    {
      "stateMutability": "payable",
      "type": "receive"
    }
  ],
  "transactionHash": "0x2595c39f383a64ba127fa80693d34c7017551ea922589062467659e9535e4184",
  "args": [
    "0x3827b4a96Ce521f8E408c124D7DbE2B6c1F78E1F",
    "0x6C2d83262fF84cBaDb3e416D527403135D757892",
    "0x0000000000000000000000000000000000000000"
  ],
  "numDeployments": 1,
  "solcInputHash": "aa8abe251c2706d60bc666d2630d3145",
  "bytecode": "0x60806040523480156200001157600080fd5b50604051620040fe380380620040fe8339810160408190526200003491620000f3565b6200003f3362000086565b60018055600580546001600160a01b039485166001600160a01b0319918216179091556006805493851693821693909317909255600780549190931691161790556200013d565b600080546001600160a01b038381166001600160a01b0319831681178455604051919092169283917f8be0079c531659141344cd1fd0a4f28419497f9722a3daafe3b4186f6b6457e09190a35050565b80516001600160a01b0381168114620000ee57600080fd5b919050565b6000806000606084860312156200010957600080fd5b6200011484620000d6565b92506200012460208501620000d6565b91506200013460408501620000d6565b90509250925092565b613fb1806200014d6000396000f3fe6080604052600436106101025760003560e01c80639c7a1fc711610095578063df791e5011610064578063df791e50146102e2578063e90d4c06146102f5578063e9d36fb41461032d578063f1244ad81461034d578063f2fde38b1461036d57600080fd5b80639c7a1fc71461027a578063a0a8045e1461028d578063a3bfb7bd146102a2578063db304235146102c257600080fd5b806360ae7c3b116100d157806360ae7c3b146101fd578063715018a61461021d5780638da5cb5b146102325780639aa4c2e51461025a57600080fd5b806306661abd1461016d578063107046bd1461019657806316509ee2146101ca57806344a9ae8c146101dd57600080fd5b36610168576006546001600160a01b031633146101665760405162461bcd60e51b815260206004820152601f60248201527f6f6e6c7920726563656976652066726f6d207765746820636f6e74726163740060448201526064015b60405180910390fd5b005b600080fd5b34801561017957600080fd5b5061018360025481565b6040519081526020015b60405180910390f35b3480156101a257600080fd5b506101b66101b13660046132fe565b61038d565b60405161018d989796959493929190613395565b6101666101d83660046132fe565b6106f0565b3480156101e957600080fd5b506101666101f83660046132fe565b6108e5565b34801561020957600080fd5b506101666102183660046132fe565b610ace565b34801561022957600080fd5b50610166611037565b34801561023e57600080fd5b506000546040516001600160a01b03909116815260200161018d565b34801561026657600080fd5b506101666102753660046134be565b61104b565b6101666102883660046134f7565b6110ef565b34801561029957600080fd5b50610183611760565b3480156102ae57600080fd5b506101666102bd3660046132fe565b61182a565b3480156102ce57600080fd5b506101666102dd366004613552565b6118db565b6101666102f03660046135e2565b611aea565b34801561030157600080fd5b50610183610310366004613623565b600460209081526000928352604080842090915290825290205481565b34801561033957600080fd5b50610166610348366004613648565b6120cf565b34801561035957600080fd5b506101666103683660046132fe565b6124f1565b34801561037957600080fd5b50610166610388366004613674565b612f37565b600360208190526000918252604091829020805460018201546002830154855160a081019096529383018054929591946001600160701b03169392829082906103d590613698565b80601f016020809104026020016040519081016040528092919081815260200182805461040190613698565b801561044e5780601f106104235761010080835404028352916020019161044e565b820191906000526020600020905b81548152906001019060200180831161043157829003601f168201915b5050505050815260200160018201805461046790613698565b80601f016020809104026020016040519081016040528092919081815260200182805461049390613698565b80156104e05780601f106104b5576101008083540402835291602001916104e0565b820191906000526020600020905b8154815290600101906020018083116104c357829003601f168201915b505050505081526020016002820180546104f990613698565b80601f016020809104026020016040519081016040528092919081815260200182805461052590613698565b80156105725780601f1061054757610100808354040283529160200191610572565b820191906000526020600020905b81548152906001019060200180831161055557829003601f168201915b5050505050815260200160038201805461058b90613698565b80601f01602080910402602001604051908101604052809291908181526020018280546105b790613698565b80156106045780601f106105d957610100808354040283529160200191610604565b820191906000526020600020905b8154815290600101906020018083116105e757829003601f168201915b5050505050815260200160048201805461061d90613698565b80601f016020809104026020016040519081016040528092919081815260200182805461064990613698565b80156106965780601f1061066b57610100808354040283529160200191610696565b820191906000526020600020905b81548152906001019060200180831161067957829003601f168201915b505050919092525050604080516060810182526008850154815260098501546020820152600a85015491810191909152600b840154600c909401549293909260ff821692506001600160a01b036101009092048216911688565b806000806000838152600360208190526040909120600b015460ff169081111561071c5761071c61335d565b146107395760405162461bcd60e51b815260040161015d906136d2565b60008381526003602090815260408083206009810154600484528285203386529093529220546107699034613714565b10156107a45760405162461bcd60e51b815260206004820152600a60248201526909cdee840cadcdeeaced60b31b604482015260640161015d565b600a81015460008581526004602090815260408083203384529091529020546107cd9034613714565b11156108065760405162461bcd60e51b81526020600482015260086024820152670a8dede40daeac6d60c31b604482015260640161015d565b3481600101600082825461081a9190613714565b9091555050600084815260046020908152604080832033845290915281208054349290610848908490613714565b9091555050604051348152339085907f245cbccbc6875e4b0475a653568fd4f7c2dae5fb8929e33c0d66dc530ba11b009060200160405180910390a360088101546001820154106108df57600b8101805460ff1916600290811790915560405185917f35872be4c2085eaf9ca9a10d056eefec79968f825846792411ede75f331e9392916108d6919061372d565b60405180910390a25b50505050565b806002806000838152600360208190526040909120600b015460ff16908111156109115761091161335d565b1061092e5760405162461bcd60e51b815260040161015d906136d2565b600083815260046020908152604080832033845290915290205483906109865760405162461bcd60e51b815260206004820152600d60248201526c139bc818dbdb5b5a5d1b595b9d609a1b604482015260640161015d565b6002600154036109a85760405162461bcd60e51b815260040161015d9061373b565b6002600190815560008581526004602090815260408083203384528252808320548884526003909252822090920180548392906109e6908490613772565b909155505060008581526004602090815260408083203380855292528083208390555183908381818185875af1925050503d8060008114610a43576040519150601f19603f3d011682016040523d82523d6000602084013e610a48565b606091505b5050905080610a8b5760405162461bcd60e51b815260206004820152600f60248201526e1dda5d1a191c985dc819985a5b1959608a1b604482015260640161015d565b604051828152339087907f7fd902d6e186354d1617b957fc4cb4a144f44a19cc5c4525cfb772d707c405c29060200160405180910390a350506001805550505050565b806003806000838152600360208190526040909120600b015460ff1690811115610afa57610afa61335d565b14610b175760405162461bcd60e51b815260040161015d906136d2565b60008381526004602090815260408083203384529091529020548390610b6f5760405162461bcd60e51b815260206004820152600d60248201526c139bc818dbdb5b5a5d1b595b9d609a1b604482015260640161015d565b60008481526003602081815260408084208151610100810183528154815260018201549381019390935260028101546001600160701b031683830152815160a0810190925292830180549293926060850192919082908290610bd090613698565b80601f0160208091040260200160405190810160405280929190818152602001828054610bfc90613698565b8015610c495780601f10610c1e57610100808354040283529160200191610c49565b820191906000526020600020905b815481529060010190602001808311610c2c57829003601f168201915b50505050508152602001600182018054610c6290613698565b80601f0160208091040260200160405190810160405280929190818152602001828054610c8e90613698565b8015610cdb5780601f10610cb057610100808354040283529160200191610cdb565b820191906000526020600020905b815481529060010190602001808311610cbe57829003601f168201915b50505050508152602001600282018054610cf490613698565b80601f0160208091040260200160405190810160405280929190818152602001828054610d2090613698565b8015610d6d5780601f10610d4257610100808354040283529160200191610d6d565b820191906000526020600020905b815481529060010190602001808311610d5057829003601f168201915b50505050508152602001600382018054610d8690613698565b80601f0160208091040260200160405190810160405280929190818152602001828054610db290613698565b8015610dff5780601f10610dd457610100808354040283529160200191610dff565b820191906000526020600020905b815481529060010190602001808311610de257829003601f168201915b50505050508152602001600482018054610e1890613698565b80601f0160208091040260200160405190810160405280929190818152602001828054610e4490613698565b8015610e915780601f10610e6657610100808354040283529160200191610e91565b820191906000526020600020905b815481529060010190602001808311610e7457829003601f168201915b50505091909252505050815260408051606081018252600884015481526009840154602082810191909152600a85015482840152830152600b83015491019060ff166003811115610ee457610ee461335d565b6003811115610ef557610ef561335d565b8152600b8201546001600160a01b036101009091048116602080840191909152600c9093015416604091820152600088815260048352818120338252909252808220549083015192935091610f4990612fb0565b50509150506000836020015183836001600160701b0316610f6a9190613785565b610f7491906137b2565b60e0850151604051635569f64b60e11b8152336004820152602481018390529192506001600160a01b03169063aad3ec9690604401600060405180830381600087803b158015610fc357600080fd5b505af1158015610fd7573d6000803e3d6000fd5b50505050336001600160a01b03168460e001516001600160a01b0316897f9c4945d842cc8c6704877a0defcd9ab09f6d77b24a369a95c2610506c6c38ee78460405161102591815260200190565b60405180910390a45050505050505050565b61103f613025565b611049600061307f565b565b611053613025565b6008546001600160a01b031615801561107557506009546001600160a01b0316155b6110c15760405162461bcd60e51b815260206004820152601960248201527f414d4d20666163746f7269657320616c72656164792073657400000000000000604482015260640161015d565b600880546001600160a01b039384166001600160a01b03199182161790915560098054929093169116179055565b6002600154036111115760405162461bcd60e51b815260040161015d9061373b565b60026001556006546001600160a01b0390811690851603611385578115801561113a5750600081115b80156111465750600034115b6111625760405162461bcd60e51b815260040161015d906137c6565b60008061117287878734876130cf565b91509150600660009054906101000a90046001600160a01b03166001600160a01b031663d0e30db0836040518263ffffffff1660e01b81526004016000604051808303818588803b1580156111c657600080fd5b505af11580156111da573d6000803e3d6000fd5b505060065460405163a9059cbb60e01b81526001600160a01b038c8116600483015260248201889052909116935063a9059cbb925060440190506020604051808303816000875af1158015611233573d6000803e3d6000fd5b505050506040513d601f19601f8201168201806040525081019061125791906137f4565b6112735760405162461bcd60e51b815260040161015d90613816565b604051632142170760e11b81526001600160a01b038616906342842e0e906112a39033908b908690600401613844565b600060405180830381600087803b1580156112bd57600080fd5b505af11580156112d1573d6000803e3d6000fd5b505050508134111561137e576000336112ea8434613772565b604051600081818185875af1925050503d8060008114611326576040519150601f19603f3d011682016040523d82523d6000602084013e61132b565b606091505b505090508061137c5760405162461bcd60e51b815260206004820152601a60248201527f726566756e6420657863656564656420455448206661696c6564000000000000604482015260640161015d565b505b505061166b565b6006546001600160a01b039081169084160361155957801580156113a95750600082115b80156113b55750600034115b6113d15760405162461bcd60e51b815260040161015d906137c6565b6000806113e187878787346130cf565b91509150600660009054906101000a90046001600160a01b03166001600160a01b031663d0e30db0826040518263ffffffff1660e01b81526004016000604051808303818588803b15801561143557600080fd5b505af1158015611449573d6000803e3d6000fd5b505060065460405163a9059cbb60e01b81526001600160a01b038c8116600483015260248201879052909116935063a9059cbb925060440190506020604051808303816000875af11580156114a2573d6000803e3d6000fd5b505050506040513d601f19601f820116820180604052508101906114c691906137f4565b6114e25760405162461bcd60e51b815260040161015d90613816565b604051632142170760e11b81526001600160a01b038716906342842e0e906115129033908b908790600401613844565b600060405180830381600087803b15801561152c57600080fd5b505af1158015611540573d6000803e3d6000fd5b505050508034111561137e576000336112ea8334613772565b341580156115675750600082115b80156115735750600081115b61158f5760405162461bcd60e51b815260040161015d906137c6565b60008061159f87878787876130cf565b604051632142170760e11b815291935091506001600160a01b038716906342842e0e906115d49033908b908790600401613844565b600060405180830381600087803b1580156115ee57600080fd5b505af1158015611602573d6000803e3d6000fd5b5050604051632142170760e11b81526001600160a01b03881692506342842e0e91506116369033908b908690600401613844565b600060405180830381600087803b15801561165057600080fd5b505af1158015611664573d6000803e3d6000fd5b5050505050505b604051638f01e2df60e01b815233600482015260009081908190819081906001600160a01b038b1690638f01e2df9060240160a0604051808303816000875af11580156116bc573d6000803e3d6000fd5b505050506040513d601f19601f820116820180604052508101906116e09190613868565b604080516001600160a01b03808816825260208201879052808616928201929092526060810184905260808101839052959a50939850919650945092508b169033907fd7a4cb5f6728e1b2ae490e0a4175d63ac3a6200f38571b3a1fc3f7791fa934659060a0015b60405180910390a35050600180555050505050505050565b6007546000906001600160a01b03166117ab5760405162461bcd60e51b815260206004820152600d60248201526c37379030b3b3b932b3b0ba37b960991b604482015260640161015d565b60075460408051633fabe5a360e21b815290516001600160a01b0390921691600091839163feaf968c9160048082019260a0929091908290030181865afa1580156117fa573d6000803e3d6000fd5b505050506040513d601f19601f8201168201806040525081019061181e91906138db565b50919695505050505050565b611832613025565b806000806000838152600360208190526040909120600b015460ff169081111561185e5761185e61335d565b1461187b5760405162461bcd60e51b815260040161015d906136d2565b6000838152600360205260409020600b0180546001919060ff191682800217905550827f35872be4c2085eaf9ca9a10d056eefec79968f825846792411ede75f331e939260016040516118ce919061372d565b60405180910390a2505050565b6118e3613025565b600280549060006118f38361392b565b9190505550604051806101000160405280600254815260200160008152602001826001600160701b031681526020018561192c90613a10565b815260200161194036869003860186613aec565b8152602001600081526001600160a01b03841660208083019190915260006040928301819052600280548252600380845291849020855181559285015160018401559284015192820180546dffffffffffffffffffffffffffff19166001600160701b039094169390931790925560608301518051919290919083019081906119c99082613b97565b50602082015160018201906119de9082613b97565b50604082015160028201906119f39082613b97565b5060608201516003820190611a089082613b97565b5060808201516004820190611a1d9082613b97565b5050506080820151805160088301556020810151600983015560400151600a82015560a0820151600b8201805460ff19166001836003811115611a6257611a6261335d565b021790555060c0820151600b82018054610100600160a81b0319166101006001600160a01b039384160217905560e090920151600c90910180546001600160a01b031916918316919091179055600254604051918416917fd9ecdd15e0d6416fef28e79a5e33b10b35c85a8ddeeee598f5b9afd9304a7acb916108d691889088908790613ccd565b600260015403611b0c5760405162461bcd60e51b815260040161015d9061373b565b6002600155604051630fa6707960e21b81526001600160a01b038381166004830152600091829182918291881690633e99c1e490602401608060405180830381865afa158015611b60573d6000803e3d6000fd5b505050506040513d601f19601f82011682018060405250810190611b849190613ddb565b60065460405163392dc1a760e01b8152600481018b9052602481018490526044810183905294985092965090945092506001600160a01b0390811681871614916000918a169063392dc1a790606401602060405180830381865afa158015611bf0573d6000803e3d6000fd5b505050506040513d601f19601f82011682018060405250810190611c149190613e23565b90508115611d5f5780341015611c5d5760405162461bcd60e51b815260206004820152600e60248201526d0dcdee840cadcdeeaced040cae8d60931b604482015260640161015d565b600660009054906101000a90046001600160a01b03166001600160a01b031663d0e30db0826040518263ffffffff1660e01b81526004016000604051808303818588803b158015611cad57600080fd5b505af1158015611cc1573d6000803e3d6000fd5b505060065460405163a9059cbb60e01b81526001600160a01b038e8116600483015260248201879052909116935063a9059cbb925060440190506020604051808303816000875af1158015611d1a573d6000803e3d6000fd5b505050506040513d601f19601f82011682018060405250810190611d3e91906137f4565b611d5a5760405162461bcd60e51b815260040161015d90613816565b611e03565b3415611da05760405162461bcd60e51b815260206004820152601060248201526f0dcdee840caf0e0cac6e8cac840cae8d60831b604482015260640161015d565b604051632142170760e11b81526001600160a01b038716906342842e0e90611dd09033908d908690600401613844565b600060405180830381600087803b158015611dea57600080fd5b505af1158015611dfe573d6000803e3d6000fd5b505050505b60008215611f3457604051636d069a6760e01b81526001600160a01b038881166004830152602482018490523360448301528b1690636d069a67906064016020604051808303816000875af1158015611e60573d6000803e3d6000fd5b505050506040513d601f19601f82011682018060405250810190611e849190613e23565b905081341115611f2f57600033611e9b8434613772565b604051600081818185875af1925050503d8060008114611ed7576040519150601f19603f3d011682016040523d82523d6000602084013e611edc565b606091505b5050905080611f2d5760405162461bcd60e51b815260206004820152601a60248201527f726566756e6420657863656564656420455448206661696c6564000000000000604482015260640161015d565b505b612076565b604051636d069a6760e01b81526001600160a01b038881166004830152602482018490523060448301528b1690636d069a67906064016020604051808303816000875af1158015611f89573d6000803e3d6000fd5b505050506040513d601f19601f82011682018060405250810190611fad9190613e23565b600654604051632e1a7d4d60e01b8152600481018390529192506001600160a01b031690632e1a7d4d90602401600060405180830381600087803b158015611ff457600080fd5b505af1158015612008573d6000803e3d6000fd5b50506040516000925033915083908381818185875af1925050503d806000811461204e576040519150601f19603f3d011682016040523d82523d6000602084013e612053565b606091505b50509050806120745760405162461bcd60e51b815260040161015d90613e3c565b505b604080516001600160a01b038981168252602082018590528881169282019290925260608101839052908b169033907ffe88947180f546abb56f9386952bca27367fdd00109db6c7d614171730cdad8490608001611748565b6002600154036120f15760405162461bcd60e51b815260040161015d9061373b565b6002600155604051632142170760e11b81526001600160a01b038316906342842e0e9061212690339086908690600401613844565b600060405180830381600087803b15801561214057600080fd5b505af1158015612154573d6000803e3d6000fd5b505060405163a4dd03d760e01b8152336004820152600092508291508190819081906001600160a01b0388169063a4dd03d79060240160a0604051808303816000875af11580156121a9573d6000803e3d6000fd5b505050506040513d601f19601f820116820180604052508101906121cd9190613868565b600654949950929750909550935091506001600160a01b03908116908616036122bc57600654604051632e1a7d4d60e01b8152600481018690526001600160a01b0390911690632e1a7d4d90602401600060405180830381600087803b15801561223657600080fd5b505af115801561224a573d6000803e3d6000fd5b50506040516000925033915086908381818185875af1925050503d8060008114612290576040519150601f19603f3d011682016040523d82523d6000602084013e612295565b606091505b50509050806122b65760405162461bcd60e51b815260040161015d90613e3c565b5061232f565b60405163a9059cbb60e01b8152336004820152602481018590526001600160a01b0386169063a9059cbb906044016020604051808303816000875af1158015612309573d6000803e3d6000fd5b505050506040513d601f19601f8201168201806040525081019061232d91906137f4565b505b6006546001600160a01b039081169084160361241157600654604051632e1a7d4d60e01b8152600481018490526001600160a01b0390911690632e1a7d4d90602401600060405180830381600087803b15801561238b57600080fd5b505af115801561239f573d6000803e3d6000fd5b50506040516000925033915084908381818185875af1925050503d80600081146123e5576040519150601f19603f3d011682016040523d82523d6000602084013e6123ea565b606091505b505090508061240b5760405162461bcd60e51b815260040161015d90613e3c565b50612484565b60405163a9059cbb60e01b8152336004820152602481018390526001600160a01b0384169063a9059cbb906044016020604051808303816000875af115801561245e573d6000803e3d6000fd5b505050506040513d601f19601f8201168201806040525081019061248291906137f4565b505b604080516001600160a01b0387811682526020820187905285811682840152606082018590526080820184905291519189169133917f78b1f3e03197fc6a587f09bedcfcf8c8a5472515e72df81856fd51fadb5dc177919081900360a00190a35050600180555050505050565b806002806000838152600360208190526040909120600b015460ff169081111561251d5761251d61335d565b1461253a5760405162461bcd60e51b815260040161015d906136d2565b6000838152600360205260409020600b0154839061010090046001600160a01b031633146125985760405162461bcd60e51b815260206004820152600b60248201526a2737ba103830b93a3732b960a91b604482015260640161015d565b6002600154036125ba5760405162461bcd60e51b815260040161015d9061373b565b60026001556008546001600160a01b0316158015906125e357506009546001600160a01b031615155b61261e5760405162461bcd60e51b815260206004820152600c60248201526b6e6f20666163746f7269657360a01b604482015260640161015d565b60008481526003602081815260408084208151610100810183528154815260018201549381019390935260028101546001600160701b031683830152815160a081019092529283018054929392606085019291908290829061267f90613698565b80601f01602080910402602001604051908101604052809291908181526020018280546126ab90613698565b80156126f85780601f106126cd576101008083540402835291602001916126f8565b820191906000526020600020905b8154815290600101906020018083116126db57829003601f168201915b5050505050815260200160018201805461271190613698565b80601f016020809104026020016040519081016040528092919081815260200182805461273d90613698565b801561278a5780601f1061275f5761010080835404028352916020019161278a565b820191906000526020600020905b81548152906001019060200180831161276d57829003601f168201915b505050505081526020016002820180546127a390613698565b80601f01602080910402602001604051908101604052809291908181526020018280546127cf90613698565b801561281c5780601f106127f15761010080835404028352916020019161281c565b820191906000526020600020905b8154815290600101906020018083116127ff57829003601f168201915b5050505050815260200160038201805461283590613698565b80601f016020809104026020016040519081016040528092919081815260200182805461286190613698565b80156128ae5780601f10612883576101008083540402835291602001916128ae565b820191906000526020600020905b81548152906001019060200180831161289157829003601f168201915b505050505081526020016004820180546128c790613698565b80601f01602080910402602001604051908101604052809291908181526020018280546128f390613698565b80156129405780601f1061291557610100808354040283529160200191612940565b820191906000526020600020905b81548152906001019060200180831161292357829003601f168201915b50505091909252505050815260408051606081018252600884015481526009840154602082810191909152600a85015482840152830152600b83015491019060ff1660038111156129935761299361335d565b60038111156129a4576129a461335d565b8152600b8201546001600160a01b0361010090910481166020830152600c90920154909116604091820152810151909150600090819081906129e590612fb0565b935093505092506000806129fc86602001516132c1565b6008546060890151805160209091015160408b01519496509294506001600160a01b039091169263a16cb213928e929188612a378b8d613e69565b612a419190613e69565b6040518663ffffffff1660e01b8152600401612a61959493929190613e90565b6020604051808303816000875af1158015612a80573d6000803e3d6000fd5b505050506040513d601f19601f82011682018060405250810190612aa49190613ee1565b60008b815260036020526040808220600c0180546001600160a01b0319166001600160a01b03948516908117909155600954600654925163e343361560e01b8152600481019290925291841660248201529192169063e3433615906044016020604051808303816000875af1158015612b21573d6000803e3d6000fd5b505050506040513d601f19601f82011682018060405250810190612b459190613ee1565b60008c81526003602052604090819020600c810154600b909101549151632142170760e11b81529293506001600160a01b03908116926342842e0e92612b9992309261010090920416908b90600401613efe565b600060405180830381600087803b158015612bb357600080fd5b505af1158015612bc7573d6000803e3d6000fd5b50505060008c81526003602052604090819020600c01546005549151632142170760e11b81526001600160a01b0391821693506342842e0e92612c139230929116908990600401613efe565b600060405180830381600087803b158015612c2d57600080fd5b505af1158015612c41573d6000803e3d6000fd5b50505060008c81526003602052604090819020600c01549051632142170760e11b81526001600160a01b0390911691506342842e0e90612c8990309085908a90600401613efe565b600060405180830381600087803b158015612ca357600080fd5b505af1158015612cb7573d6000803e3d6000fd5b50505050600660009054906101000a90046001600160a01b03166001600160a01b031663d0e30db0846040518263ffffffff1660e01b81526004016000604051808303818588803b158015612d0b57600080fd5b505af1158015612d1f573d6000803e3d6000fd5b505060065460405163a9059cbb60e01b81526001600160a01b03868116600483015260248201899052909116935063a9059cbb925060440190506020604051808303816000875af1158015612d78573d6000803e3d6000fd5b505050506040513d601f19601f82011682018060405250810190612d9c91906137f4565b612db85760405162461bcd60e51b815260040161015d90613816565b60008760c001516001600160a01b03168360405160006040518083038185875af1925050503d8060008114612e09576040519150601f19603f3d011682016040523d82523d6000602084013e612e0e565b606091505b5050905080612e5f5760405162461bcd60e51b815260206004820152601b60248201527f706172746e657220646973747269627574696f6e206661696c65640000000000604482015260640161015d565b604051638f01e2df60e01b81523060048201526001600160a01b03831690638f01e2df9060240160a0604051808303816000875af1158015612ea5573d6000803e3d6000fd5b505050506040513d601f19601f82011682018060405250810190612ec99190613868565b50505060008e815260036020819052604091829020600b01805460ff19168217905590518f93507f35872be4c2085eaf9ca9a10d056eefec79968f825846792411ede75f331e93929250612f1d919061372d565b60405180910390a250506001805550505050505050505050565b612f3f613025565b6001600160a01b038116612fa45760405162461bcd60e51b815260206004820152602660248201527f4f776e61626c653a206e6577206f776e657220697320746865207a65726f206160448201526564647265737360d01b606482015260840161015d565b612fad8161307f565b50565b60008080806103e8612fc38660c8613f2a565b612fcd9190613f55565b93506103e8612fde866101ea613f2a565b612fe89190613f55565b92506103e8612ff88660b4613f2a565b6130029190613f55565b91506103e8613012866082613f2a565b61301c9190613f55565b90509193509193565b6000546001600160a01b031633146110495760405162461bcd60e51b815260206004820181905260248201527f4f776e61626c653a2063616c6c6572206973206e6f7420746865206f776e6572604482015260640161015d565b600080546001600160a01b038381166001600160a01b0319831681178455604051919092169283917f8be0079c531659141344cd1fd0a4f28419497f9722a3daafe3b4186f6b6457e09190a35050565b604051630fa6707960e21b81526001600160a01b0385811660048301526000918291829182918a1690633e99c1e490602401608060405180830381865afa15801561311e573d6000803e3d6000fd5b505050506040513d601f19601f820116820180604052508101906131429190613ddb565b935093505050816000148015613156575080155b15613166578593508492506132b5565b60405163b4167c6d60e01b81526001600160a01b03898116600483015260248201889052600091908b169063b4167c6d90604401602060405180830381865afa1580156131b7573d6000803e3d6000fd5b505050506040513d601f19601f820116820180604052508101906131db9190613e23565b90508581116131ef578694509250826132b3565b60405163b4167c6d60e01b81526001600160a01b03898116600483015260248201889052600091908c169063b4167c6d90604401602060405180830381865afa158015613240573d6000803e3d6000fd5b505050506040513d601f19601f820116820180604052508101906132649190613e23565b9050878111156132ad5760405162461bcd60e51b81526020600482015260146024820152731d1bdbc8189a59c81a5b9c1d5d08185b5bdd5b9d60621b604482015260640161015d565b94508593505b505b50509550959350505050565b6000806103e86132d2846064613785565b6132dc91906137b2565b91506103e86132ed84610384613785565b6132f791906137b2565b9050915091565b60006020828403121561331057600080fd5b5035919050565b6000815180845260005b8181101561333d57602081850181015186830182015201613321565b506000602082860101526020601f19601f83011685010191505092915050565b634e487b7160e01b600052602160045260246000fd5b6004811061339157634e487b7160e01b600052602160045260246000fd5b9052565b60006101408a83528960208401526001600160701b0389166040840152806060840152875160a0828501526133ce6101e0850182613317565b915050602088015161013f1980858403016101608601526133ef8383613317565b925060408a01519150808584030161018086015261340d8383613317565b925060608a0151915080858403016101a086015261342b8383613317565b925060808a0151915080858403016101c08601525061344a8282613317565b88516080860152602089015160a0860152604089015160c0860152925061346f915050565b61347c60e0830186613373565b6001600160a01b0384166101008301526001600160a01b0383166101208301529998505050505050505050565b6001600160a01b0381168114612fad57600080fd5b600080604083850312156134d157600080fd5b82356134dc816134a9565b915060208301356134ec816134a9565b809150509250929050565b600080600080600060a0868803121561350f57600080fd5b853561351a816134a9565b9450602086013561352a816134a9565b9350604086013561353a816134a9565b94979396509394606081013594506080013592915050565b60008060008084860360c081121561356957600080fd5b853567ffffffffffffffff81111561358057600080fd5b860160a0818903121561359257600080fd5b94506060601f19820112156135a657600080fd5b5060208501925060808501356135bb816134a9565b915060a08501356001600160701b03811681146135d757600080fd5b939692955090935050565b6000806000606084860312156135f757600080fd5b8335613602816134a9565b92506020840135613612816134a9565b929592945050506040919091013590565b6000806040838503121561363657600080fd5b8235915060208301356134ec816134a9565b6000806040838503121561365b57600080fd5b8235613666816134a9565b946020939093013593505050565b60006020828403121561368657600080fd5b8135613691816134a9565b9392505050565b600181811c908216806136ac57607f821691505b6020821081036136cc57634e487b7160e01b600052602260045260246000fd5b50919050565b6020808252601290820152714261642070726f6a6563742073746174757360701b604082015260600190565b634e487b7160e01b600052601160045260246000fd5b80820180821115613727576137276136fe565b92915050565b602081016137278284613373565b6020808252601f908201527f5265656e7472616e637947756172643a207265656e7472616e742063616c6c00604082015260600190565b81810381811115613727576137276136fe565b8082028115828204841417613727576137276136fe565b634e487b7160e01b600052601260045260246000fd5b6000826137c1576137c161379c565b500490565b602080825260149082015273696e76616c696420616d6f756e7420737461746560601b604082015260600190565b60006020828403121561380657600080fd5b8151801515811461369157600080fd5b6020808252601490820152731dd95d1a081d1c985b9cd9995c8819985a5b195960621b604082015260600190565b6001600160a01b039384168152919092166020820152604081019190915260600190565b600080600080600060a0868803121561388057600080fd5b855161388b816134a9565b6020870151604088015191965094506138a3816134a9565b6060870151608090970151959894975095949392505050565b805169ffffffffffffffffffff811681146138d657600080fd5b919050565b600080600080600060a086880312156138f357600080fd5b6138fc866138bc565b945060208601519350604086015192506060860151915061391f608087016138bc565b90509295509295909350565b60006001820161393d5761393d6136fe565b5060010190565b634e487b7160e01b600052604160045260246000fd5b60405160a0810167ffffffffffffffff8111828210171561397d5761397d613944565b60405290565b600082601f83011261399457600080fd5b813567ffffffffffffffff808211156139af576139af613944565b604051601f8301601f19908116603f011681019082821181831017156139d7576139d7613944565b816040528381528660208588010111156139f057600080fd5b836020870160208301376000602085830101528094505050505092915050565b600060a08236031215613a2257600080fd5b613a2a61395a565b823567ffffffffffffffff80821115613a4257600080fd5b613a4e36838701613983565b83526020850135915080821115613a6457600080fd5b613a7036838701613983565b60208401526040850135915080821115613a8957600080fd5b613a9536838701613983565b60408401526060850135915080821115613aae57600080fd5b613aba36838701613983565b60608401526080850135915080821115613ad357600080fd5b50613ae036828601613983565b60808301525092915050565b600060608284031215613afe57600080fd5b6040516060810181811067ffffffffffffffff82111715613b2157613b21613944565b80604052508235815260208301356020820152604083013560408201528091505092915050565b601f821115613b9257600081815260208120601f850160051c81016020861015613b6f5750805b601f850160051c820191505b81811015613b8e57828155600101613b7b565b5050505b505050565b815167ffffffffffffffff811115613bb157613bb1613944565b613bc581613bbf8454613698565b84613b48565b602080601f831160018114613bfa5760008415613be25750858301515b600019600386901b1c1916600185901b178555613b8e565b600085815260208120601f198616915b82811015613c2957888601518255948401946001909101908401613c0a565b5085821015613c475787850151600019600388901b60f8161c191681555b5050505050600190811b01905550565b6000808335601e19843603018112613c6e57600080fd5b830160208101925035905067ffffffffffffffff811115613c8e57600080fd5b803603821315613c9d57600080fd5b9250929050565b81835281816020850137506000828201602090810191909152601f909101601f19169091010190565b84815260c060208201526000613ce38586613c57565b60a060c0850152613cf961016085018284613ca4565b915050613d096020870187613c57565b60bf19808685030160e0870152613d21848385613ca4565b9350613d3060408a018a613c57565b935091508086850301610100870152613d4a848484613ca4565b9350613d5960608a018a613c57565b935091508086850301610120870152613d73848484613ca4565b9350613d8260808a018a613c57565b93509150808685030161014087015250613d9d838383613ca4565b9350505050613dc360408301858035825260208082013590830152604090810135910152565b6001600160701b03831660a083015295945050505050565b60008060008060808587031215613df157600080fd5b8451613dfc816134a9565b6020860151909450613e0d816134a9565b6040860151606090960151949790965092505050565b600060208284031215613e3557600080fd5b5051919050565b6020808252601390820152721dda5d1a191c985dc81155120819985a5b1959606a1b604082015260600190565b6001600160701b03818116838216019080821115613e8957613e896136fe565b5092915050565b85815260a060208201526000613ea960a0830187613317565b8281036040840152613ebb8187613317565b9150506001600160701b0380851660608401528084166080840152509695505050505050565b600060208284031215613ef357600080fd5b8151613691816134a9565b6001600160a01b0393841681529190921660208201526001600160701b03909116604082015260600190565b6001600160701b03818116838216028082169190828114613f4d57613f4d6136fe565b505092915050565b60006001600160701b0380841680613f6f57613f6f61379c565b9216919091049291505056fea264697066735822122062c52770f01454c4094ed478bcd51ec3257f581936edf496ae9b7df582bbe94964736f6c63430008110033",
  "devdoc": {
    "author": "Teddy Chambard, Nicolas Thierry",
    "kind": "dev",
    "methods": {
      "abortProject(uint256)": {
        "params": {
          "_id": "The project ID"
        }
      },
      "addPoolLiquidity(address,address,address,uint256,uint256)": {
        "details": "This function is compliant with any created project ERC20 token and also with ETH values Caller can either provide simple amounts as parameter or give some Ethers as value. Tokens addresses could have been enought to determine pool address thanks to Clones factory, but giving pool address here is gas saving.",
        "params": {
          "_amountX": "The amount of first token. MUST be 0 _tokenX is WETH address",
          "_amountY": "The amount of the second token. MUST be 0 _tokenY is WETH address",
          "_pool": "The pool address",
          "_tokenX": "The first token address",
          "_tokenY": "The second token address"
        }
      },
      "claimProjectTokens(uint256)": {
        "params": {
          "_projectId": "The project ID"
        }
      },
      "commitOnProject(uint256)": {
        "params": {
          "_id": "The project ID"
        }
      },
      "createProject((string,string,string,string,string),(uint256,uint256,uint256),address,uint112)": {
        "params": {
          "_ico": "The project ICO settings",
          "_info": "The project informations",
          "_partnerAddress": "The project owner (partner) address",
          "_totalSupply": "The total supply of tokens that would be created if the project ICO reaches its goal"
        }
      },
      "owner()": {
        "details": "Returns the address of the current owner."
      },
      "removePoolLiquidity(address,uint256)": {
        "params": {
          "_amountLP": "The amount of LP token to give back to the pool.",
          "_pool": "The pool address"
        }
      },
      "renounceOwnership()": {
        "details": "Leaves the contract without owner. It will not be possible to call `onlyOwner` functions anymore. Can only be called by the current owner. NOTE: Renouncing ownership will leave the contract without an owner, thereby removing any functionality that is only available to the owner."
      },
      "setFactories(address,address)": {
        "details": "This function is reserved for deployer, and needs to be called to initialize factories addresses"
      },
      "swap(address,address,uint256)": {
        "params": {
          "_amountOut": "The amount of other token provided by the pool that caller want to get. Providing the output amount allows the protocol to determine required input amount in the limit of available liquidities Caller needs to compute output amount before calling this function. For this purpose, Pool contract provides `computeMaxOutputAmount` function",
          "_pool": "The pool address",
          "_tokenIn": "The address of token caller owns and want to exchange."
        }
      },
      "transferOwnership(address)": {
        "details": "Transfers ownership of the contract to a new account (`newOwner`). Can only be called by the current owner."
      },
      "withdrawOnProject(uint256)": {
        "params": {
          "_id": "The project ID"
        }
      }
    },
    "version": 1
  },
  "userdoc": {
    "kind": "user",
    "methods": {
      "abortProject(uint256)": {
        "notice": "Allows Fans Society to abort a project"
      },
      "addPoolLiquidity(address,address,address,uint256,uint256)": {
        "notice": "Allow anyone to add liquidity on specified pool"
      },
      "claimProjectTokens(uint256)": {
        "notice": "Can be called by ICO participant when project has been validated by partner (status launched) This will reward the participant with the created ERC20 token"
      },
      "commitOnProject(uint256)": {
        "notice": "Allows anyone to participant to the project ICO ETH value is expected here, and should match with project ICO settings (min, max...)"
      },
      "createProject((string,string,string,string,string),(uint256,uint256,uint256),address,uint112)": {
        "notice": "Allows Fans Society deployer to create a new project"
      },
      "getEthUsdPrice()": {
        "notice": "Allow to retrieve ETH / USD price with Chainlink aggregator"
      },
      "launchProject(uint256)": {
        "notice": "This function can be called only by project owner (partner) when a project reached is target (status compeleted)"
      },
      "removePoolLiquidity(address,uint256)": {
        "notice": "Allow liquidity providers to remove liquidity on specified pool Caller MUST own LP tokens to be able to use this function. LP tokens will be burnt, and ERC20 and/or ETH will be returned to the caller"
      },
      "swap(address,address,uint256)": {
        "notice": "Allow anyone to exchange ERC20 tokens (ETH is supported)"
      },
      "withdrawOnProject(uint256)": {
        "notice": "Allows any participant of a project ICO to withdraw his funds"
      }
    },
    "notice": "Main Fans Society Automated Market Maker ContractThis contract is responsible for all projects management and it alaso offers DEX capabilities addressing liquidity pools",
    "version": 1
  },
  "storageLayout": {
    "storage": [
      {
        "astId": 1327,
        "contract": "contracts/AMM.sol:AMM",
        "label": "_owner",
        "offset": 0,
        "slot": "0",
        "type": "t_address"
      },
      {
        "astId": 1523,
        "contract": "contracts/AMM.sol:AMM",
        "label": "_status",
        "offset": 0,
        "slot": "1",
        "type": "t_uint256"
      },
      {
        "astId": 4808,
        "contract": "contracts/AMM.sol:AMM",
        "label": "count",
        "offset": 0,
        "slot": "2",
        "type": "t_uint256"
      },
      {
        "astId": 4813,
        "contract": "contracts/AMM.sol:AMM",
        "label": "projects",
        "offset": 0,
        "slot": "3",
        "type": "t_mapping(t_uint256,t_struct(Project)4806_storage)"
      },
      {
        "astId": 4819,
        "contract": "contracts/AMM.sol:AMM",
        "label": "commitments",
        "offset": 0,
        "slot": "4",
        "type": "t_mapping(t_uint256,t_mapping(t_address,t_uint256))"
      },
      {
        "astId": 3545,
        "contract": "contracts/AMM.sol:AMM",
        "label": "fansSociety",
        "offset": 0,
        "slot": "5",
        "type": "t_address"
      },
      {
        "astId": 3548,
        "contract": "contracts/AMM.sol:AMM",
        "label": "weth",
        "offset": 0,
        "slot": "6",
        "type": "t_address"
      },
      {
        "astId": 3551,
        "contract": "contracts/AMM.sol:AMM",
        "label": "ethUsdtAggregator",
        "offset": 0,
        "slot": "7",
        "type": "t_address"
      },
      {
        "astId": 3554,
        "contract": "contracts/AMM.sol:AMM",
        "label": "tokenFactory",
        "offset": 0,
        "slot": "8",
        "type": "t_address"
      },
      {
        "astId": 3557,
        "contract": "contracts/AMM.sol:AMM",
        "label": "poolFactory",
        "offset": 0,
        "slot": "9",
        "type": "t_address"
      }
    ],
    "types": {
      "t_address": {
        "encoding": "inplace",
        "label": "address",
        "numberOfBytes": "20"
      },
      "t_enum(ProjectStatus)4768": {
        "encoding": "inplace",
        "label": "enum Projects.ProjectStatus",
        "numberOfBytes": "1"
      },
      "t_mapping(t_address,t_uint256)": {
        "encoding": "mapping",
        "key": "t_address",
        "label": "mapping(address => uint256)",
        "numberOfBytes": "32",
        "value": "t_uint256"
      },
      "t_mapping(t_uint256,t_mapping(t_address,t_uint256))": {
        "encoding": "mapping",
        "key": "t_uint256",
        "label": "mapping(uint256 => mapping(address => uint256))",
        "numberOfBytes": "32",
        "value": "t_mapping(t_address,t_uint256)"
      },
      "t_mapping(t_uint256,t_struct(Project)4806_storage)": {
        "encoding": "mapping",
        "key": "t_uint256",
        "label": "mapping(uint256 => struct Projects.Project)",
        "numberOfBytes": "32",
        "value": "t_struct(Project)4806_storage"
      },
      "t_string_storage": {
        "encoding": "bytes",
        "label": "string",
        "numberOfBytes": "32"
      },
      "t_struct(Project)4806_storage": {
        "encoding": "inplace",
        "label": "struct Projects.Project",
        "members": [
          {
            "astId": 4788,
            "contract": "contracts/AMM.sol:AMM",
            "label": "id",
            "offset": 0,
            "slot": "0",
            "type": "t_uint256"
          },
          {
            "astId": 4790,
            "contract": "contracts/AMM.sol:AMM",
            "label": "fund",
            "offset": 0,
            "slot": "1",
            "type": "t_uint256"
          },
          {
            "astId": 4792,
            "contract": "contracts/AMM.sol:AMM",
            "label": "totalSupply",
            "offset": 0,
            "slot": "2",
            "type": "t_uint112"
          },
          {
            "astId": 4795,
            "contract": "contracts/AMM.sol:AMM",
            "label": "info",
            "offset": 0,
            "slot": "3",
            "type": "t_struct(ProjectInfo)4779_storage"
          },
          {
            "astId": 4798,
            "contract": "contracts/AMM.sol:AMM",
            "label": "ico",
            "offset": 0,
            "slot": "8",
            "type": "t_struct(ProjectICO)4786_storage"
          },
          {
            "astId": 4801,
            "contract": "contracts/AMM.sol:AMM",
            "label": "status",
            "offset": 0,
            "slot": "11",
            "type": "t_enum(ProjectStatus)4768"
          },
          {
            "astId": 4803,
            "contract": "contracts/AMM.sol:AMM",
            "label": "partnerAddress",
            "offset": 1,
            "slot": "11",
            "type": "t_address"
          },
          {
            "astId": 4805,
            "contract": "contracts/AMM.sol:AMM",
            "label": "tokenAddress",
            "offset": 0,
            "slot": "12",
            "type": "t_address"
          }
        ],
        "numberOfBytes": "416"
      },
      "t_struct(ProjectICO)4786_storage": {
        "encoding": "inplace",
        "label": "struct Projects.ProjectICO",
        "members": [
          {
            "astId": 4781,
            "contract": "contracts/AMM.sol:AMM",
            "label": "target",
            "offset": 0,
            "slot": "0",
            "type": "t_uint256"
          },
          {
            "astId": 4783,
            "contract": "contracts/AMM.sol:AMM",
            "label": "minInvest",
            "offset": 0,
            "slot": "1",
            "type": "t_uint256"
          },
          {
            "astId": 4785,
            "contract": "contracts/AMM.sol:AMM",
            "label": "maxInvest",
            "offset": 0,
            "slot": "2",
            "type": "t_uint256"
          }
        ],
        "numberOfBytes": "96"
      },
      "t_struct(ProjectInfo)4779_storage": {
        "encoding": "inplace",
        "label": "struct Projects.ProjectInfo",
        "members": [
          {
            "astId": 4770,
            "contract": "contracts/AMM.sol:AMM",
            "label": "name",
            "offset": 0,
            "slot": "0",
            "type": "t_string_storage"
          },
          {
            "astId": 4772,
            "contract": "contracts/AMM.sol:AMM",
            "label": "symbol",
            "offset": 0,
            "slot": "1",
            "type": "t_string_storage"
          },
          {
            "astId": 4774,
            "contract": "contracts/AMM.sol:AMM",
            "label": "description",
            "offset": 0,
            "slot": "2",
            "type": "t_string_storage"
          },
          {
            "astId": 4776,
            "contract": "contracts/AMM.sol:AMM",
            "label": "avatarCid",
            "offset": 0,
            "slot": "3",
            "type": "t_string_storage"
          },
          {
            "astId": 4778,
            "contract": "contracts/AMM.sol:AMM",
            "label": "coverCid",
            "offset": 0,
            "slot": "4",
            "type": "t_string_storage"
          }
        ],
        "numberOfBytes": "160"
      },
      "t_uint112": {
        "encoding": "inplace",
        "label": "uint112",
        "numberOfBytes": "14"
      },
      "t_uint256": {
        "encoding": "inplace",
        "label": "uint256",
        "numberOfBytes": "32"
      }
    }
  }
}