{
  "address": "0x75c68e69775fA3E9DD38eA32E554f6BF259C1135",
  "abi": [
    {
      "inputs": [
        {
          "internalType": "address",
          "name": "_fansSocietyAddress",
          "type": "address"
        },
        {
          "internalType": "address",
          "name": "_wethTokenAddress",
          "type": "address"
        },
        {
          "internalType": "address",
          "name": "_tokenFactoryAddress",
          "type": "address"
        },
        {
          "internalType": "address",
          "name": "_poolFactoryAddress",
          "type": "address"
        }
      ],
      "stateMutability": "nonpayable",
      "type": "constructor"
    },
    {
      "anonymous": false,
      "inputs": [
        {
          "indexed": true,
          "internalType": "uint256",
          "name": "id",
          "type": "uint256"
        },
        {
          "indexed": true,
          "internalType": "address",
          "name": "caller",
          "type": "address"
        },
        {
          "indexed": false,
          "internalType": "uint256",
          "name": "amount",
          "type": "uint256"
        }
      ],
      "name": "Committed",
      "type": "event"
    },
    {
      "anonymous": false,
      "inputs": [
        {
          "indexed": true,
          "internalType": "address",
          "name": "previousOwner",
          "type": "address"
        },
        {
          "indexed": true,
          "internalType": "address",
          "name": "newOwner",
          "type": "address"
        }
      ],
      "name": "OwnershipTransferred",
      "type": "event"
    },
    {
      "anonymous": false,
      "inputs": [
        {
          "indexed": false,
          "internalType": "uint256",
          "name": "id",
          "type": "uint256"
        },
        {
          "indexed": false,
          "internalType": "string",
          "name": "name",
          "type": "string"
        },
        {
          "indexed": false,
          "internalType": "string",
          "name": "symbol",
          "type": "string"
        },
        {
          "indexed": false,
          "internalType": "string",
          "name": "description",
          "type": "string"
        },
        {
          "indexed": false,
          "internalType": "uint256",
          "name": "target",
          "type": "uint256"
        },
        {
          "indexed": false,
          "internalType": "uint256",
          "name": "minInvest",
          "type": "uint256"
        },
        {
          "indexed": false,
          "internalType": "uint256",
          "name": "maxInvest",
          "type": "uint256"
        },
        {
          "indexed": false,
          "internalType": "uint32",
          "name": "totalSupply",
          "type": "uint32"
        },
        {
          "indexed": true,
          "internalType": "address",
          "name": "partnerAddress",
          "type": "address"
        }
      ],
      "name": "ProjectCreated",
      "type": "event"
    },
    {
      "anonymous": false,
      "inputs": [
        {
          "indexed": true,
          "internalType": "uint256",
          "name": "id",
          "type": "uint256"
        },
        {
          "indexed": false,
          "internalType": "enum Projects.ProjectStatus",
          "name": "status",
          "type": "uint8"
        }
      ],
      "name": "ProjectStatusChanged",
      "type": "event"
    },
    {
      "anonymous": false,
      "inputs": [
        {
          "indexed": true,
          "internalType": "uint256",
          "name": "projectId",
          "type": "uint256"
        },
        {
          "indexed": true,
          "internalType": "address",
          "name": "token",
          "type": "address"
        },
        {
          "indexed": true,
          "internalType": "address",
          "name": "caller",
          "type": "address"
        },
        {
          "indexed": false,
          "internalType": "uint256",
          "name": "amount",
          "type": "uint256"
        }
      ],
      "name": "TokensClaimed",
      "type": "event"
    },
    {
      "anonymous": false,
      "inputs": [
        {
          "indexed": true,
          "internalType": "uint256",
          "name": "id",
          "type": "uint256"
        },
        {
          "indexed": true,
          "internalType": "address",
          "name": "caller",
          "type": "address"
        },
        {
          "indexed": false,
          "internalType": "uint256",
          "name": "amount",
          "type": "uint256"
        }
      ],
      "name": "Withdrawed",
      "type": "event"
    },
    {
      "inputs": [
        {
          "internalType": "uint256",
          "name": "_id",
          "type": "uint256"
        }
      ],
      "name": "abortProject",
      "outputs": [],
      "stateMutability": "nonpayable",
      "type": "function"
    },
    {
      "inputs": [
        {
          "internalType": "address",
          "name": "_tokenX",
          "type": "address"
        },
        {
          "internalType": "address",
          "name": "_tokenY",
          "type": "address"
        },
        {
          "internalType": "uint256",
          "name": "_amountX",
          "type": "uint256"
        },
        {
          "internalType": "uint256",
          "name": "_amountY",
          "type": "uint256"
        }
      ],
      "name": "addPoolLiquidity",
      "outputs": [],
      "stateMutability": "payable",
      "type": "function"
    },
    {
      "inputs": [
        {
          "internalType": "uint256",
          "name": "_projectId",
          "type": "uint256"
        }
      ],
      "name": "claimProjectTokens",
      "outputs": [],
      "stateMutability": "nonpayable",
      "type": "function"
    },
    {
      "inputs": [
        {
          "internalType": "uint256",
          "name": "_id",
          "type": "uint256"
        }
      ],
      "name": "commitOnProject",
      "outputs": [],
      "stateMutability": "payable",
      "type": "function"
    },
    {
      "inputs": [
        {
          "internalType": "uint256",
          "name": "",
          "type": "uint256"
        },
        {
          "internalType": "address",
          "name": "",
          "type": "address"
        }
      ],
      "name": "commitments",
      "outputs": [
        {
          "internalType": "uint256",
          "name": "",
          "type": "uint256"
        }
      ],
      "stateMutability": "view",
      "type": "function"
    },
    {
      "inputs": [],
      "name": "count",
      "outputs": [
        {
          "internalType": "uint256",
          "name": "",
          "type": "uint256"
        }
      ],
      "stateMutability": "view",
      "type": "function"
    },
    {
      "inputs": [
        {
          "internalType": "address",
          "name": "_partnerAddress",
          "type": "address"
        },
        {
          "internalType": "string",
          "name": "_name",
          "type": "string"
        },
        {
          "internalType": "string",
          "name": "_symbol",
          "type": "string"
        },
        {
          "internalType": "string",
          "name": "_description",
          "type": "string"
        },
        {
          "internalType": "uint256",
          "name": "_target",
          "type": "uint256"
        },
        {
          "internalType": "uint256",
          "name": "_minInvest",
          "type": "uint256"
        },
        {
          "internalType": "uint256",
          "name": "_maxInvest",
          "type": "uint256"
        },
        {
          "internalType": "uint32",
          "name": "_totalSupply",
          "type": "uint32"
        }
      ],
      "name": "createProject",
      "outputs": [],
      "stateMutability": "nonpayable",
      "type": "function"
    },
    {
      "inputs": [
        {
          "internalType": "uint256",
          "name": "_id",
          "type": "uint256"
        }
      ],
      "name": "launchProject",
      "outputs": [],
      "stateMutability": "nonpayable",
      "type": "function"
    },
    {
      "inputs": [],
      "name": "owner",
      "outputs": [
        {
          "internalType": "address",
          "name": "",
          "type": "address"
        }
      ],
      "stateMutability": "view",
      "type": "function"
    },
    {
      "inputs": [
        {
          "internalType": "uint256",
          "name": "",
          "type": "uint256"
        }
      ],
      "name": "projects",
      "outputs": [
        {
          "internalType": "string",
          "name": "name",
          "type": "string"
        },
        {
          "internalType": "string",
          "name": "symbol",
          "type": "string"
        },
        {
          "internalType": "string",
          "name": "description",
          "type": "string"
        },
        {
          "internalType": "uint256",
          "name": "id",
          "type": "uint256"
        },
        {
          "internalType": "uint256",
          "name": "fund",
          "type": "uint256"
        },
        {
          "internalType": "uint256",
          "name": "target",
          "type": "uint256"
        },
        {
          "internalType": "uint256",
          "name": "minInvest",
          "type": "uint256"
        },
        {
          "internalType": "uint256",
          "name": "maxInvest",
          "type": "uint256"
        },
        {
          "internalType": "uint32",
          "name": "totalSupply",
          "type": "uint32"
        },
        {
          "internalType": "enum Projects.ProjectStatus",
          "name": "status",
          "type": "uint8"
        },
        {
          "internalType": "address",
          "name": "partnerAddress",
          "type": "address"
        },
        {
          "internalType": "address",
          "name": "tokenAddress",
          "type": "address"
        }
      ],
      "stateMutability": "view",
      "type": "function"
    },
    {
      "inputs": [
        {
          "internalType": "address",
          "name": "_tokenX",
          "type": "address"
        },
        {
          "internalType": "address",
          "name": "_tokenY",
          "type": "address"
        },
        {
          "internalType": "uint256",
          "name": "_amountLP",
          "type": "uint256"
        }
      ],
      "name": "removePoolLiquidity",
      "outputs": [
        {
          "internalType": "uint256",
          "name": "amountX",
          "type": "uint256"
        },
        {
          "internalType": "uint256",
          "name": "amountY",
          "type": "uint256"
        }
      ],
      "stateMutability": "nonpayable",
      "type": "function"
    },
    {
      "inputs": [],
      "name": "renounceOwnership",
      "outputs": [],
      "stateMutability": "nonpayable",
      "type": "function"
    },
    {
      "inputs": [
        {
          "internalType": "address",
          "name": "_tokenIn",
          "type": "address"
        },
        {
          "internalType": "address",
          "name": "_tokenOut",
          "type": "address"
        },
        {
          "internalType": "uint256",
          "name": "_amount",
          "type": "uint256"
        }
      ],
      "name": "swap",
      "outputs": [],
      "stateMutability": "payable",
      "type": "function"
    },
    {
      "inputs": [
        {
          "internalType": "address",
          "name": "newOwner",
          "type": "address"
        }
      ],
      "name": "transferOwnership",
      "outputs": [],
      "stateMutability": "nonpayable",
      "type": "function"
    },
    {
      "inputs": [
        {
          "internalType": "uint256",
          "name": "_id",
          "type": "uint256"
        }
      ],
      "name": "withdrawOnProject",
      "outputs": [],
      "stateMutability": "nonpayable",
      "type": "function"
    }
  ],
  "transactionHash": "0xbc661afc178a3d984424e2161e97e4b43ec6b91e3229b0d5f21759e1555b0dbc",
  "args": [
    "0xa0Ee7A142d267C1f36714E4a8F75612F20a79720",
    "0x114e375B6FCC6d6fCb68c7A1d407E652C54F25FB",
    "0xe38b6847E611e942E6c80eD89aE867F522402e80",
    "0x7580708993de7CA120E957A62f26A5dDD4b3D8aC"
  ],
  "numDeployments": 7,
  "solcInputHash": "72bb4695c6797aec02ad790c9ae20acb",
  "bytecode": "0x60806040523480156200001157600080fd5b50604051620030dd380380620030dd833981016040819052620000349162000100565b6200003f3362000093565b600480546001600160a01b039586166001600160a01b03199182161790915560058054948616948216949094179093556006805492851692841692909217909155600780549190931691161790556200015d565b600080546001600160a01b038381166001600160a01b0319831681178455604051919092169283917f8be0079c531659141344cd1fd0a4f28419497f9722a3daafe3b4186f6b6457e09190a35050565b80516001600160a01b0381168114620000fb57600080fd5b919050565b600080600080608085870312156200011757600080fd5b6200012285620000e3565b93506200013260208601620000e3565b92506200014260408601620000e3565b91506200015260608601620000e3565b905092959194509250565b612f70806200016d6000396000f3fe6080604052600436106100e85760003560e01c806360ae7c3b1161008a578063df791e5011610059578063df791e5014610268578063e90d4c061461027b578063f1244ad8146102b3578063f2fde38b146102d357600080fd5b806360ae7c3b146101eb578063715018a61461020b5780638da5cb5b14610220578063a3bfb7bd1461024857600080fd5b806320fb54b7116100c657806320fb54b71461016357806341414f1a1461017657806344a9ae8c146101ab5780634f8d7dc3146101cb57600080fd5b806306661abd146100ed578063107046bd1461011657806316509ee21461014e575b600080fd5b3480156100f957600080fd5b5061010360015481565b6040519081526020015b60405180910390f35b34801561012257600080fd5b5061013661013136600461271c565b6102f3565b60405161010d9c9b9a999897969594939291906127b3565b61016161015c36600461271c565b610501565b005b610161610171366004612879565b61070b565b34801561018257600080fd5b506101966101913660046128bf565b610cc1565b6040805192835260208301919091520161010d565b3480156101b757600080fd5b506101616101c636600461271c565b610f1f565b3480156101d757600080fd5b506101616101e6366004612956565b6110e1565b3480156101f757600080fd5b5061016161020636600461271c565b611384565b34801561021757600080fd5b506101616117b7565b34801561022c57600080fd5b506000546040516001600160a01b03909116815260200161010d565b34801561025457600080fd5b5061016161026336600461271c565b6117cb565b6101616102763660046128bf565b611884565b34801561028757600080fd5b50610103610296366004612a32565b600360209081526000928352604080842090915290825290205481565b3480156102bf57600080fd5b506101616102ce36600461271c565b611bfd565b3480156102df57600080fd5b506101616102ee366004612a62565b612481565b60026020526000908152604090208054819061030e90612a86565b80601f016020809104026020016040519081016040528092919081815260200182805461033a90612a86565b80156103875780601f1061035c57610100808354040283529160200191610387565b820191906000526020600020905b81548152906001019060200180831161036a57829003601f168201915b50505050509080600101805461039c90612a86565b80601f01602080910402602001604051908101604052809291908181526020018280546103c890612a86565b80156104155780601f106103ea57610100808354040283529160200191610415565b820191906000526020600020905b8154815290600101906020018083116103f857829003601f168201915b50505050509080600201805461042a90612a86565b80601f016020809104026020016040519081016040528092919081815260200182805461045690612a86565b80156104a35780601f10610478576101008083540402835291602001916104a3565b820191906000526020600020905b81548152906001019060200180831161048657829003601f168201915b5050506003840154600485015460058601546006870154600788015460088901546009909901549798949793965091945092909163ffffffff82169160ff600160201b820416916001600160a01b03600160281b909204821691168c565b80600080600083815260026020526040902060080154600160201b900460ff1660038111156105325761053261277b565b146105585760405162461bcd60e51b815260040161054f90612ac0565b60405180910390fd5b60008381526002602090815260408083206006810154600384528285203386529093529220546105889034612b02565b10156105c35760405162461bcd60e51b815260206004820152600a60248201526909cdee840cadcdeeaced60b31b604482015260640161054f565b600781015460008581526003602090815260408083203384529091529020546105ec9034612b02565b11156106255760405162461bcd60e51b81526020600482015260086024820152670a8dede40daeac6d60c31b604482015260640161054f565b348160040160008282546106399190612b02565b9091555050600084815260036020908152604080832033845290915281208054349290610667908490612b02565b9091555050604051348152339085907f245cbccbc6875e4b0475a653568fd4f7c2dae5fb8929e33c0d66dc530ba11b009060200160405180910390a380600501548160040154106107055760088101805464ff00000000191664020000000017905560405184907f35872be4c2085eaf9ca9a10d056eefec79968f825846792411ede75f331e9392906106fc90600290612b1b565b60405180910390a25b50505050565b60075460405163298d501f60e11b81526001600160a01b0386811660048301528581166024830152600092169063531aa03e90604401602060405180830381865afa15801561075e573d6000803e3d6000fd5b505050506040513d601f19601f820116820180604052508101906107829190612b29565b604051630fa6707960e21b81526001600160a01b038781166004830152919250600091829190841690633e99c1e4906024016040805180830381865afa1580156107d0573d6000803e3d6000fd5b505050506040513d601f19601f820116820180604052508101906107f49190612b46565b60055491935091506001600160a01b03908116908816036109b3578415801561081d5750600084115b80156108295750600034115b6108455760405162461bcd60e51b815260040161054f90612b6a565b600560009054906101000a90046001600160a01b03166001600160a01b031663d0e30db0346040518263ffffffff1660e01b81526004016000604051808303818588803b15801561089557600080fd5b505af11580156108a9573d6000803e3d6000fd5b505060055460405163a9059cbb60e01b81526001600160a01b038881166004830152346024830152909116935063a9059cbb925060440190506020604051808303816000875af1158015610901573d6000803e3d6000fd5b505050506040513d601f19601f820116820180604052508101906109259190612b98565b61093157610931612bba565b60008261093e8334612bd0565b6109489190612bfd565b604051632142170760e11b81529091506001600160a01b038816906342842e0e9061097b90339088908690600401612c11565b600060405180830381600087803b15801561099557600080fd5b505af11580156109a9573d6000803e3d6000fd5b5050505050610c4d565b6005546001600160a01b0390811690871603610b3557831580156109d75750600085115b80156109e35750600034115b6109ff5760405162461bcd60e51b815260040161054f90612b6a565b600560009054906101000a90046001600160a01b03166001600160a01b031663d0e30db0346040518263ffffffff1660e01b81526004016000604051808303818588803b158015610a4f57600080fd5b505af1158015610a63573d6000803e3d6000fd5b505060055460405163a9059cbb60e01b81526001600160a01b038881166004830152346024830152909116935063a9059cbb925060440190506020604051808303816000875af1158015610abb573d6000803e3d6000fd5b505050506040513d601f19601f82011682018060405250810190610adf9190612b98565b610aeb57610aeb612bba565b600081610af88434612bd0565b610b029190612bfd565b604051632142170760e11b81529091506001600160a01b038916906342842e0e9061097b90339088908690600401612c11565b34158015610b435750600085115b8015610b4f5750600084115b610b6b5760405162461bcd60e51b815260040161054f90612b6a565b604051632142170760e11b81526001600160a01b038816906342842e0e90610b9b90339087908a90600401612c11565b600060405180830381600087803b158015610bb557600080fd5b505af1158015610bc9573d6000803e3d6000fd5b505050506000828234610bdc9190612bd0565b610be69190612bfd565b604051632142170760e11b81529091506001600160a01b038816906342842e0e90610c1990339088908690600401612c11565b600060405180830381600087803b158015610c3357600080fd5b505af1158015610c47573d6000803e3d6000fd5b50505050505b604051638f01e2df60e01b81523360048201526001600160a01b03841690638f01e2df906024016020604051808303816000875af1158015610c93573d6000803e3d6000fd5b505050506040513d601f19601f82011682018060405250810190610cb79190612c35565b5050505050505050565b60075460405163298d501f60e11b81526001600160a01b0385811660048301528481166024830152600092839283929091169063531aa03e90604401602060405180830381865afa158015610d1a573d6000803e3d6000fd5b505050506040513d601f19601f82011682018060405250810190610d3e9190612b29565b604051630fa6707960e21b81526001600160a01b038881166004830152919250600091829190841690633e99c1e4906024016040805180830381865afa158015610d8c573d6000803e3d6000fd5b505050506040513d601f19601f82011682018060405250810190610db09190612b46565b91509150600082118015610dc45750600081115b610e075760405162461bcd60e51b81526020600482015260146024820152736e6f7420656e6f756768206c697175696469747960601b604482015260640161054f565b604051632142170760e11b81526001600160a01b038416906342842e0e90610e3790339087908b90600401612c11565b600060405180830381600087803b158015610e5157600080fd5b505af1158015610e65573d6000803e3d6000fd5b505060405163a4dd03d760e01b8152336004820152600092508291506001600160a01b0386169063a4dd03d79060240160408051808303816000875af1158015610eb3573d6000803e3d6000fd5b505050506040513d601f19601f82011682018060405250810190610ed79190612b46565b915091506000610ee78b8b6124fa565b509050806001600160a01b03168b6001600160a01b031603610f0a578282610f0d565b81835b909c909b509950505050505050505050565b80600280600083815260026020526040902060080154600160201b900460ff166003811115610f5057610f5061277b565b10610f6d5760405162461bcd60e51b815260040161054f90612ac0565b60008381526003602090815260408083203384529091529020548390610fc55760405162461bcd60e51b815260206004820152600d60248201526c139bc818dbdb5b5a5d1b595b9d609a1b604482015260640161054f565b600084815260036020908152604080832033845282528083205487845260029092528220600401805491928392610ffd908490612c4e565b909155505060008581526003602090815260408083203380855292528083208390555183908381818185875af1925050503d806000811461105a576040519150601f19603f3d011682016040523d82523d6000602084013e61105f565b606091505b50509050806110a25760405162461bcd60e51b815260206004820152600f60248201526e1dda5d1a191c985dc819985a5b1959608a1b604482015260640161054f565b604051828152339087907f7fd902d6e186354d1617b957fc4cb4a144f44a19cc5c4525cfb772d707c405c29060200160405180910390a3505050505050565b6110e96125c0565b600180549060006110f983612c61565b91905055506040518061018001604052808b8b8080601f016020809104026020016040519081016040528093929190818152602001838380828437600092019190915250505090825250604080516020601f8c018190048102820181019092528a815291810191908b908b9081908401838280828437600092019190915250505090825250604080516020601f8a01819004810282018101909252888152918101919089908990819084018382808284376000920182905250938552505060015460208401525060408201819052606082018790526080820186905260a0820185905263ffffffff841660c083015260e09091019081526001600160a01b038d16602080830191909152600060409283018190526001548152600290915220815181906112269082612cdf565b506020820151600182019061123b9082612cdf565b50604082015160028201906112509082612cdf565b5060608201516003808301919091556080830151600483015560a0830151600583015560c0830151600683015560e0830151600783015561010083015160088301805463ffffffff90921663ffffffff1983168117825561012086015193919264ffffffffff19161790600160201b9084908111156112d1576112d161277b565b021790555061014082015160088201805465010000000000600160c81b031916600160281b6001600160a01b039384160217905561016090920151600990910180546001600160a01b031916918316919091179055600154604051918d16917f316489c0d9f70d001ecba3e93e6000f7f0d031c42208d615de6a45067cc0a7fa9161136f918e908e908e908e908e908e908e908e908e908e90612dc8565b60405180910390a25050505050505050505050565b80600380600083815260026020526040902060080154600160201b900460ff1660038111156113b5576113b561277b565b146113d25760405162461bcd60e51b815260040161054f90612ac0565b6000838152600360209081526040808320338452909152902054839061142a5760405162461bcd60e51b815260206004820152600d60248201526c139bc818dbdb5b5a5d1b595b9d609a1b604482015260640161054f565b6000848152600260205260408082208151610180810190925280548290829061145290612a86565b80601f016020809104026020016040519081016040528092919081815260200182805461147e90612a86565b80156114cb5780601f106114a0576101008083540402835291602001916114cb565b820191906000526020600020905b8154815290600101906020018083116114ae57829003601f168201915b505050505081526020016001820180546114e490612a86565b80601f016020809104026020016040519081016040528092919081815260200182805461151090612a86565b801561155d5780601f106115325761010080835404028352916020019161155d565b820191906000526020600020905b81548152906001019060200180831161154057829003601f168201915b5050505050815260200160028201805461157690612a86565b80601f01602080910402602001604051908101604052809291908181526020018280546115a290612a86565b80156115ef5780601f106115c4576101008083540402835291602001916115ef565b820191906000526020600020905b8154815290600101906020018083116115d257829003601f168201915b50505091835250506003828101546020830152600483015460408301526005830154606083015260068301546080830152600783015460a0830152600883015463ffffffff811660c084015260e090920191600160201b900460ff169081111561165b5761165b61277b565b600381111561166c5761166c61277b565b815260088201546001600160a01b03600160281b909104811660208084019190915260099093015416604091820152600088815260038352818120338252909252812054610100830151929350916116c99063ffffffff1661261a565b505091505060008360800151838364ffffffffff166116e89190612bd0565b6116f29190612bfd565b610160850151604051635569f64b60e11b8152336004820152602481018390529192506001600160a01b03169063aad3ec9690604401600060405180830381600087803b15801561174257600080fd5b505af1158015611756573d6000803e3d6000fd5b50505050336001600160a01b03168461016001516001600160a01b0316897f9c4945d842cc8c6704877a0defcd9ab09f6d77b24a369a95c2610506c6c38ee7846040516117a591815260200190565b60405180910390a45050505050505050565b6117bf6125c0565b6117c9600061268f565b565b6117d36125c0565b80600080600083815260026020526040902060080154600160201b900460ff1660038111156118045761180461277b565b146118215760405162461bcd60e51b815260040161054f90612ac0565b60008381526002602052604090819020600801805464ff000000001916600160201b1790555183907f35872be4c2085eaf9ca9a10d056eefec79968f825846792411ede75f331e93929061187790600190612b1b565b60405180910390a2505050565b60075460405163298d501f60e11b81526001600160a01b0385811660048301528481166024830152600092169063531aa03e90604401602060405180830381865afa1580156118d7573d6000803e3d6000fd5b505050506040513d601f19601f820116820180604052508101906118fb9190612b29565b604051630fa6707960e21b81526001600160a01b038681166004830152919250600091829190841690633e99c1e4906024016040805180830381865afa158015611949573d6000803e3d6000fd5b505050506040513d601f19601f8201168201806040525081019061196d9190612b46565b915091506000821180156119815750600081115b6119c45760405162461bcd60e51b81526020600482015260146024820152736e6f7420656e6f756768206c697175696469747960601b604482015260640161054f565b6005546001600160a01b0390811690871603611af557831580156119e85750600034115b611a045760405162461bcd60e51b815260040161054f90612b6a565b600560009054906101000a90046001600160a01b03166001600160a01b031663d0e30db0346040518263ffffffff1660e01b81526004016000604051808303818588803b158015611a5457600080fd5b505af1158015611a68573d6000803e3d6000fd5b505060055460405163a9059cbb60e01b81526001600160a01b038881166004830152346024830152909116935063a9059cbb925060440190506020604051808303816000875af1158015611ac0573d6000803e3d6000fd5b505050506040513d601f19601f82011682018060405250810190611ae49190612b98565b611af057611af0612bba565b611b82565b34158015611b035750600084115b611b1f5760405162461bcd60e51b815260040161054f90612b6a565b604051632142170760e11b81526001600160a01b038716906342842e0e90611b4f90339087908990600401612c11565b600060405180830381600087803b158015611b6957600080fd5b505af1158015611b7d573d6000803e3d6000fd5b505050505b6040516335bb242760e11b81526001600160a01b038781166004830152336024830152841690636b76484e906044016020604051808303816000875af1158015611bd0573d6000803e3d6000fd5b505050506040513d601f19601f82011682018060405250810190611bf49190612c35565b50505050505050565b80600280600083815260026020526040902060080154600160201b900460ff166003811115611c2e57611c2e61277b565b14611c4b5760405162461bcd60e51b815260040161054f90612ac0565b6000838152600260205260409020600801548390600160281b90046001600160a01b03163314611cab5760405162461bcd60e51b815260206004820152600b60248201526a2737ba103830b93a3732b960a91b604482015260640161054f565b60008481526002602052604080822081516101808101909252805482908290611cd390612a86565b80601f0160208091040260200160405190810160405280929190818152602001828054611cff90612a86565b8015611d4c5780601f10611d2157610100808354040283529160200191611d4c565b820191906000526020600020905b815481529060010190602001808311611d2f57829003601f168201915b50505050508152602001600182018054611d6590612a86565b80601f0160208091040260200160405190810160405280929190818152602001828054611d9190612a86565b8015611dde5780601f10611db357610100808354040283529160200191611dde565b820191906000526020600020905b815481529060010190602001808311611dc157829003601f168201915b50505050508152602001600282018054611df790612a86565b80601f0160208091040260200160405190810160405280929190818152602001828054611e2390612a86565b8015611e705780601f10611e4557610100808354040283529160200191611e70565b820191906000526020600020905b815481529060010190602001808311611e5357829003601f168201915b50505091835250506003828101546020830152600483015460408301526005830154606083015260068301546080830152600783015460a0830152600883015463ffffffff811660c084015260e090920191600160201b900460ff1690811115611edc57611edc61277b565b6003811115611eed57611eed61277b565b815260088201546001600160a01b03600160281b9091048116602083015260099092015490911660409091015261010081015190915060009081908190611f399063ffffffff1661261a565b93509350509250600080611f5086608001516126df565b600654885160208a01516101008b01519496509294506001600160a01b0390911692637a249cfb928e9291309089611f888c8e612e3e565b611f929190612e3e565b6040518763ffffffff1660e01b8152600401611fb396959493929190612e63565b6020604051808303816000875af1158015611fd2573d6000803e3d6000fd5b505050506040513d601f19601f82011682018060405250810190611ff69190612b29565b60008b81526002602052604080822060090180546001600160a01b0319166001600160a01b0394851690811790915560075460055492516311b5751760e11b8152306004820152602481019290925291841660448201529192169063236aea2e906064016020604051808303816000875af1158015612079573d6000803e3d6000fd5b505050506040513d601f19601f8201168201806040525081019061209d9190612b29565b60008c8152600260205260409081902060098101546008909101549151632142170760e11b81529293506001600160a01b03908116926342842e0e926120f3923092600160281b90920416908b90600401612ec3565b600060405180830381600087803b15801561210d57600080fd5b505af1158015612121573d6000803e3d6000fd5b50505060008c8152600260205260409081902060090154600480549251632142170760e11b81526001600160a01b0392831694506342842e0e9361216c9330939116918a9101612ec3565b600060405180830381600087803b15801561218657600080fd5b505af115801561219a573d6000803e3d6000fd5b50505060008c81526002602052604090819020600901549051632142170760e11b81526001600160a01b0390911691506342842e0e906121e290309085908a90600401612ec3565b600060405180830381600087803b1580156121fc57600080fd5b505af1158015612210573d6000803e3d6000fd5b50505050600560009054906101000a90046001600160a01b03166001600160a01b031663d0e30db0846040518263ffffffff1660e01b81526004016000604051808303818588803b15801561226457600080fd5b505af1158015612278573d6000803e3d6000fd5b505060055460405163a9059cbb60e01b81526001600160a01b03868116600483015260248201899052909116935063a9059cbb925060440190506020604051808303816000875af11580156122d1573d6000803e3d6000fd5b505050506040513d601f19601f820116820180604052508101906122f59190612b98565b61230157612301612bba565b60008761014001516001600160a01b03168360405160006040518083038185875af1925050503d8060008114612353576040519150601f19603f3d011682016040523d82523d6000602084013e612358565b606091505b50509050806123a95760405162461bcd60e51b815260206004820152601b60248201527f706172746e657220646973747269627574696f6e206661696c65640000000000604482015260640161054f565b604051638f01e2df60e01b81523060048201526001600160a01b03831690638f01e2df906024016020604051808303816000875af11580156123ef573d6000803e3d6000fd5b505050506040513d601f19601f820116820180604052508101906124139190612c35565b5060008c81526002602052604090819020600801805464ff000000001916640300000000179055518c907f35872be4c2085eaf9ca9a10d056eefec79968f825846792411ede75f331e93929061246b90600390612b1b565b60405180910390a2505050505050505050505050565b6124896125c0565b6001600160a01b0381166124ee5760405162461bcd60e51b815260206004820152602660248201527f4f776e61626c653a206e6577206f776e657220697320746865207a65726f206160448201526564647265737360d01b606482015260840161054f565b6124f78161268f565b50565b600080826001600160a01b0316846001600160a01b03160361254b5760405162461bcd60e51b815260206004820152600a60248201526939b0b6b2903a37b5b2b760b11b604482015260640161054f565b826001600160a01b0316846001600160a01b03161061256b57828461256e565b83835b90925090506001600160a01b0382166125b95760405162461bcd60e51b815260206004820152600d60248201526c34b73b30b634b2103a37b5b2b760991b604482015260640161054f565b9250929050565b6000546001600160a01b031633146117c95760405162461bcd60e51b815260206004820181905260248201527f4f776e61626c653a2063616c6c6572206973206e6f7420746865206f776e6572604482015260640161054f565b60008080806103e861262d8660c8612eed565b6126379190612f16565b93506103e8612648866101ea612eed565b6126529190612f16565b92506103e86126628660b4612eed565b61266c9190612f16565b91506103e861267c866082612eed565b6126869190612f16565b90509193509193565b600080546001600160a01b038381166001600160a01b0319831681178455604051919092169283917f8be0079c531659141344cd1fd0a4f28419497f9722a3daafe3b4186f6b6457e09190a35050565b6000806103e86126f0846064612bd0565b6126fa9190612bfd565b91506103e861270b84610384612bd0565b6127159190612bfd565b9050915091565b60006020828403121561272e57600080fd5b5035919050565b6000815180845260005b8181101561275b5760208185018101518683018201520161273f565b506000602082860101526020601f19601f83011685010191505092915050565b634e487b7160e01b600052602160045260246000fd5b600481106127af57634e487b7160e01b600052602160045260246000fd5b9052565b610180815260006127c861018083018f612735565b82810360208401526127da818f612735565b905082810360408401526127ee818e612735565b9150508a60608301528960808301528860a08301528760c08301528660e083015263ffffffff861661010083015261282a610120830186612791565b6001600160a01b0384811661014084015283166101608301529d9c50505050505050505050505050565b6001600160a01b03811681146124f757600080fd5b803561287481612854565b919050565b6000806000806080858703121561288f57600080fd5b843561289a81612854565b935060208501356128aa81612854565b93969395505050506040820135916060013590565b6000806000606084860312156128d457600080fd5b83356128df81612854565b925060208401356128ef81612854565b929592945050506040919091013590565b60008083601f84011261291257600080fd5b50813567ffffffffffffffff81111561292a57600080fd5b6020830191508360208285010111156125b957600080fd5b803563ffffffff8116811461287457600080fd5b60008060008060008060008060008060006101008c8e03121561297857600080fd5b6129818c612869565b9a5067ffffffffffffffff8060208e0135111561299d57600080fd5b6129ad8e60208f01358f01612900565b909b50995060408d01358110156129c357600080fd5b6129d38e60408f01358f01612900565b909950975060608d01358110156129e957600080fd5b506129fa8d60608e01358e01612900565b909650945060808c0135935060a08c0135925060c08c01359150612a2060e08d01612942565b90509295989b509295989b9093969950565b60008060408385031215612a4557600080fd5b823591506020830135612a5781612854565b809150509250929050565b600060208284031215612a7457600080fd5b8135612a7f81612854565b9392505050565b600181811c90821680612a9a57607f821691505b602082108103612aba57634e487b7160e01b600052602260045260246000fd5b50919050565b6020808252601290820152714261642070726f6a6563742073746174757360701b604082015260600190565b634e487b7160e01b600052601160045260246000fd5b80820180821115612b1557612b15612aec565b92915050565b60208101612b158284612791565b600060208284031215612b3b57600080fd5b8151612a7f81612854565b60008060408385031215612b5957600080fd5b505080516020909101519092909150565b602080825260149082015273696e76616c696420616d6f756e7420737461746560601b604082015260600190565b600060208284031215612baa57600080fd5b81518015158114612a7f57600080fd5b634e487b7160e01b600052600160045260246000fd5b8082028115828204841417612b1557612b15612aec565b634e487b7160e01b600052601260045260246000fd5b600082612c0c57612c0c612be7565b500490565b6001600160a01b039384168152919092166020820152604081019190915260600190565b600060208284031215612c4757600080fd5b5051919050565b81810381811115612b1557612b15612aec565b600060018201612c7357612c73612aec565b5060010190565b634e487b7160e01b600052604160045260246000fd5b601f821115612cda57600081815260208120601f850160051c81016020861015612cb75750805b601f850160051c820191505b81811015612cd657828155600101612cc3565b5050505b505050565b815167ffffffffffffffff811115612cf957612cf9612c7a565b612d0d81612d078454612a86565b84612c90565b602080601f831160018114612d425760008415612d2a5750858301515b600019600386901b1c1916600185901b178555612cd6565b600085815260208120601f198616915b82811015612d7157888601518255948401946001909101908401612d52565b5085821015612d8f5787850151600019600388901b60f8161c191681555b5050505050600190811b01905550565b81835281816020850137506000828201602090810191909152601f909101601f19169091010190565b60006101008d8352806020840152612de38184018d8f612d9f565b90508281036040840152612df8818b8d612d9f565b90508281036060840152612e0d81898b612d9f565b9150508560808301528460a08301528360c083015263ffffffff831660e08301529c9b505050505050505050505050565b64ffffffffff818116838216019080821115612e5c57612e5c612aec565b5092915050565b86815260c060208201526000612e7c60c0830188612735565b8281036040840152612e8e8188612735565b6001600160a01b03969096166060840152505063ffffffff92909216608083015264ffffffffff1660a0909101529392505050565b6001600160a01b03938416815291909216602082015264ffffffffff909116604082015260600190565b64ffffffffff818116838216028082169190828114612f0e57612f0e612aec565b505092915050565b600064ffffffffff80841680612f2e57612f2e612be7565b9216919091049291505056fea26469706673582212202919f003388b190f43da3b25bb89e32d0ad9857d2e0358430b00947dfdba87e264736f6c63430008110033",
  "devdoc": {
    "kind": "dev",
    "methods": {
      "owner()": {
        "details": "Returns the address of the current owner."
      },
      "renounceOwnership()": {
        "details": "Leaves the contract without owner. It will not be possible to call `onlyOwner` functions anymore. Can only be called by the current owner. NOTE: Renouncing ownership will leave the contract without an owner, thereby removing any functionality that is only available to the owner."
      },
      "transferOwnership(address)": {
        "details": "Transfers ownership of the contract to a new account (`newOwner`). Can only be called by the current owner."
      }
    },
    "version": 1
  },
  "userdoc": {
    "kind": "user",
    "methods": {},
    "version": 1
  },
  "storageLayout": {
    "storage": [
      {
        "astId": 1281,
        "contract": "contracts/AMM.sol:AMM",
        "label": "_owner",
        "offset": 0,
        "slot": "0",
        "type": "t_address"
      },
      {
        "astId": 4300,
        "contract": "contracts/AMM.sol:AMM",
        "label": "count",
        "offset": 0,
        "slot": "1",
        "type": "t_uint256"
      },
      {
        "astId": 4305,
        "contract": "contracts/AMM.sol:AMM",
        "label": "projects",
        "offset": 0,
        "slot": "2",
        "type": "t_mapping(t_uint256,t_struct(Project)4298_storage)"
      },
      {
        "astId": 4311,
        "contract": "contracts/AMM.sol:AMM",
        "label": "commitments",
        "offset": 0,
        "slot": "3",
        "type": "t_mapping(t_uint256,t_mapping(t_address,t_uint256))"
      },
      {
        "astId": 3457,
        "contract": "contracts/AMM.sol:AMM",
        "label": "fansSociety",
        "offset": 0,
        "slot": "4",
        "type": "t_address"
      },
      {
        "astId": 3459,
        "contract": "contracts/AMM.sol:AMM",
        "label": "weth",
        "offset": 0,
        "slot": "5",
        "type": "t_address"
      },
      {
        "astId": 3461,
        "contract": "contracts/AMM.sol:AMM",
        "label": "tokenFactory",
        "offset": 0,
        "slot": "6",
        "type": "t_address"
      },
      {
        "astId": 3463,
        "contract": "contracts/AMM.sol:AMM",
        "label": "poolFactory",
        "offset": 0,
        "slot": "7",
        "type": "t_address"
      }
    ],
    "types": {
      "t_address": {
        "encoding": "inplace",
        "label": "address",
        "numberOfBytes": "20"
      },
      "t_enum(ProjectStatus)4272": {
        "encoding": "inplace",
        "label": "enum Projects.ProjectStatus",
        "numberOfBytes": "1"
      },
      "t_mapping(t_address,t_uint256)": {
        "encoding": "mapping",
        "key": "t_address",
        "label": "mapping(address => uint256)",
        "numberOfBytes": "32",
        "value": "t_uint256"
      },
      "t_mapping(t_uint256,t_mapping(t_address,t_uint256))": {
        "encoding": "mapping",
        "key": "t_uint256",
        "label": "mapping(uint256 => mapping(address => uint256))",
        "numberOfBytes": "32",
        "value": "t_mapping(t_address,t_uint256)"
      },
      "t_mapping(t_uint256,t_struct(Project)4298_storage)": {
        "encoding": "mapping",
        "key": "t_uint256",
        "label": "mapping(uint256 => struct Projects.Project)",
        "numberOfBytes": "32",
        "value": "t_struct(Project)4298_storage"
      },
      "t_string_storage": {
        "encoding": "bytes",
        "label": "string",
        "numberOfBytes": "32"
      },
      "t_struct(Project)4298_storage": {
        "encoding": "inplace",
        "label": "struct Projects.Project",
        "members": [
          {
            "astId": 4274,
            "contract": "contracts/AMM.sol:AMM",
            "label": "name",
            "offset": 0,
            "slot": "0",
            "type": "t_string_storage"
          },
          {
            "astId": 4276,
            "contract": "contracts/AMM.sol:AMM",
            "label": "symbol",
            "offset": 0,
            "slot": "1",
            "type": "t_string_storage"
          },
          {
            "astId": 4278,
            "contract": "contracts/AMM.sol:AMM",
            "label": "description",
            "offset": 0,
            "slot": "2",
            "type": "t_string_storage"
          },
          {
            "astId": 4280,
            "contract": "contracts/AMM.sol:AMM",
            "label": "id",
            "offset": 0,
            "slot": "3",
            "type": "t_uint256"
          },
          {
            "astId": 4282,
            "contract": "contracts/AMM.sol:AMM",
            "label": "fund",
            "offset": 0,
            "slot": "4",
            "type": "t_uint256"
          },
          {
            "astId": 4284,
            "contract": "contracts/AMM.sol:AMM",
            "label": "target",
            "offset": 0,
            "slot": "5",
            "type": "t_uint256"
          },
          {
            "astId": 4286,
            "contract": "contracts/AMM.sol:AMM",
            "label": "minInvest",
            "offset": 0,
            "slot": "6",
            "type": "t_uint256"
          },
          {
            "astId": 4288,
            "contract": "contracts/AMM.sol:AMM",
            "label": "maxInvest",
            "offset": 0,
            "slot": "7",
            "type": "t_uint256"
          },
          {
            "astId": 4290,
            "contract": "contracts/AMM.sol:AMM",
            "label": "totalSupply",
            "offset": 0,
            "slot": "8",
            "type": "t_uint32"
          },
          {
            "astId": 4293,
            "contract": "contracts/AMM.sol:AMM",
            "label": "status",
            "offset": 4,
            "slot": "8",
            "type": "t_enum(ProjectStatus)4272"
          },
          {
            "astId": 4295,
            "contract": "contracts/AMM.sol:AMM",
            "label": "partnerAddress",
            "offset": 5,
            "slot": "8",
            "type": "t_address"
          },
          {
            "astId": 4297,
            "contract": "contracts/AMM.sol:AMM",
            "label": "tokenAddress",
            "offset": 0,
            "slot": "9",
            "type": "t_address"
          }
        ],
        "numberOfBytes": "320"
      },
      "t_uint256": {
        "encoding": "inplace",
        "label": "uint256",
        "numberOfBytes": "32"
      },
      "t_uint32": {
        "encoding": "inplace",
        "label": "uint32",
        "numberOfBytes": "4"
      }
    }
  }
}