{
  "address": "0x40a42Baf86Fc821f972Ad2aC878729063CeEF403",
  "abi": [
    {
      "inputs": [
        {
          "internalType": "address",
          "name": "_wethTokenAddress",
          "type": "address"
        },
        {
          "internalType": "address",
          "name": "_tokenFactoryAddress",
          "type": "address"
        },
        {
          "internalType": "address",
          "name": "_poolFactoryAddress",
          "type": "address"
        }
      ],
      "stateMutability": "nonpayable",
      "type": "constructor"
    },
    {
      "anonymous": false,
      "inputs": [
        {
          "indexed": true,
          "internalType": "uint256",
          "name": "id",
          "type": "uint256"
        },
        {
          "indexed": true,
          "internalType": "address",
          "name": "caller",
          "type": "address"
        },
        {
          "indexed": false,
          "internalType": "uint256",
          "name": "amount",
          "type": "uint256"
        }
      ],
      "name": "Claimed",
      "type": "event"
    },
    {
      "anonymous": false,
      "inputs": [
        {
          "indexed": true,
          "internalType": "uint256",
          "name": "id",
          "type": "uint256"
        },
        {
          "indexed": true,
          "internalType": "address",
          "name": "caller",
          "type": "address"
        },
        {
          "indexed": false,
          "internalType": "uint256",
          "name": "amount",
          "type": "uint256"
        }
      ],
      "name": "Committed",
      "type": "event"
    },
    {
      "anonymous": false,
      "inputs": [
        {
          "indexed": true,
          "internalType": "address",
          "name": "previousOwner",
          "type": "address"
        },
        {
          "indexed": true,
          "internalType": "address",
          "name": "newOwner",
          "type": "address"
        }
      ],
      "name": "OwnershipTransferred",
      "type": "event"
    },
    {
      "anonymous": false,
      "inputs": [
        {
          "indexed": false,
          "internalType": "uint256",
          "name": "id",
          "type": "uint256"
        },
        {
          "indexed": false,
          "internalType": "string",
          "name": "name",
          "type": "string"
        },
        {
          "indexed": false,
          "internalType": "string",
          "name": "symbol",
          "type": "string"
        },
        {
          "indexed": false,
          "internalType": "string",
          "name": "description",
          "type": "string"
        },
        {
          "indexed": false,
          "internalType": "uint32",
          "name": "target",
          "type": "uint32"
        },
        {
          "indexed": false,
          "internalType": "uint16",
          "name": "minInvest",
          "type": "uint16"
        },
        {
          "indexed": true,
          "internalType": "address",
          "name": "authorAddress",
          "type": "address"
        }
      ],
      "name": "ProjectCreated",
      "type": "event"
    },
    {
      "anonymous": false,
      "inputs": [
        {
          "indexed": true,
          "internalType": "uint256",
          "name": "id",
          "type": "uint256"
        },
        {
          "indexed": false,
          "internalType": "enum Projects.ProjectStatus",
          "name": "status",
          "type": "uint8"
        }
      ],
      "name": "ProjectStatusChanged",
      "type": "event"
    },
    {
      "anonymous": false,
      "inputs": [
        {
          "indexed": true,
          "internalType": "uint256",
          "name": "id",
          "type": "uint256"
        },
        {
          "indexed": true,
          "internalType": "address",
          "name": "caller",
          "type": "address"
        },
        {
          "indexed": false,
          "internalType": "uint256",
          "name": "amount",
          "type": "uint256"
        }
      ],
      "name": "Withdrawed",
      "type": "event"
    },
    {
      "inputs": [
        {
          "internalType": "uint256",
          "name": "_id",
          "type": "uint256"
        }
      ],
      "name": "abortProject",
      "outputs": [],
      "stateMutability": "nonpayable",
      "type": "function"
    },
    {
      "inputs": [
        {
          "internalType": "uint256",
          "name": "_id",
          "type": "uint256"
        }
      ],
      "name": "claimProjectTokens",
      "outputs": [],
      "stateMutability": "nonpayable",
      "type": "function"
    },
    {
      "inputs": [
        {
          "internalType": "uint256",
          "name": "_id",
          "type": "uint256"
        }
      ],
      "name": "commitOnProject",
      "outputs": [],
      "stateMutability": "payable",
      "type": "function"
    },
    {
      "inputs": [
        {
          "internalType": "uint256",
          "name": "",
          "type": "uint256"
        },
        {
          "internalType": "address",
          "name": "",
          "type": "address"
        }
      ],
      "name": "commitments",
      "outputs": [
        {
          "internalType": "uint256",
          "name": "",
          "type": "uint256"
        }
      ],
      "stateMutability": "view",
      "type": "function"
    },
    {
      "inputs": [],
      "name": "count",
      "outputs": [
        {
          "internalType": "uint256",
          "name": "",
          "type": "uint256"
        }
      ],
      "stateMutability": "view",
      "type": "function"
    },
    {
      "inputs": [
        {
          "internalType": "address",
          "name": "_authorAddress",
          "type": "address"
        },
        {
          "internalType": "string",
          "name": "_name",
          "type": "string"
        },
        {
          "internalType": "string",
          "name": "_symbol",
          "type": "string"
        },
        {
          "internalType": "string",
          "name": "_description",
          "type": "string"
        },
        {
          "internalType": "uint32",
          "name": "_target",
          "type": "uint32"
        },
        {
          "internalType": "uint16",
          "name": "_minInvest",
          "type": "uint16"
        }
      ],
      "name": "createProject",
      "outputs": [],
      "stateMutability": "nonpayable",
      "type": "function"
    },
    {
      "inputs": [
        {
          "internalType": "uint256",
          "name": "_id",
          "type": "uint256"
        }
      ],
      "name": "launchProject",
      "outputs": [],
      "stateMutability": "nonpayable",
      "type": "function"
    },
    {
      "inputs": [],
      "name": "owner",
      "outputs": [
        {
          "internalType": "address",
          "name": "",
          "type": "address"
        }
      ],
      "stateMutability": "view",
      "type": "function"
    },
    {
      "inputs": [
        {
          "internalType": "uint256",
          "name": "",
          "type": "uint256"
        }
      ],
      "name": "projects",
      "outputs": [
        {
          "internalType": "string",
          "name": "name",
          "type": "string"
        },
        {
          "internalType": "string",
          "name": "description",
          "type": "string"
        },
        {
          "internalType": "string",
          "name": "symbol",
          "type": "string"
        },
        {
          "internalType": "uint256",
          "name": "fund",
          "type": "uint256"
        },
        {
          "internalType": "uint256",
          "name": "liquidity",
          "type": "uint256"
        },
        {
          "internalType": "uint32",
          "name": "target",
          "type": "uint32"
        },
        {
          "internalType": "uint16",
          "name": "minInvest",
          "type": "uint16"
        },
        {
          "internalType": "enum Projects.ProjectStatus",
          "name": "status",
          "type": "uint8"
        },
        {
          "internalType": "address",
          "name": "authorAddress",
          "type": "address"
        },
        {
          "internalType": "address",
          "name": "tokenAddress",
          "type": "address"
        }
      ],
      "stateMutability": "view",
      "type": "function"
    },
    {
      "inputs": [],
      "name": "renounceOwnership",
      "outputs": [],
      "stateMutability": "nonpayable",
      "type": "function"
    },
    {
      "inputs": [
        {
          "internalType": "address",
          "name": "newOwner",
          "type": "address"
        }
      ],
      "name": "transferOwnership",
      "outputs": [],
      "stateMutability": "nonpayable",
      "type": "function"
    },
    {
      "inputs": [
        {
          "internalType": "uint256",
          "name": "_id",
          "type": "uint256"
        }
      ],
      "name": "withdrawOnProject",
      "outputs": [],
      "stateMutability": "nonpayable",
      "type": "function"
    }
  ],
  "transactionHash": "0xdbd78c9d617568d2330ce3380c9240b15e15ecd461dcfc68a3ce3c0982b261be",
  "args": [
    "0x02b0B4EFd909240FCB2Eb5FAe060dC60D112E3a4",
    "0x638A246F0Ec8883eF68280293FFE8Cfbabe61B44",
    "0x32EEce76C2C2e8758584A83Ee2F522D4788feA0f"
  ],
  "numDeployments": 6,
  "solcInputHash": "452132cd8fd6d593d74d11ecbb6c2c16",
  "bytecode": "0x60806040523480156200001157600080fd5b5060405162001d8738038062001d878339810160408190526200003491620000f6565b828282620000423362000089565b600180546001600160a01b039485166001600160a01b0319918216179091556002805493851693821693909317909255600380549190931691161790555062000140915050565b600080546001600160a01b038381166001600160a01b0319831681178455604051919092169283917f8be0079c531659141344cd1fd0a4f28419497f9722a3daafe3b4186f6b6457e09190a35050565b80516001600160a01b0381168114620000f157600080fd5b919050565b6000806000606084860312156200010c57600080fd5b6200011784620000d9565b92506200012760208501620000d9565b91506200013760408501620000d9565b90509250925092565b611c3780620001506000396000f3fe6080604052600436106100a75760003560e01c8063715018a611610064578063715018a6146101805780638da5cb5b14610195578063a3bfb7bd146101bd578063e90d4c06146101dd578063f1244ad814610215578063f2fde38b1461023557600080fd5b806306661abd146100ac578063107046bd146100d557806316509ee21461010b57806344a9ae8c146101205780635eed1cc21461014057806360ae7c3b14610160575b600080fd5b3480156100b857600080fd5b506100c260045481565b6040519081526020015b60405180910390f35b3480156100e157600080fd5b506100f56100f03660046114bf565b610255565b6040516100cc9a99989796959493929190611556565b61011e6101193660046114bf565b61045c565b005b34801561012c57600080fd5b5061011e61013b3660046114bf565b610861565b34801561014c57600080fd5b5061011e61015b366004611664565b610a08565b34801561016c57600080fd5b5061011e61017b3660046114bf565b610c90565b34801561018c57600080fd5b5061011e610e33565b3480156101a157600080fd5b506000546040516001600160a01b0390911681526020016100cc565b3480156101c957600080fd5b5061011e6101d83660046114bf565b610e47565b3480156101e957600080fd5b506100c26101f836600461173b565b600660209081526000928352604080842090915290825290205481565b34801561022157600080fd5b5061011e6102303660046114bf565b610f03565b34801561024157600080fd5b5061011e61025036600461176b565b61135c565b6005602052600090815260409020805481906102709061178f565b80601f016020809104026020016040519081016040528092919081815260200182805461029c9061178f565b80156102e95780601f106102be576101008083540402835291602001916102e9565b820191906000526020600020905b8154815290600101906020018083116102cc57829003601f168201915b5050505050908060010180546102fe9061178f565b80601f016020809104026020016040519081016040528092919081815260200182805461032a9061178f565b80156103775780601f1061034c57610100808354040283529160200191610377565b820191906000526020600020905b81548152906001019060200180831161035a57829003601f168201915b50505050509080600201805461038c9061178f565b80601f01602080910402602001604051908101604052809291908181526020018280546103b89061178f565b80156104055780601f106103da57610100808354040283529160200191610405565b820191906000526020600020905b8154815290600101906020018083116103e857829003601f168201915b5050506003840154600485015460058601546006909601549495919490935063ffffffff8216925061ffff6401000000008304169160ff600160301b820416916001600160a01b03600160381b909204821691168a565b8060008060008381526005602081905260409091200154600160301b900460ff16600381111561048e5761048e61151e565b146104b45760405162461bcd60e51b81526004016104ab906117c9565b60405180910390fd5b662386f26fc100003410156104fc5760405162461bcd60e51b815260206004820152600e60248201526d36b4b710181718189032ba3432b960911b60448201526064016104ab565b600083815260056020526040808220815161014081019092528054829082906105249061178f565b80601f01602080910402602001604051908101604052809291908181526020018280546105509061178f565b801561059d5780601f106105725761010080835404028352916020019161059d565b820191906000526020600020905b81548152906001019060200180831161058057829003601f168201915b505050505081526020016001820180546105b69061178f565b80601f01602080910402602001604051908101604052809291908181526020018280546105e29061178f565b801561062f5780601f106106045761010080835404028352916020019161062f565b820191906000526020600020905b81548152906001019060200180831161061257829003601f168201915b505050505081526020016002820180546106489061178f565b80601f01602080910402602001604051908101604052809291908181526020018280546106749061178f565b80156106c15780601f10610696576101008083540402835291602001916106c1565b820191906000526020600020905b8154815290600101906020018083116106a457829003601f168201915b5050509183525050600382810154602083015260048301546040830152600583015463ffffffff81166060840152640100000000810461ffff16608084015260a090920191600160301b900460ff16908111156107205761072061151e565b60038111156107315761073161151e565b815260058201546001600160a01b03600160381b90910481166020830152600690920154909116604090910152905060008061076c346113d5565b915091508183606001818151610782919061180b565b90525060808301805182919061079990839061180b565b9052506000868152600660209081526040808320338452909152812080543492906107c590849061180b565b9091555050604051348152339087907f245cbccbc6875e4b0475a653568fd4f7c2dae5fb8929e33c0d66dc530ba11b009060200160405180910390a38260a0015163ffffffff1683606001511061085957600260e0840181905260405187917f35872be4c2085eaf9ca9a10d056eefec79968f825846792411ede75f331e9392916108509190611824565b60405180910390a25b505050505050565b8060008060008381526005602081905260409091200154600160301b900460ff1660038111156108935761089361151e565b146108b05760405162461bcd60e51b81526004016104ab906117c9565b60008381526006602090815260408083203384529091528120548491806108d6836113d5565b6000898152600560205260408120600301805493955091935084926108fc908490611832565b909155505060008781526005602052604081206004018054839290610922908490611832565b909155505060008781526006602090815260408083203380855292528083208390555185908381818185875af1925050503d806000811461097f576040519150601f19603f3d011682016040523d82523d6000602084013e610984565b606091505b50509050806109c75760405162461bcd60e51b815260206004820152600f60248201526e1dda5d1a191c985dc819985a5b1959608a1b60448201526064016104ab565b604051848152339089907f7fd902d6e186354d1617b957fc4cb4a144f44a19cc5c4525cfb772d707c405c29060200160405180910390a35050505050505050565b610a10611415565b60048054906000610a2083611845565b919050555060405180610140016040528089898080601f016020809104026020016040519081016040528093929190818152602001838380828437600092019190915250505090825250604080516020601f880181900481028201810190925286815291810191908790879081908401838280828437600092019190915250505090825250604080516020601f8a018190048102820181019092528881529181019190899089908190840183828082843760009201829052509385525050506020808301829052604080840183905263ffffffff8716606085015261ffff8616608085015260a084018390526001600160a01b038e1660c085015260e09093018290526004548252600590522081518190610b3b90826118bf565b5060208201516001820190610b5090826118bf565b5060408201516002820190610b6590826118bf565b5060608201516003808301919091556080830151600483015560a083015160058301805460c086015161ffff166401000000000265ffffffffffff1990911663ffffffff909316929092179190911780825560e08501519266ff0000000000001990911690600160301b908490811115610be157610be161151e565b0217905550610100820151600582018054670100000000000000600160d81b031916600160381b6001600160a01b039384160217905561012090920151600690910180546001600160a01b031916918316919091179055600454604051918b16917f736f208d820d5c06b0e76085cea2da38f6f5f2a7704f69a9ea5980dd5f5c04dc91610c7d918c908c908c908c908c908c908c908c906119a8565b60405180910390a2505050505050505050565b8060028060008381526005602081905260409091200154600160301b900460ff166003811115610cc257610cc261151e565b14610cdf5760405162461bcd60e51b81526004016104ab906117c9565b60008381526006602090815260408083203384529091528120548491610d04826113d5565b50600087815260056020526040812060030154919250908290610d28906023611a11565b610d329190611a33565b6002546000898152600560205260409081902060060154905163e486033960e01b81526001600160a01b039182166004820152929350169063e4860339906024016020604051808303816000875af1158015610d92573d6000803e3d6000fd5b505050506040513d601f19601f82011682018060405250810190610db69190611a4a565b60405163a9059cbb60e01b8152336004820152602481018390526001600160a01b03919091169063a9059cbb906044016020604051808303816000875af1158015610e05573d6000803e3d6000fd5b505050506040513d601f19601f82011682018060405250810190610e299190611a67565b5050505050505050565b610e3b611415565b610e45600061146f565b565b610e4f611415565b8060008060008381526005602081905260409091200154600160301b900460ff166003811115610e8157610e8161151e565b14610e9e5760405162461bcd60e51b81526004016104ab906117c9565b60008381526005602081905260409182902001805466ff0000000000001916600160301b1790555183907f35872be4c2085eaf9ca9a10d056eefec79968f825846792411ede75f331e939290610ef690600190611824565b60405180910390a2505050565b600081815260056020819052604090912001548190600160381b90046001600160a01b03163314610f635760405162461bcd60e51b815260206004820152600a6024820152692737ba1030baba3437b960b11b60448201526064016104ab565b8160028060008381526005602081905260409091200154600160301b900460ff166003811115610f9557610f9561151e565b14610fb25760405162461bcd60e51b81526004016104ab906117c9565b60008481526005602052604080822081516101408101909252805482908290610fda9061178f565b80601f01602080910402602001604051908101604052809291908181526020018280546110069061178f565b80156110535780601f1061102857610100808354040283529160200191611053565b820191906000526020600020905b81548152906001019060200180831161103657829003601f168201915b5050505050815260200160018201805461106c9061178f565b80601f01602080910402602001604051908101604052809291908181526020018280546110989061178f565b80156110e55780601f106110ba576101008083540402835291602001916110e5565b820191906000526020600020905b8154815290600101906020018083116110c857829003601f168201915b505050505081526020016002820180546110fe9061178f565b80601f016020809104026020016040519081016040528092919081815260200182805461112a9061178f565b80156111775780601f1061114c57610100808354040283529160200191611177565b820191906000526020600020905b81548152906001019060200180831161115a57829003601f168201915b5050509183525050600382810154602083015260048301546040830152600583015463ffffffff81166060840152640100000000810461ffff16608084015260a090920191600160301b900460ff16908111156111d6576111d661151e565b60038111156111e7576111e761151e565b815260058201546001600160a01b03600160381b90910481166020830152600690920154821660409182015260025483518483015161010086015193516325b211eb60e11b81529596506000959290941693634b6423d693611255933091601b918290602390600401611a89565b6020604051808303816000875af1158015611274573d6000803e3d6000fd5b505050506040513d601f19601f820116820180604052508101906112989190611a4a565b60035460015460405163e343361560e01b81526001600160a01b038085166004830152918216602482015292935060009291169063e34336159060440160408051808303816000875af11580156112f3573d6000803e3d6000fd5b505050506040513d601f19601f820116820180604052508101906113179190611ae3565b509050867f35872be4c2085eaf9ca9a10d056eefec79968f825846792411ede75f331e9392600360405161134b9190611824565b60405180910390a250505050505050565b611364611415565b6001600160a01b0381166113c95760405162461bcd60e51b815260206004820152602660248201527f4f776e61626c653a206e6577206f776e657220697320746865207a65726f206160448201526564647265737360d01b60648201526084016104ab565b6113d28161146f565b50565b6000808060146113e6600286611bf5565b6113f09190611a11565b9050600082611400600287611bf5565b61140a9190611832565b959194509092505050565b6000546001600160a01b03163314610e455760405162461bcd60e51b815260206004820181905260248201527f4f776e61626c653a2063616c6c6572206973206e6f7420746865206f776e657260448201526064016104ab565b600080546001600160a01b038381166001600160a01b0319831681178455604051919092169283917f8be0079c531659141344cd1fd0a4f28419497f9722a3daafe3b4186f6b6457e09190a35050565b6000602082840312156114d157600080fd5b5035919050565b6000815180845260005b818110156114fe576020818501810151868301820152016114e2565b506000602082860101526020601f19601f83011685010191505092915050565b634e487b7160e01b600052602160045260246000fd5b6004811061155257634e487b7160e01b600052602160045260246000fd5b9052565b600061014080835261156a8184018e6114d8565b9050828103602084015261157e818d6114d8565b90508281036040840152611592818c6114d8565b91505088606083015287608083015263ffffffff871660a083015261ffff861660c08301526115c460e0830186611534565b6001600160a01b03938416610100830152919092166101209092019190915298975050505050505050565b6001600160a01b03811681146113d257600080fd5b60008083601f84011261161657600080fd5b50813567ffffffffffffffff81111561162e57600080fd5b60208301915083602082850101111561164657600080fd5b9250929050565b803561ffff8116811461165f57600080fd5b919050565b600080600080600080600080600060c08a8c03121561168257600080fd5b893561168d816115ef565b985060208a013567ffffffffffffffff808211156116aa57600080fd5b6116b68d838e01611604565b909a50985060408c01359150808211156116cf57600080fd5b6116db8d838e01611604565b909850965060608c01359150808211156116f457600080fd5b506117018c828d01611604565b90955093505060808a013563ffffffff8116811461171e57600080fd5b915061172c60a08b0161164d565b90509295985092959850929598565b6000806040838503121561174e57600080fd5b823591506020830135611760816115ef565b809150509250929050565b60006020828403121561177d57600080fd5b8135611788816115ef565b9392505050565b600181811c908216806117a357607f821691505b6020821081036117c357634e487b7160e01b600052602260045260246000fd5b50919050565b6020808252601290820152714261642070726f6a6563742073746174757360701b604082015260600190565b634e487b7160e01b600052601160045260246000fd5b8082018082111561181e5761181e6117f5565b92915050565b6020810161181e8284611534565b8181038181111561181e5761181e6117f5565b600060018201611857576118576117f5565b5060010190565b634e487b7160e01b600052604160045260246000fd5b601f8211156118ba57600081815260208120601f850160051c8101602086101561189b5750805b601f850160051c820191505b81811015610859578281556001016118a7565b505050565b815167ffffffffffffffff8111156118d9576118d961185e565b6118ed816118e7845461178f565b84611874565b602080601f831160018114611922576000841561190a5750858301515b600019600386901b1c1916600185901b178555610859565b600085815260208120601f198616915b8281101561195157888601518255948401946001909101908401611932565b508582101561196f5787850151600019600388901b60f8161c191681555b5050505050600190811b01905550565b81835281816020850137506000828201602090810191909152601f909101601f19169091010190565b89815260c0602082015260006119c260c083018a8c61197f565b82810360408401526119d581898b61197f565b905082810360608401526119ea81878961197f565b91505063ffffffff8416608083015261ffff831660a08301529a9950505050505050505050565b600082611a2e57634e487b7160e01b600052601260045260246000fd5b500490565b808202811582820484141761181e5761181e6117f5565b600060208284031215611a5c57600080fd5b8151611788816115ef565b600060208284031215611a7957600080fd5b8151801515811461178857600080fd5b60e081526000611a9c60e083018a6114d8565b8281036020840152611aae818a6114d8565b6001600160a01b0398891660408501526060840197909752505092909416608083015260a082015260c0019190915292915050565b60008060408385031215611af657600080fd5b8251611b01816115ef565b6020939093015192949293505050565b600181815b80851115611b4c578160001904821115611b3257611b326117f5565b80851615611b3f57918102915b93841c9390800290611b16565b509250929050565b600082611b635750600161181e565b81611b705750600061181e565b8160018114611b865760028114611b9057611bac565b600191505061181e565b60ff841115611ba157611ba16117f5565b50506001821b61181e565b5060208310610133831016604e8410600b8410161715611bcf575081810a61181e565b611bd98383611b11565b8060001904821115611bed57611bed6117f5565b029392505050565b60006117888383611b5456fea264697066735822122031e9e08d899fdb3dcebe28c9befa346bdebc8fad0781a1251d034e9b56c5033064736f6c63430008110033",
  "devdoc": {
    "kind": "dev",
    "methods": {
      "owner()": {
        "details": "Returns the address of the current owner."
      },
      "renounceOwnership()": {
        "details": "Leaves the contract without owner. It will not be possible to call `onlyOwner` functions anymore. Can only be called by the current owner. NOTE: Renouncing ownership will leave the contract without an owner, thereby removing any functionality that is only available to the owner."
      },
      "transferOwnership(address)": {
        "details": "Transfers ownership of the contract to a new account (`newOwner`). Can only be called by the current owner."
      }
    },
    "version": 1
  },
  "userdoc": {
    "kind": "user",
    "methods": {},
    "version": 1
  },
  "storageLayout": {
    "storage": [
      {
        "astId": 563,
        "contract": "contracts/FansSociety.sol:FansSociety",
        "label": "_owner",
        "offset": 0,
        "slot": "0",
        "type": "t_address"
      },
      {
        "astId": 833,
        "contract": "contracts/FansSociety.sol:FansSociety",
        "label": "wethTokenAddress",
        "offset": 0,
        "slot": "1",
        "type": "t_address"
      },
      {
        "astId": 835,
        "contract": "contracts/FansSociety.sol:FansSociety",
        "label": "tokenFactoryAddress",
        "offset": 0,
        "slot": "2",
        "type": "t_address"
      },
      {
        "astId": 837,
        "contract": "contracts/FansSociety.sol:FansSociety",
        "label": "poolFactoryAddress",
        "offset": 0,
        "slot": "3",
        "type": "t_address"
      },
      {
        "astId": 857,
        "contract": "contracts/FansSociety.sol:FansSociety",
        "label": "count",
        "offset": 0,
        "slot": "4",
        "type": "t_uint256"
      },
      {
        "astId": 862,
        "contract": "contracts/FansSociety.sol:FansSociety",
        "label": "projects",
        "offset": 0,
        "slot": "5",
        "type": "t_mapping(t_uint256,t_struct(Project)831_storage)"
      },
      {
        "astId": 868,
        "contract": "contracts/FansSociety.sol:FansSociety",
        "label": "commitments",
        "offset": 0,
        "slot": "6",
        "type": "t_mapping(t_uint256,t_mapping(t_address,t_uint256))"
      }
    ],
    "types": {
      "t_address": {
        "encoding": "inplace",
        "label": "address",
        "numberOfBytes": "20"
      },
      "t_enum(ProjectStatus)809": {
        "encoding": "inplace",
        "label": "enum Projects.ProjectStatus",
        "numberOfBytes": "1"
      },
      "t_mapping(t_address,t_uint256)": {
        "encoding": "mapping",
        "key": "t_address",
        "label": "mapping(address => uint256)",
        "numberOfBytes": "32",
        "value": "t_uint256"
      },
      "t_mapping(t_uint256,t_mapping(t_address,t_uint256))": {
        "encoding": "mapping",
        "key": "t_uint256",
        "label": "mapping(uint256 => mapping(address => uint256))",
        "numberOfBytes": "32",
        "value": "t_mapping(t_address,t_uint256)"
      },
      "t_mapping(t_uint256,t_struct(Project)831_storage)": {
        "encoding": "mapping",
        "key": "t_uint256",
        "label": "mapping(uint256 => struct Projects.Project)",
        "numberOfBytes": "32",
        "value": "t_struct(Project)831_storage"
      },
      "t_string_storage": {
        "encoding": "bytes",
        "label": "string",
        "numberOfBytes": "32"
      },
      "t_struct(Project)831_storage": {
        "encoding": "inplace",
        "label": "struct Projects.Project",
        "members": [
          {
            "astId": 811,
            "contract": "contracts/FansSociety.sol:FansSociety",
            "label": "name",
            "offset": 0,
            "slot": "0",
            "type": "t_string_storage"
          },
          {
            "astId": 813,
            "contract": "contracts/FansSociety.sol:FansSociety",
            "label": "description",
            "offset": 0,
            "slot": "1",
            "type": "t_string_storage"
          },
          {
            "astId": 815,
            "contract": "contracts/FansSociety.sol:FansSociety",
            "label": "symbol",
            "offset": 0,
            "slot": "2",
            "type": "t_string_storage"
          },
          {
            "astId": 817,
            "contract": "contracts/FansSociety.sol:FansSociety",
            "label": "fund",
            "offset": 0,
            "slot": "3",
            "type": "t_uint256"
          },
          {
            "astId": 819,
            "contract": "contracts/FansSociety.sol:FansSociety",
            "label": "liquidity",
            "offset": 0,
            "slot": "4",
            "type": "t_uint256"
          },
          {
            "astId": 821,
            "contract": "contracts/FansSociety.sol:FansSociety",
            "label": "target",
            "offset": 0,
            "slot": "5",
            "type": "t_uint32"
          },
          {
            "astId": 823,
            "contract": "contracts/FansSociety.sol:FansSociety",
            "label": "minInvest",
            "offset": 4,
            "slot": "5",
            "type": "t_uint16"
          },
          {
            "astId": 826,
            "contract": "contracts/FansSociety.sol:FansSociety",
            "label": "status",
            "offset": 6,
            "slot": "5",
            "type": "t_enum(ProjectStatus)809"
          },
          {
            "astId": 828,
            "contract": "contracts/FansSociety.sol:FansSociety",
            "label": "authorAddress",
            "offset": 7,
            "slot": "5",
            "type": "t_address"
          },
          {
            "astId": 830,
            "contract": "contracts/FansSociety.sol:FansSociety",
            "label": "tokenAddress",
            "offset": 0,
            "slot": "6",
            "type": "t_address"
          }
        ],
        "numberOfBytes": "224"
      },
      "t_uint16": {
        "encoding": "inplace",
        "label": "uint16",
        "numberOfBytes": "2"
      },
      "t_uint256": {
        "encoding": "inplace",
        "label": "uint256",
        "numberOfBytes": "32"
      },
      "t_uint32": {
        "encoding": "inplace",
        "label": "uint32",
        "numberOfBytes": "4"
      }
    }
  }
}