{
  "address": "0x976C214741b4657bd99DFD38a5c0E3ac5C99D903",
  "abi": [
    {
      "inputs": [
        {
          "internalType": "address",
          "name": "_fansSocietyAddress",
          "type": "address"
        }
      ],
      "stateMutability": "nonpayable",
      "type": "constructor"
    },
    {
      "anonymous": false,
      "inputs": [
        {
          "indexed": true,
          "internalType": "address",
          "name": "previousOwner",
          "type": "address"
        },
        {
          "indexed": true,
          "internalType": "address",
          "name": "newOwner",
          "type": "address"
        }
      ],
      "name": "OwnershipTransferred",
      "type": "event"
    },
    {
      "anonymous": false,
      "inputs": [
        {
          "indexed": false,
          "internalType": "address",
          "name": "pool",
          "type": "address"
        },
        {
          "indexed": false,
          "internalType": "address",
          "name": "token1",
          "type": "address"
        },
        {
          "indexed": false,
          "internalType": "address",
          "name": "token2",
          "type": "address"
        }
      ],
      "name": "PoolCreated",
      "type": "event"
    },
    {
      "inputs": [
        {
          "internalType": "address",
          "name": "_token1",
          "type": "address"
        },
        {
          "internalType": "address",
          "name": "_token2",
          "type": "address"
        }
      ],
      "name": "createPool",
      "outputs": [
        {
          "internalType": "address",
          "name": "poolAddress",
          "type": "address"
        }
      ],
      "stateMutability": "nonpayable",
      "type": "function"
    },
    {
      "inputs": [
        {
          "internalType": "address",
          "name": "_token1",
          "type": "address"
        },
        {
          "internalType": "address",
          "name": "_token2",
          "type": "address"
        }
      ],
      "name": "getPool",
      "outputs": [
        {
          "internalType": "address",
          "name": "pool",
          "type": "address"
        }
      ],
      "stateMutability": "view",
      "type": "function"
    },
    {
      "inputs": [
        {
          "internalType": "address",
          "name": "_token",
          "type": "address"
        }
      ],
      "name": "getTokenPools",
      "outputs": [
        {
          "internalType": "address[]",
          "name": "",
          "type": "address[]"
        }
      ],
      "stateMutability": "view",
      "type": "function"
    },
    {
      "inputs": [],
      "name": "owner",
      "outputs": [
        {
          "internalType": "address",
          "name": "",
          "type": "address"
        }
      ],
      "stateMutability": "view",
      "type": "function"
    },
    {
      "inputs": [],
      "name": "renounceOwnership",
      "outputs": [],
      "stateMutability": "nonpayable",
      "type": "function"
    },
    {
      "inputs": [
        {
          "internalType": "address",
          "name": "newOwner",
          "type": "address"
        }
      ],
      "name": "transferOwnership",
      "outputs": [],
      "stateMutability": "nonpayable",
      "type": "function"
    }
  ],
  "transactionHash": "0x7fe803c704c3a26ee0845d8d3d17f2b367ef55a78c28abf456671c90ca8f098f",
  "args": [
    "0xa0Ee7A142d267C1f36714E4a8F75612F20a79720"
  ],
  "numDeployments": 1,
  "solcInputHash": "ad293c869c5a20324279ab95f0e2a69f",
  "bytecode": "0x60c060405234801561001057600080fd5b5060405161203238038061203283398101604081905261002f916100dd565b61003833610080565b6001600160a01b038116608052604051610051906100d0565b604051809103906000f08015801561006d573d6000803e3d6000fd5b506001600160a01b031660a0525061010d565b600080546001600160a01b038381166001600160a01b0319831681178455604051919092169283917f8be0079c531659141344cd1fd0a4f28419497f9722a3daafe3b4186f6b6457e09190a35050565b6116bd8061097583390190565b6000602082840312156100ef57600080fd5b81516001600160a01b038116811461010657600080fd5b9392505050565b60805160a05161083c6101396000396000818161010e01526102a1015260006102dd015261083c6000f3fe608060405234801561001057600080fd5b50600436106100625760003560e01c8063531aa03e14610067578063715018a6146100975780638da5cb5b146100a1578063d75a2d72146100b2578063e3433615146100d2578063f2fde38b146100e5575b600080fd5b61007a61007536600461076b565b6100f8565b6040516001600160a01b0390911681526020015b60405180910390f35b61009f61013d565b005b6000546001600160a01b031661007a565b6100c56100c036600461079e565b610151565b60405161008e91906107b9565b61007a6100e036600461076b565b610223565b61009f6100f336600461079e565b6103fd565b6000806101058484610476565b925050506101337f0000000000000000000000000000000000000000000000000000000000000000826104d2565b9150505b92915050565b61014561053f565b61014f6000610599565b565b6001600160a01b038116600090815260016020526040812054606091036101af5760405162461bcd60e51b815260206004820152600d60248201526c1b9bc81c1bdbdb08199bdd5b99609a1b60448201526064015b60405180910390fd5b6001600160a01b0382166000908152600160209081526040918290208054835181840281018401909452808452909183018282801561021757602002820191906000526020600020905b81546001600160a01b031681526001909101906020018083116101f9575b50505050509050919050565b6000806000806102338686610476565b92509250925061024c866001600160a01b03163b151590565b801561026157506001600160a01b0385163b15155b61029c5760405162461bcd60e51b815260206004820152600c60248201526b1b9bdd0818dbdb9d1c9858dd60a21b60448201526064016101a6565b6102c67f0000000000000000000000000000000000000000000000000000000000000000826105e9565b60405163c0c53b8b60e01b81526001600160a01b037f000000000000000000000000000000000000000000000000000000000000000081166004830152858116602483015284811660448301529195509085169063c0c53b8b90606401600060405180830381600087803b15801561033d57600080fd5b505af1158015610351573d6000803e3d6000fd5b505050506001600160a01b038381166000818152600160208181526040808420805480850182559085528285200180546001600160a01b03199081168c8916908117909255968916808652828620805495860181558652948390209093018054909616831790955584519182528101929092528183015290517f9c5d829b9b23efc461f9aeef91979ec04bb903feb3bee4f26d22114abfc7335b9181900360600190a150505092915050565b61040561053f565b6001600160a01b03811661046a5760405162461bcd60e51b815260206004820152602660248201527f4f776e61626c653a206e6577206f776e657220697320746865207a65726f206160448201526564647265737360d01b60648201526084016101a6565b61047381610599565b50565b60008060006104858585610689565b6040516bffffffffffffffffffffffff19606084811b8216602084015283901b16603482015291945092506048016040516020818303038152906040528051906020012090509250925092565b6000610538838330604051733d602d80600a3d3981f3363d3d373d3d3d363d7360601b8152606093841b60148201526f5af43d82803e903d91602b57fd5bf3ff60801b6028820152921b6038830152604c8201526037808220606c830152605591012090565b9392505050565b6000546001600160a01b0316331461014f5760405162461bcd60e51b815260206004820181905260248201527f4f776e61626c653a2063616c6c6572206973206e6f7420746865206f776e657260448201526064016101a6565b600080546001600160a01b038381166001600160a01b0319831681178455604051919092169283917f8be0079c531659141344cd1fd0a4f28419497f9722a3daafe3b4186f6b6457e09190a35050565b6000604051733d602d80600a3d3981f3363d3d373d3d3d363d7360601b81528360601b60148201526e5af43d82803e903d91602b57fd5bf360881b6028820152826037826000f59150506001600160a01b0381166101375760405162461bcd60e51b815260206004820152601760248201527f455243313136373a2063726561746532206661696c656400000000000000000060448201526064016101a6565b600080826001600160a01b0316846001600160a01b0316036106da5760405162461bcd60e51b815260206004820152600a60248201526939b0b6b2903a37b5b2b760b11b60448201526064016101a6565b826001600160a01b0316846001600160a01b0316106106fa5782846106fd565b83835b90925090506001600160a01b0382166107485760405162461bcd60e51b815260206004820152600d60248201526c34b73b30b634b2103a37b5b2b760991b60448201526064016101a6565b9250929050565b80356001600160a01b038116811461076657600080fd5b919050565b6000806040838503121561077e57600080fd5b6107878361074f565b91506107956020840161074f565b90509250929050565b6000602082840312156107b057600080fd5b6105388261074f565b6020808252825182820181905260009190848201906040850190845b818110156107fa5783516001600160a01b0316835292840192918401916001016107d5565b5090969550505050505056fea2646970667358221220337535b60f0b0d360df34a4582fd6a3d2bb745ce909251dab16965a0a4f9772b64736f6c63430008110033608060405234801561001057600080fd5b5061169d806100206000396000f3fe608060405234801561001057600080fd5b50600436106101165760003560e01c806379cc6790116100a2578063a4dd03d711610071578063a4dd03d71461023e578063a9059cbb14610251578063b4f40c6114610264578063c0c53b8b1461026d578063dd62ed3e1461028057600080fd5b806379cc6790146101fd5780638f01e2df1461021057806395d89b4114610223578063a457c2d71461022b57600080fd5b806323b872dd116100e957806323b872dd1461018a578063313ce5671461019d57806339509351146101ac57806342966c68146101bf57806370a08231146101d457600080fd5b806306fdde031461011b5780630902f1ac14610139578063095ea7b31461015557806318160ddd14610178575b600080fd5b610123610293565b60405161013091906113ed565b60405180910390f35b609a54609b545b60408051928352602083019190915201610130565b610168610163366004611457565b610325565b6040519015158152602001610130565b6035545b604051908152602001610130565b610168610198366004611481565b61033f565b60405160128152602001610130565b6101686101ba366004611457565b610363565b6101d26101cd3660046114bd565b610385565b005b61017c6101e23660046114d6565b6001600160a01b031660009081526033602052604090205490565b6101d261020b366004611457565b610392565b61017c61021e3660046114d6565b6103ab565b610123610655565b610168610239366004611457565b610664565b61014061024c3660046114d6565b6106df565b61016861025f366004611457565b610aba565b61017c609c5481565b6101d261027b3660046114f1565b610ac8565b61017c61028e366004611534565b610c11565b6060603680546102a290611567565b80601f01602080910402602001604051908101604052809291908181526020018280546102ce90611567565b801561031b5780601f106102f05761010080835404028352916020019161031b565b820191906000526020600020905b8154815290600101906020018083116102fe57829003601f168201915b5050505050905090565b600033610333818585610c3c565b60019150505b92915050565b60003361034d858285610d61565b610358858585610dd5565b506001949350505050565b6000336103338185856103768383610c11565b61038091906115b7565b610c3c565b61038f3382610f80565b50565b61039d823383610d61565b6103a78282610f80565b5050565b609a54609b546098546040516370a0823160e01b8152306004820152600093929184916001600160a01b03909116906370a0823190602401602060405180830381865afa158015610400573d6000803e3d6000fd5b505050506040513d601f19601f8201168201806040525081019061042491906115ca565b6099546040516370a0823160e01b81523060048201529192506000916001600160a01b03909116906370a0823190602401602060405180830381865afa158015610472573d6000803e3d6000fd5b505050506040513d601f19601f8201168201806040525081019061049691906115ca565b905060006104a485846115e3565b905060006104b285846115e3565b905060008611806104c35750600085115b15610521576104d281866115f6565b6104dc83886115f6565b146105215760405162461bcd60e51b815260206004820152601060248201526f78202f207920213d206478202f20647960801b60448201526064015b60405180910390fd5b61052b86866110b1565b600061053660355490565b9050806000036105595761055261054d83856115f6565b61115f565b975061058e565b61058b8761056783866115f6565b6105719190611623565b8761057c84866115f6565b6105869190611623565b6112cd565b97505b600088116105de5760405162461bcd60e51b815260206004820152601b60248201527f6e6f7420656e6f756768206c697175696469747920746f2061646400000000006044820152606401610518565b6105e889896112e5565b6105f285856113a6565b609b54609a5461060291906115f6565b609c5560408051848152602081018490526001600160a01b038b16917f2f2cd4b80c51252509ab761348cdb69c09c8db33480f8a76ae14fdade273b0ce910160405180910390a250505050505050919050565b6060603780546102a290611567565b600033816106728286610c11565b9050838110156106d25760405162461bcd60e51b815260206004820152602560248201527f45524332303a2064656372656173656420616c6c6f77616e63652062656c6f77604482015264207a65726f60d81b6064820152608401610518565b6103588286868403610c3c565b609a54609b546098546099546040516370a0823160e01b81523060048201526000948594909390926001600160a01b0391821692911690859083906370a0823190602401602060405180830381865afa158015610740573d6000803e3d6000fd5b505050506040513d601f19601f8201168201806040525081019061076491906115ca565b6040516370a0823160e01b81523060048201529091506000906001600160a01b038416906370a0823190602401602060405180830381865afa1580156107ae573d6000803e3d6000fd5b505050506040513d601f19601f820116820180604052508101906107d291906115ca565b306000908152603360205260409020549091506107ef87876110b1565b60006107fa60355490565b90508061080785846115f6565b6108119190611623565b99508061081e84846115f6565b6108289190611623565b985060008a11801561083a5750600089115b6108865760405162461bcd60e51b815260206004820152601e60248201527f6e6f7420656e6f756768206c697175696469747920746f2072656d6f766500006044820152606401610518565b6108903083610f80565b60405163a9059cbb60e01b81526001600160a01b038c81166004830152602482018c905287169063a9059cbb906044016020604051808303816000875af11580156108df573d6000803e3d6000fd5b505050506040513d601f19601f820116820180604052508101906109039190611645565b5060405163a9059cbb60e01b81526001600160a01b038c81166004830152602482018b905286169063a9059cbb906044016020604051808303816000875af1158015610953573d6000803e3d6000fd5b505050506040513d601f19601f820116820180604052508101906109779190611645565b506040516370a0823160e01b81523060048201526001600160a01b038716906370a0823190602401602060405180830381865afa1580156109bc573d6000803e3d6000fd5b505050506040513d601f19601f820116820180604052508101906109e091906115ca565b6040516370a0823160e01b81523060048201529094506001600160a01b038616906370a0823190602401602060405180830381865afa158015610a27573d6000803e3d6000fd5b505050506040513d601f19601f82011682018060405250810190610a4b91906115ca565b9250610a5784846113a6565b609b54609a54610a6791906115f6565b609c55604080518b8152602081018b90526001600160a01b038d16917e522c0d9179b17550a3adaca1485c7374ca7798515681b3ca3aed8ce57a9d0a910160405180910390a25050505050505050915091565b600033610333818585610dd5565b600054610100900460ff1615808015610ae85750600054600160ff909116105b80610b025750303b158015610b02575060005460ff166001145b610b655760405162461bcd60e51b815260206004820152602e60248201527f496e697469616c697a61626c653a20636f6e747261637420697320616c72656160448201526d191e481a5b9a5d1a585b1a5e995960921b6064820152608401610518565b6000805460ff191660011790558015610b88576000805461ff0019166101001790555b609780546001600160a01b038087166001600160a01b0319928316179092556098805486841690831617905560998054928516929091169190911790558015610c0b576000805461ff0019169055604051600181527f7f26b83ff96e1f2b6a682f133852f6798a09c465da95921460cefb38474024989060200160405180910390a15b50505050565b6001600160a01b03918216600090815260346020908152604080832093909416825291909152205490565b6001600160a01b038316610c9e5760405162461bcd60e51b8152602060048201526024808201527f45524332303a20617070726f76652066726f6d20746865207a65726f206164646044820152637265737360e01b6064820152608401610518565b6001600160a01b038216610cff5760405162461bcd60e51b815260206004820152602260248201527f45524332303a20617070726f766520746f20746865207a65726f206164647265604482015261737360f01b6064820152608401610518565b6001600160a01b0383811660008181526034602090815260408083209487168084529482529182902085905590518481527f8c5be1e5ebec7d5bd14f71427d1e84f3dd0314c0f7b2291e5b200ac8c7c3b92591015b60405180910390a3505050565b6000610d6d8484610c11565b90506000198114610c0b5781811015610dc85760405162461bcd60e51b815260206004820152601d60248201527f45524332303a20696e73756666696369656e7420616c6c6f77616e63650000006044820152606401610518565b610c0b8484848403610c3c565b6001600160a01b038316610e395760405162461bcd60e51b815260206004820152602560248201527f45524332303a207472616e736665722066726f6d20746865207a65726f206164604482015264647265737360d81b6064820152608401610518565b6001600160a01b038216610e9b5760405162461bcd60e51b815260206004820152602360248201527f45524332303a207472616e7366657220746f20746865207a65726f206164647260448201526265737360e81b6064820152608401610518565b6001600160a01b03831660009081526033602052604090205481811015610f135760405162461bcd60e51b815260206004820152602660248201527f45524332303a207472616e7366657220616d6f756e7420657863656564732062604482015265616c616e636560d01b6064820152608401610518565b6001600160a01b0380851660008181526033602052604080822086860390559286168082529083902080548601905591517fddf252ad1be2c89b69c2b068fc378daa952ba7f163c4a11628f55a4df523b3ef90610f739086815260200190565b60405180910390a3610c0b565b6001600160a01b038216610fe05760405162461bcd60e51b815260206004820152602160248201527f45524332303a206275726e2066726f6d20746865207a65726f206164647265736044820152607360f81b6064820152608401610518565b6001600160a01b038216600090815260336020526040902054818110156110545760405162461bcd60e51b815260206004820152602260248201527f45524332303a206275726e20616d6f756e7420657863656564732062616c616e604482015261636560f01b6064820152608401610518565b6001600160a01b03831660008181526033602090815260408083208686039055603580548790039055518581529192917fddf252ad1be2c89b69c2b068fc378daa952ba7f163c4a11628f55a4df523b3ef9101610d54565b505050565b609c5480156110ac5760006110c961054d84866115f6565b905060006110d68361115f565b9050808211156111585760006110ec82846115e3565b6035546110f991906115f6565b6111049060086115f6565b905060006111138360086115f6565b61111e8560116115f6565b61112891906115b7565b905060006111368284611623565b9050801561115457609754611154906001600160a01b0316826112e5565b5050505b5050505050565b60008160000361117157506000919050565b600182608081901c156111895760409190911b9060801c5b604081901c1561119e5760209190911b9060401c5b602081901c156111b35760109190911b9060201c5b601081901c156111c85760089190911b9060101c5b600881901c156111dd5760049190911b9060081c5b600481901c156111f25760029190911b9060041c5b600281901c1561120457600182901b91505b60018285816112155761121561160d565b048301901c9150600182858161122d5761122d61160d565b048301901c915060018285816112455761124561160d565b048301901c9150600182858161125d5761125d61160d565b048301901c915060018285816112755761127561160d565b048301901c9150600182858161128d5761128d61160d565b048301901c915060018285816112a5576112a561160d565b048301901c91506112c5828386816112bf576112bf61160d565b046112cd565b949350505050565b60008183106112dc57816112de565b825b9392505050565b6001600160a01b03821661133b5760405162461bcd60e51b815260206004820152601f60248201527f45524332303a206d696e7420746f20746865207a65726f2061646472657373006044820152606401610518565b806035600082825461134d91906115b7565b90915550506001600160a01b0382166000818152603360209081526040808320805486019055518481527fddf252ad1be2c89b69c2b068fc378daa952ba7f163c4a11628f55a4df523b3ef910160405180910390a35050565b609a829055609b81905560408051838152602081018390527f5141ecc84a35c12ca2bf76bb33d393bd2fc22f906da0743534beef4ae63c6c8e910160405180910390a15050565b600060208083528351808285015260005b8181101561141a578581018301518582016040015282016113fe565b506000604082860101526040601f19601f8301168501019250505092915050565b80356001600160a01b038116811461145257600080fd5b919050565b6000806040838503121561146a57600080fd5b6114738361143b565b946020939093013593505050565b60008060006060848603121561149657600080fd5b61149f8461143b565b92506114ad6020850161143b565b9150604084013590509250925092565b6000602082840312156114cf57600080fd5b5035919050565b6000602082840312156114e857600080fd5b6112de8261143b565b60008060006060848603121561150657600080fd5b61150f8461143b565b925061151d6020850161143b565b915061152b6040850161143b565b90509250925092565b6000806040838503121561154757600080fd5b6115508361143b565b915061155e6020840161143b565b90509250929050565b600181811c9082168061157b57607f821691505b60208210810361159b57634e487b7160e01b600052602260045260246000fd5b50919050565b634e487b7160e01b600052601160045260246000fd5b80820180821115610339576103396115a1565b6000602082840312156115dc57600080fd5b5051919050565b81810381811115610339576103396115a1565b8082028115828204841417610339576103396115a1565b634e487b7160e01b600052601260045260246000fd5b60008261164057634e487b7160e01b600052601260045260246000fd5b500490565b60006020828403121561165757600080fd5b815180151581146112de57600080fdfea2646970667358221220a38dd7aa35d0a837fa9ba2743b39430bbff2adb0c2de0a2956f4ec5cae700b8364736f6c63430008110033",
  "devdoc": {
    "kind": "dev",
    "methods": {
      "owner()": {
        "details": "Returns the address of the current owner."
      },
      "renounceOwnership()": {
        "details": "Leaves the contract without owner. It will not be possible to call `onlyOwner` functions anymore. Can only be called by the current owner. NOTE: Renouncing ownership will leave the contract without an owner, thereby removing any functionality that is only available to the owner."
      },
      "transferOwnership(address)": {
        "details": "Transfers ownership of the contract to a new account (`newOwner`). Can only be called by the current owner."
      }
    },
    "stateVariables": {
      "tokenPools": {
        "details": "tokenPools mapping allow to retrieve all pools addresses corresponding to a specific token"
      }
    },
    "version": 1
  },
  "userdoc": {
    "kind": "user",
    "methods": {},
    "version": 1
  },
  "storageLayout": {
    "storage": [
      {
        "astId": 1281,
        "contract": "contracts/pools/PoolFactory.sol:PoolFactory",
        "label": "_owner",
        "offset": 0,
        "slot": "0",
        "type": "t_address"
      },
      {
        "astId": 3252,
        "contract": "contracts/pools/PoolFactory.sol:PoolFactory",
        "label": "tokenPools",
        "offset": 0,
        "slot": "1",
        "type": "t_mapping(t_address,t_array(t_address)dyn_storage)"
      }
    ],
    "types": {
      "t_address": {
        "encoding": "inplace",
        "label": "address",
        "numberOfBytes": "20"
      },
      "t_array(t_address)dyn_storage": {
        "base": "t_address",
        "encoding": "dynamic_array",
        "label": "address[]",
        "numberOfBytes": "32"
      },
      "t_mapping(t_address,t_array(t_address)dyn_storage)": {
        "encoding": "mapping",
        "key": "t_address",
        "label": "mapping(address => address[])",
        "numberOfBytes": "32",
        "value": "t_array(t_address)dyn_storage"
      }
    }
  }
}