{
  "address": "0x9A86494Ba45eE1f9EEed9cFC0894f6C5d13a1F0b",
  "abi": [
    {
      "anonymous": false,
      "inputs": [
        {
          "indexed": true,
          "internalType": "address",
          "name": "owner",
          "type": "address"
        },
        {
          "indexed": true,
          "internalType": "address",
          "name": "spender",
          "type": "address"
        },
        {
          "indexed": false,
          "internalType": "uint256",
          "name": "value",
          "type": "uint256"
        }
      ],
      "name": "Approval",
      "type": "event"
    },
    {
      "anonymous": false,
      "inputs": [
        {
          "indexed": false,
          "internalType": "uint8",
          "name": "version",
          "type": "uint8"
        }
      ],
      "name": "Initialized",
      "type": "event"
    },
    {
      "anonymous": false,
      "inputs": [
        {
          "indexed": true,
          "internalType": "address",
          "name": "provider",
          "type": "address"
        },
        {
          "indexed": false,
          "internalType": "address",
          "name": "tokenX",
          "type": "address"
        },
        {
          "indexed": false,
          "internalType": "uint256",
          "name": "amountX",
          "type": "uint256"
        },
        {
          "indexed": false,
          "internalType": "address",
          "name": "tokenY",
          "type": "address"
        },
        {
          "indexed": false,
          "internalType": "uint256",
          "name": "amountY",
          "type": "uint256"
        },
        {
          "indexed": false,
          "internalType": "uint256",
          "name": "liquidity",
          "type": "uint256"
        }
      ],
      "name": "LPBurnt",
      "type": "event"
    },
    {
      "anonymous": false,
      "inputs": [
        {
          "indexed": true,
          "internalType": "address",
          "name": "provider",
          "type": "address"
        },
        {
          "indexed": false,
          "internalType": "address",
          "name": "tokenX",
          "type": "address"
        },
        {
          "indexed": false,
          "internalType": "uint256",
          "name": "amountX",
          "type": "uint256"
        },
        {
          "indexed": false,
          "internalType": "address",
          "name": "tokenY",
          "type": "address"
        },
        {
          "indexed": false,
          "internalType": "uint256",
          "name": "amountY",
          "type": "uint256"
        },
        {
          "indexed": false,
          "internalType": "uint256",
          "name": "liquidity",
          "type": "uint256"
        }
      ],
      "name": "LPMinted",
      "type": "event"
    },
    {
      "anonymous": false,
      "inputs": [
        {
          "indexed": false,
          "internalType": "address",
          "name": "tokenIn",
          "type": "address"
        },
        {
          "indexed": false,
          "internalType": "uint256",
          "name": "amountIn",
          "type": "uint256"
        },
        {
          "indexed": false,
          "internalType": "address",
          "name": "tokenOut",
          "type": "address"
        },
        {
          "indexed": false,
          "internalType": "uint256",
          "name": "amountOut",
          "type": "uint256"
        }
      ],
      "name": "PoolSwapped",
      "type": "event"
    },
    {
      "anonymous": false,
      "inputs": [
        {
          "indexed": false,
          "internalType": "uint256",
          "name": "reserveX",
          "type": "uint256"
        },
        {
          "indexed": false,
          "internalType": "uint256",
          "name": "reserveY",
          "type": "uint256"
        }
      ],
      "name": "ReservesUpdated",
      "type": "event"
    },
    {
      "anonymous": false,
      "inputs": [
        {
          "indexed": true,
          "internalType": "address",
          "name": "from",
          "type": "address"
        },
        {
          "indexed": true,
          "internalType": "address",
          "name": "to",
          "type": "address"
        },
        {
          "indexed": false,
          "internalType": "uint256",
          "name": "value",
          "type": "uint256"
        }
      ],
      "name": "Transfer",
      "type": "event"
    },
    {
      "inputs": [
        {
          "internalType": "address",
          "name": "owner",
          "type": "address"
        },
        {
          "internalType": "address",
          "name": "spender",
          "type": "address"
        }
      ],
      "name": "allowance",
      "outputs": [
        {
          "internalType": "uint256",
          "name": "",
          "type": "uint256"
        }
      ],
      "stateMutability": "view",
      "type": "function"
    },
    {
      "inputs": [
        {
          "internalType": "address",
          "name": "spender",
          "type": "address"
        },
        {
          "internalType": "uint256",
          "name": "amount",
          "type": "uint256"
        }
      ],
      "name": "approve",
      "outputs": [
        {
          "internalType": "bool",
          "name": "",
          "type": "bool"
        }
      ],
      "stateMutability": "nonpayable",
      "type": "function"
    },
    {
      "inputs": [
        {
          "internalType": "address",
          "name": "account",
          "type": "address"
        }
      ],
      "name": "balanceOf",
      "outputs": [
        {
          "internalType": "uint256",
          "name": "",
          "type": "uint256"
        }
      ],
      "stateMutability": "view",
      "type": "function"
    },
    {
      "inputs": [
        {
          "internalType": "uint256",
          "name": "amount",
          "type": "uint256"
        }
      ],
      "name": "burn",
      "outputs": [],
      "stateMutability": "nonpayable",
      "type": "function"
    },
    {
      "inputs": [
        {
          "internalType": "address",
          "name": "account",
          "type": "address"
        },
        {
          "internalType": "uint256",
          "name": "amount",
          "type": "uint256"
        }
      ],
      "name": "burnFrom",
      "outputs": [],
      "stateMutability": "nonpayable",
      "type": "function"
    },
    {
      "inputs": [
        {
          "internalType": "address",
          "name": "provider",
          "type": "address"
        }
      ],
      "name": "burnLP",
      "outputs": [
        {
          "internalType": "uint256",
          "name": "amountX",
          "type": "uint256"
        },
        {
          "internalType": "uint256",
          "name": "amountY",
          "type": "uint256"
        }
      ],
      "stateMutability": "nonpayable",
      "type": "function"
    },
    {
      "inputs": [
        {
          "internalType": "uint256",
          "name": "_amountIn",
          "type": "uint256"
        },
        {
          "internalType": "uint256",
          "name": "_reserveIn",
          "type": "uint256"
        },
        {
          "internalType": "uint256",
          "name": "_reserveOut",
          "type": "uint256"
        }
      ],
      "name": "computeMaxOutputAmount",
      "outputs": [
        {
          "internalType": "uint256",
          "name": "amountOut",
          "type": "uint256"
        }
      ],
      "stateMutability": "pure",
      "type": "function"
    },
    {
      "inputs": [
        {
          "internalType": "address",
          "name": "_tokenIn",
          "type": "address"
        },
        {
          "internalType": "uint256",
          "name": "_amountIn",
          "type": "uint256"
        }
      ],
      "name": "computePriceOut",
      "outputs": [
        {
          "internalType": "uint256",
          "name": "",
          "type": "uint256"
        }
      ],
      "stateMutability": "view",
      "type": "function"
    },
    {
      "inputs": [
        {
          "internalType": "uint256",
          "name": "_amountOut",
          "type": "uint256"
        },
        {
          "internalType": "uint256",
          "name": "_reserveIn",
          "type": "uint256"
        },
        {
          "internalType": "uint256",
          "name": "_reserveOut",
          "type": "uint256"
        }
      ],
      "name": "computeRequiredInputAmount",
      "outputs": [
        {
          "internalType": "uint256",
          "name": "amountIn",
          "type": "uint256"
        }
      ],
      "stateMutability": "pure",
      "type": "function"
    },
    {
      "inputs": [],
      "name": "decimals",
      "outputs": [
        {
          "internalType": "uint8",
          "name": "",
          "type": "uint8"
        }
      ],
      "stateMutability": "view",
      "type": "function"
    },
    {
      "inputs": [
        {
          "internalType": "address",
          "name": "spender",
          "type": "address"
        },
        {
          "internalType": "uint256",
          "name": "subtractedValue",
          "type": "uint256"
        }
      ],
      "name": "decreaseAllowance",
      "outputs": [
        {
          "internalType": "bool",
          "name": "",
          "type": "bool"
        }
      ],
      "stateMutability": "nonpayable",
      "type": "function"
    },
    {
      "inputs": [
        {
          "internalType": "address",
          "name": "_tokenIn",
          "type": "address"
        }
      ],
      "name": "getReserves",
      "outputs": [
        {
          "internalType": "address",
          "name": "_tokenX",
          "type": "address"
        },
        {
          "internalType": "address",
          "name": "_tokenY",
          "type": "address"
        },
        {
          "internalType": "uint256",
          "name": "_reserveX",
          "type": "uint256"
        },
        {
          "internalType": "uint256",
          "name": "_reserveY",
          "type": "uint256"
        }
      ],
      "stateMutability": "view",
      "type": "function"
    },
    {
      "inputs": [
        {
          "internalType": "address",
          "name": "spender",
          "type": "address"
        },
        {
          "internalType": "uint256",
          "name": "addedValue",
          "type": "uint256"
        }
      ],
      "name": "increaseAllowance",
      "outputs": [
        {
          "internalType": "bool",
          "name": "",
          "type": "bool"
        }
      ],
      "stateMutability": "nonpayable",
      "type": "function"
    },
    {
      "inputs": [
        {
          "internalType": "address",
          "name": "_amm",
          "type": "address"
        },
        {
          "internalType": "address",
          "name": "_fansSocietyAddress",
          "type": "address"
        },
        {
          "internalType": "address",
          "name": "_tokenX",
          "type": "address"
        },
        {
          "internalType": "address",
          "name": "_tokenY",
          "type": "address"
        }
      ],
      "name": "initialize",
      "outputs": [],
      "stateMutability": "nonpayable",
      "type": "function"
    },
    {
      "inputs": [
        {
          "internalType": "address",
          "name": "provider",
          "type": "address"
        }
      ],
      "name": "mintLP",
      "outputs": [
        {
          "internalType": "uint256",
          "name": "liquidity",
          "type": "uint256"
        }
      ],
      "stateMutability": "nonpayable",
      "type": "function"
    },
    {
      "inputs": [],
      "name": "name",
      "outputs": [
        {
          "internalType": "string",
          "name": "",
          "type": "string"
        }
      ],
      "stateMutability": "view",
      "type": "function"
    },
    {
      "inputs": [
        {
          "internalType": "address",
          "name": "from",
          "type": "address"
        },
        {
          "internalType": "address",
          "name": "to",
          "type": "address"
        },
        {
          "internalType": "uint256",
          "name": "value",
          "type": "uint256"
        }
      ],
      "name": "safeTransferFrom",
      "outputs": [],
      "stateMutability": "nonpayable",
      "type": "function"
    },
    {
      "inputs": [
        {
          "internalType": "address",
          "name": "_tokenIn",
          "type": "address"
        },
        {
          "internalType": "uint256",
          "name": "_amountIn",
          "type": "uint256"
        },
        {
          "internalType": "address",
          "name": "_recipient",
          "type": "address"
        }
      ],
      "name": "swap",
      "outputs": [
        {
          "internalType": "uint256",
          "name": "amountOut",
          "type": "uint256"
        }
      ],
      "stateMutability": "nonpayable",
      "type": "function"
    },
    {
      "inputs": [],
      "name": "symbol",
      "outputs": [
        {
          "internalType": "string",
          "name": "",
          "type": "string"
        }
      ],
      "stateMutability": "view",
      "type": "function"
    },
    {
      "inputs": [],
      "name": "totalSupply",
      "outputs": [
        {
          "internalType": "uint256",
          "name": "",
          "type": "uint256"
        }
      ],
      "stateMutability": "view",
      "type": "function"
    },
    {
      "inputs": [
        {
          "internalType": "address",
          "name": "to",
          "type": "address"
        },
        {
          "internalType": "uint256",
          "name": "amount",
          "type": "uint256"
        }
      ],
      "name": "transfer",
      "outputs": [
        {
          "internalType": "bool",
          "name": "",
          "type": "bool"
        }
      ],
      "stateMutability": "nonpayable",
      "type": "function"
    },
    {
      "inputs": [
        {
          "internalType": "address",
          "name": "from",
          "type": "address"
        },
        {
          "internalType": "address",
          "name": "to",
          "type": "address"
        },
        {
          "internalType": "uint256",
          "name": "amount",
          "type": "uint256"
        }
      ],
      "name": "transferFrom",
      "outputs": [
        {
          "internalType": "bool",
          "name": "",
          "type": "bool"
        }
      ],
      "stateMutability": "nonpayable",
      "type": "function"
    }
  ],
  "transactionHash": "0x68368c4fdc40dce5373d04b0b6ee732618c583fc1d76c1d10b9e587c49652aee",
  "args": [],
  "numDeployments": 1,
  "solcInputHash": "614d232c4755280dbb18cc2a97ede5d3",
  "bytecode": "0x608060405234801561001057600080fd5b506121e1806100206000396000f3fe608060405234801561001057600080fd5b50600436106101425760003560e01c806370a08231116100b8578063a4dd03d71161007c578063a4dd03d7146102c5578063a9059cbb146102ed578063aa652a0214610300578063b4167c6d14610313578063dd62ed3e14610326578063f8c8765e1461033957600080fd5b806370a082311461025b57806379cc6790146102845780638f01e2df1461029757806395d89b41146102aa578063a457c2d7146102b257600080fd5b8063392dc1a71161010a578063392dc1a7146101bc57806339509351146101cf5780633e99c1e4146101e257806342842e0e1461022057806342966c68146102355780636d069a671461024857600080fd5b806306fdde0314610147578063095ea7b31461016557806318160ddd1461018857806323b872dd1461019a578063313ce567146101ad575b600080fd5b61014f61034c565b60405161015c9190611cef565b60405180910390f35b610178610173366004611d3e565b6103de565b604051901515815260200161015c565b6035545b60405190815260200161015c565b6101786101a8366004611d68565b6103f8565b6040516012815260200161015c565b61018c6101ca366004611da4565b61041e565b6101786101dd366004611d3e565b6104dd565b6101f56101f0366004611dd0565b6104ff565b604080516001600160a01b03958616815294909316602085015291830152606082015260800161015c565b61023361022e366004611d68565b6105d7565b005b610233610243366004611deb565b610629565b61018c610256366004611e04565b610636565b61018c610269366004611dd0565b6001600160a01b031660009081526033602052604090205490565b610233610292366004611d3e565b6108ea565b61018c6102a5366004611dd0565b610903565b61014f610bed565b6101786102c0366004611d3e565b610bfc565b6102d86102d3366004611dd0565b610c82565b6040805192835260208301919091520161015c565b6101786102fb366004611d3e565b610f25565b61018c61030e366004611da4565b610f33565b61018c610321366004611d3e565b610fe7565b61018c610334366004611e40565b611093565b610233610347366004611e73565b6110be565b60606036805461035b90611ec7565b80601f016020809104026020016040519081016040528092919081815260200182805461038790611ec7565b80156103d45780601f106103a9576101008083540402835291602001916103d4565b820191906000526020600020905b8154815290600101906020018083116103b757829003601f168201915b5050505050905090565b6000336103ec818585611211565b60019150505b92915050565b600033610406858285611335565b6104118585856113af565b60019150505b9392505050565b60008084116104685760405162461bcd60e51b8152602060048201526011602482015270139bdd08195b9bdd59da081bdd5d1c1d5d607a1b60448201526064015b60405180910390fd5b6000831180156104785750600083115b6104945760405162461bcd60e51b815260040161045f90611f01565b61049e8483611f45565b6104aa906103de611f58565b6104b48585611f58565b6104c0906103e8611f58565b6104ca9190611f85565b6104d5906001611fa7565b949350505050565b6000336103ec8185856104f08383611093565b6104fa9190611fa7565b611211565b6099546000908190819081906001600160a01b03868116911614806105315750609a546001600160a01b038681169116145b6105755760405162461bcd60e51b8152602060048201526015602482015274696e76616c696420746f6b656e206164647265737360581b604482015260640161045f565b6099546001600160a01b038681169116146105ab57609a54609954609c54609b546001600160a01b0393841693909216916105c8565b609954609a54609b54609c546001600160a01b0393841693909216915b92989197509550909350915050565b6097546001600160a01b031633146106015760405162461bcd60e51b815260040161045f90611fba565b6097546106199084906001600160a01b031683611211565b6106248383836113af565b505050565b610633338261155a565b50565b6097546000906001600160a01b031633146106635760405162461bcd60e51b815260040161045f90611fba565b6099546001600160a01b038581169116148061068c5750609a546001600160a01b038581169116145b6106c45760405162461bcd60e51b81526020600482015260096024820152683130b2103a37b5b2b760b91b604482015260640161045f565b6099546000908190819081906001600160a01b0389811691161461070357609a54609954609c54609b546001600160a01b039384169390921691610720565b609954609a54609b54609c546001600160a01b0393841693909216915b6040516370a0823160e01b8152306004820152939750919550935091506000906001600160a01b038616906370a0823190602401602060405180830381865afa158015610771573d6000803e3d6000fd5b505050506040513d601f19601f820116820180604052508101906107959190611fe5565b9050876107a28483611f45565b146107e65760405162461bcd60e51b81526020600482015260146024820152731a5b9d985b1a59081a5b9c1d5d08185b5bdd5b9d60621b604482015260640161045f565b6107f1888484610f33565b95506107fe84888861168e565b6099546040516370a0823160e01b81523060048201526108de916001600160a01b0316906370a08231906024015b602060405180830381865afa158015610849573d6000803e3d6000fd5b505050506040513d601f19601f8201168201806040525081019061086d9190611fe5565b609a546040516370a0823160e01b81523060048201526001600160a01b03909116906370a0823190602401602060405180830381865afa1580156108b5573d6000803e3d6000fd5b505050506040513d601f19601f820116820180604052508101906108d99190611fe5565b6116e0565b50505050509392505050565b6108f5823383611335565b6108ff828261155a565b5050565b6097546000906001600160a01b031633146109305760405162461bcd60e51b815260040161045f90611fba565b609b54609c546099546040516370a0823160e01b81523060048201526000916001600160a01b0316906370a0823190602401602060405180830381865afa15801561097f573d6000803e3d6000fd5b505050506040513d601f19601f820116820180604052508101906109a39190611fe5565b609a546040516370a0823160e01b81523060048201529192506000916001600160a01b03909116906370a0823190602401602060405180830381865afa1580156109f1573d6000803e3d6000fd5b505050506040513d601f19601f82011682018060405250810190610a159190611fe5565b90506000610a238584611f45565b90506000610a318584611f45565b90506000861180610a425750600085115b15610a9b57610a518286611f58565b610a5b8288611f58565b14610a9b5760405162461bcd60e51b815260206004820152601060248201526f78202f207920213d206478202f20647960801b604482015260640161045f565b610aa58686611727565b6000610ab060355490565b905080600003610ad357610acc610ac78385611f58565b6117d4565b9750610b08565b610b0587610ae18386611f58565b610aeb9190611f85565b87610af68486611f58565b610b009190611f85565b611936565b97505b60008811610b585760405162461bcd60e51b815260206004820152601b60248201527f6e6f7420656e6f756768206c697175696469747920746f206164640000000000604482015260640161045f565b610b62898961194c565b610b6c85856116e0565b609c54609b54610b7c9190611f58565b609d55609954609a54604080516001600160a01b039384168152602081018790529183168282015260608201859052608082018b905251918b16917fba7578c98376131c049016cd224012bc927055c6aa08f323ebbbea2cf00c707a9181900360a00190a250505050505050919050565b60606037805461035b90611ec7565b60003381610c0a8286611093565b905083811015610c6a5760405162461bcd60e51b815260206004820152602560248201527f45524332303a2064656372656173656420616c6c6f77616e63652062656c6f77604482015264207a65726f60d81b606482015260840161045f565b610c778286868403611211565b506001949350505050565b60975460009081906001600160a01b03163314610cb15760405162461bcd60e51b815260040161045f90611fba565b609b54609c54609954609a546040516370a0823160e01b81523060048201526001600160a01b03928316929091169060009083906370a0823190602401602060405180830381865afa158015610d0b573d6000803e3d6000fd5b505050506040513d601f19601f82011682018060405250810190610d2f9190611fe5565b6040516370a0823160e01b81523060048201529091506000906001600160a01b038416906370a0823190602401602060405180830381865afa158015610d79573d6000803e3d6000fd5b505050506040513d601f19601f82011682018060405250810190610d9d9190611fe5565b30600090815260336020526040902054909150610dba8787611727565b6000610dc560355490565b905080610dd28584611f58565b610ddc9190611f85565b995080610de98484611f58565b610df39190611f85565b985060008a118015610e055750600089115b610e515760405162461bcd60e51b815260206004820152601e60248201527f4e6f7420656e6f756768206c697175696469747920746f2072656d6f76650000604482015260640161045f565b610e5b308361155a565b610e66868c8c61168e565b610e71858c8b61168e565b6099546040516370a0823160e01b8152306004820152610ea3916001600160a01b0316906370a082319060240161082c565b609c54609b54610eb39190611f58565b609d55609954609a54604080516001600160a01b039384168152602081018e905291831682820152606082018c90526080820185905251918d16917fd840e283120e3fbe625d7d8c11400fb17a64f75bcb1859ceac5db70adefb663f9181900360a00190a25050505050505050915091565b6000336103ec8185856113af565b6000808411610f775760405162461bcd60e51b815260206004820152601060248201526f139bdd08195b9bdd59da081a5b9c1d5d60821b604482015260640161045f565b600083118015610f875750600083115b610fa35760405162461bcd60e51b815260040161045f90611f01565b6000610fb1856103de611f58565b905080610fc0856103e8611f58565b610fca9190611fa7565b610fd48483611f58565b610fde9190611f85565b95945050505050565b609954600090819081906001600160a01b0386811691161461100e57609c54609b54611015565b609b54609c545b915091506000841161105c5760405162461bcd60e51b815260206004820152601060248201526f139bdd08195b9bdd59da081a5b9c1d5d60821b604482015260640161045f565b60008211801561106c5750600081115b6110885760405162461bcd60e51b815260040161045f90611f01565b81610fd48286611f58565b6001600160a01b03918216600090815260346020908152604080832093909416825291909152205490565b600054610100900460ff16158080156110de5750600054600160ff909116105b806110f85750303b1580156110f8575060005460ff166001145b61115b5760405162461bcd60e51b815260206004820152602e60248201527f496e697469616c697a61626c653a20636f6e747261637420697320616c72656160448201526d191e481a5b9a5d1a585b1a5e995960921b606482015260840161045f565b6000805460ff19166001179055801561117e576000805461ff0019166101001790555b61118785611a0d565b609880546001600160a01b038087166001600160a01b03199283161790925560998054868416908316179055609a805492851692909116919091179055801561120a576000805461ff0019169055604051600181527f7f26b83ff96e1f2b6a682f133852f6798a09c465da95921460cefb38474024989060200160405180910390a15b5050505050565b6001600160a01b0383166112735760405162461bcd60e51b8152602060048201526024808201527f45524332303a20617070726f76652066726f6d20746865207a65726f206164646044820152637265737360e01b606482015260840161045f565b6001600160a01b0382166112d45760405162461bcd60e51b815260206004820152602260248201527f45524332303a20617070726f766520746f20746865207a65726f206164647265604482015261737360f01b606482015260840161045f565b6001600160a01b0383811660008181526034602090815260408083209487168084529482529182902085905590518481527f8c5be1e5ebec7d5bd14f71427d1e84f3dd0314c0f7b2291e5b200ac8c7c3b925910160405180910390a3505050565b60006113418484611093565b905060001981146113a9578181101561139c5760405162461bcd60e51b815260206004820152601d60248201527f45524332303a20696e73756666696369656e7420616c6c6f77616e6365000000604482015260640161045f565b6113a98484848403611211565b50505050565b6001600160a01b0383166114135760405162461bcd60e51b815260206004820152602560248201527f45524332303a207472616e736665722066726f6d20746865207a65726f206164604482015264647265737360d81b606482015260840161045f565b6001600160a01b0382166114755760405162461bcd60e51b815260206004820152602360248201527f45524332303a207472616e7366657220746f20746865207a65726f206164647260448201526265737360e81b606482015260840161045f565b6001600160a01b038316600090815260336020526040902054818110156114ed5760405162461bcd60e51b815260206004820152602660248201527f45524332303a207472616e7366657220616d6f756e7420657863656564732062604482015265616c616e636560d01b606482015260840161045f565b6001600160a01b0380851660008181526033602052604080822086860390559286168082529083902080548601905591517fddf252ad1be2c89b69c2b068fc378daa952ba7f163c4a11628f55a4df523b3ef9061154d9086815260200190565b60405180910390a36113a9565b6001600160a01b0382166115ba5760405162461bcd60e51b815260206004820152602160248201527f45524332303a206275726e2066726f6d20746865207a65726f206164647265736044820152607360f81b606482015260840161045f565b6001600160a01b0382166000908152603360205260409020548181101561162e5760405162461bcd60e51b815260206004820152602260248201527f45524332303a206275726e20616d6f756e7420657863656564732062616c616e604482015261636560f01b606482015260840161045f565b6001600160a01b03831660008181526033602090815260408083208686039055603580548790039055518581529192917fddf252ad1be2c89b69c2b068fc378daa952ba7f163c4a11628f55a4df523b3ef910160405180910390a3505050565b604080516001600160a01b038416602482015260448082018490528251808303909101815260649091019091526020810180516001600160e01b031663a9059cbb60e01b179052610624908490611aa5565b609b829055609c81905560408051838152602081018390527f5141ecc84a35c12ca2bf76bb33d393bd2fc22f906da0743534beef4ae63c6c8e910160405180910390a15050565b609d54801561062457600061173f610ac78486611f58565b9050600061174c836117d4565b90508082111561120a5760006117628284611f45565b60355461176f9190611f58565b61177a906032611f58565b90506000611789836032611f58565b611794856064611f58565b61179e9190611fa7565b905060006117ac8284611f85565b905080156117ca576098546117ca906001600160a01b03168261194c565b5050505050505050565b6000816000036117e657506000919050565b600182608081901c156117fe5760409190911b9060801c5b604081901c156118135760209190911b9060401c5b602081901c156118285760109190911b9060201c5b601081901c1561183d5760089190911b9060101c5b600881901c156118525760049190911b9060081c5b600481901c156118675760029190911b9060041c5b600281901c1561187957600182901b91505b600182858161188a5761188a611f6f565b048301901c915060018285816118a2576118a2611f6f565b048301901c915060018285816118ba576118ba611f6f565b048301901c915060018285816118d2576118d2611f6f565b048301901c915060018285816118ea576118ea611f6f565b048301901c9150600182858161190257611902611f6f565b048301901c9150600182858161191a5761191a611f6f565b048301901c91506104d58283868161193457611934611f6f565b045b60008183106119455781610417565b5090919050565b6001600160a01b0382166119a25760405162461bcd60e51b815260206004820152601f60248201527f45524332303a206d696e7420746f20746865207a65726f206164647265737300604482015260640161045f565b80603560008282546119b49190611fa7565b90915550506001600160a01b0382166000818152603360209081526040808320805486019055518481527fddf252ad1be2c89b69c2b068fc378daa952ba7f163c4a11628f55a4df523b3ef910160405180910390a35050565b600054610100900460ff16611a345760405162461bcd60e51b815260040161045f90611ffe565b611a83604051806040016040528060128152602001712330b7399029b7b1b4b2ba3c902a37b5b2b760711b815250604051806040016040528060038152602001621194d560ea1b815250611b77565b609780546001600160a01b0319166001600160a01b0392909216919091179055565b6000611afa826040518060400160405280602081526020017f5361666545524332303a206c6f772d6c6576656c2063616c6c206661696c6564815250856001600160a01b0316611bb79092919063ffffffff16565b8051909150156106245780806020019051810190611b189190612049565b6106245760405162461bcd60e51b815260206004820152602a60248201527f5361666545524332303a204552433230206f7065726174696f6e20646964206e6044820152691bdd081cdd58d8d9595960b21b606482015260840161045f565b600054610100900460ff16611b9e5760405162461bcd60e51b815260040161045f90611ffe565b6036611baa83826120cf565b50603761062482826120cf565b60606104d58484600085856001600160a01b0385163b611c195760405162461bcd60e51b815260206004820152601d60248201527f416464726573733a2063616c6c20746f206e6f6e2d636f6e7472616374000000604482015260640161045f565b600080866001600160a01b03168587604051611c35919061218f565b60006040518083038185875af1925050503d8060008114611c72576040519150601f19603f3d011682016040523d82523d6000602084013e611c77565b606091505b5091509150611c87828286611c92565b979650505050505050565b60608315611ca1575081610417565b825115611cb15782518084602001fd5b8160405162461bcd60e51b815260040161045f9190611cef565b60005b83811015611ce6578181015183820152602001611cce565b50506000910152565b6020815260008251806020840152611d0e816040850160208701611ccb565b601f01601f19169190910160400192915050565b80356001600160a01b0381168114611d3957600080fd5b919050565b60008060408385031215611d5157600080fd5b611d5a83611d22565b946020939093013593505050565b600080600060608486031215611d7d57600080fd5b611d8684611d22565b9250611d9460208501611d22565b9150604084013590509250925092565b600080600060608486031215611db957600080fd5b505081359360208301359350604090920135919050565b600060208284031215611de257600080fd5b61041782611d22565b600060208284031215611dfd57600080fd5b5035919050565b600080600060608486031215611e1957600080fd5b611e2284611d22565b925060208401359150611e3760408501611d22565b90509250925092565b60008060408385031215611e5357600080fd5b611e5c83611d22565b9150611e6a60208401611d22565b90509250929050565b60008060008060808587031215611e8957600080fd5b611e9285611d22565b9350611ea060208601611d22565b9250611eae60408601611d22565b9150611ebc60608601611d22565b905092959194509250565b600181811c90821680611edb57607f821691505b602082108103611efb57634e487b7160e01b600052602260045260246000fd5b50919050565b6020808252601490820152734e6f7420656e6f756768206c697175696469747960601b604082015260600190565b634e487b7160e01b600052601160045260246000fd5b818103818111156103f2576103f2611f2f565b80820281158282048414176103f2576103f2611f2f565b634e487b7160e01b600052601260045260246000fd5b600082611fa257634e487b7160e01b600052601260045260246000fd5b500490565b808201808211156103f2576103f2611f2f565b60208082526011908201527043616c6c6572206973206e6f7420414d4d60781b604082015260600190565b600060208284031215611ff757600080fd5b5051919050565b6020808252602b908201527f496e697469616c697a61626c653a20636f6e7472616374206973206e6f74206960408201526a6e697469616c697a696e6760a81b606082015260800190565b60006020828403121561205b57600080fd5b8151801515811461041757600080fd5b634e487b7160e01b600052604160045260246000fd5b601f82111561062457600081815260208120601f850160051c810160208610156120a85750805b601f850160051c820191505b818110156120c7578281556001016120b4565b505050505050565b815167ffffffffffffffff8111156120e9576120e961206b565b6120fd816120f78454611ec7565b84612081565b602080601f831160018114612132576000841561211a5750858301515b600019600386901b1c1916600185901b1785556120c7565b600085815260208120601f198616915b8281101561216157888601518255948401946001909101908401612142565b508582101561217f5787850151600019600388901b60f8161c191681555b5050505050600190811b01905550565b600082516121a1818460208701611ccb565b919091019291505056fea2646970667358221220de2ee89acd617079395c88a9cc15abd611fdd61520a562bdedef550c8c50bf3a64736f6c63430008110033",
  "devdoc": {
    "kind": "dev",
    "methods": {
      "allowance(address,address)": {
        "details": "See {IERC20-allowance}."
      },
      "approve(address,uint256)": {
        "details": "See {IERC20-approve}. NOTE: If `amount` is the maximum `uint256`, the allowance is not updated on `transferFrom`. This is semantically equivalent to an infinite approval. Requirements: - `spender` cannot be the zero address."
      },
      "balanceOf(address)": {
        "details": "See {IERC20-balanceOf}."
      },
      "burn(uint256)": {
        "details": "Destroys `amount` tokens from the caller. See {ERC20-_burn}."
      },
      "burnFrom(address,uint256)": {
        "details": "Destroys `amount` tokens from `account`, deducting from the caller's allowance. See {ERC20-_burn} and {ERC20-allowance}. Requirements: - the caller must have allowance for ``accounts``'s tokens of at least `amount`."
      },
      "decimals()": {
        "details": "Returns the number of decimals used to get its user representation. For example, if `decimals` equals `2`, a balance of `505` tokens should be displayed to a user as `5.05` (`505 / 10 ** 2`). Tokens usually opt for a value of 18, imitating the relationship between Ether and Wei. This is the value {ERC20} uses, unless this function is overridden; NOTE: This information is only used for _display_ purposes: it in no way affects any of the arithmetic of the contract, including {IERC20-balanceOf} and {IERC20-transfer}."
      },
      "decreaseAllowance(address,uint256)": {
        "details": "Atomically decreases the allowance granted to `spender` by the caller. This is an alternative to {approve} that can be used as a mitigation for problems described in {IERC20-approve}. Emits an {Approval} event indicating the updated allowance. Requirements: - `spender` cannot be the zero address. - `spender` must have allowance for the caller of at least `subtractedValue`."
      },
      "increaseAllowance(address,uint256)": {
        "details": "Atomically increases the allowance granted to `spender` by the caller. This is an alternative to {approve} that can be used as a mitigation for problems described in {IERC20-approve}. Emits an {Approval} event indicating the updated allowance. Requirements: - `spender` cannot be the zero address."
      },
      "name()": {
        "details": "Returns the name of the token."
      },
      "symbol()": {
        "details": "Returns the symbol of the token, usually a shorter version of the name."
      },
      "totalSupply()": {
        "details": "See {IERC20-totalSupply}."
      },
      "transfer(address,uint256)": {
        "details": "See {IERC20-transfer}. Requirements: - `to` cannot be the zero address. - the caller must have a balance of at least `amount`."
      },
      "transferFrom(address,address,uint256)": {
        "details": "See {IERC20-transferFrom}. Emits an {Approval} event indicating the updated allowance. This is not required by the EIP. See the note at the beginning of {ERC20}. NOTE: Does not update the allowance if the current allowance is the maximum `uint256`. Requirements: - `from` and `to` cannot be the zero address. - `from` must have a balance of at least `amount`. - the caller must have allowance for ``from``'s tokens of at least `amount`."
      }
    },
    "version": 1
  },
  "userdoc": {
    "kind": "user",
    "methods": {},
    "version": 1
  },
  "storageLayout": {
    "storage": [
      {
        "astId": 6,
        "contract": "contracts/pools/Pool.sol:Pool",
        "label": "_initialized",
        "offset": 0,
        "slot": "0",
        "type": "t_uint8"
      },
      {
        "astId": 9,
        "contract": "contracts/pools/Pool.sol:Pool",
        "label": "_initializing",
        "offset": 1,
        "slot": "0",
        "type": "t_bool"
      },
      {
        "astId": 1272,
        "contract": "contracts/pools/Pool.sol:Pool",
        "label": "__gap",
        "offset": 0,
        "slot": "1",
        "type": "t_array(t_uint256)50_storage"
      },
      {
        "astId": 187,
        "contract": "contracts/pools/Pool.sol:Pool",
        "label": "_balances",
        "offset": 0,
        "slot": "51",
        "type": "t_mapping(t_address,t_uint256)"
      },
      {
        "astId": 193,
        "contract": "contracts/pools/Pool.sol:Pool",
        "label": "_allowances",
        "offset": 0,
        "slot": "52",
        "type": "t_mapping(t_address,t_mapping(t_address,t_uint256))"
      },
      {
        "astId": 195,
        "contract": "contracts/pools/Pool.sol:Pool",
        "label": "_totalSupply",
        "offset": 0,
        "slot": "53",
        "type": "t_uint256"
      },
      {
        "astId": 197,
        "contract": "contracts/pools/Pool.sol:Pool",
        "label": "_name",
        "offset": 0,
        "slot": "54",
        "type": "t_string_storage"
      },
      {
        "astId": 199,
        "contract": "contracts/pools/Pool.sol:Pool",
        "label": "_symbol",
        "offset": 0,
        "slot": "55",
        "type": "t_string_storage"
      },
      {
        "astId": 779,
        "contract": "contracts/pools/Pool.sol:Pool",
        "label": "__gap",
        "offset": 0,
        "slot": "56",
        "type": "t_array(t_uint256)45_storage"
      },
      {
        "astId": 921,
        "contract": "contracts/pools/Pool.sol:Pool",
        "label": "__gap",
        "offset": 0,
        "slot": "101",
        "type": "t_array(t_uint256)50_storage"
      },
      {
        "astId": 2694,
        "contract": "contracts/pools/Pool.sol:Pool",
        "label": "amm",
        "offset": 0,
        "slot": "151",
        "type": "t_address"
      },
      {
        "astId": 2770,
        "contract": "contracts/pools/Pool.sol:Pool",
        "label": "fansSocietyAddress",
        "offset": 0,
        "slot": "152",
        "type": "t_address"
      },
      {
        "astId": 2772,
        "contract": "contracts/pools/Pool.sol:Pool",
        "label": "tokenX",
        "offset": 0,
        "slot": "153",
        "type": "t_address"
      },
      {
        "astId": 2774,
        "contract": "contracts/pools/Pool.sol:Pool",
        "label": "tokenY",
        "offset": 0,
        "slot": "154",
        "type": "t_address"
      },
      {
        "astId": 2776,
        "contract": "contracts/pools/Pool.sol:Pool",
        "label": "reserveX",
        "offset": 0,
        "slot": "155",
        "type": "t_uint256"
      },
      {
        "astId": 2778,
        "contract": "contracts/pools/Pool.sol:Pool",
        "label": "reserveY",
        "offset": 0,
        "slot": "156",
        "type": "t_uint256"
      },
      {
        "astId": 2780,
        "contract": "contracts/pools/Pool.sol:Pool",
        "label": "k",
        "offset": 0,
        "slot": "157",
        "type": "t_uint256"
      }
    ],
    "types": {
      "t_address": {
        "encoding": "inplace",
        "label": "address",
        "numberOfBytes": "20"
      },
      "t_array(t_uint256)45_storage": {
        "base": "t_uint256",
        "encoding": "inplace",
        "label": "uint256[45]",
        "numberOfBytes": "1440"
      },
      "t_array(t_uint256)50_storage": {
        "base": "t_uint256",
        "encoding": "inplace",
        "label": "uint256[50]",
        "numberOfBytes": "1600"
      },
      "t_bool": {
        "encoding": "inplace",
        "label": "bool",
        "numberOfBytes": "1"
      },
      "t_mapping(t_address,t_mapping(t_address,t_uint256))": {
        "encoding": "mapping",
        "key": "t_address",
        "label": "mapping(address => mapping(address => uint256))",
        "numberOfBytes": "32",
        "value": "t_mapping(t_address,t_uint256)"
      },
      "t_mapping(t_address,t_uint256)": {
        "encoding": "mapping",
        "key": "t_address",
        "label": "mapping(address => uint256)",
        "numberOfBytes": "32",
        "value": "t_uint256"
      },
      "t_string_storage": {
        "encoding": "bytes",
        "label": "string",
        "numberOfBytes": "32"
      },
      "t_uint256": {
        "encoding": "inplace",
        "label": "uint256",
        "numberOfBytes": "32"
      },
      "t_uint8": {
        "encoding": "inplace",
        "label": "uint8",
        "numberOfBytes": "1"
      }
    }
  }
}