{
  "address": "0x27f7785b17c6B4d034094a1B16Bc928bD697f386",
  "abi": [
    {
      "anonymous": false,
      "inputs": [
        {
          "indexed": true,
          "internalType": "address",
          "name": "owner",
          "type": "address"
        },
        {
          "indexed": true,
          "internalType": "address",
          "name": "spender",
          "type": "address"
        },
        {
          "indexed": false,
          "internalType": "uint256",
          "name": "value",
          "type": "uint256"
        }
      ],
      "name": "Approval",
      "type": "event"
    },
    {
      "anonymous": false,
      "inputs": [
        {
          "indexed": false,
          "internalType": "uint8",
          "name": "version",
          "type": "uint8"
        }
      ],
      "name": "Initialized",
      "type": "event"
    },
    {
      "anonymous": false,
      "inputs": [
        {
          "indexed": true,
          "internalType": "address",
          "name": "provider",
          "type": "address"
        },
        {
          "indexed": false,
          "internalType": "address",
          "name": "tokenX",
          "type": "address"
        },
        {
          "indexed": false,
          "internalType": "uint256",
          "name": "amountX",
          "type": "uint256"
        },
        {
          "indexed": false,
          "internalType": "address",
          "name": "tokenY",
          "type": "address"
        },
        {
          "indexed": false,
          "internalType": "uint256",
          "name": "amountY",
          "type": "uint256"
        },
        {
          "indexed": false,
          "internalType": "uint256",
          "name": "liquidity",
          "type": "uint256"
        }
      ],
      "name": "LPBurnt",
      "type": "event"
    },
    {
      "anonymous": false,
      "inputs": [
        {
          "indexed": true,
          "internalType": "address",
          "name": "provider",
          "type": "address"
        },
        {
          "indexed": false,
          "internalType": "address",
          "name": "tokenX",
          "type": "address"
        },
        {
          "indexed": false,
          "internalType": "uint256",
          "name": "amountX",
          "type": "uint256"
        },
        {
          "indexed": false,
          "internalType": "address",
          "name": "tokenY",
          "type": "address"
        },
        {
          "indexed": false,
          "internalType": "uint256",
          "name": "amountY",
          "type": "uint256"
        },
        {
          "indexed": false,
          "internalType": "uint256",
          "name": "liquidity",
          "type": "uint256"
        }
      ],
      "name": "LPMinted",
      "type": "event"
    },
    {
      "anonymous": false,
      "inputs": [
        {
          "indexed": false,
          "internalType": "address",
          "name": "tokenIn",
          "type": "address"
        },
        {
          "indexed": false,
          "internalType": "uint256",
          "name": "amountIn",
          "type": "uint256"
        },
        {
          "indexed": false,
          "internalType": "address",
          "name": "tokenOut",
          "type": "address"
        },
        {
          "indexed": false,
          "internalType": "uint256",
          "name": "amountOut",
          "type": "uint256"
        }
      ],
      "name": "PoolSwapped",
      "type": "event"
    },
    {
      "anonymous": false,
      "inputs": [
        {
          "indexed": false,
          "internalType": "uint256",
          "name": "reserveX",
          "type": "uint256"
        },
        {
          "indexed": false,
          "internalType": "uint256",
          "name": "reserveY",
          "type": "uint256"
        }
      ],
      "name": "ReservesUpdated",
      "type": "event"
    },
    {
      "anonymous": false,
      "inputs": [
        {
          "indexed": true,
          "internalType": "address",
          "name": "from",
          "type": "address"
        },
        {
          "indexed": true,
          "internalType": "address",
          "name": "to",
          "type": "address"
        },
        {
          "indexed": false,
          "internalType": "uint256",
          "name": "value",
          "type": "uint256"
        }
      ],
      "name": "Transfer",
      "type": "event"
    },
    {
      "inputs": [
        {
          "internalType": "address",
          "name": "owner",
          "type": "address"
        },
        {
          "internalType": "address",
          "name": "spender",
          "type": "address"
        }
      ],
      "name": "allowance",
      "outputs": [
        {
          "internalType": "uint256",
          "name": "",
          "type": "uint256"
        }
      ],
      "stateMutability": "view",
      "type": "function"
    },
    {
      "inputs": [
        {
          "internalType": "address",
          "name": "spender",
          "type": "address"
        },
        {
          "internalType": "uint256",
          "name": "amount",
          "type": "uint256"
        }
      ],
      "name": "approve",
      "outputs": [
        {
          "internalType": "bool",
          "name": "",
          "type": "bool"
        }
      ],
      "stateMutability": "nonpayable",
      "type": "function"
    },
    {
      "inputs": [
        {
          "internalType": "address",
          "name": "account",
          "type": "address"
        }
      ],
      "name": "balanceOf",
      "outputs": [
        {
          "internalType": "uint256",
          "name": "",
          "type": "uint256"
        }
      ],
      "stateMutability": "view",
      "type": "function"
    },
    {
      "inputs": [
        {
          "internalType": "uint256",
          "name": "amount",
          "type": "uint256"
        }
      ],
      "name": "burn",
      "outputs": [],
      "stateMutability": "nonpayable",
      "type": "function"
    },
    {
      "inputs": [
        {
          "internalType": "address",
          "name": "account",
          "type": "address"
        },
        {
          "internalType": "uint256",
          "name": "amount",
          "type": "uint256"
        }
      ],
      "name": "burnFrom",
      "outputs": [],
      "stateMutability": "nonpayable",
      "type": "function"
    },
    {
      "inputs": [
        {
          "internalType": "address",
          "name": "_provider",
          "type": "address"
        }
      ],
      "name": "burnLP",
      "outputs": [
        {
          "internalType": "address",
          "name": "_tokenX",
          "type": "address"
        },
        {
          "internalType": "uint256",
          "name": "amountX",
          "type": "uint256"
        },
        {
          "internalType": "address",
          "name": "_tokenY",
          "type": "address"
        },
        {
          "internalType": "uint256",
          "name": "amountY",
          "type": "uint256"
        }
      ],
      "stateMutability": "nonpayable",
      "type": "function"
    },
    {
      "inputs": [
        {
          "internalType": "uint256",
          "name": "_amountIn",
          "type": "uint256"
        },
        {
          "internalType": "uint256",
          "name": "_reserveIn",
          "type": "uint256"
        },
        {
          "internalType": "uint256",
          "name": "_reserveOut",
          "type": "uint256"
        }
      ],
      "name": "computeMaxOutputAmount",
      "outputs": [
        {
          "internalType": "uint256",
          "name": "amountOut",
          "type": "uint256"
        }
      ],
      "stateMutability": "pure",
      "type": "function"
    },
    {
      "inputs": [
        {
          "internalType": "address",
          "name": "_tokenIn",
          "type": "address"
        },
        {
          "internalType": "uint256",
          "name": "_amountIn",
          "type": "uint256"
        }
      ],
      "name": "computePriceOut",
      "outputs": [
        {
          "internalType": "uint256",
          "name": "priceOut",
          "type": "uint256"
        }
      ],
      "stateMutability": "view",
      "type": "function"
    },
    {
      "inputs": [
        {
          "internalType": "uint256",
          "name": "_amountOut",
          "type": "uint256"
        },
        {
          "internalType": "uint256",
          "name": "_reserveIn",
          "type": "uint256"
        },
        {
          "internalType": "uint256",
          "name": "_reserveOut",
          "type": "uint256"
        }
      ],
      "name": "computeRequiredInputAmount",
      "outputs": [
        {
          "internalType": "uint256",
          "name": "amountIn",
          "type": "uint256"
        }
      ],
      "stateMutability": "pure",
      "type": "function"
    },
    {
      "inputs": [],
      "name": "decimals",
      "outputs": [
        {
          "internalType": "uint8",
          "name": "",
          "type": "uint8"
        }
      ],
      "stateMutability": "view",
      "type": "function"
    },
    {
      "inputs": [
        {
          "internalType": "address",
          "name": "spender",
          "type": "address"
        },
        {
          "internalType": "uint256",
          "name": "subtractedValue",
          "type": "uint256"
        }
      ],
      "name": "decreaseAllowance",
      "outputs": [
        {
          "internalType": "bool",
          "name": "",
          "type": "bool"
        }
      ],
      "stateMutability": "nonpayable",
      "type": "function"
    },
    {
      "inputs": [
        {
          "internalType": "address",
          "name": "_tokenIn",
          "type": "address"
        }
      ],
      "name": "getReserves",
      "outputs": [
        {
          "internalType": "address",
          "name": "_tokenX",
          "type": "address"
        },
        {
          "internalType": "address",
          "name": "_tokenY",
          "type": "address"
        },
        {
          "internalType": "uint256",
          "name": "_reserveX",
          "type": "uint256"
        },
        {
          "internalType": "uint256",
          "name": "_reserveY",
          "type": "uint256"
        }
      ],
      "stateMutability": "view",
      "type": "function"
    },
    {
      "inputs": [
        {
          "internalType": "address",
          "name": "spender",
          "type": "address"
        },
        {
          "internalType": "uint256",
          "name": "addedValue",
          "type": "uint256"
        }
      ],
      "name": "increaseAllowance",
      "outputs": [
        {
          "internalType": "bool",
          "name": "",
          "type": "bool"
        }
      ],
      "stateMutability": "nonpayable",
      "type": "function"
    },
    {
      "inputs": [
        {
          "internalType": "address",
          "name": "_amm",
          "type": "address"
        },
        {
          "internalType": "address",
          "name": "_fansSocietyAddress",
          "type": "address"
        },
        {
          "internalType": "address",
          "name": "_tokenX",
          "type": "address"
        },
        {
          "internalType": "address",
          "name": "_tokenY",
          "type": "address"
        }
      ],
      "name": "initialize",
      "outputs": [],
      "stateMutability": "nonpayable",
      "type": "function"
    },
    {
      "inputs": [
        {
          "internalType": "address",
          "name": "_provider",
          "type": "address"
        }
      ],
      "name": "mintLP",
      "outputs": [
        {
          "internalType": "uint256",
          "name": "liquidity",
          "type": "uint256"
        }
      ],
      "stateMutability": "nonpayable",
      "type": "function"
    },
    {
      "inputs": [],
      "name": "name",
      "outputs": [
        {
          "internalType": "string",
          "name": "",
          "type": "string"
        }
      ],
      "stateMutability": "view",
      "type": "function"
    },
    {
      "inputs": [
        {
          "internalType": "address",
          "name": "from",
          "type": "address"
        },
        {
          "internalType": "address",
          "name": "to",
          "type": "address"
        },
        {
          "internalType": "uint256",
          "name": "value",
          "type": "uint256"
        }
      ],
      "name": "safeTransferFrom",
      "outputs": [],
      "stateMutability": "nonpayable",
      "type": "function"
    },
    {
      "inputs": [
        {
          "internalType": "address",
          "name": "_tokenIn",
          "type": "address"
        },
        {
          "internalType": "uint256",
          "name": "_amountIn",
          "type": "uint256"
        },
        {
          "internalType": "address",
          "name": "_recipient",
          "type": "address"
        }
      ],
      "name": "swap",
      "outputs": [
        {
          "internalType": "uint256",
          "name": "amountOut",
          "type": "uint256"
        }
      ],
      "stateMutability": "nonpayable",
      "type": "function"
    },
    {
      "inputs": [],
      "name": "symbol",
      "outputs": [
        {
          "internalType": "string",
          "name": "",
          "type": "string"
        }
      ],
      "stateMutability": "view",
      "type": "function"
    },
    {
      "inputs": [],
      "name": "totalSupply",
      "outputs": [
        {
          "internalType": "uint256",
          "name": "",
          "type": "uint256"
        }
      ],
      "stateMutability": "view",
      "type": "function"
    },
    {
      "inputs": [
        {
          "internalType": "address",
          "name": "to",
          "type": "address"
        },
        {
          "internalType": "uint256",
          "name": "amount",
          "type": "uint256"
        }
      ],
      "name": "transfer",
      "outputs": [
        {
          "internalType": "bool",
          "name": "",
          "type": "bool"
        }
      ],
      "stateMutability": "nonpayable",
      "type": "function"
    },
    {
      "inputs": [
        {
          "internalType": "address",
          "name": "from",
          "type": "address"
        },
        {
          "internalType": "address",
          "name": "to",
          "type": "address"
        },
        {
          "internalType": "uint256",
          "name": "amount",
          "type": "uint256"
        }
      ],
      "name": "transferFrom",
      "outputs": [
        {
          "internalType": "bool",
          "name": "",
          "type": "bool"
        }
      ],
      "stateMutability": "nonpayable",
      "type": "function"
    }
  ],
  "transactionHash": "0x0db84d2a464e4535ae036661ed804ac9887704a1d6fa61acb8271755c888c38e",
  "args": [],
  "numDeployments": 1,
  "solcInputHash": "5a83b03bb9993ae200ade0eea8c954d7",
  "bytecode": "0x608060405234801561001057600080fd5b5061222e806100206000396000f3fe608060405234801561001057600080fd5b50600436106101425760003560e01c806370a08231116100b8578063a4dd03d71161007c578063a4dd03d7146102c5578063a9059cbb1461030d578063aa652a0214610320578063b4167c6d14610333578063dd62ed3e14610346578063f8c8765e1461035957600080fd5b806370a082311461025b57806379cc6790146102845780638f01e2df1461029757806395d89b41146102aa578063a457c2d7146102b257600080fd5b8063392dc1a71161010a578063392dc1a7146101bc57806339509351146101cf5780633e99c1e4146101e257806342842e0e1461022057806342966c68146102355780636d069a671461024857600080fd5b806306fdde0314610147578063095ea7b31461016557806318160ddd1461018857806323b872dd1461019a578063313ce567146101ad575b600080fd5b61014f61036c565b60405161015c9190611d3c565b60405180910390f35b610178610173366004611d8b565b6103fe565b604051901515815260200161015c565b6035545b60405190815260200161015c565b6101786101a8366004611db5565b610418565b6040516012815260200161015c565b61018c6101ca366004611df1565b61043e565b6101786101dd366004611d8b565b610508565b6101f56101f0366004611e1d565b61052a565b604080516001600160a01b03958616815294909316602085015291830152606082015260800161015c565b61023361022e366004611db5565b610602565b005b610233610243366004611e38565b610654565b61018c610256366004611e51565b610661565b61018c610269366004611e1d565b6001600160a01b031660009081526033602052604090205490565b610233610292366004611d8b565b610915565b61018c6102a5366004611e1d565b61092e565b61014f610bb0565b6101786102c0366004611d8b565b610bbf565b6102d86102d3366004611e1d565b610c45565b60405161015c94939291906001600160a01b039485168152602081019390935292166040820152606081019190915260800190565b61017861031b366004611d8b565b610f3f565b61018c61032e366004611df1565b610f4d565b61018c610341366004611d8b565b611021565b61018c610354366004611e8d565b6110e0565b610233610367366004611ec0565b61110b565b60606036805461037b90611f14565b80601f01602080910402602001604051908101604052809291908181526020018280546103a790611f14565b80156103f45780601f106103c9576101008083540402835291602001916103f4565b820191906000526020600020905b8154815290600101906020018083116103d757829003601f168201915b5050505050905090565b60003361040c81858561125e565b60019150505b92915050565b600033610426858285611382565b6104318585856113fc565b60019150505b9392505050565b60008084116104885760405162461bcd60e51b8152602060048201526011602482015270139bdd08195b9bdd59da081bdd5d1c1d5d607a1b60448201526064015b60405180910390fd5b6000831180156104985750600083115b80156104a357508382115b6104bf5760405162461bcd60e51b815260040161047f90611f4e565b6104c98483611f92565b6104d5906103de611fa5565b6104df8585611fa5565b6104eb906103e8611fa5565b6104f59190611fd2565b610500906001611ff4565b949350505050565b60003361040c81858561051b83836110e0565b6105259190611ff4565b61125e565b6099546000908190819081906001600160a01b038681169116148061055c5750609a546001600160a01b038681169116145b6105a05760405162461bcd60e51b8152602060048201526015602482015274696e76616c696420746f6b656e206164647265737360581b604482015260640161047f565b6099546001600160a01b038681169116146105d657609a54609954609c54609b546001600160a01b0393841693909216916105f3565b609954609a54609b54609c546001600160a01b0393841693909216915b92989197509550909350915050565b6097546001600160a01b0316331461062c5760405162461bcd60e51b815260040161047f90612007565b6097546106449084906001600160a01b03168361125e565b61064f8383836113fc565b505050565b61065e33826115a7565b50565b6097546000906001600160a01b0316331461068e5760405162461bcd60e51b815260040161047f90612007565b6099546001600160a01b03858116911614806106b75750609a546001600160a01b038581169116145b6106ef5760405162461bcd60e51b81526020600482015260096024820152683130b2103a37b5b2b760b91b604482015260640161047f565b6099546000908190819081906001600160a01b0389811691161461072e57609a54609954609c54609b546001600160a01b03938416939092169161074b565b609954609a54609b54609c546001600160a01b0393841693909216915b6040516370a0823160e01b8152306004820152939750919550935091506000906001600160a01b038616906370a0823190602401602060405180830381865afa15801561079c573d6000803e3d6000fd5b505050506040513d601f19601f820116820180604052508101906107c09190612032565b9050876107cd8483611f92565b146108115760405162461bcd60e51b81526020600482015260146024820152731a5b9d985b1a59081a5b9c1d5d08185b5bdd5b9d60621b604482015260640161047f565b61081c888484610f4d565b95506108298488886116db565b6099546040516370a0823160e01b8152306004820152610909916001600160a01b0316906370a08231906024015b602060405180830381865afa158015610874573d6000803e3d6000fd5b505050506040513d601f19601f820116820180604052508101906108989190612032565b609a546040516370a0823160e01b81523060048201526001600160a01b03909116906370a0823190602401602060405180830381865afa1580156108e0573d6000803e3d6000fd5b505050506040513d601f19601f820116820180604052508101906109049190612032565b61172d565b50505050509392505050565b610920823383611382565b61092a82826115a7565b5050565b6097546000906001600160a01b0316331461095b5760405162461bcd60e51b815260040161047f90612007565b609b54609c546099546040516370a0823160e01b81523060048201526000916001600160a01b0316906370a0823190602401602060405180830381865afa1580156109aa573d6000803e3d6000fd5b505050506040513d601f19601f820116820180604052508101906109ce9190612032565b609a546040516370a0823160e01b81523060048201529192506000916001600160a01b03909116906370a0823190602401602060405180830381865afa158015610a1c573d6000803e3d6000fd5b505050506040513d601f19601f82011682018060405250810190610a409190612032565b90506000610a4e8584611f92565b90506000610a5c8584611f92565b9050610a688686611774565b6000610a7360355490565b905080600003610a9657610a8f610a8a8385611fa5565b611821565b9750610acb565b610ac887610aa48386611fa5565b610aae9190611fd2565b87610ab98486611fa5565b610ac39190611fd2565b611983565b97505b60008811610b1b5760405162461bcd60e51b815260206004820152601b60248201527f6e6f7420656e6f756768206c697175696469747920746f206164640000000000604482015260640161047f565b610b258989611999565b610b2f858561172d565b609c54609b54610b3f9190611fa5565b609d55609954609a54604080516001600160a01b039384168152602081018790529183168282015260608201859052608082018b905251918b16917fba7578c98376131c049016cd224012bc927055c6aa08f323ebbbea2cf00c707a9181900360a00190a250505050505050919050565b60606037805461037b90611f14565b60003381610bcd82866110e0565b905083811015610c2d5760405162461bcd60e51b815260206004820152602560248201527f45524332303a2064656372656173656420616c6c6f77616e63652062656c6f77604482015264207a65726f60d81b606482015260840161047f565b610c3a828686840361125e565b506001949350505050565b6097546000908190819081906001600160a01b03163314610c785760405162461bcd60e51b815260040161047f90612007565b609b54609c548115801590610c8d5750600081115b610cd05760405162461bcd60e51b81526020600482015260146024820152736e6f7420656e6f756768206c697175696469747960601b604482015260640161047f565b609954609a546040516370a0823160e01b81523060048201526001600160a01b0392831698509116945060009087906370a0823190602401602060405180830381865afa158015610d25573d6000803e3d6000fd5b505050506040513d601f19601f82011682018060405250810190610d499190612032565b6040516370a0823160e01b81523060048201529091506000906001600160a01b038716906370a0823190602401602060405180830381865afa158015610d93573d6000803e3d6000fd5b505050506040513d601f19601f82011682018060405250810190610db79190612032565b30600090815260336020526040902054909150610dd48585611774565b6000610ddf60355490565b905080610dec8584611fa5565b610df69190611fd2565b985080610e038484611fa5565b610e0d9190611fd2565b9650600089118015610e1f5750600087115b610e6b5760405162461bcd60e51b815260206004820152601e60248201527f4e6f7420656e6f756768206c697175696469747920746f2072656d6f76650000604482015260640161047f565b610e7530836115a7565b610e808a338b6116db565b610e8b8833896116db565b6099546040516370a0823160e01b8152306004820152610ebd916001600160a01b0316906370a0823190602401610857565b609c54609b54610ecd9190611fa5565b609d55609954609a54604080516001600160a01b039384168152602081018d905291831682820152606082018a90526080820185905251918d16917fd840e283120e3fbe625d7d8c11400fb17a64f75bcb1859ceac5db70adefb663f9181900360a00190a25050505050509193509193565b60003361040c8185856113fc565b6000808411610f915760405162461bcd60e51b815260206004820152601060248201526f139bdd08195b9bdd59da081a5b9c1d5d60821b604482015260640161047f565b600083118015610fa15750600083115b610fbd5760405162461bcd60e51b815260040161047f90611f4e565b60006103e8610fce866103de611fa5565b610fd89190611fd2565b9050610fe48185611ff4565b610fee8285611fa5565b610ff89190611fd2565b91508183116110195760405162461bcd60e51b815260040161047f90611f4e565b509392505050565b609954600090819081906001600160a01b0386811691161461104857609c54609b5461104f565b609b54609c545b91509150600084116110965760405162461bcd60e51b815260206004820152601060248201526f139bdd08195b9bdd59da081a5b9c1d5d60821b604482015260640161047f565b6000821180156110a65750600081115b6110c25760405162461bcd60e51b815260040161047f90611f4e565b816110cd8286611fa5565b6110d79190611fd2565b95945050505050565b6001600160a01b03918216600090815260346020908152604080832093909416825291909152205490565b600054610100900460ff161580801561112b5750600054600160ff909116105b806111455750303b158015611145575060005460ff166001145b6111a85760405162461bcd60e51b815260206004820152602e60248201527f496e697469616c697a61626c653a20636f6e747261637420697320616c72656160448201526d191e481a5b9a5d1a585b1a5e995960921b606482015260840161047f565b6000805460ff1916600117905580156111cb576000805461ff0019166101001790555b6111d485611a5a565b609880546001600160a01b038087166001600160a01b03199283161790925560998054868416908316179055609a8054928516929091169190911790558015611257576000805461ff0019169055604051600181527f7f26b83ff96e1f2b6a682f133852f6798a09c465da95921460cefb38474024989060200160405180910390a15b5050505050565b6001600160a01b0383166112c05760405162461bcd60e51b8152602060048201526024808201527f45524332303a20617070726f76652066726f6d20746865207a65726f206164646044820152637265737360e01b606482015260840161047f565b6001600160a01b0382166113215760405162461bcd60e51b815260206004820152602260248201527f45524332303a20617070726f766520746f20746865207a65726f206164647265604482015261737360f01b606482015260840161047f565b6001600160a01b0383811660008181526034602090815260408083209487168084529482529182902085905590518481527f8c5be1e5ebec7d5bd14f71427d1e84f3dd0314c0f7b2291e5b200ac8c7c3b925910160405180910390a3505050565b600061138e84846110e0565b905060001981146113f657818110156113e95760405162461bcd60e51b815260206004820152601d60248201527f45524332303a20696e73756666696369656e7420616c6c6f77616e6365000000604482015260640161047f565b6113f6848484840361125e565b50505050565b6001600160a01b0383166114605760405162461bcd60e51b815260206004820152602560248201527f45524332303a207472616e736665722066726f6d20746865207a65726f206164604482015264647265737360d81b606482015260840161047f565b6001600160a01b0382166114c25760405162461bcd60e51b815260206004820152602360248201527f45524332303a207472616e7366657220746f20746865207a65726f206164647260448201526265737360e81b606482015260840161047f565b6001600160a01b0383166000908152603360205260409020548181101561153a5760405162461bcd60e51b815260206004820152602660248201527f45524332303a207472616e7366657220616d6f756e7420657863656564732062604482015265616c616e636560d01b606482015260840161047f565b6001600160a01b0380851660008181526033602052604080822086860390559286168082529083902080548601905591517fddf252ad1be2c89b69c2b068fc378daa952ba7f163c4a11628f55a4df523b3ef9061159a9086815260200190565b60405180910390a36113f6565b6001600160a01b0382166116075760405162461bcd60e51b815260206004820152602160248201527f45524332303a206275726e2066726f6d20746865207a65726f206164647265736044820152607360f81b606482015260840161047f565b6001600160a01b0382166000908152603360205260409020548181101561167b5760405162461bcd60e51b815260206004820152602260248201527f45524332303a206275726e20616d6f756e7420657863656564732062616c616e604482015261636560f01b606482015260840161047f565b6001600160a01b03831660008181526033602090815260408083208686039055603580548790039055518581529192917fddf252ad1be2c89b69c2b068fc378daa952ba7f163c4a11628f55a4df523b3ef910160405180910390a3505050565b604080516001600160a01b038416602482015260448082018490528251808303909101815260649091019091526020810180516001600160e01b031663a9059cbb60e01b17905261064f908490611af2565b609b829055609c81905560408051838152602081018390527f5141ecc84a35c12ca2bf76bb33d393bd2fc22f906da0743534beef4ae63c6c8e910160405180910390a15050565b609d54801561064f57600061178c610a8a8486611fa5565b9050600061179983611821565b9050808211156112575760006117af8284611f92565b6035546117bc9190611fa5565b6117c7906032611fa5565b905060006117d6836032611fa5565b6117e1856064611fa5565b6117eb9190611ff4565b905060006117f98284611fd2565b9050801561181757609854611817906001600160a01b031682611999565b5050505050505050565b60008160000361183357506000919050565b600182608081901c1561184b5760409190911b9060801c5b604081901c156118605760209190911b9060401c5b602081901c156118755760109190911b9060201c5b601081901c1561188a5760089190911b9060101c5b600881901c1561189f5760049190911b9060081c5b600481901c156118b45760029190911b9060041c5b600281901c156118c657600182901b91505b60018285816118d7576118d7611fbc565b048301901c915060018285816118ef576118ef611fbc565b048301901c9150600182858161190757611907611fbc565b048301901c9150600182858161191f5761191f611fbc565b048301901c9150600182858161193757611937611fbc565b048301901c9150600182858161194f5761194f611fbc565b048301901c9150600182858161196757611967611fbc565b048301901c91506105008283868161198157611981611fbc565b045b60008183106119925781610437565b5090919050565b6001600160a01b0382166119ef5760405162461bcd60e51b815260206004820152601f60248201527f45524332303a206d696e7420746f20746865207a65726f206164647265737300604482015260640161047f565b8060356000828254611a019190611ff4565b90915550506001600160a01b0382166000818152603360209081526040808320805486019055518481527fddf252ad1be2c89b69c2b068fc378daa952ba7f163c4a11628f55a4df523b3ef910160405180910390a35050565b600054610100900460ff16611a815760405162461bcd60e51b815260040161047f9061204b565b611ad0604051806040016040528060128152602001712330b7399029b7b1b4b2ba3c902a37b5b2b760711b815250604051806040016040528060038152602001621194d560ea1b815250611bc4565b609780546001600160a01b0319166001600160a01b0392909216919091179055565b6000611b47826040518060400160405280602081526020017f5361666545524332303a206c6f772d6c6576656c2063616c6c206661696c6564815250856001600160a01b0316611c049092919063ffffffff16565b80519091501561064f5780806020019051810190611b659190612096565b61064f5760405162461bcd60e51b815260206004820152602a60248201527f5361666545524332303a204552433230206f7065726174696f6e20646964206e6044820152691bdd081cdd58d8d9595960b21b606482015260840161047f565b600054610100900460ff16611beb5760405162461bcd60e51b815260040161047f9061204b565b6036611bf7838261211c565b50603761064f828261211c565b60606105008484600085856001600160a01b0385163b611c665760405162461bcd60e51b815260206004820152601d60248201527f416464726573733a2063616c6c20746f206e6f6e2d636f6e7472616374000000604482015260640161047f565b600080866001600160a01b03168587604051611c8291906121dc565b60006040518083038185875af1925050503d8060008114611cbf576040519150601f19603f3d011682016040523d82523d6000602084013e611cc4565b606091505b5091509150611cd4828286611cdf565b979650505050505050565b60608315611cee575081610437565b825115611cfe5782518084602001fd5b8160405162461bcd60e51b815260040161047f9190611d3c565b60005b83811015611d33578181015183820152602001611d1b565b50506000910152565b6020815260008251806020840152611d5b816040850160208701611d18565b601f01601f19169190910160400192915050565b80356001600160a01b0381168114611d8657600080fd5b919050565b60008060408385031215611d9e57600080fd5b611da783611d6f565b946020939093013593505050565b600080600060608486031215611dca57600080fd5b611dd384611d6f565b9250611de160208501611d6f565b9150604084013590509250925092565b600080600060608486031215611e0657600080fd5b505081359360208301359350604090920135919050565b600060208284031215611e2f57600080fd5b61043782611d6f565b600060208284031215611e4a57600080fd5b5035919050565b600080600060608486031215611e6657600080fd5b611e6f84611d6f565b925060208401359150611e8460408501611d6f565b90509250925092565b60008060408385031215611ea057600080fd5b611ea983611d6f565b9150611eb760208401611d6f565b90509250929050565b60008060008060808587031215611ed657600080fd5b611edf85611d6f565b9350611eed60208601611d6f565b9250611efb60408601611d6f565b9150611f0960608601611d6f565b905092959194509250565b600181811c90821680611f2857607f821691505b602082108103611f4857634e487b7160e01b600052602260045260246000fd5b50919050565b6020808252601490820152734e6f7420656e6f756768206c697175696469747960601b604082015260600190565b634e487b7160e01b600052601160045260246000fd5b8181038181111561041257610412611f7c565b808202811582820484141761041257610412611f7c565b634e487b7160e01b600052601260045260246000fd5b600082611fef57634e487b7160e01b600052601260045260246000fd5b500490565b8082018082111561041257610412611f7c565b60208082526011908201527043616c6c6572206973206e6f7420414d4d60781b604082015260600190565b60006020828403121561204457600080fd5b5051919050565b6020808252602b908201527f496e697469616c697a61626c653a20636f6e7472616374206973206e6f74206960408201526a6e697469616c697a696e6760a81b606082015260800190565b6000602082840312156120a857600080fd5b8151801515811461043757600080fd5b634e487b7160e01b600052604160045260246000fd5b601f82111561064f57600081815260208120601f850160051c810160208610156120f55750805b601f850160051c820191505b8181101561211457828155600101612101565b505050505050565b815167ffffffffffffffff811115612136576121366120b8565b61214a816121448454611f14565b846120ce565b602080601f83116001811461217f57600084156121675750858301515b600019600386901b1c1916600185901b178555612114565b600085815260208120601f198616915b828110156121ae5788860151825594840194600190910190840161218f565b50858210156121cc5787850151600019600388901b60f8161c191681555b5050505050600190811b01905550565b600082516121ee818460208701611d18565b919091019291505056fea26469706673582212202b2c6ce647bd4105208bf94830eae0beee3ec54fe750fa7bcd9ae81c9562795f64736f6c63430008110033",
  "devdoc": {
    "author": "Teddy Chambard, Nicolas Thierry",
    "kind": "dev",
    "methods": {
      "allowance(address,address)": {
        "details": "See {IERC20-allowance}."
      },
      "approve(address,uint256)": {
        "details": "See {IERC20-approve}. NOTE: If `amount` is the maximum `uint256`, the allowance is not updated on `transferFrom`. This is semantically equivalent to an infinite approval. Requirements: - `spender` cannot be the zero address."
      },
      "balanceOf(address)": {
        "details": "See {IERC20-balanceOf}."
      },
      "burn(uint256)": {
        "details": "Destroys `amount` tokens from the caller. See {ERC20-_burn}."
      },
      "burnFrom(address,uint256)": {
        "details": "Destroys `amount` tokens from `account`, deducting from the caller's allowance. See {ERC20-_burn} and {ERC20-allowance}. Requirements: - the caller must have allowance for ``accounts``'s tokens of at least `amount`."
      },
      "burnLP(address)": {
        "details": "See {IPool-burnLP}."
      },
      "computeMaxOutputAmount(uint256,uint256,uint256)": {
        "details": "See {IPool-computeMaxOutputAmount}."
      },
      "computePriceOut(address,uint256)": {
        "details": "See {IPool-computePriceOut}."
      },
      "computeRequiredInputAmount(uint256,uint256,uint256)": {
        "details": "See {IPool-computeRequiredInputAmount}."
      },
      "decimals()": {
        "details": "Returns the number of decimals used to get its user representation. For example, if `decimals` equals `2`, a balance of `505` tokens should be displayed to a user as `5.05` (`505 / 10 ** 2`). Tokens usually opt for a value of 18, imitating the relationship between Ether and Wei. This is the value {ERC20} uses, unless this function is overridden; NOTE: This information is only used for _display_ purposes: it in no way affects any of the arithmetic of the contract, including {IERC20-balanceOf} and {IERC20-transfer}."
      },
      "decreaseAllowance(address,uint256)": {
        "details": "Atomically decreases the allowance granted to `spender` by the caller. This is an alternative to {approve} that can be used as a mitigation for problems described in {IERC20-approve}. Emits an {Approval} event indicating the updated allowance. Requirements: - `spender` cannot be the zero address. - `spender` must have allowance for the caller of at least `subtractedValue`."
      },
      "getReserves(address)": {
        "details": "See {IPool-getReserves}."
      },
      "increaseAllowance(address,uint256)": {
        "details": "Atomically increases the allowance granted to `spender` by the caller. This is an alternative to {approve} that can be used as a mitigation for problems described in {IERC20-approve}. Emits an {Approval} event indicating the updated allowance. Requirements: - `spender` cannot be the zero address."
      },
      "mintLP(address)": {
        "details": "See {IPool-mintLP}."
      },
      "name()": {
        "details": "Returns the name of the token."
      },
      "swap(address,uint256,address)": {
        "details": "See {IPool-swap}."
      },
      "symbol()": {
        "details": "Returns the symbol of the token, usually a shorter version of the name."
      },
      "totalSupply()": {
        "details": "See {IERC20-totalSupply}."
      },
      "transfer(address,uint256)": {
        "details": "See {IERC20-transfer}. Requirements: - `to` cannot be the zero address. - the caller must have a balance of at least `amount`."
      },
      "transferFrom(address,address,uint256)": {
        "details": "See {IERC20-transferFrom}. Emits an {Approval} event indicating the updated allowance. This is not required by the EIP. See the note at the beginning of {ERC20}. NOTE: Does not update the allowance if the current allowance is the maximum `uint256`. Requirements: - `from` and `to` cannot be the zero address. - `from` must have a balance of at least `amount`. - the caller must have allowance for ``from``'s tokens of at least `amount`."
      }
    },
    "version": 1
  },
  "userdoc": {
    "kind": "user",
    "methods": {},
    "notice": "Pool Fans Society ContractThis contract is responsible for ERC20 pair pool liquidity management",
    "version": 1
  },
  "storageLayout": {
    "storage": [
      {
        "astId": 6,
        "contract": "contracts/pools/Pool.sol:Pool",
        "label": "_initialized",
        "offset": 0,
        "slot": "0",
        "type": "t_uint8"
      },
      {
        "astId": 9,
        "contract": "contracts/pools/Pool.sol:Pool",
        "label": "_initializing",
        "offset": 1,
        "slot": "0",
        "type": "t_bool"
      },
      {
        "astId": 1272,
        "contract": "contracts/pools/Pool.sol:Pool",
        "label": "__gap",
        "offset": 0,
        "slot": "1",
        "type": "t_array(t_uint256)50_storage"
      },
      {
        "astId": 187,
        "contract": "contracts/pools/Pool.sol:Pool",
        "label": "_balances",
        "offset": 0,
        "slot": "51",
        "type": "t_mapping(t_address,t_uint256)"
      },
      {
        "astId": 193,
        "contract": "contracts/pools/Pool.sol:Pool",
        "label": "_allowances",
        "offset": 0,
        "slot": "52",
        "type": "t_mapping(t_address,t_mapping(t_address,t_uint256))"
      },
      {
        "astId": 195,
        "contract": "contracts/pools/Pool.sol:Pool",
        "label": "_totalSupply",
        "offset": 0,
        "slot": "53",
        "type": "t_uint256"
      },
      {
        "astId": 197,
        "contract": "contracts/pools/Pool.sol:Pool",
        "label": "_name",
        "offset": 0,
        "slot": "54",
        "type": "t_string_storage"
      },
      {
        "astId": 199,
        "contract": "contracts/pools/Pool.sol:Pool",
        "label": "_symbol",
        "offset": 0,
        "slot": "55",
        "type": "t_string_storage"
      },
      {
        "astId": 779,
        "contract": "contracts/pools/Pool.sol:Pool",
        "label": "__gap",
        "offset": 0,
        "slot": "56",
        "type": "t_array(t_uint256)45_storage"
      },
      {
        "astId": 921,
        "contract": "contracts/pools/Pool.sol:Pool",
        "label": "__gap",
        "offset": 0,
        "slot": "101",
        "type": "t_array(t_uint256)50_storage"
      },
      {
        "astId": 2721,
        "contract": "contracts/pools/Pool.sol:Pool",
        "label": "amm",
        "offset": 0,
        "slot": "151",
        "type": "t_address"
      },
      {
        "astId": 2798,
        "contract": "contracts/pools/Pool.sol:Pool",
        "label": "fansSocietyAddress",
        "offset": 0,
        "slot": "152",
        "type": "t_address"
      },
      {
        "astId": 2800,
        "contract": "contracts/pools/Pool.sol:Pool",
        "label": "tokenX",
        "offset": 0,
        "slot": "153",
        "type": "t_address"
      },
      {
        "astId": 2802,
        "contract": "contracts/pools/Pool.sol:Pool",
        "label": "tokenY",
        "offset": 0,
        "slot": "154",
        "type": "t_address"
      },
      {
        "astId": 2804,
        "contract": "contracts/pools/Pool.sol:Pool",
        "label": "reserveX",
        "offset": 0,
        "slot": "155",
        "type": "t_uint256"
      },
      {
        "astId": 2806,
        "contract": "contracts/pools/Pool.sol:Pool",
        "label": "reserveY",
        "offset": 0,
        "slot": "156",
        "type": "t_uint256"
      },
      {
        "astId": 2808,
        "contract": "contracts/pools/Pool.sol:Pool",
        "label": "k",
        "offset": 0,
        "slot": "157",
        "type": "t_uint256"
      }
    ],
    "types": {
      "t_address": {
        "encoding": "inplace",
        "label": "address",
        "numberOfBytes": "20"
      },
      "t_array(t_uint256)45_storage": {
        "base": "t_uint256",
        "encoding": "inplace",
        "label": "uint256[45]",
        "numberOfBytes": "1440"
      },
      "t_array(t_uint256)50_storage": {
        "base": "t_uint256",
        "encoding": "inplace",
        "label": "uint256[50]",
        "numberOfBytes": "1600"
      },
      "t_bool": {
        "encoding": "inplace",
        "label": "bool",
        "numberOfBytes": "1"
      },
      "t_mapping(t_address,t_mapping(t_address,t_uint256))": {
        "encoding": "mapping",
        "key": "t_address",
        "label": "mapping(address => mapping(address => uint256))",
        "numberOfBytes": "32",
        "value": "t_mapping(t_address,t_uint256)"
      },
      "t_mapping(t_address,t_uint256)": {
        "encoding": "mapping",
        "key": "t_address",
        "label": "mapping(address => uint256)",
        "numberOfBytes": "32",
        "value": "t_uint256"
      },
      "t_string_storage": {
        "encoding": "bytes",
        "label": "string",
        "numberOfBytes": "32"
      },
      "t_uint256": {
        "encoding": "inplace",
        "label": "uint256",
        "numberOfBytes": "32"
      },
      "t_uint8": {
        "encoding": "inplace",
        "label": "uint8",
        "numberOfBytes": "1"
      }
    }
  }
}