{
  "address": "0x0ed64d01D0B4B655E410EF1441dD677B695639E7",
  "abi": [
    {
      "anonymous": false,
      "inputs": [
        {
          "indexed": true,
          "internalType": "address",
          "name": "owner",
          "type": "address"
        },
        {
          "indexed": true,
          "internalType": "address",
          "name": "spender",
          "type": "address"
        },
        {
          "indexed": false,
          "internalType": "uint256",
          "name": "value",
          "type": "uint256"
        }
      ],
      "name": "Approval",
      "type": "event"
    },
    {
      "anonymous": false,
      "inputs": [
        {
          "indexed": false,
          "internalType": "uint8",
          "name": "version",
          "type": "uint8"
        }
      ],
      "name": "Initialized",
      "type": "event"
    },
    {
      "anonymous": false,
      "inputs": [
        {
          "indexed": true,
          "internalType": "address",
          "name": "provider",
          "type": "address"
        },
        {
          "indexed": false,
          "internalType": "address",
          "name": "tokenX",
          "type": "address"
        },
        {
          "indexed": false,
          "internalType": "uint256",
          "name": "amountX",
          "type": "uint256"
        },
        {
          "indexed": false,
          "internalType": "address",
          "name": "tokenY",
          "type": "address"
        },
        {
          "indexed": false,
          "internalType": "uint256",
          "name": "amountY",
          "type": "uint256"
        },
        {
          "indexed": false,
          "internalType": "uint256",
          "name": "liquidity",
          "type": "uint256"
        }
      ],
      "name": "LPBurnt",
      "type": "event"
    },
    {
      "anonymous": false,
      "inputs": [
        {
          "indexed": true,
          "internalType": "address",
          "name": "provider",
          "type": "address"
        },
        {
          "indexed": false,
          "internalType": "address",
          "name": "tokenX",
          "type": "address"
        },
        {
          "indexed": false,
          "internalType": "uint256",
          "name": "amountX",
          "type": "uint256"
        },
        {
          "indexed": false,
          "internalType": "address",
          "name": "tokenY",
          "type": "address"
        },
        {
          "indexed": false,
          "internalType": "uint256",
          "name": "amountY",
          "type": "uint256"
        },
        {
          "indexed": false,
          "internalType": "uint256",
          "name": "liquidity",
          "type": "uint256"
        }
      ],
      "name": "LPMinted",
      "type": "event"
    },
    {
      "anonymous": false,
      "inputs": [
        {
          "indexed": false,
          "internalType": "address",
          "name": "tokenIn",
          "type": "address"
        },
        {
          "indexed": false,
          "internalType": "uint256",
          "name": "amountIn",
          "type": "uint256"
        },
        {
          "indexed": false,
          "internalType": "address",
          "name": "tokenOut",
          "type": "address"
        },
        {
          "indexed": false,
          "internalType": "uint256",
          "name": "amountOut",
          "type": "uint256"
        }
      ],
      "name": "PoolSwapped",
      "type": "event"
    },
    {
      "anonymous": false,
      "inputs": [
        {
          "indexed": false,
          "internalType": "uint256",
          "name": "reserveX",
          "type": "uint256"
        },
        {
          "indexed": false,
          "internalType": "uint256",
          "name": "reserveY",
          "type": "uint256"
        }
      ],
      "name": "ReservesUpdated",
      "type": "event"
    },
    {
      "anonymous": false,
      "inputs": [
        {
          "indexed": true,
          "internalType": "address",
          "name": "from",
          "type": "address"
        },
        {
          "indexed": true,
          "internalType": "address",
          "name": "to",
          "type": "address"
        },
        {
          "indexed": false,
          "internalType": "uint256",
          "name": "value",
          "type": "uint256"
        }
      ],
      "name": "Transfer",
      "type": "event"
    },
    {
      "inputs": [
        {
          "internalType": "address",
          "name": "owner",
          "type": "address"
        },
        {
          "internalType": "address",
          "name": "spender",
          "type": "address"
        }
      ],
      "name": "allowance",
      "outputs": [
        {
          "internalType": "uint256",
          "name": "",
          "type": "uint256"
        }
      ],
      "stateMutability": "view",
      "type": "function"
    },
    {
      "inputs": [
        {
          "internalType": "address",
          "name": "spender",
          "type": "address"
        },
        {
          "internalType": "uint256",
          "name": "amount",
          "type": "uint256"
        }
      ],
      "name": "approve",
      "outputs": [
        {
          "internalType": "bool",
          "name": "",
          "type": "bool"
        }
      ],
      "stateMutability": "nonpayable",
      "type": "function"
    },
    {
      "inputs": [
        {
          "internalType": "address",
          "name": "account",
          "type": "address"
        }
      ],
      "name": "balanceOf",
      "outputs": [
        {
          "internalType": "uint256",
          "name": "",
          "type": "uint256"
        }
      ],
      "stateMutability": "view",
      "type": "function"
    },
    {
      "inputs": [
        {
          "internalType": "uint256",
          "name": "amount",
          "type": "uint256"
        }
      ],
      "name": "burn",
      "outputs": [],
      "stateMutability": "nonpayable",
      "type": "function"
    },
    {
      "inputs": [
        {
          "internalType": "address",
          "name": "account",
          "type": "address"
        },
        {
          "internalType": "uint256",
          "name": "amount",
          "type": "uint256"
        }
      ],
      "name": "burnFrom",
      "outputs": [],
      "stateMutability": "nonpayable",
      "type": "function"
    },
    {
      "inputs": [
        {
          "internalType": "address",
          "name": "_provider",
          "type": "address"
        }
      ],
      "name": "burnLP",
      "outputs": [
        {
          "internalType": "address",
          "name": "_tokenX",
          "type": "address"
        },
        {
          "internalType": "uint256",
          "name": "amountX",
          "type": "uint256"
        },
        {
          "internalType": "address",
          "name": "_tokenY",
          "type": "address"
        },
        {
          "internalType": "uint256",
          "name": "amountY",
          "type": "uint256"
        },
        {
          "internalType": "uint256",
          "name": "liquidity",
          "type": "uint256"
        }
      ],
      "stateMutability": "nonpayable",
      "type": "function"
    },
    {
      "inputs": [
        {
          "internalType": "uint256",
          "name": "_amountIn",
          "type": "uint256"
        },
        {
          "internalType": "uint256",
          "name": "_reserveIn",
          "type": "uint256"
        },
        {
          "internalType": "uint256",
          "name": "_reserveOut",
          "type": "uint256"
        }
      ],
      "name": "computeMaxOutputAmount",
      "outputs": [
        {
          "internalType": "uint256",
          "name": "amountOut",
          "type": "uint256"
        }
      ],
      "stateMutability": "pure",
      "type": "function"
    },
    {
      "inputs": [
        {
          "internalType": "address",
          "name": "_tokenIn",
          "type": "address"
        },
        {
          "internalType": "uint256",
          "name": "_amountIn",
          "type": "uint256"
        }
      ],
      "name": "computePriceOut",
      "outputs": [
        {
          "internalType": "uint256",
          "name": "priceOut",
          "type": "uint256"
        }
      ],
      "stateMutability": "view",
      "type": "function"
    },
    {
      "inputs": [
        {
          "internalType": "uint256",
          "name": "_amountOut",
          "type": "uint256"
        },
        {
          "internalType": "uint256",
          "name": "_reserveIn",
          "type": "uint256"
        },
        {
          "internalType": "uint256",
          "name": "_reserveOut",
          "type": "uint256"
        }
      ],
      "name": "computeRequiredInputAmount",
      "outputs": [
        {
          "internalType": "uint256",
          "name": "amountIn",
          "type": "uint256"
        }
      ],
      "stateMutability": "pure",
      "type": "function"
    },
    {
      "inputs": [],
      "name": "decimals",
      "outputs": [
        {
          "internalType": "uint8",
          "name": "",
          "type": "uint8"
        }
      ],
      "stateMutability": "view",
      "type": "function"
    },
    {
      "inputs": [
        {
          "internalType": "address",
          "name": "spender",
          "type": "address"
        },
        {
          "internalType": "uint256",
          "name": "subtractedValue",
          "type": "uint256"
        }
      ],
      "name": "decreaseAllowance",
      "outputs": [
        {
          "internalType": "bool",
          "name": "",
          "type": "bool"
        }
      ],
      "stateMutability": "nonpayable",
      "type": "function"
    },
    {
      "inputs": [],
      "name": "getPoolInfo",
      "outputs": [
        {
          "internalType": "address",
          "name": "_tokenX",
          "type": "address"
        },
        {
          "internalType": "address",
          "name": "_tokenY",
          "type": "address"
        },
        {
          "internalType": "string",
          "name": "_symbolX",
          "type": "string"
        },
        {
          "internalType": "string",
          "name": "_symbolY",
          "type": "string"
        },
        {
          "internalType": "uint256",
          "name": "_reserveX",
          "type": "uint256"
        },
        {
          "internalType": "uint256",
          "name": "_reserveY",
          "type": "uint256"
        },
        {
          "internalType": "uint256",
          "name": "_supply",
          "type": "uint256"
        },
        {
          "internalType": "uint256",
          "name": "_balance",
          "type": "uint256"
        }
      ],
      "stateMutability": "view",
      "type": "function"
    },
    {
      "inputs": [
        {
          "internalType": "address",
          "name": "_tokenIn",
          "type": "address"
        }
      ],
      "name": "getReserves",
      "outputs": [
        {
          "internalType": "address",
          "name": "_tokenX",
          "type": "address"
        },
        {
          "internalType": "address",
          "name": "_tokenY",
          "type": "address"
        },
        {
          "internalType": "uint256",
          "name": "_reserveX",
          "type": "uint256"
        },
        {
          "internalType": "uint256",
          "name": "_reserveY",
          "type": "uint256"
        }
      ],
      "stateMutability": "view",
      "type": "function"
    },
    {
      "inputs": [
        {
          "internalType": "address",
          "name": "spender",
          "type": "address"
        },
        {
          "internalType": "uint256",
          "name": "addedValue",
          "type": "uint256"
        }
      ],
      "name": "increaseAllowance",
      "outputs": [
        {
          "internalType": "bool",
          "name": "",
          "type": "bool"
        }
      ],
      "stateMutability": "nonpayable",
      "type": "function"
    },
    {
      "inputs": [
        {
          "internalType": "address",
          "name": "_amm",
          "type": "address"
        },
        {
          "internalType": "address",
          "name": "_fansSocietyAddress",
          "type": "address"
        },
        {
          "internalType": "address",
          "name": "_tokenX",
          "type": "address"
        },
        {
          "internalType": "address",
          "name": "_tokenY",
          "type": "address"
        }
      ],
      "name": "initialize",
      "outputs": [],
      "stateMutability": "nonpayable",
      "type": "function"
    },
    {
      "inputs": [
        {
          "internalType": "address",
          "name": "_provider",
          "type": "address"
        }
      ],
      "name": "mintLP",
      "outputs": [
        {
          "internalType": "address",
          "name": "_tokenX",
          "type": "address"
        },
        {
          "internalType": "uint256",
          "name": "amountX",
          "type": "uint256"
        },
        {
          "internalType": "address",
          "name": "_tokenY",
          "type": "address"
        },
        {
          "internalType": "uint256",
          "name": "amountY",
          "type": "uint256"
        },
        {
          "internalType": "uint256",
          "name": "liquidity",
          "type": "uint256"
        }
      ],
      "stateMutability": "nonpayable",
      "type": "function"
    },
    {
      "inputs": [],
      "name": "name",
      "outputs": [
        {
          "internalType": "string",
          "name": "",
          "type": "string"
        }
      ],
      "stateMutability": "view",
      "type": "function"
    },
    {
      "inputs": [
        {
          "internalType": "address",
          "name": "from",
          "type": "address"
        },
        {
          "internalType": "address",
          "name": "to",
          "type": "address"
        },
        {
          "internalType": "uint256",
          "name": "value",
          "type": "uint256"
        }
      ],
      "name": "safeTransferFrom",
      "outputs": [],
      "stateMutability": "nonpayable",
      "type": "function"
    },
    {
      "inputs": [
        {
          "internalType": "address",
          "name": "_tokenIn",
          "type": "address"
        },
        {
          "internalType": "uint256",
          "name": "_amountIn",
          "type": "uint256"
        },
        {
          "internalType": "address",
          "name": "_recipient",
          "type": "address"
        }
      ],
      "name": "swap",
      "outputs": [
        {
          "internalType": "uint256",
          "name": "amountOut",
          "type": "uint256"
        }
      ],
      "stateMutability": "nonpayable",
      "type": "function"
    },
    {
      "inputs": [],
      "name": "symbol",
      "outputs": [
        {
          "internalType": "string",
          "name": "",
          "type": "string"
        }
      ],
      "stateMutability": "view",
      "type": "function"
    },
    {
      "inputs": [],
      "name": "totalSupply",
      "outputs": [
        {
          "internalType": "uint256",
          "name": "",
          "type": "uint256"
        }
      ],
      "stateMutability": "view",
      "type": "function"
    },
    {
      "inputs": [
        {
          "internalType": "address",
          "name": "to",
          "type": "address"
        },
        {
          "internalType": "uint256",
          "name": "amount",
          "type": "uint256"
        }
      ],
      "name": "transfer",
      "outputs": [
        {
          "internalType": "bool",
          "name": "",
          "type": "bool"
        }
      ],
      "stateMutability": "nonpayable",
      "type": "function"
    },
    {
      "inputs": [
        {
          "internalType": "address",
          "name": "from",
          "type": "address"
        },
        {
          "internalType": "address",
          "name": "to",
          "type": "address"
        },
        {
          "internalType": "uint256",
          "name": "amount",
          "type": "uint256"
        }
      ],
      "name": "transferFrom",
      "outputs": [
        {
          "internalType": "bool",
          "name": "",
          "type": "bool"
        }
      ],
      "stateMutability": "nonpayable",
      "type": "function"
    }
  ],
  "transactionHash": "0xed86e3abd05a39a9049c981057da8a2ea52285cbe950f896a56e176c55a7d41c",
  "args": [],
  "numDeployments": 1,
  "solcInputHash": "b42309e029eaa6061680be584af65769",
  "bytecode": "0x608060405234801561001057600080fd5b50612484806100206000396000f3fe608060405234801561001057600080fd5b506004361061014d5760003560e01c80636d069a67116100c3578063a4dd03d71161007c578063a4dd03d7146102fd578063a9059cbb14610310578063aa652a0214610323578063b4167c6d14610336578063dd62ed3e14610349578063f8c8765e1461035c57600080fd5b80636d069a671461026f57806370a082311461028257806379cc6790146102ab5780638f01e2df146102be57806395d89b41146102e2578063a457c2d7146102ea57600080fd5b8063392dc1a711610115578063392dc1a7146101c757806339509351146101da5780633e99c1e4146101ed57806342842e0e1461022b57806342966c681461024057806360246c881461025357600080fd5b806306fdde0314610152578063095ea7b31461017057806318160ddd1461019357806323b872dd146101a5578063313ce567146101b8575b600080fd5b61015a61036f565b6040516101679190611e73565b60405180910390f35b61018361017e366004611ea2565b610401565b6040519015158152602001610167565b6035545b604051908152602001610167565b6101836101b3366004611ecc565b61041b565b60405160128152602001610167565b6101976101d5366004611f08565b610441565b6101836101e8366004611ea2565b61050b565b6102006101fb366004611f34565b61052d565b604080516001600160a01b039586168152949093166020850152918301526060820152608001610167565b61023e610239366004611ecc565b610605565b005b61023e61024e366004611f4f565b610657565b61025b610664565b604051610167989796959493929190611f68565b61019761027d366004611fd1565b610783565b610197610290366004611f34565b6001600160a01b031660009081526033602052604090205490565b61023e6102b9366004611ea2565b610a37565b6102d16102cc366004611f34565b610a50565b60405161016795949392919061200d565b61015a610cda565b6101836102f8366004611ea2565b610ce9565b6102d161030b366004611f34565b610d6f565b61018361031e366004611ea2565b61104a565b610197610331366004611f08565b611058565b610197610344366004611ea2565b61112c565b610197610357366004612041565b6111eb565b61023e61036a366004612074565b611216565b60606036805461037e906120c8565b80601f01602080910402602001604051908101604052809291908181526020018280546103aa906120c8565b80156103f75780601f106103cc576101008083540402835291602001916103f7565b820191906000526020600020905b8154815290600101906020018083116103da57829003601f168201915b5050505050905090565b60003361040f818585611369565b60019150505b92915050565b60003361042985828561148d565b610434858585611507565b60019150505b9392505050565b600080841161048b5760405162461bcd60e51b8152602060048201526011602482015270139bdd08195b9bdd59da081bdd5d1c1d5d607a1b60448201526064015b60405180910390fd5b60008311801561049b5750600083115b80156104a657508382115b6104c25760405162461bcd60e51b815260040161048290612102565b6104cc8483612146565b6104d8906103de612159565b6104e28585612159565b6104ee906103e8612159565b6104f89190612186565b6105039060016121a8565b949350505050565b60003361040f81858561051e83836111eb565b61052891906121a8565b611369565b6099546000908190819081906001600160a01b038681169116148061055f5750609a546001600160a01b038681169116145b6105a35760405162461bcd60e51b8152602060048201526015602482015274696e76616c696420746f6b656e206164647265737360581b6044820152606401610482565b6099546001600160a01b038681169116146105d957609a54609954609c54609b546001600160a01b0393841693909216916105f6565b609954609a54609b54609c546001600160a01b0393841693909216915b92989197509550909350915050565b6097546001600160a01b0316331461062f5760405162461bcd60e51b8152600401610482906121bb565b6097546106479084906001600160a01b031683611369565b610652838383611507565b505050565b61066133826116b2565b50565b609954609a54609b54609c54604080516395d89b4160e01b815290516001600160a01b039586169590941693606093849390929091600091829189916395d89b4191600480830192869291908290030181865afa1580156106c9573d6000803e3d6000fd5b505050506040513d6000823e601f3d908101601f191682016040526106f191908101906121fc565b9550866001600160a01b03166395d89b416040518163ffffffff1660e01b8152600401600060405180830381865afa158015610731573d6000803e3d6000fd5b505050506040513d6000823e601f3d908101601f1916820160405261075991908101906121fc565b945061076460355490565b3360009081526033602052604090205490925090509091929394959697565b6097546000906001600160a01b031633146107b05760405162461bcd60e51b8152600401610482906121bb565b6099546001600160a01b03858116911614806107d95750609a546001600160a01b038581169116145b6108115760405162461bcd60e51b81526020600482015260096024820152683130b2103a37b5b2b760b91b6044820152606401610482565b6099546000908190819081906001600160a01b0389811691161461085057609a54609954609c54609b546001600160a01b03938416939092169161086d565b609954609a54609b54609c546001600160a01b0393841693909216915b6040516370a0823160e01b8152306004820152939750919550935091506000906001600160a01b038616906370a0823190602401602060405180830381865afa1580156108be573d6000803e3d6000fd5b505050506040513d601f19601f820116820180604052508101906108e2919061229e565b9050876108ef8483612146565b146109335760405162461bcd60e51b81526020600482015260146024820152731a5b9d985b1a59081a5b9c1d5d08185b5bdd5b9d60621b6044820152606401610482565b61093e888484611058565b955061094b8488886117e6565b6099546040516370a0823160e01b8152306004820152610a2b916001600160a01b0316906370a08231906024015b602060405180830381865afa158015610996573d6000803e3d6000fd5b505050506040513d601f19601f820116820180604052508101906109ba919061229e565b609a546040516370a0823160e01b81523060048201526001600160a01b03909116906370a0823190602401602060405180830381865afa158015610a02573d6000803e3d6000fd5b505050506040513d601f19601f82011682018060405250810190610a26919061229e565b611838565b50505050509392505050565b610a4282338361148d565b610a4c82826116b2565b5050565b60975460009081908190819081906001600160a01b03163314610a855760405162461bcd60e51b8152600401610482906121bb565b609954609a54609b54609c546040516370a0823160e01b81523060048201526001600160a01b0394851699509390921695509160009088906370a0823190602401602060405180830381865afa158015610ae3573d6000803e3d6000fd5b505050506040513d601f19601f82011682018060405250810190610b07919061229e565b609a546040516370a0823160e01b81523060048201529192506000916001600160a01b03909116906370a0823190602401602060405180830381865afa158015610b55573d6000803e3d6000fd5b505050506040513d601f19601f82011682018060405250810190610b79919061229e565b9050610b858483612146565b9750610b918382612146565b9550610b9d848461187f565b6000610ba860355490565b905080600003610bcb57610bc4610bbf888b612159565b61192c565b9550610c00565b610bfd85610bd9838c612159565b610be39190612186565b85610bee848b612159565b610bf89190612186565b611a8e565b95505b60008611610c505760405162461bcd60e51b815260206004820152601b60248201527f6e6f7420656e6f756768206c697175696469747920746f2061646400000000006044820152606401610482565b610c5a8b87611aa4565b610c648383611838565b609c54609b54610c749190612159565b609d55609954609a546040516001600160a01b03808f16937fba7578c98376131c049016cd224012bc927055c6aa08f323ebbbea2cf00c707a93610cc493918316928f929116908d908d9061200d565b60405180910390a2505050505091939590929450565b60606037805461037e906120c8565b60003381610cf782866111eb565b905083811015610d575760405162461bcd60e51b815260206004820152602560248201527f45524332303a2064656372656173656420616c6c6f77616e63652062656c6f77604482015264207a65726f60d81b6064820152608401610482565b610d648286868403611369565b506001949350505050565b60975460009081908190819081906001600160a01b03163314610da45760405162461bcd60e51b8152600401610482906121bb565b609b54609c548115801590610db95750600081115b610dfc5760405162461bcd60e51b81526020600482015260146024820152736e6f7420656e6f756768206c697175696469747960601b6044820152606401610482565b609954609a546040516370a0823160e01b81523060048201526001600160a01b0392831699509116955060009088906370a0823190602401602060405180830381865afa158015610e51573d6000803e3d6000fd5b505050506040513d601f19601f82011682018060405250810190610e75919061229e565b6040516370a0823160e01b81523060048201529091506000906001600160a01b038816906370a0823190602401602060405180830381865afa158015610ebf573d6000803e3d6000fd5b505050506040513d601f19601f82011682018060405250810190610ee3919061229e565b3060009081526033602052604090205495509050610f01848461187f565b6000610f0c60355490565b905080610f198488612159565b610f239190612186565b985080610f308388612159565b610f3a9190612186565b9650600089118015610f4c5750600087115b610f985760405162461bcd60e51b815260206004820152601e60248201527f4e6f7420656e6f756768206c697175696469747920746f2072656d6f766500006044820152606401610482565b610fa230876116b2565b610fad8a338b6117e6565b610fb88833896117e6565b6099546040516370a0823160e01b8152306004820152610fea916001600160a01b0316906370a0823190602401610979565b609c54609b54610ffa9190612159565b609d55609954609a546040516001600160a01b03808f16937fd840e283120e3fbe625d7d8c11400fb17a64f75bcb1859ceac5db70adefb663f93610cc493918316928f929116908d908d9061200d565b60003361040f818585611507565b600080841161109c5760405162461bcd60e51b815260206004820152601060248201526f139bdd08195b9bdd59da081a5b9c1d5d60821b6044820152606401610482565b6000831180156110ac5750600083115b6110c85760405162461bcd60e51b815260040161048290612102565b60006103e86110d9866103de612159565b6110e39190612186565b90506110ef81856121a8565b6110f98285612159565b6111039190612186565b91508183116111245760405162461bcd60e51b815260040161048290612102565b509392505050565b609954600090819081906001600160a01b0386811691161461115357609c54609b5461115a565b609b54609c545b91509150600084116111a15760405162461bcd60e51b815260206004820152601060248201526f139bdd08195b9bdd59da081a5b9c1d5d60821b6044820152606401610482565b6000821180156111b15750600081115b6111cd5760405162461bcd60e51b815260040161048290612102565b816111d88286612159565b6111e29190612186565b95945050505050565b6001600160a01b03918216600090815260346020908152604080832093909416825291909152205490565b600054610100900460ff16158080156112365750600054600160ff909116105b806112505750303b158015611250575060005460ff166001145b6112b35760405162461bcd60e51b815260206004820152602e60248201527f496e697469616c697a61626c653a20636f6e747261637420697320616c72656160448201526d191e481a5b9a5d1a585b1a5e995960921b6064820152608401610482565b6000805460ff1916600117905580156112d6576000805461ff0019166101001790555b6112df85611b65565b609880546001600160a01b038087166001600160a01b03199283161790925560998054868416908316179055609a8054928516929091169190911790558015611362576000805461ff0019169055604051600181527f7f26b83ff96e1f2b6a682f133852f6798a09c465da95921460cefb38474024989060200160405180910390a15b5050505050565b6001600160a01b0383166113cb5760405162461bcd60e51b8152602060048201526024808201527f45524332303a20617070726f76652066726f6d20746865207a65726f206164646044820152637265737360e01b6064820152608401610482565b6001600160a01b03821661142c5760405162461bcd60e51b815260206004820152602260248201527f45524332303a20617070726f766520746f20746865207a65726f206164647265604482015261737360f01b6064820152608401610482565b6001600160a01b0383811660008181526034602090815260408083209487168084529482529182902085905590518481527f8c5be1e5ebec7d5bd14f71427d1e84f3dd0314c0f7b2291e5b200ac8c7c3b925910160405180910390a3505050565b600061149984846111eb565b9050600019811461150157818110156114f45760405162461bcd60e51b815260206004820152601d60248201527f45524332303a20696e73756666696369656e7420616c6c6f77616e63650000006044820152606401610482565b6115018484848403611369565b50505050565b6001600160a01b03831661156b5760405162461bcd60e51b815260206004820152602560248201527f45524332303a207472616e736665722066726f6d20746865207a65726f206164604482015264647265737360d81b6064820152608401610482565b6001600160a01b0382166115cd5760405162461bcd60e51b815260206004820152602360248201527f45524332303a207472616e7366657220746f20746865207a65726f206164647260448201526265737360e81b6064820152608401610482565b6001600160a01b038316600090815260336020526040902054818110156116455760405162461bcd60e51b815260206004820152602660248201527f45524332303a207472616e7366657220616d6f756e7420657863656564732062604482015265616c616e636560d01b6064820152608401610482565b6001600160a01b0380851660008181526033602052604080822086860390559286168082529083902080548601905591517fddf252ad1be2c89b69c2b068fc378daa952ba7f163c4a11628f55a4df523b3ef906116a59086815260200190565b60405180910390a3611501565b6001600160a01b0382166117125760405162461bcd60e51b815260206004820152602160248201527f45524332303a206275726e2066726f6d20746865207a65726f206164647265736044820152607360f81b6064820152608401610482565b6001600160a01b038216600090815260336020526040902054818110156117865760405162461bcd60e51b815260206004820152602260248201527f45524332303a206275726e20616d6f756e7420657863656564732062616c616e604482015261636560f01b6064820152608401610482565b6001600160a01b03831660008181526033602090815260408083208686039055603580548790039055518581529192917fddf252ad1be2c89b69c2b068fc378daa952ba7f163c4a11628f55a4df523b3ef910160405180910390a3505050565b604080516001600160a01b038416602482015260448082018490528251808303909101815260649091019091526020810180516001600160e01b031663a9059cbb60e01b179052610652908490611bfd565b609b829055609c81905560408051838152602081018390527f5141ecc84a35c12ca2bf76bb33d393bd2fc22f906da0743534beef4ae63c6c8e910160405180910390a15050565b609d548015610652576000611897610bbf8486612159565b905060006118a48361192c565b9050808211156113625760006118ba8284612146565b6035546118c79190612159565b6118d2906032612159565b905060006118e1836032612159565b6118ec856064612159565b6118f691906121a8565b905060006119048284612186565b9050801561192257609854611922906001600160a01b031682611aa4565b5050505050505050565b60008160000361193e57506000919050565b600182608081901c156119565760409190911b9060801c5b604081901c1561196b5760209190911b9060401c5b602081901c156119805760109190911b9060201c5b601081901c156119955760089190911b9060101c5b600881901c156119aa5760049190911b9060081c5b600481901c156119bf5760029190911b9060041c5b600281901c156119d157600182901b91505b60018285816119e2576119e2612170565b048301901c915060018285816119fa576119fa612170565b048301901c91506001828581611a1257611a12612170565b048301901c91506001828581611a2a57611a2a612170565b048301901c91506001828581611a4257611a42612170565b048301901c91506001828581611a5a57611a5a612170565b048301901c91506001828581611a7257611a72612170565b048301901c915061050382838681611a8c57611a8c612170565b045b6000818310611a9d578161043a565b5090919050565b6001600160a01b038216611afa5760405162461bcd60e51b815260206004820152601f60248201527f45524332303a206d696e7420746f20746865207a65726f2061646472657373006044820152606401610482565b8060356000828254611b0c91906121a8565b90915550506001600160a01b0382166000818152603360209081526040808320805486019055518481527fddf252ad1be2c89b69c2b068fc378daa952ba7f163c4a11628f55a4df523b3ef910160405180910390a35050565b600054610100900460ff16611b8c5760405162461bcd60e51b8152600401610482906122b7565b611bdb604051806040016040528060128152602001712330b7399029b7b1b4b2ba3c902a37b5b2b760711b815250604051806040016040528060038152602001621194d560ea1b815250611ccf565b609780546001600160a01b0319166001600160a01b0392909216919091179055565b6000611c52826040518060400160405280602081526020017f5361666545524332303a206c6f772d6c6576656c2063616c6c206661696c6564815250856001600160a01b0316611d0f9092919063ffffffff16565b8051909150156106525780806020019051810190611c709190612302565b6106525760405162461bcd60e51b815260206004820152602a60248201527f5361666545524332303a204552433230206f7065726174696f6e20646964206e6044820152691bdd081cdd58d8d9595960b21b6064820152608401610482565b600054610100900460ff16611cf65760405162461bcd60e51b8152600401610482906122b7565b6036611d028382612372565b5060376106528282612372565b60606105038484600085856001600160a01b0385163b611d715760405162461bcd60e51b815260206004820152601d60248201527f416464726573733a2063616c6c20746f206e6f6e2d636f6e74726163740000006044820152606401610482565b600080866001600160a01b03168587604051611d8d9190612432565b60006040518083038185875af1925050503d8060008114611dca576040519150601f19603f3d011682016040523d82523d6000602084013e611dcf565b606091505b5091509150611ddf828286611dea565b979650505050505050565b60608315611df957508161043a565b825115611e095782518084602001fd5b8160405162461bcd60e51b81526004016104829190611e73565b60005b83811015611e3e578181015183820152602001611e26565b50506000910152565b60008151808452611e5f816020860160208601611e23565b601f01601f19169290920160200192915050565b60208152600061043a6020830184611e47565b80356001600160a01b0381168114611e9d57600080fd5b919050565b60008060408385031215611eb557600080fd5b611ebe83611e86565b946020939093013593505050565b600080600060608486031215611ee157600080fd5b611eea84611e86565b9250611ef860208501611e86565b9150604084013590509250925092565b600080600060608486031215611f1d57600080fd5b505081359360208301359350604090920135919050565b600060208284031215611f4657600080fd5b61043a82611e86565b600060208284031215611f6157600080fd5b5035919050565b6001600160a01b0389811682528816602082015261010060408201819052600090611f958382018a611e47565b90508281036060840152611fa98189611e47565b9150508560808301528460a08301528360c08301528260e08301529998505050505050505050565b600080600060608486031215611fe657600080fd5b611fef84611e86565b92506020840135915061200460408501611e86565b90509250925092565b6001600160a01b03958616815260208101949094529190931660408301526060820192909252608081019190915260a00190565b6000806040838503121561205457600080fd5b61205d83611e86565b915061206b60208401611e86565b90509250929050565b6000806000806080858703121561208a57600080fd5b61209385611e86565b93506120a160208601611e86565b92506120af60408601611e86565b91506120bd60608601611e86565b905092959194509250565b600181811c908216806120dc57607f821691505b6020821081036120fc57634e487b7160e01b600052602260045260246000fd5b50919050565b6020808252601490820152734e6f7420656e6f756768206c697175696469747960601b604082015260600190565b634e487b7160e01b600052601160045260246000fd5b8181038181111561041557610415612130565b808202811582820484141761041557610415612130565b634e487b7160e01b600052601260045260246000fd5b6000826121a357634e487b7160e01b600052601260045260246000fd5b500490565b8082018082111561041557610415612130565b60208082526011908201527043616c6c6572206973206e6f7420414d4d60781b604082015260600190565b634e487b7160e01b600052604160045260246000fd5b60006020828403121561220e57600080fd5b815167ffffffffffffffff8082111561222657600080fd5b818401915084601f83011261223a57600080fd5b81518181111561224c5761224c6121e6565b604051601f8201601f19908116603f01168101908382118183101715612274576122746121e6565b8160405282815287602084870101111561228d57600080fd5b611ddf836020830160208801611e23565b6000602082840312156122b057600080fd5b5051919050565b6020808252602b908201527f496e697469616c697a61626c653a20636f6e7472616374206973206e6f74206960408201526a6e697469616c697a696e6760a81b606082015260800190565b60006020828403121561231457600080fd5b8151801515811461043a57600080fd5b601f82111561065257600081815260208120601f850160051c8101602086101561234b5750805b601f850160051c820191505b8181101561236a57828155600101612357565b505050505050565b815167ffffffffffffffff81111561238c5761238c6121e6565b6123a08161239a84546120c8565b84612324565b602080601f8311600181146123d557600084156123bd5750858301515b600019600386901b1c1916600185901b17855561236a565b600085815260208120601f198616915b82811015612404578886015182559484019460019091019084016123e5565b50858210156124225787850151600019600388901b60f8161c191681555b5050505050600190811b01905550565b60008251612444818460208701611e23565b919091019291505056fea2646970667358221220f92ea3f661e9556e65540a70e35453fdfd33b13ff2622f6858d5879b6401694564736f6c63430008110033",
  "devdoc": {
    "author": "Teddy Chambard, Nicolas Thierry",
    "kind": "dev",
    "methods": {
      "allowance(address,address)": {
        "details": "See {IERC20-allowance}."
      },
      "approve(address,uint256)": {
        "details": "See {IERC20-approve}. NOTE: If `amount` is the maximum `uint256`, the allowance is not updated on `transferFrom`. This is semantically equivalent to an infinite approval. Requirements: - `spender` cannot be the zero address."
      },
      "balanceOf(address)": {
        "details": "See {IERC20-balanceOf}."
      },
      "burn(uint256)": {
        "details": "Destroys `amount` tokens from the caller. See {ERC20-_burn}."
      },
      "burnFrom(address,uint256)": {
        "details": "Destroys `amount` tokens from `account`, deducting from the caller's allowance. See {ERC20-_burn} and {ERC20-allowance}. Requirements: - the caller must have allowance for ``accounts``'s tokens of at least `amount`."
      },
      "burnLP(address)": {
        "details": "See {IPool-burnLP}."
      },
      "computeMaxOutputAmount(uint256,uint256,uint256)": {
        "details": "See {IPool-computeMaxOutputAmount}."
      },
      "computePriceOut(address,uint256)": {
        "details": "See {IPool-computePriceOut}."
      },
      "computeRequiredInputAmount(uint256,uint256,uint256)": {
        "details": "See {IPool-computeRequiredInputAmount}."
      },
      "decimals()": {
        "details": "Returns the number of decimals used to get its user representation. For example, if `decimals` equals `2`, a balance of `505` tokens should be displayed to a user as `5.05` (`505 / 10 ** 2`). Tokens usually opt for a value of 18, imitating the relationship between Ether and Wei. This is the value {ERC20} uses, unless this function is overridden; NOTE: This information is only used for _display_ purposes: it in no way affects any of the arithmetic of the contract, including {IERC20-balanceOf} and {IERC20-transfer}."
      },
      "decreaseAllowance(address,uint256)": {
        "details": "Atomically decreases the allowance granted to `spender` by the caller. This is an alternative to {approve} that can be used as a mitigation for problems described in {IERC20-approve}. Emits an {Approval} event indicating the updated allowance. Requirements: - `spender` cannot be the zero address. - `spender` must have allowance for the caller of at least `subtractedValue`."
      },
      "getPoolInfo()": {
        "details": "See {IPool-getPoolInfo}."
      },
      "getReserves(address)": {
        "details": "See {IPool-getReserves}."
      },
      "increaseAllowance(address,uint256)": {
        "details": "Atomically increases the allowance granted to `spender` by the caller. This is an alternative to {approve} that can be used as a mitigation for problems described in {IERC20-approve}. Emits an {Approval} event indicating the updated allowance. Requirements: - `spender` cannot be the zero address."
      },
      "mintLP(address)": {
        "details": "See {IPool-mintLP}."
      },
      "name()": {
        "details": "Returns the name of the token."
      },
      "swap(address,uint256,address)": {
        "details": "See {IPool-swap}."
      },
      "symbol()": {
        "details": "Returns the symbol of the token, usually a shorter version of the name."
      },
      "totalSupply()": {
        "details": "See {IERC20-totalSupply}."
      },
      "transfer(address,uint256)": {
        "details": "See {IERC20-transfer}. Requirements: - `to` cannot be the zero address. - the caller must have a balance of at least `amount`."
      },
      "transferFrom(address,address,uint256)": {
        "details": "See {IERC20-transferFrom}. Emits an {Approval} event indicating the updated allowance. This is not required by the EIP. See the note at the beginning of {ERC20}. NOTE: Does not update the allowance if the current allowance is the maximum `uint256`. Requirements: - `from` and `to` cannot be the zero address. - `from` must have a balance of at least `amount`. - the caller must have allowance for ``from``'s tokens of at least `amount`."
      }
    },
    "version": 1
  },
  "userdoc": {
    "kind": "user",
    "methods": {},
    "notice": "Pool Fans Society ContractThis contract is responsible for ERC20 pair pool liquidity management",
    "version": 1
  },
  "storageLayout": {
    "storage": [
      {
        "astId": 6,
        "contract": "contracts/pools/Pool.sol:Pool",
        "label": "_initialized",
        "offset": 0,
        "slot": "0",
        "type": "t_uint8"
      },
      {
        "astId": 9,
        "contract": "contracts/pools/Pool.sol:Pool",
        "label": "_initializing",
        "offset": 1,
        "slot": "0",
        "type": "t_bool"
      },
      {
        "astId": 1272,
        "contract": "contracts/pools/Pool.sol:Pool",
        "label": "__gap",
        "offset": 0,
        "slot": "1",
        "type": "t_array(t_uint256)50_storage"
      },
      {
        "astId": 187,
        "contract": "contracts/pools/Pool.sol:Pool",
        "label": "_balances",
        "offset": 0,
        "slot": "51",
        "type": "t_mapping(t_address,t_uint256)"
      },
      {
        "astId": 193,
        "contract": "contracts/pools/Pool.sol:Pool",
        "label": "_allowances",
        "offset": 0,
        "slot": "52",
        "type": "t_mapping(t_address,t_mapping(t_address,t_uint256))"
      },
      {
        "astId": 195,
        "contract": "contracts/pools/Pool.sol:Pool",
        "label": "_totalSupply",
        "offset": 0,
        "slot": "53",
        "type": "t_uint256"
      },
      {
        "astId": 197,
        "contract": "contracts/pools/Pool.sol:Pool",
        "label": "_name",
        "offset": 0,
        "slot": "54",
        "type": "t_string_storage"
      },
      {
        "astId": 199,
        "contract": "contracts/pools/Pool.sol:Pool",
        "label": "_symbol",
        "offset": 0,
        "slot": "55",
        "type": "t_string_storage"
      },
      {
        "astId": 779,
        "contract": "contracts/pools/Pool.sol:Pool",
        "label": "__gap",
        "offset": 0,
        "slot": "56",
        "type": "t_array(t_uint256)45_storage"
      },
      {
        "astId": 921,
        "contract": "contracts/pools/Pool.sol:Pool",
        "label": "__gap",
        "offset": 0,
        "slot": "101",
        "type": "t_array(t_uint256)50_storage"
      },
      {
        "astId": 2721,
        "contract": "contracts/pools/Pool.sol:Pool",
        "label": "amm",
        "offset": 0,
        "slot": "151",
        "type": "t_address"
      },
      {
        "astId": 2800,
        "contract": "contracts/pools/Pool.sol:Pool",
        "label": "fansSocietyAddress",
        "offset": 0,
        "slot": "152",
        "type": "t_address"
      },
      {
        "astId": 2802,
        "contract": "contracts/pools/Pool.sol:Pool",
        "label": "tokenX",
        "offset": 0,
        "slot": "153",
        "type": "t_address"
      },
      {
        "astId": 2804,
        "contract": "contracts/pools/Pool.sol:Pool",
        "label": "tokenY",
        "offset": 0,
        "slot": "154",
        "type": "t_address"
      },
      {
        "astId": 2806,
        "contract": "contracts/pools/Pool.sol:Pool",
        "label": "reserveX",
        "offset": 0,
        "slot": "155",
        "type": "t_uint256"
      },
      {
        "astId": 2808,
        "contract": "contracts/pools/Pool.sol:Pool",
        "label": "reserveY",
        "offset": 0,
        "slot": "156",
        "type": "t_uint256"
      },
      {
        "astId": 2810,
        "contract": "contracts/pools/Pool.sol:Pool",
        "label": "k",
        "offset": 0,
        "slot": "157",
        "type": "t_uint256"
      }
    ],
    "types": {
      "t_address": {
        "encoding": "inplace",
        "label": "address",
        "numberOfBytes": "20"
      },
      "t_array(t_uint256)45_storage": {
        "base": "t_uint256",
        "encoding": "inplace",
        "label": "uint256[45]",
        "numberOfBytes": "1440"
      },
      "t_array(t_uint256)50_storage": {
        "base": "t_uint256",
        "encoding": "inplace",
        "label": "uint256[50]",
        "numberOfBytes": "1600"
      },
      "t_bool": {
        "encoding": "inplace",
        "label": "bool",
        "numberOfBytes": "1"
      },
      "t_mapping(t_address,t_mapping(t_address,t_uint256))": {
        "encoding": "mapping",
        "key": "t_address",
        "label": "mapping(address => mapping(address => uint256))",
        "numberOfBytes": "32",
        "value": "t_mapping(t_address,t_uint256)"
      },
      "t_mapping(t_address,t_uint256)": {
        "encoding": "mapping",
        "key": "t_address",
        "label": "mapping(address => uint256)",
        "numberOfBytes": "32",
        "value": "t_uint256"
      },
      "t_string_storage": {
        "encoding": "bytes",
        "label": "string",
        "numberOfBytes": "32"
      },
      "t_uint256": {
        "encoding": "inplace",
        "label": "uint256",
        "numberOfBytes": "32"
      },
      "t_uint8": {
        "encoding": "inplace",
        "label": "uint8",
        "numberOfBytes": "1"
      }
    }
  }
}