{
  "address": "0xF2cb3cfA36Bfb95E0FD855C1b41Ab19c517FcDB9",
  "abi": [
    {
      "inputs": [
        {
          "internalType": "address",
          "name": "_poolImplementationAddress",
          "type": "address"
        },
        {
          "internalType": "address",
          "name": "_fansSocietyAddress",
          "type": "address"
        }
      ],
      "stateMutability": "nonpayable",
      "type": "constructor"
    },
    {
      "anonymous": false,
      "inputs": [
        {
          "indexed": true,
          "internalType": "address",
          "name": "previousOwner",
          "type": "address"
        },
        {
          "indexed": true,
          "internalType": "address",
          "name": "newOwner",
          "type": "address"
        }
      ],
      "name": "OwnershipTransferred",
      "type": "event"
    },
    {
      "anonymous": false,
      "inputs": [
        {
          "indexed": true,
          "internalType": "address",
          "name": "pool",
          "type": "address"
        },
        {
          "indexed": true,
          "internalType": "address",
          "name": "tokenX",
          "type": "address"
        },
        {
          "indexed": true,
          "internalType": "address",
          "name": "tokenY",
          "type": "address"
        }
      ],
      "name": "PoolCreated",
      "type": "event"
    },
    {
      "inputs": [
        {
          "internalType": "address",
          "name": "_amm",
          "type": "address"
        },
        {
          "internalType": "address",
          "name": "_tokenX",
          "type": "address"
        },
        {
          "internalType": "address",
          "name": "_tokenY",
          "type": "address"
        }
      ],
      "name": "createPool",
      "outputs": [
        {
          "internalType": "address",
          "name": "poolAddress",
          "type": "address"
        }
      ],
      "stateMutability": "nonpayable",
      "type": "function"
    },
    {
      "inputs": [
        {
          "internalType": "address",
          "name": "_tokenX",
          "type": "address"
        },
        {
          "internalType": "address",
          "name": "_tokenY",
          "type": "address"
        }
      ],
      "name": "getPool",
      "outputs": [
        {
          "internalType": "address",
          "name": "pool",
          "type": "address"
        }
      ],
      "stateMutability": "view",
      "type": "function"
    },
    {
      "inputs": [],
      "name": "owner",
      "outputs": [
        {
          "internalType": "address",
          "name": "",
          "type": "address"
        }
      ],
      "stateMutability": "view",
      "type": "function"
    },
    {
      "inputs": [],
      "name": "renounceOwnership",
      "outputs": [],
      "stateMutability": "nonpayable",
      "type": "function"
    },
    {
      "inputs": [
        {
          "internalType": "address",
          "name": "newOwner",
          "type": "address"
        }
      ],
      "name": "transferOwnership",
      "outputs": [],
      "stateMutability": "nonpayable",
      "type": "function"
    }
  ],
  "transactionHash": "0x753481c35320a9a63bb34b491c95eb9a44992af3ae5a621a249808e4953192e2",
  "args": [
    "0x5147c5C1Cb5b5D3f56186C37a4bcFBb3Cd0bD5A7",
    "0x3827b4a96Ce521f8E408c124D7DbE2B6c1F78E1F"
  ],
  "numDeployments": 1,
  "solcInputHash": "ac7f09f7088d5b9246ee7fc9fe0bb1e6",
  "bytecode": "0x60c060405234801561001057600080fd5b5060405161080738038061080783398101604081905261002f916100bb565b6100383361004f565b6001600160a01b039081166080521660a0526100ee565b600080546001600160a01b038381166001600160a01b0319831681178455604051919092169283917f8be0079c531659141344cd1fd0a4f28419497f9722a3daafe3b4186f6b6457e09190a35050565b80516001600160a01b03811681146100b657600080fd5b919050565b600080604083850312156100ce57600080fd5b6100d78361009f565b91506100e56020840161009f565b90509250929050565b60805160a0516106ed61011a6000396000818161014f01526102750152600061019301526106ed6000f3fe608060405234801561001057600080fd5b50600436106100575760003560e01c8063236aea2e1461005c578063531aa03e1461008b578063715018a61461009e5780638da5cb5b146100a8578063f2fde38b146100b9575b600080fd5b61006f61006a366004610626565b6100cc565b6040516001600160a01b03909116815260200160405180910390f35b61006f610099366004610669565b61025f565b6100a66102a4565b005b6000546001600160a01b031661006f565b6100a66100c736600461069c565b6102b8565b6000806000806100dc8686610331565b9250925092506100f5866001600160a01b03163b151590565b801561010a57506001600160a01b0385163b15155b61014a5760405162461bcd60e51b815260206004820152600c60248201526b1b9bdd0818dbdb9d1c9858dd60a21b60448201526064015b60405180910390fd5b6101747f00000000000000000000000000000000000000000000000000000000000000008261038d565b604051637c643b2f60e11b81526001600160a01b0389811660048301527f000000000000000000000000000000000000000000000000000000000000000081166024830152858116604483015284811660648301529195509085169063f8c8765e90608401600060405180830381600087803b1580156101f357600080fd5b505af1158015610207573d6000803e3d6000fd5b50505050816001600160a01b0316836001600160a01b0316856001600160a01b03167f9c5d829b9b23efc461f9aeef91979ec04bb903feb3bee4f26d22114abfc7335b60405160405180910390a45050509392505050565b60008061026c8484610331565b9250505061029a7f00000000000000000000000000000000000000000000000000000000000000008261042d565b9150505b92915050565b6102ac61049a565b6102b660006104f4565b565b6102c061049a565b6001600160a01b0381166103255760405162461bcd60e51b815260206004820152602660248201527f4f776e61626c653a206e6577206f776e657220697320746865207a65726f206160448201526564647265737360d01b6064820152608401610141565b61032e816104f4565b50565b60008060006103408585610544565b6040516bffffffffffffffffffffffff19606084811b8216602084015283901b16603482015291945092506048016040516020818303038152906040528051906020012090509250925092565b6000604051733d602d80600a3d3981f3363d3d373d3d3d363d7360601b81528360601b60148201526e5af43d82803e903d91602b57fd5bf360881b6028820152826037826000f59150506001600160a01b03811661029e5760405162461bcd60e51b815260206004820152601760248201527f455243313136373a2063726561746532206661696c65640000000000000000006044820152606401610141565b6000610493838330604051733d602d80600a3d3981f3363d3d373d3d3d363d7360601b8152606093841b60148201526f5af43d82803e903d91602b57fd5bf3ff60801b6028820152921b6038830152604c8201526037808220606c830152605591012090565b9392505050565b6000546001600160a01b031633146102b65760405162461bcd60e51b815260206004820181905260248201527f4f776e61626c653a2063616c6c6572206973206e6f7420746865206f776e65726044820152606401610141565b600080546001600160a01b038381166001600160a01b0319831681178455604051919092169283917f8be0079c531659141344cd1fd0a4f28419497f9722a3daafe3b4186f6b6457e09190a35050565b600080826001600160a01b0316846001600160a01b0316036105955760405162461bcd60e51b815260206004820152600a60248201526939b0b6b2903a37b5b2b760b11b6044820152606401610141565b826001600160a01b0316846001600160a01b0316106105b55782846105b8565b83835b90925090506001600160a01b0382166106035760405162461bcd60e51b815260206004820152600d60248201526c34b73b30b634b2103a37b5b2b760991b6044820152606401610141565b9250929050565b80356001600160a01b038116811461062157600080fd5b919050565b60008060006060848603121561063b57600080fd5b6106448461060a565b92506106526020850161060a565b91506106606040850161060a565b90509250925092565b6000806040838503121561067c57600080fd5b6106858361060a565b91506106936020840161060a565b90509250929050565b6000602082840312156106ae57600080fd5b6104938261060a56fea2646970667358221220a5e338b0da12b70fe0931456cd33750a3d5e544faa9dd34186310eb478342aff64736f6c63430008110033",
  "devdoc": {
    "kind": "dev",
    "methods": {
      "owner()": {
        "details": "Returns the address of the current owner."
      },
      "renounceOwnership()": {
        "details": "Leaves the contract without owner. It will not be possible to call `onlyOwner` functions anymore. Can only be called by the current owner. NOTE: Renouncing ownership will leave the contract without an owner, thereby removing any functionality that is only available to the owner."
      },
      "transferOwnership(address)": {
        "details": "Transfers ownership of the contract to a new account (`newOwner`). Can only be called by the current owner."
      }
    },
    "version": 1
  },
  "userdoc": {
    "kind": "user",
    "methods": {},
    "version": 1
  },
  "storageLayout": {
    "storage": [
      {
        "astId": 1281,
        "contract": "contracts/pools/PoolFactory.sol:PoolFactory",
        "label": "_owner",
        "offset": 0,
        "slot": "0",
        "type": "t_address"
      }
    ],
    "types": {
      "t_address": {
        "encoding": "inplace",
        "label": "address",
        "numberOfBytes": "20"
      }
    }
  }
}