{
  "address": "0x3de00f44ce68FC56DB0e0E33aD4015C6e78eCB39",
  "abi": [
    {
      "inputs": [
        {
          "internalType": "address",
          "name": "_tokenImplementationAddress",
          "type": "address"
        }
      ],
      "stateMutability": "nonpayable",
      "type": "constructor"
    },
    {
      "anonymous": false,
      "inputs": [
        {
          "indexed": false,
          "internalType": "uint256",
          "name": "projectId",
          "type": "uint256"
        },
        {
          "indexed": false,
          "internalType": "address",
          "name": "token",
          "type": "address"
        },
        {
          "indexed": false,
          "internalType": "string",
          "name": "name",
          "type": "string"
        },
        {
          "indexed": false,
          "internalType": "string",
          "name": "symbol",
          "type": "string"
        }
      ],
      "name": "TokenCreated",
      "type": "event"
    },
    {
      "inputs": [
        {
          "internalType": "uint256",
          "name": "_projectId",
          "type": "uint256"
        },
        {
          "internalType": "string",
          "name": "_name",
          "type": "string"
        },
        {
          "internalType": "string",
          "name": "_symbol",
          "type": "string"
        },
        {
          "internalType": "address",
          "name": "_amm",
          "type": "address"
        },
        {
          "internalType": "uint112",
          "name": "_totalSupply",
          "type": "uint112"
        },
        {
          "internalType": "uint112",
          "name": "_initialSupply",
          "type": "uint112"
        }
      ],
      "name": "createToken",
      "outputs": [
        {
          "internalType": "address",
          "name": "",
          "type": "address"
        }
      ],
      "stateMutability": "nonpayable",
      "type": "function"
    }
  ],
  "transactionHash": "0x21add4b100019f0f8930c8b521866533181acb49a61748dfee734c80f6a7366e",
  "args": [
    "0x04F339eC4D75Cf2833069e6e61b60eF56461CD7C"
  ],
  "numDeployments": 1,
  "solcInputHash": "04bb373c973efc154c2236b74e75aefa",
  "bytecode": "0x60a060405234801561001057600080fd5b506040516104e63803806104e683398101604081905261002f91610040565b6001600160a01b0316608052610070565b60006020828403121561005257600080fd5b81516001600160a01b038116811461006957600080fd5b9392505050565b60805161045c61008a60003960006067015261045c6000f3fe608060405234801561001057600080fd5b506004361061002b5760003560e01c8063f39f824214610030575b600080fd5b61004361003e366004610297565b61005f565b6040516001600160a01b03909116815260200160405180910390f35b60008061008b7f000000000000000000000000000000000000000000000000000000000000000061013c565b6040516335e21a0f60e01b81529091506001600160a01b038216906335e21a0f906100c2908a908a908a908a908a90600401610389565b600060405180830381600087803b1580156100dc57600080fd5b505af11580156100f0573d6000803e3d6000fd5b505050507fcc6bab703d778894c5a2492ec687c950f3a2b101a32ca70efec1a6d547285c498882898960405161012994939291906103df565b60405180910390a1979650505050505050565b6000604051733d602d80600a3d3981f3363d3d373d3d3d363d7360601b81528260601b60148201526e5af43d82803e903d91602b57fd5bf360881b60288201526037816000f09150506001600160a01b0381166101d85760405162461bcd60e51b8152602060048201526016602482015275115490cc4c4d8dce8818dc99585d194819985a5b195960521b604482015260640160405180910390fd5b919050565b634e487b7160e01b600052604160045260246000fd5b600082601f83011261020457600080fd5b813567ffffffffffffffff8082111561021f5761021f6101dd565b604051601f8301601f19908116603f01168101908282118183101715610247576102476101dd565b8160405283815286602085880101111561026057600080fd5b836020870160208301376000602085830101528094505050505092915050565b80356001600160701b03811681146101d857600080fd5b60008060008060008060c087890312156102b057600080fd5b86359550602087013567ffffffffffffffff808211156102cf57600080fd5b6102db8a838b016101f3565b965060408901359150808211156102f157600080fd5b506102fe89828a016101f3565b94505060608701356001600160a01b038116811461031b57600080fd5b925061032960808801610280565b915061033760a08801610280565b90509295509295509295565b6000815180845260005b818110156103695760208185018101518683018201520161034d565b506000602082860101526020601f19601f83011685010191505092915050565b60a08152600061039c60a0830188610343565b82810360208401526103ae8188610343565b6001600160a01b0396909616604084015250506001600160701b039283166060820152911660809091015292915050565b8481526001600160a01b038416602082015260806040820181905260009061040990830185610343565b828103606084015261041b8185610343565b97965050505050505056fea26469706673582212208496d82f10e708dde8188127180a18ad64c02feaa676b05c1a6b5c8a0cd557cb64736f6c63430008110033",
  "devdoc": {
    "kind": "dev",
    "methods": {},
    "version": 1
  },
  "userdoc": {
    "kind": "user",
    "methods": {},
    "version": 1
  },
  "storageLayout": {
    "storage": [],
    "types": null
  }
}