{
  "address": "0x04F339eC4D75Cf2833069e6e61b60eF56461CD7C",
  "abi": [
    {
      "anonymous": false,
      "inputs": [
        {
          "indexed": true,
          "internalType": "address",
          "name": "owner",
          "type": "address"
        },
        {
          "indexed": true,
          "internalType": "address",
          "name": "spender",
          "type": "address"
        },
        {
          "indexed": false,
          "internalType": "uint256",
          "name": "value",
          "type": "uint256"
        }
      ],
      "name": "Approval",
      "type": "event"
    },
    {
      "anonymous": false,
      "inputs": [
        {
          "indexed": false,
          "internalType": "uint8",
          "name": "version",
          "type": "uint8"
        }
      ],
      "name": "Initialized",
      "type": "event"
    },
    {
      "anonymous": false,
      "inputs": [
        {
          "indexed": false,
          "internalType": "address",
          "name": "account",
          "type": "address"
        },
        {
          "indexed": false,
          "internalType": "uint256",
          "name": "amount",
          "type": "uint256"
        }
      ],
      "name": "TokenClaimed",
      "type": "event"
    },
    {
      "anonymous": false,
      "inputs": [
        {
          "indexed": true,
          "internalType": "address",
          "name": "from",
          "type": "address"
        },
        {
          "indexed": true,
          "internalType": "address",
          "name": "to",
          "type": "address"
        },
        {
          "indexed": false,
          "internalType": "uint256",
          "name": "value",
          "type": "uint256"
        }
      ],
      "name": "Transfer",
      "type": "event"
    },
    {
      "inputs": [
        {
          "internalType": "address",
          "name": "owner",
          "type": "address"
        },
        {
          "internalType": "address",
          "name": "spender",
          "type": "address"
        }
      ],
      "name": "allowance",
      "outputs": [
        {
          "internalType": "uint256",
          "name": "",
          "type": "uint256"
        }
      ],
      "stateMutability": "view",
      "type": "function"
    },
    {
      "inputs": [
        {
          "internalType": "address",
          "name": "spender",
          "type": "address"
        },
        {
          "internalType": "uint256",
          "name": "amount",
          "type": "uint256"
        }
      ],
      "name": "approve",
      "outputs": [
        {
          "internalType": "bool",
          "name": "",
          "type": "bool"
        }
      ],
      "stateMutability": "nonpayable",
      "type": "function"
    },
    {
      "inputs": [
        {
          "internalType": "address",
          "name": "account",
          "type": "address"
        }
      ],
      "name": "balanceOf",
      "outputs": [
        {
          "internalType": "uint256",
          "name": "",
          "type": "uint256"
        }
      ],
      "stateMutability": "view",
      "type": "function"
    },
    {
      "inputs": [
        {
          "internalType": "address",
          "name": "account",
          "type": "address"
        },
        {
          "internalType": "uint256",
          "name": "amount",
          "type": "uint256"
        }
      ],
      "name": "claim",
      "outputs": [],
      "stateMutability": "nonpayable",
      "type": "function"
    },
    {
      "inputs": [],
      "name": "decimals",
      "outputs": [
        {
          "internalType": "uint8",
          "name": "",
          "type": "uint8"
        }
      ],
      "stateMutability": "view",
      "type": "function"
    },
    {
      "inputs": [
        {
          "internalType": "address",
          "name": "spender",
          "type": "address"
        },
        {
          "internalType": "uint256",
          "name": "subtractedValue",
          "type": "uint256"
        }
      ],
      "name": "decreaseAllowance",
      "outputs": [
        {
          "internalType": "bool",
          "name": "",
          "type": "bool"
        }
      ],
      "stateMutability": "nonpayable",
      "type": "function"
    },
    {
      "inputs": [
        {
          "internalType": "address",
          "name": "spender",
          "type": "address"
        },
        {
          "internalType": "uint256",
          "name": "addedValue",
          "type": "uint256"
        }
      ],
      "name": "increaseAllowance",
      "outputs": [
        {
          "internalType": "bool",
          "name": "",
          "type": "bool"
        }
      ],
      "stateMutability": "nonpayable",
      "type": "function"
    },
    {
      "inputs": [
        {
          "internalType": "string",
          "name": "_name",
          "type": "string"
        },
        {
          "internalType": "string",
          "name": "_symbol",
          "type": "string"
        },
        {
          "internalType": "address",
          "name": "_amm",
          "type": "address"
        },
        {
          "internalType": "uint112",
          "name": "_totalSupply",
          "type": "uint112"
        },
        {
          "internalType": "uint112",
          "name": "_initialSupply",
          "type": "uint112"
        }
      ],
      "name": "initialize",
      "outputs": [],
      "stateMutability": "nonpayable",
      "type": "function"
    },
    {
      "inputs": [],
      "name": "maxTotalSupply",
      "outputs": [
        {
          "internalType": "uint256",
          "name": "",
          "type": "uint256"
        }
      ],
      "stateMutability": "view",
      "type": "function"
    },
    {
      "inputs": [],
      "name": "name",
      "outputs": [
        {
          "internalType": "string",
          "name": "",
          "type": "string"
        }
      ],
      "stateMutability": "view",
      "type": "function"
    },
    {
      "inputs": [
        {
          "internalType": "address",
          "name": "from",
          "type": "address"
        },
        {
          "internalType": "address",
          "name": "to",
          "type": "address"
        },
        {
          "internalType": "uint256",
          "name": "value",
          "type": "uint256"
        }
      ],
      "name": "safeTransferFrom",
      "outputs": [],
      "stateMutability": "nonpayable",
      "type": "function"
    },
    {
      "inputs": [],
      "name": "symbol",
      "outputs": [
        {
          "internalType": "string",
          "name": "",
          "type": "string"
        }
      ],
      "stateMutability": "view",
      "type": "function"
    },
    {
      "inputs": [],
      "name": "totalSupply",
      "outputs": [
        {
          "internalType": "uint256",
          "name": "",
          "type": "uint256"
        }
      ],
      "stateMutability": "view",
      "type": "function"
    },
    {
      "inputs": [
        {
          "internalType": "address",
          "name": "to",
          "type": "address"
        },
        {
          "internalType": "uint256",
          "name": "amount",
          "type": "uint256"
        }
      ],
      "name": "transfer",
      "outputs": [
        {
          "internalType": "bool",
          "name": "",
          "type": "bool"
        }
      ],
      "stateMutability": "nonpayable",
      "type": "function"
    },
    {
      "inputs": [
        {
          "internalType": "address",
          "name": "from",
          "type": "address"
        },
        {
          "internalType": "address",
          "name": "to",
          "type": "address"
        },
        {
          "internalType": "uint256",
          "name": "amount",
          "type": "uint256"
        }
      ],
      "name": "transferFrom",
      "outputs": [
        {
          "internalType": "bool",
          "name": "",
          "type": "bool"
        }
      ],
      "stateMutability": "nonpayable",
      "type": "function"
    }
  ],
  "transactionHash": "0x9eced7bf7ac79100f9e2996789014fb773776343eb7a2965309477cc312ec254",
  "args": [],
  "numDeployments": 1,
  "solcInputHash": "04bb373c973efc154c2236b74e75aefa",
  "bytecode": "0x608060405234801561001057600080fd5b50611094806100206000396000f3fe608060405234801561001057600080fd5b50600436106100f55760003560e01c80633950935111610097578063a457c2d711610066578063a457c2d7146101e4578063a9059cbb146101f7578063aad3ec961461020a578063dd62ed3e1461021d57600080fd5b8063395093511461018d57806342842e0e146101a057806370a08231146101b357806395d89b41146101dc57600080fd5b806323b872dd116100d357806323b872dd1461014d5780632ab4d05214610160578063313ce5671461016957806335e21a0f1461017857600080fd5b806306fdde03146100fa578063095ea7b31461011857806318160ddd1461013b575b600080fd5b610102610230565b60405161010f9190610c3d565b60405180910390f35b61012b610126366004610ca7565b6102c2565b604051901515815260200161010f565b6035545b60405190815260200161010f565b61012b61015b366004610cd1565b6102dc565b61013f60655481565b6040516012815260200161010f565b61018b610186366004610dc7565b610300565b005b61012b61019b366004610ca7565b6104a1565b61018b6101ae366004610cd1565b6104c3565b61013f6101c1366004610e5d565b6001600160a01b031660009081526033602052604090205490565b610102610539565b61012b6101f2366004610ca7565b610548565b61012b610205366004610ca7565b6105c3565b61018b610218366004610ca7565b6105d1565b61013f61022b366004610e7f565b610745565b60606036805461023f90610eb2565b80601f016020809104026020016040519081016040528092919081815260200182805461026b90610eb2565b80156102b85780601f1061028d576101008083540402835291602001916102b8565b820191906000526020600020905b81548152906001019060200180831161029b57829003601f168201915b5050505050905090565b6000336102d0818585610770565b60019150505b92915050565b6000336102ea858285610894565b6102f585858561090e565b506001949350505050565b600054610100900460ff16158080156103205750600054600160ff909116105b8061033a5750303b15801561033a575060005460ff166001145b6103a25760405162461bcd60e51b815260206004820152602e60248201527f496e697469616c697a61626c653a20636f6e747261637420697320616c72656160448201526d191e481a5b9a5d1a585b1a5e995960921b60648201526084015b60405180910390fd5b6000805460ff1916600117905580156103c5576000805461ff0019166101001790555b816001600160701b0316836001600160701b031610156104205760405162461bcd60e51b81526020600482015260166024820152751d1bdd185b081cdd5c1c1b1e481d1bdbc81cdb585b1b60521b6044820152606401610399565b606680546001600160a01b0319166001600160a01b0386161790556001600160701b038316606555610453868684610ab9565b8015610499576000805461ff0019169055604051600181527f7f26b83ff96e1f2b6a682f133852f6798a09c465da95921460cefb38474024989060200160405180910390a15b505050505050565b6000336102d08185856104b48383610745565b6104be9190610eec565b610770565b6066546001600160a01b031633146105115760405162461bcd60e51b815260206004820152601160248201527043616c6c6572206973206e6f7420414d4d60781b6044820152606401610399565b6066546105299084906001600160a01b031683610770565b61053483838361090e565b505050565b60606037805461023f90610eb2565b600033816105568286610745565b9050838110156105b65760405162461bcd60e51b815260206004820152602560248201527f45524332303a2064656372656173656420616c6c6f77616e63652062656c6f77604482015264207a65726f60d81b6064820152608401610399565b6102f58286868403610770565b6000336102d081858561090e565b6066546001600160a01b0316331461061f5760405162461bcd60e51b815260206004820152601160248201527043616c6c6572206973206e6f7420414d4d60781b6044820152606401610399565b6001600160a01b03821660009081526067602052604090205460ff161561067a5760405162461bcd60e51b815260206004820152600f60248201526e185b1c9958591e4818db185a5b5959608a1b6044820152606401610399565b600061068560355490565b6065549091506106958383610eec565b11156106da5760405162461bcd60e51b81526020600482015260146024820152731b585e151bdd185b14dd5c1c1b1e481b1a5b5a5d60621b6044820152606401610399565b6106e48383610af3565b6001600160a01b038316600081815260676020908152604091829020805460ff19166001179055815192835282018490527fe42df0d9493dfd0d7f69902c895b94c190a53e8c27876a86f45e7c997d9d8f7c910160405180910390a1505050565b6001600160a01b03918216600090815260346020908152604080832093909416825291909152205490565b6001600160a01b0383166107d25760405162461bcd60e51b8152602060048201526024808201527f45524332303a20617070726f76652066726f6d20746865207a65726f206164646044820152637265737360e01b6064820152608401610399565b6001600160a01b0382166108335760405162461bcd60e51b815260206004820152602260248201527f45524332303a20617070726f766520746f20746865207a65726f206164647265604482015261737360f01b6064820152608401610399565b6001600160a01b0383811660008181526034602090815260408083209487168084529482529182902085905590518481527f8c5be1e5ebec7d5bd14f71427d1e84f3dd0314c0f7b2291e5b200ac8c7c3b925910160405180910390a3505050565b60006108a08484610745565b9050600019811461090857818110156108fb5760405162461bcd60e51b815260206004820152601d60248201527f45524332303a20696e73756666696369656e7420616c6c6f77616e63650000006044820152606401610399565b6109088484848403610770565b50505050565b6001600160a01b0383166109725760405162461bcd60e51b815260206004820152602560248201527f45524332303a207472616e736665722066726f6d20746865207a65726f206164604482015264647265737360d81b6064820152608401610399565b6001600160a01b0382166109d45760405162461bcd60e51b815260206004820152602360248201527f45524332303a207472616e7366657220746f20746865207a65726f206164647260448201526265737360e81b6064820152608401610399565b6001600160a01b03831660009081526033602052604090205481811015610a4c5760405162461bcd60e51b815260206004820152602660248201527f45524332303a207472616e7366657220616d6f756e7420657863656564732062604482015265616c616e636560d01b6064820152608401610399565b6001600160a01b0380851660008181526033602052604080822086860390559286168082529083902080548601905591517fddf252ad1be2c89b69c2b068fc378daa952ba7f163c4a11628f55a4df523b3ef90610aac9086815260200190565b60405180910390a3610908565b600054610100900460ff16610ae05760405162461bcd60e51b815260040161039990610f0d565b610aea8383610bb4565b61053481610bf4565b6001600160a01b038216610b495760405162461bcd60e51b815260206004820152601f60248201527f45524332303a206d696e7420746f20746865207a65726f2061646472657373006044820152606401610399565b8060356000828254610b5b9190610eec565b90915550506001600160a01b0382166000818152603360209081526040808320805486019055518481527fddf252ad1be2c89b69c2b068fc378daa952ba7f163c4a11628f55a4df523b3ef910160405180910390a35050565b600054610100900460ff16610bdb5760405162461bcd60e51b815260040161039990610f0d565b6036610be78382610f9e565b5060376105348282610f9e565b600054610100900460ff16610c1b5760405162461bcd60e51b815260040161039990610f0d565b606654610c3a906001600160a01b03166001600160701b038316610af3565b50565b600060208083528351808285015260005b81811015610c6a57858101830151858201604001528201610c4e565b506000604082860101526040601f19601f8301168501019250505092915050565b80356001600160a01b0381168114610ca257600080fd5b919050565b60008060408385031215610cba57600080fd5b610cc383610c8b565b946020939093013593505050565b600080600060608486031215610ce657600080fd5b610cef84610c8b565b9250610cfd60208501610c8b565b9150604084013590509250925092565b634e487b7160e01b600052604160045260246000fd5b600082601f830112610d3457600080fd5b813567ffffffffffffffff80821115610d4f57610d4f610d0d565b604051601f8301601f19908116603f01168101908282118183101715610d7757610d77610d0d565b81604052838152866020858801011115610d9057600080fd5b836020870160208301376000602085830101528094505050505092915050565b80356001600160701b0381168114610ca257600080fd5b600080600080600060a08688031215610ddf57600080fd5b853567ffffffffffffffff80821115610df757600080fd5b610e0389838a01610d23565b96506020880135915080821115610e1957600080fd5b50610e2688828901610d23565b945050610e3560408701610c8b565b9250610e4360608701610db0565b9150610e5160808701610db0565b90509295509295909350565b600060208284031215610e6f57600080fd5b610e7882610c8b565b9392505050565b60008060408385031215610e9257600080fd5b610e9b83610c8b565b9150610ea960208401610c8b565b90509250929050565b600181811c90821680610ec657607f821691505b602082108103610ee657634e487b7160e01b600052602260045260246000fd5b50919050565b808201808211156102d657634e487b7160e01b600052601160045260246000fd5b6020808252602b908201527f496e697469616c697a61626c653a20636f6e7472616374206973206e6f74206960408201526a6e697469616c697a696e6760a81b606082015260800190565b601f82111561053457600081815260208120601f850160051c81016020861015610f7f5750805b601f850160051c820191505b8181101561049957828155600101610f8b565b815167ffffffffffffffff811115610fb857610fb8610d0d565b610fcc81610fc68454610eb2565b84610f58565b602080601f8311600181146110015760008415610fe95750858301515b600019600386901b1c1916600185901b178555610499565b600085815260208120601f198616915b8281101561103057888601518255948401946001909101908401611011565b508582101561104e5787850151600019600388901b60f8161c191681555b5050505050600190811b0190555056fea2646970667358221220e9da0d32dfedff8f43e4762997e5989230bbacd619e7dfcbbd87e86e4ba0127f64736f6c63430008110033",
  "devdoc": {
    "kind": "dev",
    "methods": {
      "allowance(address,address)": {
        "details": "See {IERC20-allowance}."
      },
      "approve(address,uint256)": {
        "details": "See {IERC20-approve}. NOTE: If `amount` is the maximum `uint256`, the allowance is not updated on `transferFrom`. This is semantically equivalent to an infinite approval. Requirements: - `spender` cannot be the zero address."
      },
      "balanceOf(address)": {
        "details": "See {IERC20-balanceOf}."
      },
      "decimals()": {
        "details": "Returns the number of decimals used to get its user representation. For example, if `decimals` equals `2`, a balance of `505` tokens should be displayed to a user as `5.05` (`505 / 10 ** 2`). Tokens usually opt for a value of 18, imitating the relationship between Ether and Wei. This is the value {ERC20} uses, unless this function is overridden; NOTE: This information is only used for _display_ purposes: it in no way affects any of the arithmetic of the contract, including {IERC20-balanceOf} and {IERC20-transfer}."
      },
      "decreaseAllowance(address,uint256)": {
        "details": "Atomically decreases the allowance granted to `spender` by the caller. This is an alternative to {approve} that can be used as a mitigation for problems described in {IERC20-approve}. Emits an {Approval} event indicating the updated allowance. Requirements: - `spender` cannot be the zero address. - `spender` must have allowance for the caller of at least `subtractedValue`."
      },
      "increaseAllowance(address,uint256)": {
        "details": "Atomically increases the allowance granted to `spender` by the caller. This is an alternative to {approve} that can be used as a mitigation for problems described in {IERC20-approve}. Emits an {Approval} event indicating the updated allowance. Requirements: - `spender` cannot be the zero address."
      },
      "name()": {
        "details": "Returns the name of the token."
      },
      "symbol()": {
        "details": "Returns the symbol of the token, usually a shorter version of the name."
      },
      "totalSupply()": {
        "details": "See {IERC20-totalSupply}."
      },
      "transfer(address,uint256)": {
        "details": "See {IERC20-transfer}. Requirements: - `to` cannot be the zero address. - the caller must have a balance of at least `amount`."
      },
      "transferFrom(address,address,uint256)": {
        "details": "See {IERC20-transferFrom}. Emits an {Approval} event indicating the updated allowance. This is not required by the EIP. See the note at the beginning of {ERC20}. NOTE: Does not update the allowance if the current allowance is the maximum `uint256`. Requirements: - `from` and `to` cannot be the zero address. - `from` must have a balance of at least `amount`. - the caller must have allowance for ``from``'s tokens of at least `amount`."
      }
    },
    "version": 1
  },
  "userdoc": {
    "kind": "user",
    "methods": {},
    "version": 1
  },
  "storageLayout": {
    "storage": [
      {
        "astId": 6,
        "contract": "contracts/tokens/ProjectTokenERC20.sol:ProjectTokenERC20",
        "label": "_initialized",
        "offset": 0,
        "slot": "0",
        "type": "t_uint8"
      },
      {
        "astId": 9,
        "contract": "contracts/tokens/ProjectTokenERC20.sol:ProjectTokenERC20",
        "label": "_initializing",
        "offset": 1,
        "slot": "0",
        "type": "t_bool"
      },
      {
        "astId": 1589,
        "contract": "contracts/tokens/ProjectTokenERC20.sol:ProjectTokenERC20",
        "label": "__gap",
        "offset": 0,
        "slot": "1",
        "type": "t_array(t_uint256)50_storage"
      },
      {
        "astId": 187,
        "contract": "contracts/tokens/ProjectTokenERC20.sol:ProjectTokenERC20",
        "label": "_balances",
        "offset": 0,
        "slot": "51",
        "type": "t_mapping(t_address,t_uint256)"
      },
      {
        "astId": 193,
        "contract": "contracts/tokens/ProjectTokenERC20.sol:ProjectTokenERC20",
        "label": "_allowances",
        "offset": 0,
        "slot": "52",
        "type": "t_mapping(t_address,t_mapping(t_address,t_uint256))"
      },
      {
        "astId": 195,
        "contract": "contracts/tokens/ProjectTokenERC20.sol:ProjectTokenERC20",
        "label": "_totalSupply",
        "offset": 0,
        "slot": "53",
        "type": "t_uint256"
      },
      {
        "astId": 197,
        "contract": "contracts/tokens/ProjectTokenERC20.sol:ProjectTokenERC20",
        "label": "_name",
        "offset": 0,
        "slot": "54",
        "type": "t_string_storage"
      },
      {
        "astId": 199,
        "contract": "contracts/tokens/ProjectTokenERC20.sol:ProjectTokenERC20",
        "label": "_symbol",
        "offset": 0,
        "slot": "55",
        "type": "t_string_storage"
      },
      {
        "astId": 779,
        "contract": "contracts/tokens/ProjectTokenERC20.sol:ProjectTokenERC20",
        "label": "__gap",
        "offset": 0,
        "slot": "56",
        "type": "t_array(t_uint256)45_storage"
      },
      {
        "astId": 6310,
        "contract": "contracts/tokens/ProjectTokenERC20.sol:ProjectTokenERC20",
        "label": "maxTotalSupply",
        "offset": 0,
        "slot": "101",
        "type": "t_uint256"
      },
      {
        "astId": 6312,
        "contract": "contracts/tokens/ProjectTokenERC20.sol:ProjectTokenERC20",
        "label": "amm",
        "offset": 0,
        "slot": "102",
        "type": "t_address"
      },
      {
        "astId": 6316,
        "contract": "contracts/tokens/ProjectTokenERC20.sol:ProjectTokenERC20",
        "label": "claimed",
        "offset": 0,
        "slot": "103",
        "type": "t_mapping(t_address,t_bool)"
      }
    ],
    "types": {
      "t_address": {
        "encoding": "inplace",
        "label": "address",
        "numberOfBytes": "20"
      },
      "t_array(t_uint256)45_storage": {
        "base": "t_uint256",
        "encoding": "inplace",
        "label": "uint256[45]",
        "numberOfBytes": "1440"
      },
      "t_array(t_uint256)50_storage": {
        "base": "t_uint256",
        "encoding": "inplace",
        "label": "uint256[50]",
        "numberOfBytes": "1600"
      },
      "t_bool": {
        "encoding": "inplace",
        "label": "bool",
        "numberOfBytes": "1"
      },
      "t_mapping(t_address,t_bool)": {
        "encoding": "mapping",
        "key": "t_address",
        "label": "mapping(address => bool)",
        "numberOfBytes": "32",
        "value": "t_bool"
      },
      "t_mapping(t_address,t_mapping(t_address,t_uint256))": {
        "encoding": "mapping",
        "key": "t_address",
        "label": "mapping(address => mapping(address => uint256))",
        "numberOfBytes": "32",
        "value": "t_mapping(t_address,t_uint256)"
      },
      "t_mapping(t_address,t_uint256)": {
        "encoding": "mapping",
        "key": "t_address",
        "label": "mapping(address => uint256)",
        "numberOfBytes": "32",
        "value": "t_uint256"
      },
      "t_string_storage": {
        "encoding": "bytes",
        "label": "string",
        "numberOfBytes": "32"
      },
      "t_uint256": {
        "encoding": "inplace",
        "label": "uint256",
        "numberOfBytes": "32"
      },
      "t_uint8": {
        "encoding": "inplace",
        "label": "uint8",
        "numberOfBytes": "1"
      }
    }
  }
}