{
  "address": "0xcD0048A5628B37B8f743cC2FeA18817A29e97270",
  "abi": [
    {
      "inputs": [],
      "stateMutability": "nonpayable",
      "type": "constructor"
    },
    {
      "anonymous": false,
      "inputs": [
        {
          "indexed": false,
          "internalType": "address",
          "name": "token",
          "type": "address"
        },
        {
          "indexed": false,
          "internalType": "string",
          "name": "name",
          "type": "string"
        },
        {
          "indexed": false,
          "internalType": "string",
          "name": "symbol",
          "type": "string"
        }
      ],
      "name": "TokenCreated",
      "type": "event"
    },
    {
      "inputs": [
        {
          "internalType": "string",
          "name": "_name",
          "type": "string"
        },
        {
          "internalType": "string",
          "name": "_symbol",
          "type": "string"
        },
        {
          "internalType": "uint40",
          "name": "_totalSupply",
          "type": "uint40"
        },
        {
          "internalType": "uint40",
          "name": "_ammGlobalShare",
          "type": "uint40"
        },
        {
          "internalType": "uint40",
          "name": "_ammPoolShare",
          "type": "uint40"
        },
        {
          "internalType": "uint40",
          "name": "_authorGlobalShare",
          "type": "uint40"
        },
        {
          "internalType": "uint40",
          "name": "_authorPoolShare",
          "type": "uint40"
        },
        {
          "internalType": "address",
          "name": "_amm",
          "type": "address"
        },
        {
          "internalType": "address",
          "name": "_author",
          "type": "address"
        }
      ],
      "name": "createToken",
      "outputs": [
        {
          "internalType": "address",
          "name": "",
          "type": "address"
        }
      ],
      "stateMutability": "nonpayable",
      "type": "function"
    }
  ],
  "transactionHash": "0x83a4db12df623c146aedf5c298b098021f1abaed77119eeefdad62805cf78b61",
  "args": [],
  "numDeployments": 1,
  "solcInputHash": "125ec2a2dc887ca3f816654872972874",
  "bytecode": "0x60a060405234801561001057600080fd5b5060405161001d9061004b565b604051809103906000f080158015610039573d6000803e3d6000fd5b506001600160a01b0316608052610058565b6111758061058483390190565b608051610512610072600039600060b901526105126000f3fe608060405234801561001057600080fd5b506004361061002b5760003560e01c8063b87c8e1414610030575b600080fd5b61004361003e366004610303565b61005f565b6040516001600160a01b03909116815260200160405180910390f35b6000336001600160a01b038416146100b25760405162461bcd60e51b815260206004820152601160248201527043616c6c6572206973206e6f7420414d4d60781b60448201526064015b60405180910390fd5b60006100dd7f0000000000000000000000000000000000000000000000000000000000000000610197565b604051632133f84360e11b81529091506001600160a01b03821690634267f0869061011c908e908e908e908e908e908e908e908e908e90600401610422565b600060405180830381600087803b15801561013657600080fd5b505af115801561014a573d6000803e3d6000fd5b505050507fffc04f682c7b287e4b552dacd4b833d7c33dc0549cd6da84388408e4830c0562818c8c6040516101819392919061049c565b60405180910390a19a9950505050505050505050565b6000604051733d602d80600a3d3981f3363d3d373d3d3d363d7360601b81528260601b60148201526e5af43d82803e903d91602b57fd5bf360881b60288201526037816000f09150506001600160a01b03811661022f5760405162461bcd60e51b8152602060048201526016602482015275115490cc4c4d8dce8818dc99585d194819985a5b195960521b60448201526064016100a9565b919050565b634e487b7160e01b600052604160045260246000fd5b600082601f83011261025b57600080fd5b813567ffffffffffffffff8082111561027657610276610234565b604051601f8301601f19908116603f0116810190828211818310171561029e5761029e610234565b816040528381528660208588010111156102b757600080fd5b836020870160208301376000602085830101528094505050505092915050565b803564ffffffffff8116811461022f57600080fd5b80356001600160a01b038116811461022f57600080fd5b60008060008060008060008060006101208a8c03121561032257600080fd5b893567ffffffffffffffff8082111561033a57600080fd5b6103468d838e0161024a565b9a5060208c013591508082111561035c57600080fd5b506103698c828d0161024a565b98505061037860408b016102d7565b965061038660608b016102d7565b955061039460808b016102d7565b94506103a260a08b016102d7565b93506103b060c08b016102d7565b92506103be60e08b016102ec565b91506103cd6101008b016102ec565b90509295985092959850929598565b6000815180845260005b81811015610402576020818501810151868301820152016103e6565b506000602082860101526020601f19601f83011685010191505092915050565b60006101208083526104368184018d6103dc565b9050828103602084015261044a818c6103dc565b64ffffffffff9a8b166040850152988a1660608401525050948716608086015292861660a0850152941660c08301526001600160a01b0393841660e08301529092166101009092019190915292915050565b6001600160a01b03841681526060602082018190526000906104c0908301856103dc565b82810360408401526104d281856103dc565b969550505050505056fea264697066735822122059a1e2059143a99a944b42ea294ce1cf8f46b332503dae474438fc04acb4044f64736f6c63430008110033608060405234801561001057600080fd5b50611155806100206000396000f3fe608060405234801561001057600080fd5b50600436106100ea5760003560e01c80634267f0861161008c578063a457c2d711610066578063a457c2d7146101c6578063a9059cbb146101d9578063aad3ec96146101ec578063dd62ed3e146101ff57600080fd5b80634267f0861461018057806370a082311461019557806395d89b41146101be57600080fd5b806323b872dd116100c857806323b872dd146101425780632ab4d05214610155578063313ce5671461015e578063395093511461016d57600080fd5b806306fdde03146100ef578063095ea7b31461010d57806318160ddd14610130575b600080fd5b6100f7610212565b6040516101049190610c90565b60405180910390f35b61012061011b366004610cfa565b6102a4565b6040519015158152602001610104565b6035545b604051908152602001610104565b610120610150366004610d24565b6102be565b61013460655481565b60405160128152602001610104565b61012061017b366004610cfa565b6102e2565b61019361018e366004610e18565b610304565b005b6101346101a3366004610ef1565b6001600160a01b031660009081526033602052604090205490565b6100f76104b1565b6101206101d4366004610cfa565b6104c0565b6101206101e7366004610cfa565b61053b565b6101936101fa366004610cfa565b610549565b61013461020d366004610f13565b610682565b60606036805461022190610f46565b80601f016020809104026020016040519081016040528092919081815260200182805461024d90610f46565b801561029a5780601f1061026f5761010080835404028352916020019161029a565b820191906000526020600020905b81548152906001019060200180831161027d57829003601f168201915b5050505050905090565b6000336102b28185856106ad565b60019150505b92915050565b6000336102cc8582856107d1565b6102d785858561084b565b506001949350505050565b6000336102b28185856102f58383610682565b6102ff9190610f96565b6106ad565b600054610100900460ff16158080156103245750600054600160ff909116105b8061033e5750303b15801561033e575060005460ff166001145b6103a65760405162461bcd60e51b815260206004820152602e60248201527f496e697469616c697a61626c653a20636f6e747261637420697320616c72656160448201526d191e481a5b9a5d1a585b1a5e995960921b60648201526084015b60405180910390fd5b6000805460ff1916600117905580156103c9576000805461ff0019166101001790555b6103d38588610fa9565b64ffffffffff168864ffffffffff1610156104295760405162461bcd60e51b81526020600482015260166024820152751d1bdd185b081cdd5c1c1b1e481d1bdbc81cdb585b1b60521b604482015260640161039d565b606680546001600160a01b0319166001600160a01b03851617905564ffffffffff881660655561045f8a8a8989898989896109f6565b80156104a5576000805461ff0019169055604051600181527f7f26b83ff96e1f2b6a682f133852f6798a09c465da95921460cefb38474024989060200160405180910390a15b50505050505050505050565b60606037805461022190610f46565b600033816104ce8286610682565b90508381101561052e5760405162461bcd60e51b815260206004820152602560248201527f45524332303a2064656372656173656420616c6c6f77616e63652062656c6f77604482015264207a65726f60d81b606482015260840161039d565b6102d782868684036106ad565b6000336102b281858561084b565b6066546001600160a01b031633146105975760405162461bcd60e51b815260206004820152601160248201527043616c6c6572206973206e6f7420414d4d60781b604482015260640161039d565b6001600160a01b03821660009081526067602052604090205460ff16156105f25760405162461bcd60e51b815260206004820152600f60248201526e185b1c9958591e4818db185a5b5959608a1b604482015260640161039d565b60006105fd60355490565b60655490915061060d8383610f96565b11156106525760405162461bcd60e51b81526020600482015260146024820152731b585e151bdd185b14dd5c1c1b1e481b1a5b5a5d60621b604482015260640161039d565b61065c8383610a3f565b50506001600160a01b03166000908152606760205260409020805460ff19166001179055565b6001600160a01b03918216600090815260346020908152604080832093909416825291909152205490565b6001600160a01b03831661070f5760405162461bcd60e51b8152602060048201526024808201527f45524332303a20617070726f76652066726f6d20746865207a65726f206164646044820152637265737360e01b606482015260840161039d565b6001600160a01b0382166107705760405162461bcd60e51b815260206004820152602260248201527f45524332303a20617070726f766520746f20746865207a65726f206164647265604482015261737360f01b606482015260840161039d565b6001600160a01b0383811660008181526034602090815260408083209487168084529482529182902085905590518481527f8c5be1e5ebec7d5bd14f71427d1e84f3dd0314c0f7b2291e5b200ac8c7c3b925910160405180910390a3505050565b60006107dd8484610682565b9050600019811461084557818110156108385760405162461bcd60e51b815260206004820152601d60248201527f45524332303a20696e73756666696369656e7420616c6c6f77616e6365000000604482015260640161039d565b61084584848484036106ad565b50505050565b6001600160a01b0383166108af5760405162461bcd60e51b815260206004820152602560248201527f45524332303a207472616e736665722066726f6d20746865207a65726f206164604482015264647265737360d81b606482015260840161039d565b6001600160a01b0382166109115760405162461bcd60e51b815260206004820152602360248201527f45524332303a207472616e7366657220746f20746865207a65726f206164647260448201526265737360e81b606482015260840161039d565b6001600160a01b038316600090815260336020526040902054818110156109895760405162461bcd60e51b815260206004820152602660248201527f45524332303a207472616e7366657220616d6f756e7420657863656564732062604482015265616c616e636560d01b606482015260840161039d565b6001600160a01b0380851660008181526033602052604080822086860390559286168082529083902080548601905591517fddf252ad1be2c89b69c2b068fc378daa952ba7f163c4a11628f55a4df523b3ef906109e99086815260200190565b60405180910390a3610845565b600054610100900460ff16610a1d5760405162461bcd60e51b815260040161039d90610fce565b610a278888610b05565b610a35868686868686610b45565b5050505050505050565b6001600160a01b038216610a955760405162461bcd60e51b815260206004820152601f60248201527f45524332303a206d696e7420746f20746865207a65726f206164647265737300604482015260640161039d565b8060356000828254610aa79190610f96565b90915550506001600160a01b0382166000818152603360209081526040808320805486019055518481527fddf252ad1be2c89b69c2b068fc378daa952ba7f163c4a11628f55a4df523b3ef910160405180910390a35050565b505050565b600054610100900460ff16610b2c5760405162461bcd60e51b815260040161039d90610fce565b6036610b38838261105f565b506037610b00828261105f565b600054610100900460ff16610b6c5760405162461bcd60e51b815260040161039d90610fce565b8464ffffffffff168664ffffffffff161015610bca5760405162461bcd60e51b815260206004820152601860248201527f414d4d20706f6f6c20736861726520746f6f206c617267650000000000000000604482015260640161039d565b8264ffffffffff168464ffffffffff161015610c285760405162461bcd60e51b815260206004820152601b60248201527f417574686f7220706f6f6c20736861726520746f6f206c617267650000000000604482015260640161039d565b610c39828764ffffffffff16610a3f565b610c4a818564ffffffffff16610a3f565b606654610c699083906001600160a01b031664ffffffffff88166106ad565b606654610c889082906001600160a01b031664ffffffffff86166106ad565b505050505050565b600060208083528351808285015260005b81811015610cbd57858101830151858201604001528201610ca1565b506000604082860101526040601f19601f8301168501019250505092915050565b80356001600160a01b0381168114610cf557600080fd5b919050565b60008060408385031215610d0d57600080fd5b610d1683610cde565b946020939093013593505050565b600080600060608486031215610d3957600080fd5b610d4284610cde565b9250610d5060208501610cde565b9150604084013590509250925092565b634e487b7160e01b600052604160045260246000fd5b600082601f830112610d8757600080fd5b813567ffffffffffffffff80821115610da257610da2610d60565b604051601f8301601f19908116603f01168101908282118183101715610dca57610dca610d60565b81604052838152866020858801011115610de357600080fd5b836020870160208301376000602085830101528094505050505092915050565b803564ffffffffff81168114610cf557600080fd5b60008060008060008060008060006101208a8c031215610e3757600080fd5b893567ffffffffffffffff80821115610e4f57600080fd5b610e5b8d838e01610d76565b9a5060208c0135915080821115610e7157600080fd5b50610e7e8c828d01610d76565b985050610e8d60408b01610e03565b9650610e9b60608b01610e03565b9550610ea960808b01610e03565b9450610eb760a08b01610e03565b9350610ec560c08b01610e03565b9250610ed360e08b01610cde565b9150610ee26101008b01610cde565b90509295985092959850929598565b600060208284031215610f0357600080fd5b610f0c82610cde565b9392505050565b60008060408385031215610f2657600080fd5b610f2f83610cde565b9150610f3d60208401610cde565b90509250929050565b600181811c90821680610f5a57607f821691505b602082108103610f7a57634e487b7160e01b600052602260045260246000fd5b50919050565b634e487b7160e01b600052601160045260246000fd5b808201808211156102b8576102b8610f80565b64ffffffffff818116838216019080821115610fc757610fc7610f80565b5092915050565b6020808252602b908201527f496e697469616c697a61626c653a20636f6e7472616374206973206e6f74206960408201526a6e697469616c697a696e6760a81b606082015260800190565b601f821115610b0057600081815260208120601f850160051c810160208610156110405750805b601f850160051c820191505b81811015610c885782815560010161104c565b815167ffffffffffffffff81111561107957611079610d60565b61108d816110878454610f46565b84611019565b602080601f8311600181146110c257600084156110aa5750858301515b600019600386901b1c1916600185901b178555610c88565b600085815260208120601f198616915b828110156110f1578886015182559484019460019091019084016110d2565b508582101561110f5787850151600019600388901b60f8161c191681555b5050505050600190811b0190555056fea264697066735822122074649227cd1eb82de3c51a9400eabca217baa1c41ca4a8c7990fe14b27ef4eee64736f6c63430008110033",
  "devdoc": {
    "kind": "dev",
    "methods": {},
    "version": 1
  },
  "userdoc": {
    "kind": "user",
    "methods": {},
    "version": 1
  },
  "storageLayout": {
    "storage": [],
    "types": null
  }
}