{
  "address": "0x32EEce76C2C2e8758584A83Ee2F522D4788feA0f",
  "abi": [
    {
      "inputs": [],
      "stateMutability": "nonpayable",
      "type": "constructor"
    },
    {
      "anonymous": false,
      "inputs": [
        {
          "indexed": true,
          "internalType": "address",
          "name": "previousOwner",
          "type": "address"
        },
        {
          "indexed": true,
          "internalType": "address",
          "name": "newOwner",
          "type": "address"
        }
      ],
      "name": "OwnershipTransferred",
      "type": "event"
    },
    {
      "anonymous": false,
      "inputs": [
        {
          "indexed": false,
          "internalType": "address",
          "name": "poolAddress",
          "type": "address"
        },
        {
          "indexed": false,
          "internalType": "bytes32",
          "name": "_hash",
          "type": "bytes32"
        }
      ],
      "name": "PoolCreated",
      "type": "event"
    },
    {
      "inputs": [
        {
          "internalType": "address",
          "name": "_token1",
          "type": "address"
        },
        {
          "internalType": "address",
          "name": "_token2",
          "type": "address"
        }
      ],
      "name": "createPool",
      "outputs": [
        {
          "internalType": "address",
          "name": "poolAddress",
          "type": "address"
        },
        {
          "internalType": "bytes32",
          "name": "poolHash",
          "type": "bytes32"
        }
      ],
      "stateMutability": "nonpayable",
      "type": "function"
    },
    {
      "inputs": [
        {
          "internalType": "bytes32",
          "name": "_hash",
          "type": "bytes32"
        }
      ],
      "name": "getPoolByHash",
      "outputs": [
        {
          "internalType": "contract ITokensPool",
          "name": "",
          "type": "address"
        }
      ],
      "stateMutability": "view",
      "type": "function"
    },
    {
      "inputs": [
        {
          "internalType": "address",
          "name": "_token1",
          "type": "address"
        },
        {
          "internalType": "address",
          "name": "_token2",
          "type": "address"
        }
      ],
      "name": "getPoolByTokensPair",
      "outputs": [
        {
          "internalType": "contract ITokensPool",
          "name": "",
          "type": "address"
        }
      ],
      "stateMutability": "view",
      "type": "function"
    },
    {
      "inputs": [
        {
          "internalType": "address",
          "name": "_token",
          "type": "address"
        }
      ],
      "name": "getTokenPools",
      "outputs": [
        {
          "internalType": "address[]",
          "name": "",
          "type": "address[]"
        }
      ],
      "stateMutability": "view",
      "type": "function"
    },
    {
      "inputs": [],
      "name": "owner",
      "outputs": [
        {
          "internalType": "address",
          "name": "",
          "type": "address"
        }
      ],
      "stateMutability": "view",
      "type": "function"
    },
    {
      "inputs": [],
      "name": "renounceOwnership",
      "outputs": [],
      "stateMutability": "nonpayable",
      "type": "function"
    },
    {
      "inputs": [
        {
          "internalType": "address",
          "name": "newOwner",
          "type": "address"
        }
      ],
      "name": "transferOwnership",
      "outputs": [],
      "stateMutability": "nonpayable",
      "type": "function"
    }
  ],
  "transactionHash": "0xad7d221954604f7b544a1155df713922a369787e1e38e49f0f2e4abe711949f1",
  "args": [],
  "numDeployments": 2,
  "solcInputHash": "9692d66f73acaa248bf79b0c77ae0aa5",
  "bytecode": "0x60a060405234801561001057600080fd5b5061001a33610054565b604051610026906100a4565b604051809103906000f080158015610042573d6000803e3d6000fd5b506001600160a01b03166080526100b1565b600080546001600160a01b038381166001600160a01b0319831681178455604051919092169283917f8be0079c531659141344cd1fd0a4f28419497f9722a3daafe3b4186f6b6457e09190a35050565b61023a8061096683390190565b60805161089a6100cc6000396000610380015261089a6000f3fe608060405234801561001057600080fd5b506004361061007d5760003560e01c8063d75a2d721161005b578063d75a2d72146100c9578063e3433615146100e9578063f2fde38b1461011b578063f6b818501461012e57600080fd5b8063715018a6146100825780638da5cb5b1461008c5780639c272001146100b6575b600080fd5b61008a610141565b005b6000546001600160a01b03165b6040516001600160a01b0390911681526020015b60405180910390f35b6100996100c4366004610792565b610155565b6100dc6100d73660046107c2565b6101cb565b6040516100ad91906107e4565b6100fc6100f7366004610831565b610298565b604080516001600160a01b0390931683526020830191909152016100ad565b61008a6101293660046107c2565b6104bd565b61009961013c366004610831565b610536565b6101496105be565b6101536000610618565b565b6000818152600160205260408120546001600160a01b03166101af5760405162461bcd60e51b815260206004820152600e60248201526d1c1bdbdb081b9bdd08199bdd5b9960921b60448201526064015b60405180910390fd5b506000908152600160205260409020546001600160a01b031690565b6001600160a01b038116600090815260026020526040812054606091036102245760405162461bcd60e51b815260206004820152600d60248201526c1b9bc81c1bdbdb08199bdd5b99609a1b60448201526064016101a6565b6001600160a01b0382166000908152600260209081526040918290208054835181840281018401909452808452909183018282801561028c57602002820191906000526020600020905b81546001600160a01b0316815260019091019060200180831161026e575b50505050509050919050565b6000806102a36105be565b826001600160a01b0316846001600160a01b0316036102f15760405162461bcd60e51b815260206004820152600a60248201526939b0b6b2903a37b5b2b760b11b60448201526064016101a6565b60008060006103008787610668565b919450925090506001600160a01b0383161580159061032857506001600160a01b0387163b15155b801561033d57506001600160a01b0386163b15155b61037b5760405162461bcd60e51b815260206004820152600f60248201526e696e76616c6964206164647265737360881b60448201526064016101a6565b6103a47f00000000000000000000000000000000000000000000000000000000000000006106c4565b60405163485cc95560e01b81526001600160a01b03858116600483015284811660248301529196509086169063485cc95590604401600060405180830381600087803b1580156103f357600080fd5b505af1158015610407573d6000803e3d6000fd5b505050600082815260016020818152604080842080546001600160a01b038c81166001600160a01b031992831681179093558a811687526002855283872080548088018255908852858820018054831684179055891686528286208054958601815586529483902090930180549094168317909355825191825281018490527fee1fe091a5213b321c2662b35c0b7cd0d35d10dbcab52b3c9b8768983c67bce392500160405180910390a1925050509250929050565b6104c56105be565b6001600160a01b03811661052a5760405162461bcd60e51b815260206004820152602660248201527f4f776e61626c653a206e6577206f776e657220697320746865207a65726f206160448201526564647265737360d01b60648201526084016101a6565b61053381610618565b50565b6000806105438484610668565b6000818152600160205260409020549093506001600160a01b0316915061059f90505760405162461bcd60e51b815260206004820152600e60248201526d1c1bdbdb081b9bdd08199bdd5b9960921b60448201526064016101a6565b6000908152600160205260409020546001600160a01b03169392505050565b6000546001600160a01b031633146101535760405162461bcd60e51b815260206004820181905260248201527f4f776e61626c653a2063616c6c6572206973206e6f7420746865206f776e657260448201526064016101a6565b600080546001600160a01b038381166001600160a01b0319831681178455604051919092169283917f8be0079c531659141344cd1fd0a4f28419497f9722a3daafe3b4186f6b6457e09190a35050565b60008060006106778585610761565b6040516bffffffffffffffffffffffff19606084811b8216602084015283901b16603482015291945092506048016040516020818303038152906040528051906020012090509250925092565b6000604051733d602d80600a3d3981f3363d3d373d3d3d363d7360601b81528260601b60148201526e5af43d82803e903d91602b57fd5bf360881b60288201526037816000f09150506001600160a01b03811661075c5760405162461bcd60e51b8152602060048201526016602482015275115490cc4c4d8dce8818dc99585d194819985a5b195960521b60448201526064016101a6565b919050565b600080826001600160a01b0316846001600160a01b031610610784578284610787565b83835b909590945092505050565b6000602082840312156107a457600080fd5b5035919050565b80356001600160a01b038116811461075c57600080fd5b6000602082840312156107d457600080fd5b6107dd826107ab565b9392505050565b6020808252825182820181905260009190848201906040850190845b818110156108255783516001600160a01b031683529284019291840191600101610800565b50909695505050505050565b6000806040838503121561084457600080fd5b61084d836107ab565b915061085b602084016107ab565b9050925092905056fea26469706673582212209f7c747dea162b8150843d657de5092e5db453b557696133b795d3c67bc1c5b064736f6c63430008110033608060405234801561001057600080fd5b5061021a806100206000396000f3fe608060405234801561001057600080fd5b506004361061002b5760003560e01c8063485cc95514610030575b600080fd5b61004361003e3660046101b1565b610045565b005b600054610100900460ff16158080156100655750600054600160ff909116105b8061007f5750303b15801561007f575060005460ff166001145b6100e65760405162461bcd60e51b815260206004820152602e60248201527f496e697469616c697a61626c653a20636f6e747261637420697320616c72656160448201526d191e481a5b9a5d1a585b1a5e995960921b606482015260840160405180910390fd5b6000805460ff191660011790558015610109576000805461ff0019166101001790555b6000805462010000600160b01b031916620100006001600160a01b038681169190910291909117909155600180546001600160a01b0319169184169190911790558015610190576000805461ff0019169055604051600181527f7f26b83ff96e1f2b6a682f133852f6798a09c465da95921460cefb38474024989060200160405180910390a15b505050565b80356001600160a01b03811681146101ac57600080fd5b919050565b600080604083850312156101c457600080fd5b6101cd83610195565b91506101db60208401610195565b9050925092905056fea26469706673582212205ce31ead9d159e3eade88783daa1c17a4ce1e41586893181fbe4847b6bed549f64736f6c63430008110033",
  "devdoc": {
    "kind": "dev",
    "methods": {
      "owner()": {
        "details": "Returns the address of the current owner."
      },
      "renounceOwnership()": {
        "details": "Leaves the contract without owner. It will not be possible to call `onlyOwner` functions anymore. Can only be called by the current owner. NOTE: Renouncing ownership will leave the contract without an owner, thereby removing any functionality that is only available to the owner."
      },
      "transferOwnership(address)": {
        "details": "Transfers ownership of the contract to a new account (`newOwner`). Can only be called by the current owner."
      }
    },
    "stateVariables": {
      "pools": {
        "details": "pools mapping allow to retrieve a pool address with its hash"
      },
      "tokenPools": {
        "details": "tokenPools mapping allow to retrivee all pools addresses corresponding to a specific token"
      }
    },
    "version": 1
  },
  "userdoc": {
    "kind": "user",
    "methods": {},
    "version": 1
  },
  "storageLayout": {
    "storage": [
      {
        "astId": 1217,
        "contract": "contracts/pools/TokensPoolFactory.sol:TokensPoolFactory",
        "label": "_owner",
        "offset": 0,
        "slot": "0",
        "type": "t_address"
      },
      {
        "astId": 3163,
        "contract": "contracts/pools/TokensPoolFactory.sol:TokensPoolFactory",
        "label": "pools",
        "offset": 0,
        "slot": "1",
        "type": "t_mapping(t_bytes32,t_address)"
      },
      {
        "astId": 3169,
        "contract": "contracts/pools/TokensPoolFactory.sol:TokensPoolFactory",
        "label": "tokenPools",
        "offset": 0,
        "slot": "2",
        "type": "t_mapping(t_address,t_array(t_address)dyn_storage)"
      }
    ],
    "types": {
      "t_address": {
        "encoding": "inplace",
        "label": "address",
        "numberOfBytes": "20"
      },
      "t_array(t_address)dyn_storage": {
        "base": "t_address",
        "encoding": "dynamic_array",
        "label": "address[]",
        "numberOfBytes": "32"
      },
      "t_bytes32": {
        "encoding": "inplace",
        "label": "bytes32",
        "numberOfBytes": "32"
      },
      "t_mapping(t_address,t_array(t_address)dyn_storage)": {
        "encoding": "mapping",
        "key": "t_address",
        "label": "mapping(address => address[])",
        "numberOfBytes": "32",
        "value": "t_array(t_address)dyn_storage"
      },
      "t_mapping(t_bytes32,t_address)": {
        "encoding": "mapping",
        "key": "t_bytes32",
        "label": "mapping(bytes32 => address)",
        "numberOfBytes": "32",
        "value": "t_address"
      }
    }
  }
}