{
  "_format": "hh-sol-artifact-1",
  "contractName": "AMM",
  "sourceName": "contracts/AMM.sol",
  "abi": [
    {
      "inputs": [
        {
          "internalType": "address",
          "name": "_fansSocietyAddress",
          "type": "address"
        },
        {
          "internalType": "address",
          "name": "_wethTokenAddress",
          "type": "address"
        },
        {
          "internalType": "address",
          "name": "_tokenFactoryAddress",
          "type": "address"
        },
        {
          "internalType": "address",
          "name": "_poolFactoryAddress",
          "type": "address"
        }
      ],
      "stateMutability": "nonpayable",
      "type": "constructor"
    },
    {
      "anonymous": false,
      "inputs": [
        {
          "indexed": true,
          "internalType": "uint256",
          "name": "id",
          "type": "uint256"
        },
        {
          "indexed": true,
          "internalType": "address",
          "name": "caller",
          "type": "address"
        },
        {
          "indexed": false,
          "internalType": "uint256",
          "name": "amount",
          "type": "uint256"
        }
      ],
      "name": "Committed",
      "type": "event"
    },
    {
      "anonymous": false,
      "inputs": [
        {
          "indexed": true,
          "internalType": "address",
          "name": "previousOwner",
          "type": "address"
        },
        {
          "indexed": true,
          "internalType": "address",
          "name": "newOwner",
          "type": "address"
        }
      ],
      "name": "OwnershipTransferred",
      "type": "event"
    },
    {
      "anonymous": false,
      "inputs": [
        {
          "indexed": false,
          "internalType": "uint256",
          "name": "id",
          "type": "uint256"
        },
        {
          "indexed": false,
          "internalType": "string",
          "name": "name",
          "type": "string"
        },
        {
          "indexed": false,
          "internalType": "string",
          "name": "symbol",
          "type": "string"
        },
        {
          "indexed": false,
          "internalType": "string",
          "name": "description",
          "type": "string"
        },
        {
          "indexed": false,
          "internalType": "uint256",
          "name": "target",
          "type": "uint256"
        },
        {
          "indexed": false,
          "internalType": "uint256",
          "name": "minInvest",
          "type": "uint256"
        },
        {
          "indexed": false,
          "internalType": "uint256",
          "name": "maxInvest",
          "type": "uint256"
        },
        {
          "indexed": false,
          "internalType": "uint32",
          "name": "totalSupply",
          "type": "uint32"
        },
        {
          "indexed": true,
          "internalType": "address",
          "name": "authorAddress",
          "type": "address"
        }
      ],
      "name": "ProjectCreated",
      "type": "event"
    },
    {
      "anonymous": false,
      "inputs": [
        {
          "indexed": true,
          "internalType": "uint256",
          "name": "id",
          "type": "uint256"
        },
        {
          "indexed": false,
          "internalType": "enum Projects.ProjectStatus",
          "name": "status",
          "type": "uint8"
        }
      ],
      "name": "ProjectStatusChanged",
      "type": "event"
    },
    {
      "anonymous": false,
      "inputs": [
        {
          "indexed": true,
          "internalType": "uint256",
          "name": "projectId",
          "type": "uint256"
        },
        {
          "indexed": true,
          "internalType": "address",
          "name": "token",
          "type": "address"
        },
        {
          "indexed": true,
          "internalType": "address",
          "name": "caller",
          "type": "address"
        },
        {
          "indexed": false,
          "internalType": "uint256",
          "name": "amount",
          "type": "uint256"
        }
      ],
      "name": "TokensClaimed",
      "type": "event"
    },
    {
      "anonymous": false,
      "inputs": [
        {
          "indexed": true,
          "internalType": "uint256",
          "name": "id",
          "type": "uint256"
        },
        {
          "indexed": true,
          "internalType": "address",
          "name": "caller",
          "type": "address"
        },
        {
          "indexed": false,
          "internalType": "uint256",
          "name": "amount",
          "type": "uint256"
        }
      ],
      "name": "Withdrawed",
      "type": "event"
    },
    {
      "inputs": [
        {
          "internalType": "uint256",
          "name": "_id",
          "type": "uint256"
        }
      ],
      "name": "abortProject",
      "outputs": [],
      "stateMutability": "nonpayable",
      "type": "function"
    },
    {
      "inputs": [
        {
          "internalType": "uint256",
          "name": "_projectId",
          "type": "uint256"
        }
      ],
      "name": "claimProjectTokens",
      "outputs": [],
      "stateMutability": "nonpayable",
      "type": "function"
    },
    {
      "inputs": [
        {
          "internalType": "uint256",
          "name": "_id",
          "type": "uint256"
        }
      ],
      "name": "commitOnProject",
      "outputs": [],
      "stateMutability": "payable",
      "type": "function"
    },
    {
      "inputs": [
        {
          "internalType": "uint256",
          "name": "",
          "type": "uint256"
        },
        {
          "internalType": "address",
          "name": "",
          "type": "address"
        }
      ],
      "name": "commitments",
      "outputs": [
        {
          "internalType": "uint256",
          "name": "",
          "type": "uint256"
        }
      ],
      "stateMutability": "view",
      "type": "function"
    },
    {
      "inputs": [],
      "name": "count",
      "outputs": [
        {
          "internalType": "uint256",
          "name": "",
          "type": "uint256"
        }
      ],
      "stateMutability": "view",
      "type": "function"
    },
    {
      "inputs": [
        {
          "internalType": "address",
          "name": "_authorAddress",
          "type": "address"
        },
        {
          "internalType": "string",
          "name": "_name",
          "type": "string"
        },
        {
          "internalType": "string",
          "name": "_symbol",
          "type": "string"
        },
        {
          "internalType": "string",
          "name": "_description",
          "type": "string"
        },
        {
          "internalType": "uint256",
          "name": "_target",
          "type": "uint256"
        },
        {
          "internalType": "uint256",
          "name": "_minInvest",
          "type": "uint256"
        },
        {
          "internalType": "uint256",
          "name": "_maxInvest",
          "type": "uint256"
        },
        {
          "internalType": "uint32",
          "name": "_totalSupply",
          "type": "uint32"
        }
      ],
      "name": "createProject",
      "outputs": [],
      "stateMutability": "nonpayable",
      "type": "function"
    },
    {
      "inputs": [
        {
          "internalType": "uint256",
          "name": "_id",
          "type": "uint256"
        }
      ],
      "name": "launchProject",
      "outputs": [],
      "stateMutability": "nonpayable",
      "type": "function"
    },
    {
      "inputs": [],
      "name": "owner",
      "outputs": [
        {
          "internalType": "address",
          "name": "",
          "type": "address"
        }
      ],
      "stateMutability": "view",
      "type": "function"
    },
    {
      "inputs": [
        {
          "internalType": "uint256",
          "name": "",
          "type": "uint256"
        }
      ],
      "name": "projects",
      "outputs": [
        {
          "internalType": "string",
          "name": "name",
          "type": "string"
        },
        {
          "internalType": "string",
          "name": "symbol",
          "type": "string"
        },
        {
          "internalType": "string",
          "name": "description",
          "type": "string"
        },
        {
          "internalType": "uint256",
          "name": "id",
          "type": "uint256"
        },
        {
          "internalType": "uint256",
          "name": "fund",
          "type": "uint256"
        },
        {
          "internalType": "uint256",
          "name": "target",
          "type": "uint256"
        },
        {
          "internalType": "uint256",
          "name": "minInvest",
          "type": "uint256"
        },
        {
          "internalType": "uint256",
          "name": "maxInvest",
          "type": "uint256"
        },
        {
          "internalType": "uint32",
          "name": "totalSupply",
          "type": "uint32"
        },
        {
          "internalType": "enum Projects.ProjectStatus",
          "name": "status",
          "type": "uint8"
        },
        {
          "internalType": "address",
          "name": "authorAddress",
          "type": "address"
        },
        {
          "internalType": "address",
          "name": "tokenAddress",
          "type": "address"
        }
      ],
      "stateMutability": "view",
      "type": "function"
    },
    {
      "inputs": [],
      "name": "renounceOwnership",
      "outputs": [],
      "stateMutability": "nonpayable",
      "type": "function"
    },
    {
      "inputs": [
        {
          "internalType": "address",
          "name": "newOwner",
          "type": "address"
        }
      ],
      "name": "transferOwnership",
      "outputs": [],
      "stateMutability": "nonpayable",
      "type": "function"
    },
    {
      "inputs": [
        {
          "internalType": "uint256",
          "name": "_id",
          "type": "uint256"
        }
      ],
      "name": "withdrawOnProject",
      "outputs": [],
      "stateMutability": "nonpayable",
      "type": "function"
    }
  ],
  "bytecode": "0x60806040523480156200001157600080fd5b506040516200217f3803806200217f833981016040819052620000349162000100565b6200003f3362000093565b600480546001600160a01b039586166001600160a01b03199182161790915560058054948616948216949094179093556006805492851692841692909217909155600780549190931691161790556200015d565b600080546001600160a01b038381166001600160a01b0319831681178455604051919092169283917f8be0079c531659141344cd1fd0a4f28419497f9722a3daafe3b4186f6b6457e09190a35050565b80516001600160a01b0381168114620000fb57600080fd5b919050565b600080600080608085870312156200011757600080fd5b6200012285620000e3565b93506200013260208601620000e3565b92506200014260408601620000e3565b91506200015260608601620000e3565b905092959194509250565b612012806200016d6000396000f3fe6080604052600436106100a75760003560e01c8063715018a611610064578063715018a6146101825780638da5cb5b14610197578063a3bfb7bd146101bf578063e90d4c06146101df578063f1244ad814610217578063f2fde38b1461023757600080fd5b806306661abd146100ac578063107046bd146100d557806316509ee21461010d57806344a9ae8c146101225780634f8d7dc31461014257806360ae7c3b14610162575b600080fd5b3480156100b857600080fd5b506100c260015481565b6040519081526020015b60405180910390f35b3480156100e157600080fd5b506100f56100f03660046118c4565b610257565b6040516100cc9c9b9a99989796959493929190611965565b61012061011b3660046118c4565b610465565b005b34801561012e57600080fd5b5061012061013d3660046118c4565b61066f565b34801561014e57600080fd5b5061012061015d366004611a8b565b610831565b34801561016e57600080fd5b5061012061017d3660046118c4565b610ad4565b34801561018e57600080fd5b50610120610efb565b3480156101a357600080fd5b506000546040516001600160a01b0390911681526020016100cc565b3480156101cb57600080fd5b506101206101da3660046118c4565b610f0f565b3480156101eb57600080fd5b506100c26101fa366004611b67565b600360209081526000928352604080842090915290825290205481565b34801561022357600080fd5b506101206102323660046118c4565b610fc8565b34801561024357600080fd5b50610120610252366004611b97565b611504565b60026020526000908152604090208054819061027290611bb4565b80601f016020809104026020016040519081016040528092919081815260200182805461029e90611bb4565b80156102eb5780601f106102c0576101008083540402835291602001916102eb565b820191906000526020600020905b8154815290600101906020018083116102ce57829003601f168201915b50505050509080600101805461030090611bb4565b80601f016020809104026020016040519081016040528092919081815260200182805461032c90611bb4565b80156103795780601f1061034e57610100808354040283529160200191610379565b820191906000526020600020905b81548152906001019060200180831161035c57829003601f168201915b50505050509080600201805461038e90611bb4565b80601f01602080910402602001604051908101604052809291908181526020018280546103ba90611bb4565b80156104075780601f106103dc57610100808354040283529160200191610407565b820191906000526020600020905b8154815290600101906020018083116103ea57829003601f168201915b5050506003840154600485015460058601546006870154600788015460088901546009909901549798949793965091945092909163ffffffff82169160ff600160201b820416916001600160a01b03600160281b909204821691168c565b80600080600083815260026020526040902060080154600160201b900460ff1660038111156104965761049661192d565b146104bc5760405162461bcd60e51b81526004016104b390611bee565b60405180910390fd5b60008381526002602090815260408083206006810154600384528285203386529093529220546104ec9034611c30565b10156105275760405162461bcd60e51b815260206004820152600a60248201526909cdee840cadcdeeaced60b31b60448201526064016104b3565b600781015460008581526003602090815260408083203384529091529020546105509034611c30565b11156105895760405162461bcd60e51b81526020600482015260086024820152670a8dede40daeac6d60c31b60448201526064016104b3565b3481600401600082825461059d9190611c30565b90915550506000848152600360209081526040808320338452909152812080543492906105cb908490611c30565b9091555050604051348152339085907f245cbccbc6875e4b0475a653568fd4f7c2dae5fb8929e33c0d66dc530ba11b009060200160405180910390a380600501548160040154106106695760088101805464ff00000000191664020000000017905560405184907f35872be4c2085eaf9ca9a10d056eefec79968f825846792411ede75f331e93929061066090600290611c49565b60405180910390a25b50505050565b80600280600083815260026020526040902060080154600160201b900460ff1660038111156106a0576106a061192d565b106106bd5760405162461bcd60e51b81526004016104b390611bee565b600083815260036020908152604080832033845290915290205483906107155760405162461bcd60e51b815260206004820152600d60248201526c139bc818dbdb5b5a5d1b595b9d609a1b60448201526064016104b3565b60008481526003602090815260408083203384528252808320548784526002909252822060040180549192839261074d908490611c57565b909155505060008581526003602090815260408083203380855292528083208390555183908381818185875af1925050503d80600081146107aa576040519150601f19603f3d011682016040523d82523d6000602084013e6107af565b606091505b50509050806107f25760405162461bcd60e51b815260206004820152600f60248201526e1dda5d1a191c985dc819985a5b1959608a1b60448201526064016104b3565b604051828152339087907f7fd902d6e186354d1617b957fc4cb4a144f44a19cc5c4525cfb772d707c405c29060200160405180910390a3505050505050565b61083961157d565b6001805490600061084983611c6a565b91905055506040518061018001604052808b8b8080601f016020809104026020016040519081016040528093929190818152602001838380828437600092019190915250505090825250604080516020601f8c018190048102820181019092528a815291810191908b908b9081908401838280828437600092019190915250505090825250604080516020601f8a01819004810282018101909252888152918101919089908990819084018382808284376000920182905250938552505060015460208401525060408201819052606082018790526080820186905260a0820185905263ffffffff841660c083015260e09091019081526001600160a01b038d16602080830191909152600060409283018190526001548152600290915220815181906109769082611ce7565b506020820151600182019061098b9082611ce7565b50604082015160028201906109a09082611ce7565b5060608201516003808301919091556080830151600483015560a0830151600583015560c0830151600683015560e0830151600783015561010083015160088301805463ffffffff90921663ffffffff1983168117825561012086015193919264ffffffffff19161790600160201b908490811115610a2157610a2161192d565b021790555061014082015160088201805465010000000000600160c81b031916600160281b6001600160a01b039384160217905561016090920151600990910180546001600160a01b031916918316919091179055600154604051918d16917f316489c0d9f70d001ecba3e93e6000f7f0d031c42208d615de6a45067cc0a7fa91610abf918e908e908e908e908e908e908e908e908e908e90611dd0565b60405180910390a25050505050505050505050565b80600380600083815260026020526040902060080154600160201b900460ff166003811115610b0557610b0561192d565b14610b225760405162461bcd60e51b81526004016104b390611bee565b60008381526003602090815260408083203384529091529020548390610b7a5760405162461bcd60e51b815260206004820152600d60248201526c139bc818dbdb5b5a5d1b595b9d609a1b60448201526064016104b3565b60008481526002602052604080822081516101808101909252805482908290610ba290611bb4565b80601f0160208091040260200160405190810160405280929190818152602001828054610bce90611bb4565b8015610c1b5780601f10610bf057610100808354040283529160200191610c1b565b820191906000526020600020905b815481529060010190602001808311610bfe57829003601f168201915b50505050508152602001600182018054610c3490611bb4565b80601f0160208091040260200160405190810160405280929190818152602001828054610c6090611bb4565b8015610cad5780601f10610c8257610100808354040283529160200191610cad565b820191906000526020600020905b815481529060010190602001808311610c9057829003601f168201915b50505050508152602001600282018054610cc690611bb4565b80601f0160208091040260200160405190810160405280929190818152602001828054610cf290611bb4565b8015610d3f5780601f10610d1457610100808354040283529160200191610d3f565b820191906000526020600020905b815481529060010190602001808311610d2257829003601f168201915b50505091835250506003828101546020830152600483015460408301526005830154606083015260068301546080830152600783015460a0830152600883015463ffffffff811660c084015260e090920191600160201b900460ff1690811115610dab57610dab61192d565b6003811115610dbc57610dbc61192d565b815260088201546001600160a01b03600160281b909104811660208084019190915260099093015416604091820152600088815260038352818120338252909252812054608083015161010084015193945090928390610e1d90600f611e46565b63ffffffff16610e2d9190611e6e565b610e379190611e9b565b6101608401516040516340c10f1960e01b8152336004820152602481018390529192506001600160a01b0316906340c10f1990604401600060405180830381600087803b158015610e8757600080fd5b505af1158015610e9b573d6000803e3d6000fd5b50505050336001600160a01b03168361016001516001600160a01b0316887f9c4945d842cc8c6704877a0defcd9ab09f6d77b24a369a95c2610506c6c38ee784604051610eea91815260200190565b60405180910390a450505050505050565b610f0361157d565b610f0d60006115d7565b565b610f1761157d565b80600080600083815260026020526040902060080154600160201b900460ff166003811115610f4857610f4861192d565b14610f655760405162461bcd60e51b81526004016104b390611bee565b60008381526002602052604090819020600801805464ff000000001916600160201b1790555183907f35872be4c2085eaf9ca9a10d056eefec79968f825846792411ede75f331e939290610fbb90600190611c49565b60405180910390a2505050565b80600280600083815260026020526040902060080154600160201b900460ff166003811115610ff957610ff961192d565b146110165760405162461bcd60e51b81526004016104b390611bee565b6000838152600260205260408082208151610180810190925280548290829061103e90611bb4565b80601f016020809104026020016040519081016040528092919081815260200182805461106a90611bb4565b80156110b75780601f1061108c576101008083540402835291602001916110b7565b820191906000526020600020905b81548152906001019060200180831161109a57829003601f168201915b505050505081526020016001820180546110d090611bb4565b80601f01602080910402602001604051908101604052809291908181526020018280546110fc90611bb4565b80156111495780601f1061111e57610100808354040283529160200191611149565b820191906000526020600020905b81548152906001019060200180831161112c57829003601f168201915b5050505050815260200160028201805461116290611bb4565b80601f016020809104026020016040519081016040528092919081815260200182805461118e90611bb4565b80156111db5780601f106111b0576101008083540402835291602001916111db565b820191906000526020600020905b8154815290600101906020018083116111be57829003601f168201915b50505091835250506003828101546020830152600483015460408301526005830154606083015260068301546080830152600783015460a0830152600883015463ffffffff811660c084015260e090920191600160201b900460ff16908111156112475761124761192d565b60038111156112585761125861192d565b815260088201546001600160a01b03600160281b909104811660208301526009909201549091166040909101526101008101519091506000906112a29063ffffffff166064611eaf565b905060006112b182600f611eaf565b905060006112c0836046611eaf565b9050600060646112d1846050611eaf565b6112db9190611ed0565b9050600060646112ec846050611eaf565b6112f69190611ed0565b600654875160208901519293506001600160a01b039091169163b87c8e149190611321896064611eaf565b88878988308f61014001516040518a63ffffffff1660e01b815260040161135099989796959493929190611ef4565b6020604051808303816000875af115801561136f573d6000803e3d6000fd5b505050506040513d601f19601f820116820180604052508101906113939190611f6e565b60008a81526002602052604080822060090180546001600160a01b0319166001600160a01b03948516908117909155600754600554925163e343361560e01b8152600481019290925291841660248201529192169063e3433615906044016020604051808303816000875af1158015611410573d6000803e3d6000fd5b505050506040513d601f19601f820116820180604052508101906114349190611f6e565b60008b815260026020526040902060090154909150611465906001600160a01b0316308364ffffffffff8716611627565b60008a815260026020526040902060090154610140880151611499916001600160a01b0316908364ffffffffff8616611627565b60008a81526002602052604090819020600801805464ff000000001916640300000000179055518a907f35872be4c2085eaf9ca9a10d056eefec79968f825846792411ede75f331e9392906114f090600390611c49565b60405180910390a250505050505050505050565b61150c61157d565b6001600160a01b0381166115715760405162461bcd60e51b815260206004820152602660248201527f4f776e61626c653a206e6577206f776e657220697320746865207a65726f206160448201526564647265737360d01b60648201526084016104b3565b61157a816115d7565b50565b6000546001600160a01b03163314610f0d5760405162461bcd60e51b815260206004820181905260248201527f4f776e61626c653a2063616c6c6572206973206e6f7420746865206f776e657260448201526064016104b3565b600080546001600160a01b038381166001600160a01b0319831681178455604051919092169283917f8be0079c531659141344cd1fd0a4f28419497f9722a3daafe3b4186f6b6457e09190a35050565b604080516001600160a01b038581166024830152848116604483015260648083018590528351808403909101815260849092018352602080830180516001600160e01b03166323b872dd60e01b17905283518085019094528084527f5361666545524332303a206c6f772d6c6576656c2063616c6c206661696c656490840152610669928792916000916116bf918516908490611741565b80519091501561173c57808060200190518101906116dd9190611f8b565b61173c5760405162461bcd60e51b815260206004820152602a60248201527f5361666545524332303a204552433230206f7065726174696f6e20646964206e6044820152691bdd081cdd58d8d9595960b21b60648201526084016104b3565b505050565b6060611750848460008561175a565b90505b9392505050565b6060824710156117bb5760405162461bcd60e51b815260206004820152602660248201527f416464726573733a20696e73756666696369656e742062616c616e636520666f6044820152651c8818d85b1b60d21b60648201526084016104b3565b6001600160a01b0385163b6118125760405162461bcd60e51b815260206004820152601d60248201527f416464726573733a2063616c6c20746f206e6f6e2d636f6e747261637400000060448201526064016104b3565b600080866001600160a01b0316858760405161182e9190611fad565b60006040518083038185875af1925050503d806000811461186b576040519150601f19603f3d011682016040523d82523d6000602084013e611870565b606091505b509150915061188082828661188b565b979650505050505050565b6060831561189a575081611753565b8251156118aa5782518084602001fd5b8160405162461bcd60e51b81526004016104b39190611fc9565b6000602082840312156118d657600080fd5b5035919050565b60005b838110156118f85781810151838201526020016118e0565b50506000910152565b600081518084526119198160208601602086016118dd565b601f01601f19169290920160200192915050565b634e487b7160e01b600052602160045260246000fd5b6004811061196157634e487b7160e01b600052602160045260246000fd5b9052565b6101808152600061197a61018083018f611901565b828103602084015261198c818f611901565b905082810360408401526119a0818e611901565b9150508a60608301528960808301528860a08301528760c08301528660e083015263ffffffff86166101008301526119dc610120830186611943565b6001600160a01b0393841661014083015291909216610160909201919091529a9950505050505050505050565b6001600160a01b038116811461157a57600080fd5b8035611a2981611a09565b919050565b60008083601f840112611a4057600080fd5b50813567ffffffffffffffff811115611a5857600080fd5b602083019150836020828501011115611a7057600080fd5b9250929050565b803563ffffffff81168114611a2957600080fd5b60008060008060008060008060008060006101008c8e031215611aad57600080fd5b611ab68c611a1e565b9a5067ffffffffffffffff8060208e01351115611ad257600080fd5b611ae28e60208f01358f01611a2e565b909b50995060408d0135811015611af857600080fd5b611b088e60408f01358f01611a2e565b909950975060608d0135811015611b1e57600080fd5b50611b2f8d60608e01358e01611a2e565b909650945060808c0135935060a08c0135925060c08c01359150611b5560e08d01611a77565b90509295989b509295989b9093969950565b60008060408385031215611b7a57600080fd5b823591506020830135611b8c81611a09565b809150509250929050565b600060208284031215611ba957600080fd5b813561175381611a09565b600181811c90821680611bc857607f821691505b602082108103611be857634e487b7160e01b600052602260045260246000fd5b50919050565b6020808252601290820152714261642070726f6a6563742073746174757360701b604082015260600190565b634e487b7160e01b600052601160045260246000fd5b80820180821115611c4357611c43611c1a565b92915050565b60208101611c438284611943565b81810381811115611c4357611c43611c1a565b600060018201611c7c57611c7c611c1a565b5060010190565b634e487b7160e01b600052604160045260246000fd5b601f82111561173c57600081815260208120601f850160051c81016020861015611cc05750805b601f850160051c820191505b81811015611cdf57828155600101611ccc565b505050505050565b815167ffffffffffffffff811115611d0157611d01611c83565b611d1581611d0f8454611bb4565b84611c99565b602080601f831160018114611d4a5760008415611d325750858301515b600019600386901b1c1916600185901b178555611cdf565b600085815260208120601f198616915b82811015611d7957888601518255948401946001909101908401611d5a565b5085821015611d975787850151600019600388901b60f8161c191681555b5050505050600190811b01905550565b81835281816020850137506000828201602090810191909152601f909101601f19169091010190565b60006101008d8352806020840152611deb8184018d8f611da7565b90508281036040840152611e00818b8d611da7565b90508281036060840152611e1581898b611da7565b9150508560808301528460a08301528360c083015263ffffffff831660e08301529c9b505050505050505050505050565b63ffffffff818116838216028082169190828114611e6657611e66611c1a565b505092915050565b8082028115828204841417611c4357611c43611c1a565b634e487b7160e01b600052601260045260246000fd5b600082611eaa57611eaa611e85565b500490565b64ffffffffff818116838216028082169190828114611e6657611e66611c1a565b600064ffffffffff80841680611ee857611ee8611e85565b92169190910492915050565b6000610120808352611f088184018d611901565b90508281036020840152611f1c818c611901565b64ffffffffff9a8b166040850152988a1660608401525050948716608086015292861660a0850152941660c08301526001600160a01b0393841660e08301529092166101009092019190915292915050565b600060208284031215611f8057600080fd5b815161175381611a09565b600060208284031215611f9d57600080fd5b8151801515811461175357600080fd5b60008251611fbf8184602087016118dd565b9190910192915050565b602081526000611753602083018461190156fea26469706673582212201588d852649305c644601bff42b11062f7fbd9698cbf0eb01eafe0ecf1c672e664736f6c63430008110033",
  "linkReferences": {},
  "deployedLinkReferences": {}
}