{
  "_format": "hh-sol-artifact-1",
  "contractName": "Projects",
  "sourceName": "contracts/Projects.sol",
  "abi": [
    {
      "inputs": [
        {
          "internalType": "address",
          "name": "_wethTokenAddress",
          "type": "address"
        },
        {
          "internalType": "address",
          "name": "_tokenFactoryAddress",
          "type": "address"
        },
        {
          "internalType": "address",
          "name": "_poolFactoryAddress",
          "type": "address"
        }
      ],
      "stateMutability": "nonpayable",
      "type": "constructor"
    },
    {
      "anonymous": false,
      "inputs": [
        {
          "indexed": true,
          "internalType": "uint256",
          "name": "id",
          "type": "uint256"
        },
        {
          "indexed": true,
          "internalType": "address",
          "name": "caller",
          "type": "address"
        },
        {
          "indexed": false,
          "internalType": "uint256",
          "name": "amount",
          "type": "uint256"
        }
      ],
      "name": "Claimed",
      "type": "event"
    },
    {
      "anonymous": false,
      "inputs": [
        {
          "indexed": true,
          "internalType": "uint256",
          "name": "id",
          "type": "uint256"
        },
        {
          "indexed": true,
          "internalType": "address",
          "name": "caller",
          "type": "address"
        },
        {
          "indexed": false,
          "internalType": "uint256",
          "name": "amount",
          "type": "uint256"
        }
      ],
      "name": "Committed",
      "type": "event"
    },
    {
      "anonymous": false,
      "inputs": [
        {
          "indexed": true,
          "internalType": "address",
          "name": "previousOwner",
          "type": "address"
        },
        {
          "indexed": true,
          "internalType": "address",
          "name": "newOwner",
          "type": "address"
        }
      ],
      "name": "OwnershipTransferred",
      "type": "event"
    },
    {
      "anonymous": false,
      "inputs": [
        {
          "indexed": false,
          "internalType": "uint256",
          "name": "id",
          "type": "uint256"
        }
      ],
      "name": "ProjectCancelled",
      "type": "event"
    },
    {
      "anonymous": false,
      "inputs": [
        {
          "indexed": true,
          "internalType": "uint256",
          "name": "id",
          "type": "uint256"
        },
        {
          "indexed": false,
          "internalType": "uint256",
          "name": "fund",
          "type": "uint256"
        },
        {
          "indexed": false,
          "internalType": "uint256",
          "name": "liquidity",
          "type": "uint256"
        }
      ],
      "name": "ProjectCompleted",
      "type": "event"
    },
    {
      "anonymous": false,
      "inputs": [
        {
          "indexed": false,
          "internalType": "uint256",
          "name": "id",
          "type": "uint256"
        },
        {
          "indexed": false,
          "internalType": "string",
          "name": "name",
          "type": "string"
        },
        {
          "indexed": false,
          "internalType": "string",
          "name": "description",
          "type": "string"
        },
        {
          "indexed": false,
          "internalType": "uint256",
          "name": "target",
          "type": "uint256"
        },
        {
          "indexed": true,
          "internalType": "uint32",
          "name": "startsAt",
          "type": "uint32"
        },
        {
          "indexed": true,
          "internalType": "uint32",
          "name": "endsAt",
          "type": "uint32"
        },
        {
          "indexed": true,
          "internalType": "address",
          "name": "author",
          "type": "address"
        }
      ],
      "name": "ProjectCreated",
      "type": "event"
    },
    {
      "anonymous": false,
      "inputs": [
        {
          "indexed": true,
          "internalType": "uint256",
          "name": "id",
          "type": "uint256"
        },
        {
          "indexed": false,
          "internalType": "address",
          "name": "tokenAddress",
          "type": "address"
        },
        {
          "indexed": false,
          "internalType": "string",
          "name": "name",
          "type": "string"
        },
        {
          "indexed": false,
          "internalType": "string",
          "name": "symbol",
          "type": "string"
        }
      ],
      "name": "TokenCreated",
      "type": "event"
    },
    {
      "anonymous": false,
      "inputs": [
        {
          "indexed": true,
          "internalType": "uint256",
          "name": "id",
          "type": "uint256"
        },
        {
          "indexed": true,
          "internalType": "address",
          "name": "caller",
          "type": "address"
        },
        {
          "indexed": false,
          "internalType": "uint256",
          "name": "amount",
          "type": "uint256"
        }
      ],
      "name": "Withdrawed",
      "type": "event"
    },
    {
      "inputs": [
        {
          "internalType": "uint256",
          "name": "_id",
          "type": "uint256"
        }
      ],
      "name": "cancelProject",
      "outputs": [],
      "stateMutability": "nonpayable",
      "type": "function"
    },
    {
      "inputs": [
        {
          "internalType": "uint256",
          "name": "_id",
          "type": "uint256"
        }
      ],
      "name": "claimProjectTokens",
      "outputs": [],
      "stateMutability": "nonpayable",
      "type": "function"
    },
    {
      "inputs": [
        {
          "internalType": "uint256",
          "name": "_id",
          "type": "uint256"
        }
      ],
      "name": "commitOnProject",
      "outputs": [],
      "stateMutability": "payable",
      "type": "function"
    },
    {
      "inputs": [
        {
          "internalType": "uint256",
          "name": "",
          "type": "uint256"
        },
        {
          "internalType": "address",
          "name": "",
          "type": "address"
        }
      ],
      "name": "commitments",
      "outputs": [
        {
          "internalType": "uint256",
          "name": "",
          "type": "uint256"
        }
      ],
      "stateMutability": "view",
      "type": "function"
    },
    {
      "inputs": [],
      "name": "count",
      "outputs": [
        {
          "internalType": "uint256",
          "name": "",
          "type": "uint256"
        }
      ],
      "stateMutability": "view",
      "type": "function"
    },
    {
      "inputs": [
        {
          "internalType": "address",
          "name": "_authorAddress",
          "type": "address"
        },
        {
          "internalType": "string",
          "name": "_name",
          "type": "string"
        },
        {
          "internalType": "string",
          "name": "_symbol",
          "type": "string"
        },
        {
          "internalType": "string",
          "name": "_description",
          "type": "string"
        },
        {
          "internalType": "uint256",
          "name": "_target",
          "type": "uint256"
        },
        {
          "internalType": "uint32",
          "name": "_startsAt",
          "type": "uint32"
        },
        {
          "internalType": "uint32",
          "name": "_endsAt",
          "type": "uint32"
        }
      ],
      "name": "createProject",
      "outputs": [],
      "stateMutability": "nonpayable",
      "type": "function"
    },
    {
      "inputs": [
        {
          "internalType": "uint256",
          "name": "_id",
          "type": "uint256"
        }
      ],
      "name": "createProjectToken",
      "outputs": [],
      "stateMutability": "nonpayable",
      "type": "function"
    },
    {
      "inputs": [],
      "name": "owner",
      "outputs": [
        {
          "internalType": "address",
          "name": "",
          "type": "address"
        }
      ],
      "stateMutability": "view",
      "type": "function"
    },
    {
      "inputs": [
        {
          "internalType": "uint256",
          "name": "",
          "type": "uint256"
        }
      ],
      "name": "projects",
      "outputs": [
        {
          "internalType": "string",
          "name": "name",
          "type": "string"
        },
        {
          "internalType": "string",
          "name": "description",
          "type": "string"
        },
        {
          "internalType": "string",
          "name": "symbol",
          "type": "string"
        },
        {
          "internalType": "uint256",
          "name": "target",
          "type": "uint256"
        },
        {
          "internalType": "uint256",
          "name": "fund",
          "type": "uint256"
        },
        {
          "internalType": "uint256",
          "name": "liquidity",
          "type": "uint256"
        },
        {
          "internalType": "uint32",
          "name": "startsAt",
          "type": "uint32"
        },
        {
          "internalType": "uint32",
          "name": "endsAt",
          "type": "uint32"
        },
        {
          "internalType": "bool",
          "name": "completed",
          "type": "bool"
        },
        {
          "internalType": "address",
          "name": "authorAddress",
          "type": "address"
        },
        {
          "internalType": "address",
          "name": "tokenAddress",
          "type": "address"
        }
      ],
      "stateMutability": "view",
      "type": "function"
    },
    {
      "inputs": [],
      "name": "renounceOwnership",
      "outputs": [],
      "stateMutability": "nonpayable",
      "type": "function"
    },
    {
      "inputs": [
        {
          "internalType": "address",
          "name": "newOwner",
          "type": "address"
        }
      ],
      "name": "transferOwnership",
      "outputs": [],
      "stateMutability": "nonpayable",
      "type": "function"
    },
    {
      "inputs": [
        {
          "internalType": "uint256",
          "name": "_id",
          "type": "uint256"
        }
      ],
      "name": "withdrawOnProject",
      "outputs": [],
      "stateMutability": "nonpayable",
      "type": "function"
    }
  ],
  "bytecode": "0x60806040523480156200001157600080fd5b50604051620020c7380380620020c78339810160408190526200003491620000ef565b6200003f3362000082565b600180546001600160a01b039485166001600160a01b03199182161790915560028054938516938216939093179092556003805491909316911617905562000139565b600080546001600160a01b038381166001600160a01b0319831681178455604051919092169283917f8be0079c531659141344cd1fd0a4f28419497f9722a3daafe3b4186f6b6457e09190a35050565b80516001600160a01b0381168114620000ea57600080fd5b919050565b6000806000606084860312156200010557600080fd5b6200011084620000d2565b92506200012060208501620000d2565b91506200013060408501620000d2565b90509250925092565b611f7e80620001496000396000f3fe6080604052600436106100a75760003560e01c80636bf5d328116100645780636bf5d32814610181578063715018a6146101a15780638da5cb5b146101b6578063e90d4c06146101de578063f2fde38b14610216578063fdb684e71461023657600080fd5b806306661abd146100ac578063107046bd146100d557806316509ee21461010c578063249411471461012157806344a9ae8c1461014157806360ae7c3b14610161575b600080fd5b3480156100b857600080fd5b506100c260045481565b6040519081526020015b60405180910390f35b3480156100e157600080fd5b506100f56100f036600461180d565b610256565b6040516100cc9b9a9998979695949392919061186c565b61011f61011a36600461180d565b610462565b005b34801561012d57600080fd5b5061011f61013c36600461180d565b61087b565b34801561014d57600080fd5b5061011f61015c36600461180d565b610a61565b34801561016d57600080fd5b5061011f61017c36600461180d565b610c31565b34801561018d57600080fd5b5061011f61019c36600461180d565b610e04565b3480156101ad57600080fd5b5061011f6112b1565b3480156101c257600080fd5b506000546040516001600160a01b0390911681526020016100cc565b3480156101ea57600080fd5b506100c26101f9366004611916565b600660209081526000928352604080842090915290825290205481565b34801561022257600080fd5b5061011f610231366004611946565b6112c5565b34801561024257600080fd5b5061011f6102513660046119cc565b61133e565b60056020526000908152604090208054819061027190611aa2565b80601f016020809104026020016040519081016040528092919081815260200182805461029d90611aa2565b80156102ea5780601f106102bf576101008083540402835291602001916102ea565b820191906000526020600020905b8154815290600101906020018083116102cd57829003601f168201915b5050505050908060010180546102ff90611aa2565b80601f016020809104026020016040519081016040528092919081815260200182805461032b90611aa2565b80156103785780601f1061034d57610100808354040283529160200191610378565b820191906000526020600020905b81548152906001019060200180831161035b57829003601f168201915b50505050509080600201805461038d90611aa2565b80601f01602080910402602001604051908101604052809291908181526020018280546103b990611aa2565b80156104065780601f106103db57610100808354040283529160200191610406565b820191906000526020600020905b8154815290600101906020018083116103e957829003601f168201915b505050600384015460048501546005860154600687015460079097015495969295919450925063ffffffff80831692600160201b81049091169160ff600160401b830416916001600160a01b03600160481b909104811691168b565b6000818152600560205260409020600601548190600160201b900463ffffffff164211156104ab5760405162461bcd60e51b81526004016104a290611adc565b60405180910390fd5b600081815260056020526040902060060154600160401b900460ff16156104e45760405162461bcd60e51b81526004016104a290611b03565b662386f26fc1000034101561052c5760405162461bcd60e51b815260206004820152600e60248201526d36b4b710181718189032ba3432b960911b60448201526064016104a2565b6000828152600560205260408082208151610160810190925280548290829061055490611aa2565b80601f016020809104026020016040519081016040528092919081815260200182805461058090611aa2565b80156105cd5780601f106105a2576101008083540402835291602001916105cd565b820191906000526020600020905b8154815290600101906020018083116105b057829003601f168201915b505050505081526020016001820180546105e690611aa2565b80601f016020809104026020016040519081016040528092919081815260200182805461061290611aa2565b801561065f5780601f106106345761010080835404028352916020019161065f565b820191906000526020600020905b81548152906001019060200180831161064257829003601f168201915b5050505050815260200160028201805461067890611aa2565b80601f01602080910402602001604051908101604052809291908181526020018280546106a490611aa2565b80156106f15780601f106106c6576101008083540402835291602001916106f1565b820191906000526020600020905b8154815290600101906020018083116106d457829003601f168201915b5050509183525050600382015460208201526004820154604082015260058201546060820152600682015463ffffffff8082166080840152600160201b82041660a083015260ff600160401b820416151560c08301526001600160a01b03600160481b909104811660e083015260079092015490911661010090910152905060008061077c346116d5565b9150915081836080018181516107929190611b44565b90525060a0830180518291906107a9908390611b44565b9052506000858152600660209081526040808320338452909152812080543492906107d5908490611b44565b9091555050604051348152339086907f245cbccbc6875e4b0475a653568fd4f7c2dae5fb8929e33c0d66dc530ba11b009060200160405180910390a38260600151836080015110610874576001610100840152608083015160a084015160405187927ff418560cae8df9d7d7fb63eca7a926821d509b9751b541b3aac4249c34bafa639261086b92918252602082015260400190565b60405180910390a25b5050505050565b6000818152600560205260409020600601548190600160481b90046001600160a01b031633146108da5760405162461bcd60e51b815260206004820152600a6024820152692737ba1030baba3437b960b11b60448201526064016104a2565b6000828152600560205260409020600601548290600160201b900463ffffffff1642111561091a5760405162461bcd60e51b81526004016104a290611adc565b600081815260056020526040902060060154600160401b900460ff16156109535760405162461bcd60e51b81526004016104a290611b03565b6000838152600560205260409020600601544263ffffffff909116116109bb5760405162461bcd60e51b815260206004820152601760248201527f50726f6a65637420616c7265616479207374617274656400000000000000000060448201526064016104a2565b6000838152600560205260408120906109d482826117bf565b6109e26001830160006117bf565b6109f06002830160006117bf565b506000600382018190556004820181905560058201556006810180546001600160e81b031916905560070180546001600160a01b03191690556040518381527fe3805ed669490875ae87c5c8b1ad6ecca0e5e67305a833926d0d4317c4822fc09060200160405180910390a1505050565b6000818152600560205260409020600601548190600160201b900463ffffffff16421115610aa15760405162461bcd60e51b81526004016104a290611adc565b600081815260056020526040902060060154600160401b900460ff1615610ada5760405162461bcd60e51b81526004016104a290611b03565b6000828152600660209081526040808320338452909152812054839180610b00836116d5565b600088815260056020526040812060040180549395509193508492610b26908490611b5d565b909155505060008681526005602081905260408220018054839290610b4c908490611b5d565b909155505060008681526006602090815260408083203380855292528083208390555185908381818185875af1925050503d8060008114610ba9576040519150601f19603f3d011682016040523d82523d6000602084013e610bae565b606091505b5050905080610bf15760405162461bcd60e51b815260206004820152600f60248201526e1dda5d1a191c985dc819985a5b1959608a1b60448201526064016104a2565b604051848152339088907f7fd902d6e186354d1617b957fc4cb4a144f44a19cc5c4525cfb772d707c405c29060200160405180910390a350505050505050565b6000818152600560205260409020600601548190600160201b900463ffffffff16421180610c775750600081815260056020526040902060060154600160401b900460ff165b610cb05760405162461bcd60e51b815260206004820152600a6024820152691b9bdd0818db1bdcd95960b21b60448201526064016104a2565b60008281526006602090815260408083203384529091528120548391610cd5826116d5565b50600086815260056020526040812060040154919250908290610cf9906023611b70565b610d039190611b92565b6002546000888152600560205260409081902060070154905163e486033960e01b81526001600160a01b039182166004820152929350169063e4860339906024016020604051808303816000875af1158015610d63573d6000803e3d6000fd5b505050506040513d601f19601f82011682018060405250810190610d879190611ba9565b60405163a9059cbb60e01b8152336004820152602481018390526001600160a01b03919091169063a9059cbb906044015b6020604051808303816000875af1158015610dd7573d6000803e3d6000fd5b505050506040513d601f19601f82011682018060405250810190610dfb9190611bc6565b50505050505050565b6000818152600560205260409020600601548190600160481b90046001600160a01b03163314610e635760405162461bcd60e51b815260206004820152600a6024820152692737ba1030baba3437b960b11b60448201526064016104a2565b6000828152600560205260409020600601548290600160201b900463ffffffff16421180610ea95750600081815260056020526040902060060154600160401b900460ff165b610ee25760405162461bcd60e51b815260206004820152600a6024820152691b9bdd0818db1bdcd95960b21b60448201526064016104a2565b60008381526005602052604080822081516101608101909252805482908290610f0a90611aa2565b80601f0160208091040260200160405190810160405280929190818152602001828054610f3690611aa2565b8015610f835780601f10610f5857610100808354040283529160200191610f83565b820191906000526020600020905b815481529060010190602001808311610f6657829003601f168201915b50505050508152602001600182018054610f9c90611aa2565b80601f0160208091040260200160405190810160405280929190818152602001828054610fc890611aa2565b80156110155780601f10610fea57610100808354040283529160200191611015565b820191906000526020600020905b815481529060010190602001808311610ff857829003601f168201915b5050505050815260200160028201805461102e90611aa2565b80601f016020809104026020016040519081016040528092919081815260200182805461105a90611aa2565b80156110a75780601f1061107c576101008083540402835291602001916110a7565b820191906000526020600020905b81548152906001019060200180831161108a57829003601f168201915b50505091835250506003820154602082015260048083015460408084019190915260058401546060840152600684015463ffffffff8082166080860152600160201b82041660a085015260ff600160401b820416151560c08501526001600160a01b03600160481b909104811660e085015260079094015484166101009093019290925260025484518584015161012087015194516325b211eb60e11b81529697506000969290951694634b6423d69461117094929391923092601b9291839160239101611be8565b6020604051808303816000875af115801561118f573d6000803e3d6000fd5b505050506040513d601f19601f820116820180604052508101906111b39190611ba9565b9050847fcc6bab703d778894c5a2492ec687c950f3a2b101a32ca70efec1a6d547285c4982846000015185604001516040516111f193929190611c42565b60405180910390a260035460015460405163e343361560e01b81526001600160a01b0384811660048301529182166024820152600092919091169063e34336159060440160408051808303816000875af1158015611253573d6000803e3d6000fd5b505050506040513d601f19601f820116820180604052508101906112779190611c82565b5060405163a9059cbb60e01b81526001600160a01b038083166004830152601b60248301529192509083169063a9059cbb90604401610db8565b6112b9611715565b6112c3600061176f565b565b6112cd611715565b6001600160a01b0381166113325760405162461bcd60e51b815260206004820152602660248201527f4f776e61626c653a206e6577206f776e657220697320746865207a65726f206160448201526564647265737360d01b60648201526084016104a2565b61133b8161176f565b50565b611346611715565b428263ffffffff1610156113915760405162461bcd60e51b8152602060048201526012602482015271496e76616c69642073746172742074696d6560701b60448201526064016104a2565b8163ffffffff168163ffffffff16116113df5760405162461bcd60e51b815260206004820152601060248201526f496e76616c696420656e642074696d6560801b60448201526064016104a2565b6113ec62093a8042611b44565b8163ffffffff1611156114415760405162461bcd60e51b815260206004820152601960248201527f4d6178696d756d206475726174696f6e2065786365656465640000000000000060448201526064016104a2565b6004805490600061145183611cb0565b91905055506040518061016001604052808a8a8080601f016020809104026020016040519081016040528093929190818152602001838380828437600092019190915250505090825250604080516020601f890181900481028201810190925287815291810191908890889081908401838280828437600092019190915250505090825250604080516020601f8b0181900481028201810190925289815291810191908a908a90819084018382808284376000920182905250938552505050602080830187905260408084018390526060840183905263ffffffff8088166080860152861660a085015260c084018390526001600160a01b038f1660e085015261010090930182905260045482526005905220815181906115729082611d2e565b50602082015160018201906115879082611d2e565b506040820151600282019061159c9082611d2e565b5060608201516003820155608082015160048083019190915560a0830151600583015560c083015160068301805460e086015161010087015161012088015163ffffffff95861667ffffffffffffffff1990941693909317600160201b928616929092029190911768010000000000000000600160e81b031916600160401b911515919091027fffffff0000000000000000000000000000000000000000ffffffffffffffffff1617600160481b6001600160a01b03928316021790915561014090940151600790930180546001600160a01b0319169385169390931790925554604051928d1692848316928616917f7b326102dcfe2b1310763f0f085e5cc5ea850382eb6f93e4ddc906f17f773d38916116c191908f908f908d908d908d90611e17565b60405180910390a450505050505050505050565b6000808060146116e6600286611f3c565b6116f09190611b70565b9050600082611700600287611f3c565b61170a9190611b5d565b959194509092505050565b6000546001600160a01b031633146112c35760405162461bcd60e51b815260206004820181905260248201527f4f776e61626c653a2063616c6c6572206973206e6f7420746865206f776e657260448201526064016104a2565b600080546001600160a01b038381166001600160a01b0319831681178455604051919092169283917f8be0079c531659141344cd1fd0a4f28419497f9722a3daafe3b4186f6b6457e09190a35050565b5080546117cb90611aa2565b6000825580601f106117db575050565b601f01602090049060005260206000209081019061133b91905b8082111561180957600081556001016117f5565b5090565b60006020828403121561181f57600080fd5b5035919050565b6000815180845260005b8181101561184c57602081850181015186830182015201611830565b506000602082860101526020601f19601f83011685010191505092915050565b60006101608083526118808184018f611826565b90508281036020840152611894818e611826565b905082810360408401526118a8818d611826565b606084019b909b525050608081019790975260a087019590955263ffffffff93841660c08701529190921660e08501529015156101008401526001600160a01b0390811661012084015216610140909101529392505050565b6001600160a01b038116811461133b57600080fd5b6000806040838503121561192957600080fd5b82359150602083013561193b81611901565b809150509250929050565b60006020828403121561195857600080fd5b813561196381611901565b9392505050565b60008083601f84011261197c57600080fd5b50813567ffffffffffffffff81111561199457600080fd5b6020830191508360208285010111156119ac57600080fd5b9250929050565b803563ffffffff811681146119c757600080fd5b919050565b60008060008060008060008060008060e08b8d0312156119eb57600080fd5b8a356119f681611901565b995060208b013567ffffffffffffffff80821115611a1357600080fd5b611a1f8e838f0161196a565b909b50995060408d0135915080821115611a3857600080fd5b611a448e838f0161196a565b909950975060608d0135915080821115611a5d57600080fd5b50611a6a8d828e0161196a565b90965094505060808b01359250611a8360a08c016119b3565b9150611a9160c08c016119b3565b90509295989b9194979a5092959850565b600181811c90821680611ab657607f821691505b602082108103611ad657634e487b7160e01b600052602260045260246000fd5b50919050565b6020808252600d908201526c105b1c9958591e48195b991959609a1b604082015260600190565b602080825260119082015270141c9bda9958dd0818dbdb5c1b195d1959607a1b604082015260600190565b634e487b7160e01b600052601160045260246000fd5b80820180821115611b5757611b57611b2e565b92915050565b81810381811115611b5757611b57611b2e565b600082611b8d57634e487b7160e01b600052601260045260246000fd5b500490565b8082028115828204841417611b5757611b57611b2e565b600060208284031215611bbb57600080fd5b815161196381611901565b600060208284031215611bd857600080fd5b8151801515811461196357600080fd5b60e081526000611bfb60e083018a611826565b8281036020840152611c0d818a611826565b6001600160a01b0398891660408501526060840197909752505092909416608083015260a082015260c0019190915292915050565b6001600160a01b0384168152606060208201819052600090611c6690830185611826565b8281036040840152611c788185611826565b9695505050505050565b60008060408385031215611c9557600080fd5b8251611ca081611901565b6020939093015192949293505050565b600060018201611cc257611cc2611b2e565b5060010190565b634e487b7160e01b600052604160045260246000fd5b601f821115611d2957600081815260208120601f850160051c81016020861015611d065750805b601f850160051c820191505b81811015611d2557828155600101611d12565b5050505b505050565b815167ffffffffffffffff811115611d4857611d48611cc9565b611d5c81611d568454611aa2565b84611cdf565b602080601f831160018114611d915760008415611d795750858301515b600019600386901b1c1916600185901b178555611d25565b600085815260208120601f198616915b82811015611dc057888601518255948401946001909101908401611da1565b5085821015611dde5787850151600019600388901b60f8161c191681555b5050505050600190811b01905550565b81835281816020850137506000828201602090810191909152601f909101601f19169091010190565b868152608060208201526000611e31608083018789611dee565b8281036040840152611e44818688611dee565b915050826060830152979650505050505050565b600181815b80851115611e93578160001904821115611e7957611e79611b2e565b80851615611e8657918102915b93841c9390800290611e5d565b509250929050565b600082611eaa57506001611b57565b81611eb757506000611b57565b8160018114611ecd5760028114611ed757611ef3565b6001915050611b57565b60ff841115611ee857611ee8611b2e565b50506001821b611b57565b5060208310610133831016604e8410600b8410161715611f16575081810a611b57565b611f208383611e58565b8060001904821115611f3457611f34611b2e565b029392505050565b60006119638383611e9b56fea26469706673582212205a10517fd486211a373df0b7d48c91143eabd6b3428d8cf79e52fbf950ed030064736f6c63430008110033",
  "linkReferences": {},
  "deployedLinkReferences": {}
}