{
  "_format": "hh-sol-artifact-1",
  "contractName": "Projects",
  "sourceName": "contracts/Projects.sol",
  "abi": [
    {
      "anonymous": false,
      "inputs": [
        {
          "indexed": true,
          "internalType": "uint256",
          "name": "id",
          "type": "uint256"
        },
        {
          "indexed": true,
          "internalType": "address",
          "name": "caller",
          "type": "address"
        },
        {
          "indexed": false,
          "internalType": "uint256",
          "name": "amount",
          "type": "uint256"
        }
      ],
      "name": "Committed",
      "type": "event"
    },
    {
      "anonymous": false,
      "inputs": [
        {
          "indexed": true,
          "internalType": "address",
          "name": "previousOwner",
          "type": "address"
        },
        {
          "indexed": true,
          "internalType": "address",
          "name": "newOwner",
          "type": "address"
        }
      ],
      "name": "OwnershipTransferred",
      "type": "event"
    },
    {
      "anonymous": false,
      "inputs": [
        {
          "indexed": false,
          "internalType": "uint256",
          "name": "id",
          "type": "uint256"
        },
        {
          "indexed": false,
          "internalType": "string",
          "name": "name",
          "type": "string"
        },
        {
          "indexed": false,
          "internalType": "string",
          "name": "symbol",
          "type": "string"
        },
        {
          "indexed": false,
          "internalType": "string",
          "name": "description",
          "type": "string"
        },
        {
          "indexed": false,
          "internalType": "uint256",
          "name": "target",
          "type": "uint256"
        },
        {
          "indexed": false,
          "internalType": "uint256",
          "name": "minInvest",
          "type": "uint256"
        },
        {
          "indexed": false,
          "internalType": "uint256",
          "name": "maxInvest",
          "type": "uint256"
        },
        {
          "indexed": false,
          "internalType": "uint32",
          "name": "totalSupply",
          "type": "uint32"
        },
        {
          "indexed": true,
          "internalType": "address",
          "name": "authorAddress",
          "type": "address"
        }
      ],
      "name": "ProjectCreated",
      "type": "event"
    },
    {
      "anonymous": false,
      "inputs": [
        {
          "indexed": true,
          "internalType": "uint256",
          "name": "id",
          "type": "uint256"
        },
        {
          "indexed": false,
          "internalType": "enum Projects.ProjectStatus",
          "name": "status",
          "type": "uint8"
        }
      ],
      "name": "ProjectStatusChanged",
      "type": "event"
    },
    {
      "anonymous": false,
      "inputs": [
        {
          "indexed": true,
          "internalType": "uint256",
          "name": "id",
          "type": "uint256"
        },
        {
          "indexed": true,
          "internalType": "address",
          "name": "caller",
          "type": "address"
        },
        {
          "indexed": false,
          "internalType": "uint256",
          "name": "amount",
          "type": "uint256"
        }
      ],
      "name": "Withdrawed",
      "type": "event"
    },
    {
      "inputs": [
        {
          "internalType": "uint256",
          "name": "_id",
          "type": "uint256"
        }
      ],
      "name": "abortProject",
      "outputs": [],
      "stateMutability": "nonpayable",
      "type": "function"
    },
    {
      "inputs": [
        {
          "internalType": "uint256",
          "name": "_id",
          "type": "uint256"
        }
      ],
      "name": "commitOnProject",
      "outputs": [],
      "stateMutability": "payable",
      "type": "function"
    },
    {
      "inputs": [
        {
          "internalType": "uint256",
          "name": "",
          "type": "uint256"
        },
        {
          "internalType": "address",
          "name": "",
          "type": "address"
        }
      ],
      "name": "commitments",
      "outputs": [
        {
          "internalType": "uint256",
          "name": "",
          "type": "uint256"
        }
      ],
      "stateMutability": "view",
      "type": "function"
    },
    {
      "inputs": [],
      "name": "count",
      "outputs": [
        {
          "internalType": "uint256",
          "name": "",
          "type": "uint256"
        }
      ],
      "stateMutability": "view",
      "type": "function"
    },
    {
      "inputs": [
        {
          "internalType": "address",
          "name": "_authorAddress",
          "type": "address"
        },
        {
          "internalType": "string",
          "name": "_name",
          "type": "string"
        },
        {
          "internalType": "string",
          "name": "_symbol",
          "type": "string"
        },
        {
          "internalType": "string",
          "name": "_description",
          "type": "string"
        },
        {
          "internalType": "uint256",
          "name": "_target",
          "type": "uint256"
        },
        {
          "internalType": "uint256",
          "name": "_minInvest",
          "type": "uint256"
        },
        {
          "internalType": "uint256",
          "name": "_maxInvest",
          "type": "uint256"
        },
        {
          "internalType": "uint32",
          "name": "_totalSupply",
          "type": "uint32"
        }
      ],
      "name": "createProject",
      "outputs": [],
      "stateMutability": "nonpayable",
      "type": "function"
    },
    {
      "inputs": [],
      "name": "owner",
      "outputs": [
        {
          "internalType": "address",
          "name": "",
          "type": "address"
        }
      ],
      "stateMutability": "view",
      "type": "function"
    },
    {
      "inputs": [
        {
          "internalType": "uint256",
          "name": "",
          "type": "uint256"
        }
      ],
      "name": "projects",
      "outputs": [
        {
          "internalType": "string",
          "name": "name",
          "type": "string"
        },
        {
          "internalType": "string",
          "name": "symbol",
          "type": "string"
        },
        {
          "internalType": "string",
          "name": "description",
          "type": "string"
        },
        {
          "internalType": "uint256",
          "name": "id",
          "type": "uint256"
        },
        {
          "internalType": "uint256",
          "name": "fund",
          "type": "uint256"
        },
        {
          "internalType": "uint256",
          "name": "target",
          "type": "uint256"
        },
        {
          "internalType": "uint256",
          "name": "minInvest",
          "type": "uint256"
        },
        {
          "internalType": "uint256",
          "name": "maxInvest",
          "type": "uint256"
        },
        {
          "internalType": "uint32",
          "name": "totalSupply",
          "type": "uint32"
        },
        {
          "internalType": "enum Projects.ProjectStatus",
          "name": "status",
          "type": "uint8"
        },
        {
          "internalType": "address",
          "name": "authorAddress",
          "type": "address"
        },
        {
          "internalType": "address",
          "name": "tokenAddress",
          "type": "address"
        }
      ],
      "stateMutability": "view",
      "type": "function"
    },
    {
      "inputs": [],
      "name": "renounceOwnership",
      "outputs": [],
      "stateMutability": "nonpayable",
      "type": "function"
    },
    {
      "inputs": [
        {
          "internalType": "address",
          "name": "newOwner",
          "type": "address"
        }
      ],
      "name": "transferOwnership",
      "outputs": [],
      "stateMutability": "nonpayable",
      "type": "function"
    },
    {
      "inputs": [
        {
          "internalType": "uint256",
          "name": "_id",
          "type": "uint256"
        }
      ],
      "name": "withdrawOnProject",
      "outputs": [],
      "stateMutability": "nonpayable",
      "type": "function"
    }
  ],
  "bytecode": "0x608060405234801561001057600080fd5b5061001a3361001f565b61006f565b600080546001600160a01b038381166001600160a01b0319831681178455604051919092169283917f8be0079c531659141344cd1fd0a4f28419497f9722a3daafe3b4186f6b6457e09190a35050565b61121f8061007e6000396000f3fe6080604052600436106100915760003560e01c8063715018a611610059578063715018a61461014c5780638da5cb5b14610161578063a3bfb7bd14610189578063e90d4c06146101a9578063f2fde38b146101e157600080fd5b806306661abd14610096578063107046bd146100bf57806316509ee2146100f757806344a9ae8c1461010c5780634f8d7dc31461012c575b600080fd5b3480156100a257600080fd5b506100ac60015481565b6040519081526020015b60405180910390f35b3480156100cb57600080fd5b506100df6100da366004610c78565b610201565b6040516100b69c9b9a99989796959493929190610d0f565b61010a610105366004610c78565b610412565b005b34801561011857600080fd5b5061010a610127366004610c78565b61061d565b34801561013857600080fd5b5061010a610147366004610e2c565b6107e0565b34801561015857600080fd5b5061010a610a86565b34801561016d57600080fd5b506000546040516001600160a01b0390911681526020016100b6565b34801561019557600080fd5b5061010a6101a4366004610c78565b610a9a565b3480156101b557600080fd5b506100ac6101c4366004610f08565b600360209081526000928352604080842090915290825290205481565b3480156101ed57600080fd5b5061010a6101fc366004610f34565b610b55565b60026020526000908152604090208054819061021c90610f56565b80601f016020809104026020016040519081016040528092919081815260200182805461024890610f56565b80156102955780601f1061026a57610100808354040283529160200191610295565b820191906000526020600020905b81548152906001019060200180831161027857829003601f168201915b5050505050908060010180546102aa90610f56565b80601f01602080910402602001604051908101604052809291908181526020018280546102d690610f56565b80156103235780601f106102f857610100808354040283529160200191610323565b820191906000526020600020905b81548152906001019060200180831161030657829003601f168201915b50505050509080600201805461033890610f56565b80601f016020809104026020016040519081016040528092919081815260200182805461036490610f56565b80156103b15780601f10610386576101008083540402835291602001916103b1565b820191906000526020600020905b81548152906001019060200180831161039457829003601f168201915b5050506003840154600485015460058601546006870154600788015460088901546009909901549798949793965091945092909163ffffffff82169160ff640100000000820416916001600160a01b0365010000000000909204821691168c565b80600080600083815260026020526040902060080154640100000000900460ff16600381111561044457610444610cd7565b1461046a5760405162461bcd60e51b815260040161046190610f90565b60405180910390fd5b600083815260026020908152604080832060068101546003845282852033865290935292205461049a9034610fd2565b10156104d55760405162461bcd60e51b815260206004820152600a60248201526909cdee840cadcdeeaced60b31b6044820152606401610461565b600781015460008581526003602090815260408083203384529091529020546104fe9034610fd2565b11156105375760405162461bcd60e51b81526020600482015260086024820152670a8dede40daeac6d60c31b6044820152606401610461565b3481600401600082825461054b9190610fd2565b9091555050600084815260036020908152604080832033845290915281208054349290610579908490610fd2565b9091555050604051348152339085907f245cbccbc6875e4b0475a653568fd4f7c2dae5fb8929e33c0d66dc530ba11b009060200160405180910390a380600501548160040154106106175760088101805464ff00000000191664020000000017905560405184907f35872be4c2085eaf9ca9a10d056eefec79968f825846792411ede75f331e93929061060e90600290610feb565b60405180910390a25b50505050565b80600280600083815260026020526040902060080154640100000000900460ff16600381111561064f5761064f610cd7565b1061066c5760405162461bcd60e51b815260040161046190610f90565b600083815260036020908152604080832033845290915290205483906106c45760405162461bcd60e51b815260206004820152600d60248201526c139bc818dbdb5b5a5d1b595b9d609a1b6044820152606401610461565b6000848152600360209081526040808320338452825280832054878452600290925282206004018054919283926106fc908490610ff9565b909155505060008581526003602090815260408083203380855292528083208390555183908381818185875af1925050503d8060008114610759576040519150601f19603f3d011682016040523d82523d6000602084013e61075e565b606091505b50509050806107a15760405162461bcd60e51b815260206004820152600f60248201526e1dda5d1a191c985dc819985a5b1959608a1b6044820152606401610461565b604051828152339087907f7fd902d6e186354d1617b957fc4cb4a144f44a19cc5c4525cfb772d707c405c29060200160405180910390a3505050505050565b6107e8610bce565b600180549060006107f88361100c565b91905055506040518061018001604052808b8b8080601f016020809104026020016040519081016040528093929190818152602001838380828437600092019190915250505090825250604080516020601f8c018190048102820181019092528a815291810191908b908b9081908401838280828437600092019190915250505090825250604080516020601f8a01819004810282018101909252888152918101919089908990819084018382808284376000920182905250938552505060015460208401525060408201819052606082018790526080820186905260a0820185905263ffffffff841660c083015260e09091019081526001600160a01b038d1660208083019190915260006040928301819052600154815260029091522081518190610925908261108a565b506020820151600182019061093a908261108a565b506040820151600282019061094f908261108a565b5060608201516003808301919091556080830151600483015560a0830151600583015560c0830151600683015560e0830151600783015561010083015160088301805463ffffffff90921663ffffffff1983168117825561012086015193919264ffffffffff191617906401000000009084908111156109d1576109d1610cd7565b021790555061014082015160088201805465010000000000600160c81b031916650100000000006001600160a01b039384160217905561016090920151600990910180546001600160a01b031916918316919091179055600154604051918d16917f316489c0d9f70d001ecba3e93e6000f7f0d031c42208d615de6a45067cc0a7fa91610a71918e908e908e908e908e908e908e908e908e908e90611173565b60405180910390a25050505050505050505050565b610a8e610bce565b610a986000610c28565b565b610aa2610bce565b80600080600083815260026020526040902060080154640100000000900460ff166003811115610ad457610ad4610cd7565b14610af15760405162461bcd60e51b815260040161046190610f90565b60008381526002602052604090819020600801805464ff0000000019166401000000001790555183907f35872be4c2085eaf9ca9a10d056eefec79968f825846792411ede75f331e939290610b4890600190610feb565b60405180910390a2505050565b610b5d610bce565b6001600160a01b038116610bc25760405162461bcd60e51b815260206004820152602660248201527f4f776e61626c653a206e6577206f776e657220697320746865207a65726f206160448201526564647265737360d01b6064820152608401610461565b610bcb81610c28565b50565b6000546001600160a01b03163314610a985760405162461bcd60e51b815260206004820181905260248201527f4f776e61626c653a2063616c6c6572206973206e6f7420746865206f776e65726044820152606401610461565b600080546001600160a01b038381166001600160a01b0319831681178455604051919092169283917f8be0079c531659141344cd1fd0a4f28419497f9722a3daafe3b4186f6b6457e09190a35050565b600060208284031215610c8a57600080fd5b5035919050565b6000815180845260005b81811015610cb757602081850181015186830182015201610c9b565b506000602082860101526020601f19601f83011685010191505092915050565b634e487b7160e01b600052602160045260246000fd5b60048110610d0b57634e487b7160e01b600052602160045260246000fd5b9052565b61018081526000610d2461018083018f610c91565b8281036020840152610d36818f610c91565b90508281036040840152610d4a818e610c91565b9150508a60608301528960808301528860a08301528760c08301528660e083015263ffffffff8616610100830152610d86610120830186610ced565b6001600160a01b0393841661014083015291909216610160909201919091529a9950505050505050505050565b80356001600160a01b0381168114610dca57600080fd5b919050565b60008083601f840112610de157600080fd5b50813567ffffffffffffffff811115610df957600080fd5b602083019150836020828501011115610e1157600080fd5b9250929050565b803563ffffffff81168114610dca57600080fd5b60008060008060008060008060008060006101008c8e031215610e4e57600080fd5b610e578c610db3565b9a5067ffffffffffffffff8060208e01351115610e7357600080fd5b610e838e60208f01358f01610dcf565b909b50995060408d0135811015610e9957600080fd5b610ea98e60408f01358f01610dcf565b909950975060608d0135811015610ebf57600080fd5b50610ed08d60608e01358e01610dcf565b909650945060808c0135935060a08c0135925060c08c01359150610ef660e08d01610e18565b90509295989b509295989b9093969950565b60008060408385031215610f1b57600080fd5b82359150610f2b60208401610db3565b90509250929050565b600060208284031215610f4657600080fd5b610f4f82610db3565b9392505050565b600181811c90821680610f6a57607f821691505b602082108103610f8a57634e487b7160e01b600052602260045260246000fd5b50919050565b6020808252601290820152714261642070726f6a6563742073746174757360701b604082015260600190565b634e487b7160e01b600052601160045260246000fd5b80820180821115610fe557610fe5610fbc565b92915050565b60208101610fe58284610ced565b81810381811115610fe557610fe5610fbc565b60006001820161101e5761101e610fbc565b5060010190565b634e487b7160e01b600052604160045260246000fd5b601f82111561108557600081815260208120601f850160051c810160208610156110625750805b601f850160051c820191505b818110156110815782815560010161106e565b5050505b505050565b815167ffffffffffffffff8111156110a4576110a4611025565b6110b8816110b28454610f56565b8461103b565b602080601f8311600181146110ed57600084156110d55750858301515b600019600386901b1c1916600185901b178555611081565b600085815260208120601f198616915b8281101561111c578886015182559484019460019091019084016110fd565b508582101561113a5787850151600019600388901b60f8161c191681555b5050505050600190811b01905550565b81835281816020850137506000828201602090810191909152601f909101601f19169091010190565b60006101008d835280602084015261118e8184018d8f61114a565b905082810360408401526111a3818b8d61114a565b905082810360608401526111b881898b61114a565b9150508560808301528460a08301528360c083015263ffffffff831660e08301529c9b50505050505050505050505056fea264697066735822122062578027e84579cea7806b9633fcd745fc1522d95ebc8c46dd641c7112c3401d64736f6c63430008110033",
  "linkReferences": {},
  "deployedLinkReferences": {}
}