{
  "address": "0xEc85580e26A4b32810771EBe7A93e40fd94bd9C5",
  "abi": [
    {
      "inputs": [
        {
          "internalType": "address",
          "name": "_fansSocietyAddress",
          "type": "address"
        },
        {
          "internalType": "address",
          "name": "_wethTokenAddress",
          "type": "address"
        },
        {
          "internalType": "address",
          "name": "_ethUsdtAggregatorAddress",
          "type": "address"
        },
        {
          "internalType": "address",
          "name": "_tokenFactoryAddress",
          "type": "address"
        },
        {
          "internalType": "address",
          "name": "_poolFactoryAddress",
          "type": "address"
        }
      ],
      "stateMutability": "nonpayable",
      "type": "constructor"
    },
    {
      "anonymous": false,
      "inputs": [
        {
          "indexed": true,
          "internalType": "uint256",
          "name": "id",
          "type": "uint256"
        },
        {
          "indexed": true,
          "internalType": "address",
          "name": "caller",
          "type": "address"
        },
        {
          "indexed": false,
          "internalType": "uint256",
          "name": "amount",
          "type": "uint256"
        }
      ],
      "name": "Committed",
      "type": "event"
    },
    {
      "anonymous": false,
      "inputs": [
        {
          "indexed": true,
          "internalType": "address",
          "name": "previousOwner",
          "type": "address"
        },
        {
          "indexed": true,
          "internalType": "address",
          "name": "newOwner",
          "type": "address"
        }
      ],
      "name": "OwnershipTransferred",
      "type": "event"
    },
    {
      "anonymous": false,
      "inputs": [
        {
          "indexed": false,
          "internalType": "uint256",
          "name": "id",
          "type": "uint256"
        },
        {
          "components": [
            {
              "internalType": "string",
              "name": "name",
              "type": "string"
            },
            {
              "internalType": "string",
              "name": "symbol",
              "type": "string"
            },
            {
              "internalType": "string",
              "name": "description",
              "type": "string"
            },
            {
              "internalType": "string",
              "name": "avatarCid",
              "type": "string"
            },
            {
              "internalType": "string",
              "name": "coverCid",
              "type": "string"
            }
          ],
          "indexed": false,
          "internalType": "struct Projects.ProjectInfo",
          "name": "info",
          "type": "tuple"
        },
        {
          "components": [
            {
              "internalType": "uint256",
              "name": "target",
              "type": "uint256"
            },
            {
              "internalType": "uint256",
              "name": "minInvest",
              "type": "uint256"
            },
            {
              "internalType": "uint256",
              "name": "maxInvest",
              "type": "uint256"
            }
          ],
          "indexed": false,
          "internalType": "struct Projects.ProjectICO",
          "name": "ico",
          "type": "tuple"
        },
        {
          "indexed": true,
          "internalType": "address",
          "name": "partnerAddress",
          "type": "address"
        },
        {
          "indexed": false,
          "internalType": "uint112",
          "name": "totalSupply",
          "type": "uint112"
        }
      ],
      "name": "ProjectCreated",
      "type": "event"
    },
    {
      "anonymous": false,
      "inputs": [
        {
          "indexed": true,
          "internalType": "uint256",
          "name": "id",
          "type": "uint256"
        },
        {
          "indexed": false,
          "internalType": "enum Projects.ProjectStatus",
          "name": "status",
          "type": "uint8"
        }
      ],
      "name": "ProjectStatusChanged",
      "type": "event"
    },
    {
      "anonymous": false,
      "inputs": [
        {
          "indexed": true,
          "internalType": "address",
          "name": "caller",
          "type": "address"
        },
        {
          "indexed": false,
          "internalType": "address",
          "name": "tokenIn",
          "type": "address"
        },
        {
          "indexed": false,
          "internalType": "uint256",
          "name": "amountIn",
          "type": "uint256"
        },
        {
          "indexed": false,
          "internalType": "address",
          "name": "tokenOut",
          "type": "address"
        },
        {
          "indexed": false,
          "internalType": "uint256",
          "name": "amountOut",
          "type": "uint256"
        }
      ],
      "name": "Swapped",
      "type": "event"
    },
    {
      "anonymous": false,
      "inputs": [
        {
          "indexed": true,
          "internalType": "uint256",
          "name": "projectId",
          "type": "uint256"
        },
        {
          "indexed": true,
          "internalType": "address",
          "name": "token",
          "type": "address"
        },
        {
          "indexed": true,
          "internalType": "address",
          "name": "caller",
          "type": "address"
        },
        {
          "indexed": false,
          "internalType": "uint256",
          "name": "amount",
          "type": "uint256"
        }
      ],
      "name": "TokensClaimed",
      "type": "event"
    },
    {
      "anonymous": false,
      "inputs": [
        {
          "indexed": true,
          "internalType": "uint256",
          "name": "id",
          "type": "uint256"
        },
        {
          "indexed": true,
          "internalType": "address",
          "name": "caller",
          "type": "address"
        },
        {
          "indexed": false,
          "internalType": "uint256",
          "name": "amount",
          "type": "uint256"
        }
      ],
      "name": "Withdrawed",
      "type": "event"
    },
    {
      "inputs": [
        {
          "internalType": "uint256",
          "name": "_id",
          "type": "uint256"
        }
      ],
      "name": "abortProject",
      "outputs": [],
      "stateMutability": "nonpayable",
      "type": "function"
    },
    {
      "inputs": [
        {
          "internalType": "address",
          "name": "_pool",
          "type": "address"
        },
        {
          "internalType": "address",
          "name": "_tokenX",
          "type": "address"
        },
        {
          "internalType": "address",
          "name": "_tokenY",
          "type": "address"
        },
        {
          "internalType": "uint256",
          "name": "_amountX",
          "type": "uint256"
        },
        {
          "internalType": "uint256",
          "name": "_amountY",
          "type": "uint256"
        }
      ],
      "name": "addPoolLiquidity",
      "outputs": [],
      "stateMutability": "payable",
      "type": "function"
    },
    {
      "inputs": [
        {
          "internalType": "uint256",
          "name": "_projectId",
          "type": "uint256"
        }
      ],
      "name": "claimProjectTokens",
      "outputs": [],
      "stateMutability": "nonpayable",
      "type": "function"
    },
    {
      "inputs": [
        {
          "internalType": "uint256",
          "name": "_id",
          "type": "uint256"
        }
      ],
      "name": "commitOnProject",
      "outputs": [],
      "stateMutability": "payable",
      "type": "function"
    },
    {
      "inputs": [
        {
          "internalType": "uint256",
          "name": "",
          "type": "uint256"
        },
        {
          "internalType": "address",
          "name": "",
          "type": "address"
        }
      ],
      "name": "commitments",
      "outputs": [
        {
          "internalType": "uint256",
          "name": "",
          "type": "uint256"
        }
      ],
      "stateMutability": "view",
      "type": "function"
    },
    {
      "inputs": [],
      "name": "count",
      "outputs": [
        {
          "internalType": "uint256",
          "name": "",
          "type": "uint256"
        }
      ],
      "stateMutability": "view",
      "type": "function"
    },
    {
      "inputs": [
        {
          "components": [
            {
              "internalType": "string",
              "name": "name",
              "type": "string"
            },
            {
              "internalType": "string",
              "name": "symbol",
              "type": "string"
            },
            {
              "internalType": "string",
              "name": "description",
              "type": "string"
            },
            {
              "internalType": "string",
              "name": "avatarCid",
              "type": "string"
            },
            {
              "internalType": "string",
              "name": "coverCid",
              "type": "string"
            }
          ],
          "internalType": "struct Projects.ProjectInfo",
          "name": "_info",
          "type": "tuple"
        },
        {
          "components": [
            {
              "internalType": "uint256",
              "name": "target",
              "type": "uint256"
            },
            {
              "internalType": "uint256",
              "name": "minInvest",
              "type": "uint256"
            },
            {
              "internalType": "uint256",
              "name": "maxInvest",
              "type": "uint256"
            }
          ],
          "internalType": "struct Projects.ProjectICO",
          "name": "_ico",
          "type": "tuple"
        },
        {
          "internalType": "address",
          "name": "_partnerAddress",
          "type": "address"
        },
        {
          "internalType": "uint112",
          "name": "_totalSupply",
          "type": "uint112"
        }
      ],
      "name": "createProject",
      "outputs": [],
      "stateMutability": "nonpayable",
      "type": "function"
    },
    {
      "inputs": [],
      "name": "getEthUsdtPrice",
      "outputs": [
        {
          "internalType": "uint256",
          "name": "",
          "type": "uint256"
        }
      ],
      "stateMutability": "view",
      "type": "function"
    },
    {
      "inputs": [
        {
          "internalType": "uint256",
          "name": "_id",
          "type": "uint256"
        }
      ],
      "name": "launchProject",
      "outputs": [],
      "stateMutability": "nonpayable",
      "type": "function"
    },
    {
      "inputs": [],
      "name": "owner",
      "outputs": [
        {
          "internalType": "address",
          "name": "",
          "type": "address"
        }
      ],
      "stateMutability": "view",
      "type": "function"
    },
    {
      "inputs": [
        {
          "internalType": "uint256",
          "name": "",
          "type": "uint256"
        }
      ],
      "name": "projects",
      "outputs": [
        {
          "internalType": "uint256",
          "name": "id",
          "type": "uint256"
        },
        {
          "internalType": "uint256",
          "name": "fund",
          "type": "uint256"
        },
        {
          "internalType": "uint112",
          "name": "totalSupply",
          "type": "uint112"
        },
        {
          "components": [
            {
              "internalType": "string",
              "name": "name",
              "type": "string"
            },
            {
              "internalType": "string",
              "name": "symbol",
              "type": "string"
            },
            {
              "internalType": "string",
              "name": "description",
              "type": "string"
            },
            {
              "internalType": "string",
              "name": "avatarCid",
              "type": "string"
            },
            {
              "internalType": "string",
              "name": "coverCid",
              "type": "string"
            }
          ],
          "internalType": "struct Projects.ProjectInfo",
          "name": "info",
          "type": "tuple"
        },
        {
          "components": [
            {
              "internalType": "uint256",
              "name": "target",
              "type": "uint256"
            },
            {
              "internalType": "uint256",
              "name": "minInvest",
              "type": "uint256"
            },
            {
              "internalType": "uint256",
              "name": "maxInvest",
              "type": "uint256"
            }
          ],
          "internalType": "struct Projects.ProjectICO",
          "name": "ico",
          "type": "tuple"
        },
        {
          "internalType": "enum Projects.ProjectStatus",
          "name": "status",
          "type": "uint8"
        },
        {
          "internalType": "address",
          "name": "partnerAddress",
          "type": "address"
        },
        {
          "internalType": "address",
          "name": "tokenAddress",
          "type": "address"
        }
      ],
      "stateMutability": "view",
      "type": "function"
    },
    {
      "inputs": [
        {
          "internalType": "address",
          "name": "_pool",
          "type": "address"
        },
        {
          "internalType": "uint256",
          "name": "_amountLP",
          "type": "uint256"
        }
      ],
      "name": "removePoolLiquidity",
      "outputs": [],
      "stateMutability": "nonpayable",
      "type": "function"
    },
    {
      "inputs": [],
      "name": "renounceOwnership",
      "outputs": [],
      "stateMutability": "nonpayable",
      "type": "function"
    },
    {
      "inputs": [
        {
          "internalType": "address",
          "name": "_pool",
          "type": "address"
        },
        {
          "internalType": "address",
          "name": "_tokenIn",
          "type": "address"
        },
        {
          "internalType": "uint256",
          "name": "_amountOut",
          "type": "uint256"
        }
      ],
      "name": "swap",
      "outputs": [],
      "stateMutability": "payable",
      "type": "function"
    },
    {
      "inputs": [
        {
          "internalType": "address",
          "name": "newOwner",
          "type": "address"
        }
      ],
      "name": "transferOwnership",
      "outputs": [],
      "stateMutability": "nonpayable",
      "type": "function"
    },
    {
      "inputs": [
        {
          "internalType": "uint256",
          "name": "_id",
          "type": "uint256"
        }
      ],
      "name": "withdrawOnProject",
      "outputs": [],
      "stateMutability": "nonpayable",
      "type": "function"
    },
    {
      "stateMutability": "payable",
      "type": "receive"
    }
  ],
  "transactionHash": "0x00ac6d1b3d32be19a8dae67637be5d4d671afd88c932b67b40bbac3fc6d24e32",
  "args": [
    "0x3827b4a96Ce521f8E408c124D7DbE2B6c1F78E1F",
    "0xB4FBF271143F4FBf7B91A5ded31805e42b2208d6",
    "0xD4a33860578De61DBAbDc8BFdb98FD742fA7028e",
    "0xac27c4D170ed9bC3C21EB00De64797602fCbE258",
    "0x5D38ca4347093bE19025D91d1b7F843374391cAf"
  ],
  "numDeployments": 1,
  "solcInputHash": "c19ed1ac2449f74a8ae7b8dd866b71b7",
  "bytecode": "0x60806040523480156200001157600080fd5b5060405162003e7438038062003e7483398101604081905262000034916200010f565b6200003f33620000a2565b600480546001600160a01b03199081166001600160a01b039788161790915560058054821695871695909517909455600680548516938616939093179092556007805484169185169190911790556008805490921692169190911790556200017f565b600080546001600160a01b038381166001600160a01b0319831681178455604051919092169283917f8be0079c531659141344cd1fd0a4f28419497f9722a3daafe3b4186f6b6457e09190a35050565b80516001600160a01b03811681146200010a57600080fd5b919050565b600080600080600060a086880312156200012857600080fd5b6200013386620000f2565b94506200014360208701620000f2565b93506200015360408701620000f2565b92506200016360608701620000f2565b91506200017360808701620000f2565b90509295509295909350565b613ce5806200018f6000396000f3fe6080604052600436106100f75760003560e01c8063a3bfb7bd1161008a578063e9d36fb411610059578063e9d36fb4146102ed578063eaea5a401461030d578063f1244ad814610322578063f2fde38b1461034257600080fd5b8063a3bfb7bd14610262578063db30423514610282578063df791e50146102a2578063e90d4c06146102b557600080fd5b806360ae7c3b116100c657806360ae7c3b146101f2578063715018a6146102125780638da5cb5b146102275780639c7a1fc71461024f57600080fd5b806306661abd14610162578063107046bd1461018b57806316509ee2146101bf57806344a9ae8c146101d257600080fd5b3661015d576005546001600160a01b0316331461015b5760405162461bcd60e51b815260206004820152601f60248201527f6f6e6c7920726563656976652066726f6d207765746820636f6e74726163740060448201526064015b60405180910390fd5b005b600080fd5b34801561016e57600080fd5b5061017860015481565b6040519081526020015b60405180910390f35b34801561019757600080fd5b506101ab6101a63660046130a5565b610362565b60405161018298979695949392919061313c565b61015b6101cd3660046130a5565b6106c5565b3480156101de57600080fd5b5061015b6101ed3660046130a5565b6108b8565b3480156101fe57600080fd5b5061015b61020d3660046130a5565b610a73565b34801561021e57600080fd5b5061015b610fda565b34801561023357600080fd5b506000546040516001600160a01b039091168152602001610182565b61015b61025d366004613265565b610fee565b34801561026e57600080fd5b5061015b61027d3660046130a5565b6115e9565b34801561028e57600080fd5b5061015b61029d3660046132c0565b611698565b61015b6102b0366004613350565b6118a3565b3480156102c157600080fd5b506101786102d0366004613391565b600360209081526000928352604080842090915290825290205481565b3480156102f957600080fd5b5061015b6103083660046133c1565b611e7e565b34801561031957600080fd5b50610178611f49565b34801561032e57600080fd5b5061015b61033d3660046130a5565b612013565b34801561034e57600080fd5b5061015b61035d3660046133ed565b6129c6565b6002602081905260009182526040918290208054600182015492820154845160a0810190955260038301805492956001600160701b039092169392829082906103aa90613411565b80601f01602080910402602001604051908101604052809291908181526020018280546103d690613411565b80156104235780601f106103f857610100808354040283529160200191610423565b820191906000526020600020905b81548152906001019060200180831161040657829003601f168201915b5050505050815260200160018201805461043c90613411565b80601f016020809104026020016040519081016040528092919081815260200182805461046890613411565b80156104b55780601f1061048a576101008083540402835291602001916104b5565b820191906000526020600020905b81548152906001019060200180831161049857829003601f168201915b505050505081526020016002820180546104ce90613411565b80601f01602080910402602001604051908101604052809291908181526020018280546104fa90613411565b80156105475780601f1061051c57610100808354040283529160200191610547565b820191906000526020600020905b81548152906001019060200180831161052a57829003601f168201915b5050505050815260200160038201805461056090613411565b80601f016020809104026020016040519081016040528092919081815260200182805461058c90613411565b80156105d95780601f106105ae576101008083540402835291602001916105d9565b820191906000526020600020905b8154815290600101906020018083116105bc57829003601f168201915b505050505081526020016004820180546105f290613411565b80601f016020809104026020016040519081016040528092919081815260200182805461061e90613411565b801561066b5780601f106106405761010080835404028352916020019161066b565b820191906000526020600020905b81548152906001019060200180831161064e57829003601f168201915b505050919092525050604080516060810182526008850154815260098501546020820152600a85015491810191909152600b840154600c909401549293909260ff821692506001600160a01b036101009092048216911688565b806000806000838152600260205260409020600b015460ff1660038111156106ef576106ef613104565b1461070c5760405162461bcd60e51b81526004016101529061344b565b600083815260026020908152604080832060098101546003845282852033865290935292205461073c903461348d565b10156107775760405162461bcd60e51b815260206004820152600a60248201526909cdee840cadcdeeaced60b31b6044820152606401610152565b600a81015460008581526003602090815260408083203384529091529020546107a0903461348d565b11156107d95760405162461bcd60e51b81526020600482015260086024820152670a8dede40daeac6d60c31b6044820152606401610152565b348160010160008282546107ed919061348d565b909155505060008481526003602090815260408083203384529091528120805434929061081b90849061348d565b9091555050604051348152339085907f245cbccbc6875e4b0475a653568fd4f7c2dae5fb8929e33c0d66dc530ba11b009060200160405180910390a360088101546001820154106108b257600b8101805460ff1916600290811790915560405185917f35872be4c2085eaf9ca9a10d056eefec79968f825846792411ede75f331e9392916108a991906134a6565b60405180910390a25b50505050565b806002806000838152600260205260409020600b015460ff1660038111156108e2576108e2613104565b106108ff5760405162461bcd60e51b81526004016101529061344b565b600083815260036020908152604080832033845290915290205483906109575760405162461bcd60e51b815260206004820152600d60248201526c139bc818dbdb5b5a5d1b595b9d609a1b6044820152606401610152565b60008481526003602090815260408083203384528252808320548784526002909252822060010180549192839261098f9084906134b4565b909155505060008581526003602090815260408083203380855292528083208390555183908381818185875af1925050503d80600081146109ec576040519150601f19603f3d011682016040523d82523d6000602084013e6109f1565b606091505b5050905080610a345760405162461bcd60e51b815260206004820152600f60248201526e1dda5d1a191c985dc819985a5b1959608a1b6044820152606401610152565b604051828152339087907f7fd902d6e186354d1617b957fc4cb4a144f44a19cc5c4525cfb772d707c405c29060200160405180910390a3505050505050565b806003806000838152600260205260409020600b015460ff166003811115610a9d57610a9d613104565b14610aba5760405162461bcd60e51b81526004016101529061344b565b60008381526003602090815260408083203384529091529020548390610b125760405162461bcd60e51b815260206004820152600d60248201526c139bc818dbdb5b5a5d1b595b9d609a1b6044820152606401610152565b600084815260026020818152604080842081516101008101835281548152600182015493810193909352928301546001600160701b031682820152805160a081019091526003830180549293926060850192919082908290610b7390613411565b80601f0160208091040260200160405190810160405280929190818152602001828054610b9f90613411565b8015610bec5780601f10610bc157610100808354040283529160200191610bec565b820191906000526020600020905b815481529060010190602001808311610bcf57829003601f168201915b50505050508152602001600182018054610c0590613411565b80601f0160208091040260200160405190810160405280929190818152602001828054610c3190613411565b8015610c7e5780601f10610c5357610100808354040283529160200191610c7e565b820191906000526020600020905b815481529060010190602001808311610c6157829003601f168201915b50505050508152602001600282018054610c9790613411565b80601f0160208091040260200160405190810160405280929190818152602001828054610cc390613411565b8015610d105780601f10610ce557610100808354040283529160200191610d10565b820191906000526020600020905b815481529060010190602001808311610cf357829003601f168201915b50505050508152602001600382018054610d2990613411565b80601f0160208091040260200160405190810160405280929190818152602001828054610d5590613411565b8015610da25780601f10610d7757610100808354040283529160200191610da2565b820191906000526020600020905b815481529060010190602001808311610d8557829003601f168201915b50505050508152602001600482018054610dbb90613411565b80601f0160208091040260200160405190810160405280929190818152602001828054610de790613411565b8015610e345780601f10610e0957610100808354040283529160200191610e34565b820191906000526020600020905b815481529060010190602001808311610e1757829003601f168201915b50505091909252505050815260408051606081018252600884015481526009840154602082810191909152600a85015482840152830152600b83015491019060ff166003811115610e8757610e87613104565b6003811115610e9857610e98613104565b8152600b8201546001600160a01b036101009091048116602080840191909152600c9093015416604091820152600088815260038352818120338252909252808220549083015192935091610eec90612a3f565b50509150506000836020015183836001600160701b0316610f0d91906134c7565b610f1791906134f4565b60e0850151604051635569f64b60e11b8152336004820152602481018390529192506001600160a01b03169063aad3ec9690604401600060405180830381600087803b158015610f6657600080fd5b505af1158015610f7a573d6000803e3d6000fd5b50505050336001600160a01b03168460e001516001600160a01b0316897f9c4945d842cc8c6704877a0defcd9ab09f6d77b24a369a95c2610506c6c38ee784604051610fc891815260200190565b60405180910390a45050505050505050565b610fe2612ab4565b610fec6000612b0e565b565b6005546001600160a01b03908116908516036112a157811580156110125750600081115b801561101e5750600034115b61103a5760405162461bcd60e51b815260040161015290613508565b60008061104a8787873487612b5e565b91509150600560009054906101000a90046001600160a01b03166001600160a01b031663d0e30db0836040518263ffffffff1660e01b81526004016000604051808303818588803b15801561109e57600080fd5b505af11580156110b2573d6000803e3d6000fd5b505060055460405163a9059cbb60e01b81526001600160a01b038c8116600483015260248201889052909116935063a9059cbb925060440190506020604051808303816000875af115801561110b573d6000803e3d6000fd5b505050506040513d601f19601f8201168201806040525081019061112f9190613536565b61113b5761113b613558565b604051632142170760e11b81526001600160a01b038616906342842e0e9061116b9033908b90869060040161356e565b600060405180830381600087803b15801561118557600080fd5b505af1158015611199573d6000803e3d6000fd5b505050508134111561129a576111d0604051806040016040528060098152602001686d73672e76616c756560b81b81525034612f7a565b6111f9604051806040016040528060078152602001660c2dadeeadce8b60cb1b81525083612f7a565b60003361120684346134b4565b604051600081818185875af1925050503d8060008114611242576040519150601f19603f3d011682016040523d82523d6000602084013e611247565b606091505b50509050806112985760405162461bcd60e51b815260206004820152601a60248201527f726566756e6420657863656564656420455448206661696c65640000000000006044820152606401610152565b505b5050611577565b6005546001600160a01b039081169084160361146557801580156112c55750600082115b80156112d15750600034115b6112ed5760405162461bcd60e51b815260040161015290613508565b6000806112fd8787878734612b5e565b91509150600560009054906101000a90046001600160a01b03166001600160a01b031663d0e30db0826040518263ffffffff1660e01b81526004016000604051808303818588803b15801561135157600080fd5b505af1158015611365573d6000803e3d6000fd5b505060055460405163a9059cbb60e01b81526001600160a01b038c8116600483015260248201879052909116935063a9059cbb925060440190506020604051808303816000875af11580156113be573d6000803e3d6000fd5b505050506040513d601f19601f820116820180604052508101906113e29190613536565b6113ee576113ee613558565b604051632142170760e11b81526001600160a01b038716906342842e0e9061141e9033908b90879060040161356e565b600060405180830381600087803b15801561143857600080fd5b505af115801561144c573d6000803e3d6000fd5b505050508034111561129a5760003361120683346134b4565b341580156114735750600082115b801561147f5750600081115b61149b5760405162461bcd60e51b815260040161015290613508565b6000806114ab8787878787612b5e565b604051632142170760e11b815291935091506001600160a01b038716906342842e0e906114e09033908b90879060040161356e565b600060405180830381600087803b1580156114fa57600080fd5b505af115801561150e573d6000803e3d6000fd5b5050604051632142170760e11b81526001600160a01b03881692506342842e0e91506115429033908b90869060040161356e565b600060405180830381600087803b15801561155c57600080fd5b505af1158015611570573d6000803e3d6000fd5b5050505050505b604051638f01e2df60e01b81523360048201526001600160a01b03861690638f01e2df906024016020604051808303816000875af11580156115bd573d6000803e3d6000fd5b505050506040513d601f19601f820116820180604052508101906115e19190613592565b505050505050565b6115f1612ab4565b806000806000838152600260205260409020600b015460ff16600381111561161b5761161b613104565b146116385760405162461bcd60e51b81526004016101529061344b565b6000838152600260205260409020600b0180546001919060ff191682800217905550827f35872be4c2085eaf9ca9a10d056eefec79968f825846792411ede75f331e9392600160405161168b91906134a6565b60405180910390a2505050565b6116a0612ab4565b600180549060006116b0836135ab565b9190505550604051806101000160405280600154815260200160008152602001826001600160701b03168152602001856116e990613690565b81526020016116fd3686900386018661376c565b8152602001600081526001600160a01b038416602080830191909152600060409283018190526001805482526002808452918490208551815592850151908301559183015191810180546dffffffffffffffffffffffffffff19166001600160701b039093169290921790915560608201518051600383019081906117829082613813565b50602082015160018201906117979082613813565b50604082015160028201906117ac9082613813565b50606082015160038201906117c19082613813565b50608082015160048201906117d69082613813565b5050506080820151805160088301556020810151600983015560400151600a82015560a0820151600b8201805460ff1916600183600381111561181b5761181b613104565b021790555060c0820151600b82018054610100600160a81b0319166101006001600160a01b039384160217905560e090920151600c90910180546001600160a01b031916918316919091179055600154604051918416917fd9ecdd15e0d6416fef28e79a5e33b10b35c85a8ddeeee598f5b9afd9304a7acb916108a991889088908790613949565b604051630fa6707960e21b81526001600160a01b038381166004830152600091829182918291881690633e99c1e490602401608060405180830381865afa1580156118f2573d6000803e3d6000fd5b505050506040513d601f19601f820116820180604052508101906119169190613a57565b60055460405163392dc1a760e01b8152600481018b9052602481018490526044810183905294985092965090945092506001600160a01b0390811681871614916000918a169063392dc1a790606401602060405180830381865afa158015611982573d6000803e3d6000fd5b505050506040513d601f19601f820116820180604052508101906119a69190613592565b90508115611ae157803410156119ef5760405162461bcd60e51b815260206004820152600e60248201526d0dcdee840cadcdeeaced040cae8d60931b6044820152606401610152565b600560009054906101000a90046001600160a01b03166001600160a01b031663d0e30db0826040518263ffffffff1660e01b81526004016000604051808303818588803b158015611a3f57600080fd5b505af1158015611a53573d6000803e3d6000fd5b505060055460405163a9059cbb60e01b81526001600160a01b038e8116600483015260248201879052909116935063a9059cbb925060440190506020604051808303816000875af1158015611aac573d6000803e3d6000fd5b505050506040513d601f19601f82011682018060405250810190611ad09190613536565b611adc57611adc613558565b611b85565b3415611b225760405162461bcd60e51b815260206004820152601060248201526f0dcdee840caf0e0cac6e8cac840cae8d60831b6044820152606401610152565b604051632142170760e11b81526001600160a01b038716906342842e0e90611b529033908d90869060040161356e565b600060405180830381600087803b158015611b6c57600080fd5b505af1158015611b80573d6000803e3d6000fd5b505050505b60008215611cb657604051636d069a6760e01b81526001600160a01b038881166004830152602482018490523360448301528b1690636d069a67906064016020604051808303816000875af1158015611be2573d6000803e3d6000fd5b505050506040513d601f19601f82011682018060405250810190611c069190613592565b905081341115611cb157600033611c1d84346134b4565b604051600081818185875af1925050503d8060008114611c59576040519150601f19603f3d011682016040523d82523d6000602084013e611c5e565b606091505b5050905080611caf5760405162461bcd60e51b815260206004820152601a60248201527f726566756e6420657863656564656420455448206661696c65640000000000006044820152606401610152565b505b611e1e565b604051636d069a6760e01b81526001600160a01b038881166004830152602482018490523060448301528b1690636d069a67906064016020604051808303816000875af1158015611d0b573d6000803e3d6000fd5b505050506040513d601f19601f82011682018060405250810190611d2f9190613592565b600554604051632e1a7d4d60e01b8152600481018390529192506001600160a01b031690632e1a7d4d90602401600060405180830381600087803b158015611d7657600080fd5b505af1158015611d8a573d6000803e3d6000fd5b50506040516000925033915083908381818185875af1925050503d8060008114611dd0576040519150601f19603f3d011682016040523d82523d6000602084013e611dd5565b606091505b5050905080611e1c5760405162461bcd60e51b81526020600482015260136024820152721dda5d1a191c985dc81155120819985a5b1959606a1b6044820152606401610152565b505b604080516001600160a01b0389811682526020820185905288168183015260608101839052905133917f692315744755ee6d80decaeb993d4b1bb95ff5db042cc47b32d5a7d858b01902919081900360800190a250505050505050505050565b604051632142170760e11b81526001600160a01b038316906342842e0e90611eae9033908690869060040161356e565b600060405180830381600087803b158015611ec857600080fd5b505af1158015611edc573d6000803e3d6000fd5b505060405163a4dd03d760e01b81523360048201526001600160a01b038516925063a4dd03d7915060240160408051808303816000875af1158015611f25573d6000803e3d6000fd5b505050506040513d601f19601f820116820180604052508101906108b29190613a9f565b6006546000906001600160a01b0316611f945760405162461bcd60e51b815260206004820152600d60248201526c37379030b3b3b932b3b0ba37b960991b6044820152606401610152565b60065460408051633fabe5a360e21b815290516001600160a01b0390921691600091839163feaf968c9160048082019260a0929091908290030181865afa158015611fe3573d6000803e3d6000fd5b505050506040513d601f19601f820116820180604052508101906120079190613ae2565b50919695505050505050565b806002806000838152600260205260409020600b015460ff16600381111561203d5761203d613104565b1461205a5760405162461bcd60e51b81526004016101529061344b565b6000838152600260205260409020600b0154839061010090046001600160a01b031633146120b85760405162461bcd60e51b815260206004820152600b60248201526a2737ba103830b93a3732b960a91b6044820152606401610152565b600084815260026020818152604080842081516101008101835281548152600182015493810193909352928301546001600160701b031682820152805160a08101909152600383018054929392606085019291908290829061211990613411565b80601f016020809104026020016040519081016040528092919081815260200182805461214590613411565b80156121925780601f1061216757610100808354040283529160200191612192565b820191906000526020600020905b81548152906001019060200180831161217557829003601f168201915b505050505081526020016001820180546121ab90613411565b80601f01602080910402602001604051908101604052809291908181526020018280546121d790613411565b80156122245780601f106121f957610100808354040283529160200191612224565b820191906000526020600020905b81548152906001019060200180831161220757829003601f168201915b5050505050815260200160028201805461223d90613411565b80601f016020809104026020016040519081016040528092919081815260200182805461226990613411565b80156122b65780601f1061228b576101008083540402835291602001916122b6565b820191906000526020600020905b81548152906001019060200180831161229957829003601f168201915b505050505081526020016003820180546122cf90613411565b80601f01602080910402602001604051908101604052809291908181526020018280546122fb90613411565b80156123485780601f1061231d57610100808354040283529160200191612348565b820191906000526020600020905b81548152906001019060200180831161232b57829003601f168201915b5050505050815260200160048201805461236190613411565b80601f016020809104026020016040519081016040528092919081815260200182805461238d90613411565b80156123da5780601f106123af576101008083540402835291602001916123da565b820191906000526020600020905b8154815290600101906020018083116123bd57829003601f168201915b50505091909252505050815260408051606081018252600884015481526009840154602082810191909152600a85015482840152830152600b83015491019060ff16600381111561242d5761242d613104565b600381111561243e5761243e613104565b8152600b8201546001600160a01b0361010090910481166020830152600c909201549091166040918201528101519091506000908190819061247f90612a3f565b935093505092506000806124968660200151612fc3565b6007546060890151805160209091015160408b01519496509294506001600160a01b039091169263f39f8242928e92913090896124d38c8e613b32565b6124dd9190613b32565b6040518763ffffffff1660e01b81526004016124fe96959493929190613b59565b6020604051808303816000875af115801561251d573d6000803e3d6000fd5b505050506040513d601f19601f820116820180604052508101906125419190613bb6565b60008b815260026020526040808220600c0180546001600160a01b0319166001600160a01b0394851690811790915560085460055492516311b5751760e11b8152306004820152602481019290925291841660448201529192169063236aea2e906064016020604051808303816000875af11580156125c4573d6000803e3d6000fd5b505050506040513d601f19601f820116820180604052508101906125e89190613bb6565b60008c81526002602052604090819020600c810154600b909101549151632142170760e11b81529293506001600160a01b03908116926342842e0e9261263c92309261010090920416908b90600401613bd3565b600060405180830381600087803b15801561265657600080fd5b505af115801561266a573d6000803e3d6000fd5b50505060008c81526002602052604090819020600c0154600480549251632142170760e11b81526001600160a01b0392831694506342842e0e936126b59330939116918a9101613bd3565b600060405180830381600087803b1580156126cf57600080fd5b505af11580156126e3573d6000803e3d6000fd5b50505060008c81526002602052604090819020600c01549051632142170760e11b81526001600160a01b0390911691506342842e0e9061272b90309085908a90600401613bd3565b600060405180830381600087803b15801561274557600080fd5b505af1158015612759573d6000803e3d6000fd5b50505050600560009054906101000a90046001600160a01b03166001600160a01b031663d0e30db0846040518263ffffffff1660e01b81526004016000604051808303818588803b1580156127ad57600080fd5b505af11580156127c1573d6000803e3d6000fd5b505060055460405163a9059cbb60e01b81526001600160a01b03868116600483015260248201899052909116935063a9059cbb925060440190506020604051808303816000875af115801561281a573d6000803e3d6000fd5b505050506040513d601f19601f8201168201806040525081019061283e9190613536565b61284a5761284a613558565b60008760c001516001600160a01b03168360405160006040518083038185875af1925050503d806000811461289b576040519150601f19603f3d011682016040523d82523d6000602084013e6128a0565b606091505b50509050806128f15760405162461bcd60e51b815260206004820152601b60248201527f706172746e657220646973747269627574696f6e206661696c656400000000006044820152606401610152565b604051638f01e2df60e01b81523060048201526001600160a01b03831690638f01e2df906024016020604051808303816000875af1158015612937573d6000803e3d6000fd5b505050506040513d601f19601f8201168201806040525081019061295b9190613592565b5060008c8152600260205260409020600b0180546003919060ff191660018302179055508b7f35872be4c2085eaf9ca9a10d056eefec79968f825846792411ede75f331e939260036040516129b091906134a6565b60405180910390a2505050505050505050505050565b6129ce612ab4565b6001600160a01b038116612a335760405162461bcd60e51b815260206004820152602660248201527f4f776e61626c653a206e6577206f776e657220697320746865207a65726f206160448201526564647265737360d01b6064820152608401610152565b612a3c81612b0e565b50565b60008080806103e8612a528660c8613bff565b612a5c9190613c2a565b93506103e8612a6d866101ea613bff565b612a779190613c2a565b92506103e8612a878660b4613bff565b612a919190613c2a565b91506103e8612aa1866082613bff565b612aab9190613c2a565b90509193509193565b6000546001600160a01b03163314610fec5760405162461bcd60e51b815260206004820181905260248201527f4f776e61626c653a2063616c6c6572206973206e6f7420746865206f776e65726044820152606401610152565b600080546001600160a01b038381166001600160a01b0319831681178455604051919092169283917f8be0079c531659141344cd1fd0a4f28419497f9722a3daafe3b4186f6b6457e09190a35050565b604051630fa6707960e21b81526001600160a01b0385811660048301526000918291829182918a1690633e99c1e490602401608060405180830381865afa158015612bad573d6000803e3d6000fd5b505050506040513d601f19601f82011682018060405250810190612bd19190613a57565b935093505050612c01604051806040016040528060088152602001670e4cae6cae4eccab60c31b81525083612f7a565b612c2b60405180604001604052806008815260200167726573657276655960c01b81525082612f7a565b81158015612c37575080155b15612c6957612c5e604051806040016040528060018152602001604160f81b815250613000565b859350849250612f6e565b612c8b604051806040016040528060018152602001602160f91b815250613000565b60405163b4167c6d60e01b81526001600160a01b03898116600483015260248201889052600091908b169063b4167c6d90604401602060405180830381865afa158015612cdc573d6000803e3d6000fd5b505050506040513d601f19601f82011682018060405250810190612d009190613592565b9050612d2b604051806040016040528060078152602001660bee8ded6cadcb60cb1b8152508a613043565b612d54604051806040016040528060078152602001665f746f6b656e5960c81b81525089613043565b612d7e604051806040016040528060088152602001670bec2dadeeadce8b60c31b81525088612f7a565b612da8604051806040016040528060088152602001675f616d6f756e745960c01b81525087612f7a565b612dd86040518060400160405280600e81526020016d185b5bdd5b9d1653dc1d1a5b585b60921b81525082612f7a565b858111612e0c57612e01604051806040016040528060018152602001604360f81b815250613000565b869450925082612f6c565b612e2e604051806040016040528060018152602001601160fa1b815250613000565b60405163b4167c6d60e01b81526001600160a01b03898116600483015260248201889052600091908c169063b4167c6d90604401602060405180830381865afa158015612e7f573d6000803e3d6000fd5b505050506040513d601f19601f82011682018060405250810190612ea39190613592565b9050612ed56040518060400160405280600e81526020016d185b5bdd5b9d1613dc1d1a5b585b60921b81525082612f7a565b87811115612ee557612ee5613558565b60408051808201909152601781527f3e3e3e3e3e3e3e3e3e3e3e3e3e3e3e20616d6f756e745800000000000000000060208201529095508694508590612f2b9082612f7a565b612f6a6040518060400160405280601781526020017f3e3e3e3e3e3e3e3e3e3e3e3e3e3e3e20616d6f756e745900000000000000000081525086612f7a565b505b505b50509550959350505050565b612fbf8282604051602401612f90929190613c50565b60408051601f198184030181529190526020810180516001600160e01b0316632d839cb360e21b179052613084565b5050565b6000806103e8612fd48460646134c7565b612fde91906134f4565b91506103e8612fef846103846134c7565b612ff991906134f4565b9050915091565b612a3c816040516024016130149190613c72565b60408051601f198184030181529190526020810180516001600160e01b031663104c13eb60e21b179052613084565b612fbf8282604051602401613059929190613c85565b60408051601f198184030181529190526020810180516001600160e01b031663319af33360e01b1790525b80516a636f6e736f6c652e6c6f67602083016000808483855afa5050505050565b6000602082840312156130b757600080fd5b5035919050565b6000815180845260005b818110156130e4576020818501810151868301820152016130c8565b506000602082860101526020601f19601f83011685010191505092915050565b634e487b7160e01b600052602160045260246000fd5b6004811061313857634e487b7160e01b600052602160045260246000fd5b9052565b60006101408a83528960208401526001600160701b0389166040840152806060840152875160a0828501526131756101e08501826130be565b915050602088015161013f19808584030161016086015261319683836130be565b925060408a0151915080858403016101808601526131b483836130be565b925060608a0151915080858403016101a08601526131d283836130be565b925060808a0151915080858403016101c0860152506131f182826130be565b88516080860152602089015160a0860152604089015160c08601529250613216915050565b61322360e083018661311a565b6001600160a01b0384166101008301526001600160a01b0383166101208301529998505050505050505050565b6001600160a01b0381168114612a3c57600080fd5b600080600080600060a0868803121561327d57600080fd5b853561328881613250565b9450602086013561329881613250565b935060408601356132a881613250565b94979396509394606081013594506080013592915050565b60008060008084860360c08112156132d757600080fd5b853567ffffffffffffffff8111156132ee57600080fd5b860160a0818903121561330057600080fd5b94506060601f198201121561331457600080fd5b50602085019250608085013561332981613250565b915060a08501356001600160701b038116811461334557600080fd5b939692955090935050565b60008060006060848603121561336557600080fd5b833561337081613250565b9250602084013561338081613250565b929592945050506040919091013590565b600080604083850312156133a457600080fd5b8235915060208301356133b681613250565b809150509250929050565b600080604083850312156133d457600080fd5b82356133df81613250565b946020939093013593505050565b6000602082840312156133ff57600080fd5b813561340a81613250565b9392505050565b600181811c9082168061342557607f821691505b60208210810361344557634e487b7160e01b600052602260045260246000fd5b50919050565b6020808252601290820152714261642070726f6a6563742073746174757360701b604082015260600190565b634e487b7160e01b600052601160045260246000fd5b808201808211156134a0576134a0613477565b92915050565b602081016134a0828461311a565b818103818111156134a0576134a0613477565b80820281158282048414176134a0576134a0613477565b634e487b7160e01b600052601260045260246000fd5b600082613503576135036134de565b500490565b602080825260149082015273696e76616c696420616d6f756e7420737461746560601b604082015260600190565b60006020828403121561354857600080fd5b8151801515811461340a57600080fd5b634e487b7160e01b600052600160045260246000fd5b6001600160a01b039384168152919092166020820152604081019190915260600190565b6000602082840312156135a457600080fd5b5051919050565b6000600182016135bd576135bd613477565b5060010190565b634e487b7160e01b600052604160045260246000fd5b60405160a0810167ffffffffffffffff811182821017156135fd576135fd6135c4565b60405290565b600082601f83011261361457600080fd5b813567ffffffffffffffff8082111561362f5761362f6135c4565b604051601f8301601f19908116603f01168101908282118183101715613657576136576135c4565b8160405283815286602085880101111561367057600080fd5b836020870160208301376000602085830101528094505050505092915050565b600060a082360312156136a257600080fd5b6136aa6135da565b823567ffffffffffffffff808211156136c257600080fd5b6136ce36838701613603565b835260208501359150808211156136e457600080fd5b6136f036838701613603565b6020840152604085013591508082111561370957600080fd5b61371536838701613603565b6040840152606085013591508082111561372e57600080fd5b61373a36838701613603565b6060840152608085013591508082111561375357600080fd5b5061376036828601613603565b60808301525092915050565b60006060828403121561377e57600080fd5b6040516060810181811067ffffffffffffffff821117156137a1576137a16135c4565b80604052508235815260208301356020820152604083013560408201528091505092915050565b601f82111561380e57600081815260208120601f850160051c810160208610156137ef5750805b601f850160051c820191505b818110156115e1578281556001016137fb565b505050565b815167ffffffffffffffff81111561382d5761382d6135c4565b6138418161383b8454613411565b846137c8565b602080601f831160018114613876576000841561385e5750858301515b600019600386901b1c1916600185901b1785556115e1565b600085815260208120601f198616915b828110156138a557888601518255948401946001909101908401613886565b50858210156138c35787850151600019600388901b60f8161c191681555b5050505050600190811b01905550565b6000808335601e198436030181126138ea57600080fd5b830160208101925035905067ffffffffffffffff81111561390a57600080fd5b80360382131561391957600080fd5b9250929050565b81835281816020850137506000828201602090810191909152601f909101601f19169091010190565b84815260c06020820152600061395f85866138d3565b60a060c085015261397561016085018284613920565b91505061398560208701876138d3565b60bf19808685030160e087015261399d848385613920565b93506139ac60408a018a6138d3565b9350915080868503016101008701526139c6848484613920565b93506139d560608a018a6138d3565b9350915080868503016101208701526139ef848484613920565b93506139fe60808a018a6138d3565b93509150808685030161014087015250613a19838383613920565b9350505050613a3f60408301858035825260208082013590830152604090810135910152565b6001600160701b03831660a083015295945050505050565b60008060008060808587031215613a6d57600080fd5b8451613a7881613250565b6020860151909450613a8981613250565b6040860151606090960151949790965092505050565b60008060408385031215613ab257600080fd5b505080516020909101519092909150565b805169ffffffffffffffffffff81168114613add57600080fd5b919050565b600080600080600060a08688031215613afa57600080fd5b613b0386613ac3565b9450602086015193506040860151925060608601519150613b2660808701613ac3565b90509295509295909350565b6001600160701b03818116838216019080821115613b5257613b52613477565b5092915050565b86815260c060208201526000613b7260c08301886130be565b8281036040840152613b8481886130be565b6001600160a01b0396909616606084015250506001600160701b039283166080820152911660a0909101529392505050565b600060208284031215613bc857600080fd5b815161340a81613250565b6001600160a01b0393841681529190921660208201526001600160701b03909116604082015260600190565b6001600160701b03818116838216028082169190828114613c2257613c22613477565b505092915050565b60006001600160701b0380841680613c4457613c446134de565b92169190910492915050565b604081526000613c6360408301856130be565b90508260208301529392505050565b60208152600061340a60208301846130be565b604081526000613c9860408301856130be565b905060018060a01b0383166020830152939250505056fea2646970667358221220cf338f2c650c4ce2f8768b109068feaea06d8c0861ea7b57874ac70daf0bdac364736f6c63430008110033",
  "devdoc": {
    "kind": "dev",
    "methods": {
      "owner()": {
        "details": "Returns the address of the current owner."
      },
      "renounceOwnership()": {
        "details": "Leaves the contract without owner. It will not be possible to call `onlyOwner` functions anymore. Can only be called by the current owner. NOTE: Renouncing ownership will leave the contract without an owner, thereby removing any functionality that is only available to the owner."
      },
      "transferOwnership(address)": {
        "details": "Transfers ownership of the contract to a new account (`newOwner`). Can only be called by the current owner."
      }
    },
    "version": 1
  },
  "userdoc": {
    "kind": "user",
    "methods": {},
    "version": 1
  },
  "storageLayout": {
    "storage": [
      {
        "astId": 609,
        "contract": "contracts/AMM.sol:AMM",
        "label": "_owner",
        "offset": 0,
        "slot": "0",
        "type": "t_address"
      },
      {
        "astId": 3363,
        "contract": "contracts/AMM.sol:AMM",
        "label": "count",
        "offset": 0,
        "slot": "1",
        "type": "t_uint256"
      },
      {
        "astId": 3368,
        "contract": "contracts/AMM.sol:AMM",
        "label": "projects",
        "offset": 0,
        "slot": "2",
        "type": "t_mapping(t_uint256,t_struct(Project)3361_storage)"
      },
      {
        "astId": 3374,
        "contract": "contracts/AMM.sol:AMM",
        "label": "commitments",
        "offset": 0,
        "slot": "3",
        "type": "t_mapping(t_uint256,t_mapping(t_address,t_uint256))"
      },
      {
        "astId": 2203,
        "contract": "contracts/AMM.sol:AMM",
        "label": "fansSociety",
        "offset": 0,
        "slot": "4",
        "type": "t_address"
      },
      {
        "astId": 2205,
        "contract": "contracts/AMM.sol:AMM",
        "label": "weth",
        "offset": 0,
        "slot": "5",
        "type": "t_address"
      },
      {
        "astId": 2207,
        "contract": "contracts/AMM.sol:AMM",
        "label": "ethUsdtAggregator",
        "offset": 0,
        "slot": "6",
        "type": "t_address"
      },
      {
        "astId": 2209,
        "contract": "contracts/AMM.sol:AMM",
        "label": "tokenFactory",
        "offset": 0,
        "slot": "7",
        "type": "t_address"
      },
      {
        "astId": 2211,
        "contract": "contracts/AMM.sol:AMM",
        "label": "poolFactory",
        "offset": 0,
        "slot": "8",
        "type": "t_address"
      }
    ],
    "types": {
      "t_address": {
        "encoding": "inplace",
        "label": "address",
        "numberOfBytes": "20"
      },
      "t_enum(ProjectStatus)3323": {
        "encoding": "inplace",
        "label": "enum Projects.ProjectStatus",
        "numberOfBytes": "1"
      },
      "t_mapping(t_address,t_uint256)": {
        "encoding": "mapping",
        "key": "t_address",
        "label": "mapping(address => uint256)",
        "numberOfBytes": "32",
        "value": "t_uint256"
      },
      "t_mapping(t_uint256,t_mapping(t_address,t_uint256))": {
        "encoding": "mapping",
        "key": "t_uint256",
        "label": "mapping(uint256 => mapping(address => uint256))",
        "numberOfBytes": "32",
        "value": "t_mapping(t_address,t_uint256)"
      },
      "t_mapping(t_uint256,t_struct(Project)3361_storage)": {
        "encoding": "mapping",
        "key": "t_uint256",
        "label": "mapping(uint256 => struct Projects.Project)",
        "numberOfBytes": "32",
        "value": "t_struct(Project)3361_storage"
      },
      "t_string_storage": {
        "encoding": "bytes",
        "label": "string",
        "numberOfBytes": "32"
      },
      "t_struct(Project)3361_storage": {
        "encoding": "inplace",
        "label": "struct Projects.Project",
        "members": [
          {
            "astId": 3343,
            "contract": "contracts/AMM.sol:AMM",
            "label": "id",
            "offset": 0,
            "slot": "0",
            "type": "t_uint256"
          },
          {
            "astId": 3345,
            "contract": "contracts/AMM.sol:AMM",
            "label": "fund",
            "offset": 0,
            "slot": "1",
            "type": "t_uint256"
          },
          {
            "astId": 3347,
            "contract": "contracts/AMM.sol:AMM",
            "label": "totalSupply",
            "offset": 0,
            "slot": "2",
            "type": "t_uint112"
          },
          {
            "astId": 3350,
            "contract": "contracts/AMM.sol:AMM",
            "label": "info",
            "offset": 0,
            "slot": "3",
            "type": "t_struct(ProjectInfo)3334_storage"
          },
          {
            "astId": 3353,
            "contract": "contracts/AMM.sol:AMM",
            "label": "ico",
            "offset": 0,
            "slot": "8",
            "type": "t_struct(ProjectICO)3341_storage"
          },
          {
            "astId": 3356,
            "contract": "contracts/AMM.sol:AMM",
            "label": "status",
            "offset": 0,
            "slot": "11",
            "type": "t_enum(ProjectStatus)3323"
          },
          {
            "astId": 3358,
            "contract": "contracts/AMM.sol:AMM",
            "label": "partnerAddress",
            "offset": 1,
            "slot": "11",
            "type": "t_address"
          },
          {
            "astId": 3360,
            "contract": "contracts/AMM.sol:AMM",
            "label": "tokenAddress",
            "offset": 0,
            "slot": "12",
            "type": "t_address"
          }
        ],
        "numberOfBytes": "416"
      },
      "t_struct(ProjectICO)3341_storage": {
        "encoding": "inplace",
        "label": "struct Projects.ProjectICO",
        "members": [
          {
            "astId": 3336,
            "contract": "contracts/AMM.sol:AMM",
            "label": "target",
            "offset": 0,
            "slot": "0",
            "type": "t_uint256"
          },
          {
            "astId": 3338,
            "contract": "contracts/AMM.sol:AMM",
            "label": "minInvest",
            "offset": 0,
            "slot": "1",
            "type": "t_uint256"
          },
          {
            "astId": 3340,
            "contract": "contracts/AMM.sol:AMM",
            "label": "maxInvest",
            "offset": 0,
            "slot": "2",
            "type": "t_uint256"
          }
        ],
        "numberOfBytes": "96"
      },
      "t_struct(ProjectInfo)3334_storage": {
        "encoding": "inplace",
        "label": "struct Projects.ProjectInfo",
        "members": [
          {
            "astId": 3325,
            "contract": "contracts/AMM.sol:AMM",
            "label": "name",
            "offset": 0,
            "slot": "0",
            "type": "t_string_storage"
          },
          {
            "astId": 3327,
            "contract": "contracts/AMM.sol:AMM",
            "label": "symbol",
            "offset": 0,
            "slot": "1",
            "type": "t_string_storage"
          },
          {
            "astId": 3329,
            "contract": "contracts/AMM.sol:AMM",
            "label": "description",
            "offset": 0,
            "slot": "2",
            "type": "t_string_storage"
          },
          {
            "astId": 3331,
            "contract": "contracts/AMM.sol:AMM",
            "label": "avatarCid",
            "offset": 0,
            "slot": "3",
            "type": "t_string_storage"
          },
          {
            "astId": 3333,
            "contract": "contracts/AMM.sol:AMM",
            "label": "coverCid",
            "offset": 0,
            "slot": "4",
            "type": "t_string_storage"
          }
        ],
        "numberOfBytes": "160"
      },
      "t_uint112": {
        "encoding": "inplace",
        "label": "uint112",
        "numberOfBytes": "14"
      },
      "t_uint256": {
        "encoding": "inplace",
        "label": "uint256",
        "numberOfBytes": "32"
      }
    }
  }
}