{
  "_format": "hh-sol-artifact-1",
  "contractName": "FansSociety",
  "sourceName": "contracts/FansSociety.sol",
  "abi": [
    {
      "inputs": [
        {
          "internalType": "address",
          "name": "_wethTokenAddress",
          "type": "address"
        },
        {
          "internalType": "address",
          "name": "_tokenFactoryAddress",
          "type": "address"
        },
        {
          "internalType": "address",
          "name": "_poolFactoryAddress",
          "type": "address"
        }
      ],
      "stateMutability": "nonpayable",
      "type": "constructor"
    },
    {
      "anonymous": false,
      "inputs": [
        {
          "indexed": true,
          "internalType": "uint256",
          "name": "id",
          "type": "uint256"
        },
        {
          "indexed": true,
          "internalType": "address",
          "name": "caller",
          "type": "address"
        },
        {
          "indexed": false,
          "internalType": "uint256",
          "name": "amount",
          "type": "uint256"
        }
      ],
      "name": "Claimed",
      "type": "event"
    },
    {
      "anonymous": false,
      "inputs": [
        {
          "indexed": true,
          "internalType": "uint256",
          "name": "id",
          "type": "uint256"
        },
        {
          "indexed": true,
          "internalType": "address",
          "name": "caller",
          "type": "address"
        },
        {
          "indexed": false,
          "internalType": "uint256",
          "name": "amount",
          "type": "uint256"
        }
      ],
      "name": "Committed",
      "type": "event"
    },
    {
      "anonymous": false,
      "inputs": [
        {
          "indexed": true,
          "internalType": "address",
          "name": "previousOwner",
          "type": "address"
        },
        {
          "indexed": true,
          "internalType": "address",
          "name": "newOwner",
          "type": "address"
        }
      ],
      "name": "OwnershipTransferred",
      "type": "event"
    },
    {
      "anonymous": false,
      "inputs": [
        {
          "indexed": false,
          "internalType": "uint256",
          "name": "id",
          "type": "uint256"
        },
        {
          "indexed": false,
          "internalType": "string",
          "name": "name",
          "type": "string"
        },
        {
          "indexed": false,
          "internalType": "string",
          "name": "symbol",
          "type": "string"
        },
        {
          "indexed": false,
          "internalType": "string",
          "name": "description",
          "type": "string"
        },
        {
          "indexed": false,
          "internalType": "uint256",
          "name": "target",
          "type": "uint256"
        },
        {
          "indexed": false,
          "internalType": "uint256",
          "name": "minInvest",
          "type": "uint256"
        },
        {
          "indexed": false,
          "internalType": "uint256",
          "name": "maxInvest",
          "type": "uint256"
        },
        {
          "indexed": true,
          "internalType": "address",
          "name": "authorAddress",
          "type": "address"
        }
      ],
      "name": "ProjectCreated",
      "type": "event"
    },
    {
      "anonymous": false,
      "inputs": [
        {
          "indexed": true,
          "internalType": "uint256",
          "name": "id",
          "type": "uint256"
        },
        {
          "indexed": false,
          "internalType": "enum Projects.ProjectStatus",
          "name": "status",
          "type": "uint8"
        }
      ],
      "name": "ProjectStatusChanged",
      "type": "event"
    },
    {
      "anonymous": false,
      "inputs": [
        {
          "indexed": true,
          "internalType": "uint256",
          "name": "id",
          "type": "uint256"
        },
        {
          "indexed": true,
          "internalType": "address",
          "name": "caller",
          "type": "address"
        },
        {
          "indexed": false,
          "internalType": "uint256",
          "name": "amount",
          "type": "uint256"
        }
      ],
      "name": "Withdrawed",
      "type": "event"
    },
    {
      "inputs": [
        {
          "internalType": "uint256",
          "name": "_id",
          "type": "uint256"
        }
      ],
      "name": "abortProject",
      "outputs": [],
      "stateMutability": "nonpayable",
      "type": "function"
    },
    {
      "inputs": [
        {
          "internalType": "uint256",
          "name": "_id",
          "type": "uint256"
        }
      ],
      "name": "claimProjectTokens",
      "outputs": [],
      "stateMutability": "nonpayable",
      "type": "function"
    },
    {
      "inputs": [
        {
          "internalType": "uint256",
          "name": "_id",
          "type": "uint256"
        }
      ],
      "name": "commitOnProject",
      "outputs": [],
      "stateMutability": "payable",
      "type": "function"
    },
    {
      "inputs": [
        {
          "internalType": "uint256",
          "name": "",
          "type": "uint256"
        },
        {
          "internalType": "address",
          "name": "",
          "type": "address"
        }
      ],
      "name": "commitments",
      "outputs": [
        {
          "internalType": "uint256",
          "name": "",
          "type": "uint256"
        }
      ],
      "stateMutability": "view",
      "type": "function"
    },
    {
      "inputs": [],
      "name": "count",
      "outputs": [
        {
          "internalType": "uint256",
          "name": "",
          "type": "uint256"
        }
      ],
      "stateMutability": "view",
      "type": "function"
    },
    {
      "inputs": [
        {
          "internalType": "address",
          "name": "_authorAddress",
          "type": "address"
        },
        {
          "internalType": "string",
          "name": "_name",
          "type": "string"
        },
        {
          "internalType": "string",
          "name": "_symbol",
          "type": "string"
        },
        {
          "internalType": "string",
          "name": "_description",
          "type": "string"
        },
        {
          "internalType": "uint256",
          "name": "_target",
          "type": "uint256"
        },
        {
          "internalType": "uint256",
          "name": "_minInvest",
          "type": "uint256"
        },
        {
          "internalType": "uint256",
          "name": "_maxInvest",
          "type": "uint256"
        }
      ],
      "name": "createProject",
      "outputs": [],
      "stateMutability": "nonpayable",
      "type": "function"
    },
    {
      "inputs": [
        {
          "internalType": "uint256",
          "name": "_id",
          "type": "uint256"
        }
      ],
      "name": "launchProject",
      "outputs": [],
      "stateMutability": "nonpayable",
      "type": "function"
    },
    {
      "inputs": [],
      "name": "owner",
      "outputs": [
        {
          "internalType": "address",
          "name": "",
          "type": "address"
        }
      ],
      "stateMutability": "view",
      "type": "function"
    },
    {
      "inputs": [
        {
          "internalType": "uint256",
          "name": "",
          "type": "uint256"
        }
      ],
      "name": "projects",
      "outputs": [
        {
          "internalType": "string",
          "name": "name",
          "type": "string"
        },
        {
          "internalType": "string",
          "name": "symbol",
          "type": "string"
        },
        {
          "internalType": "string",
          "name": "description",
          "type": "string"
        },
        {
          "internalType": "uint256",
          "name": "fund",
          "type": "uint256"
        },
        {
          "internalType": "uint256",
          "name": "target",
          "type": "uint256"
        },
        {
          "internalType": "uint256",
          "name": "minInvest",
          "type": "uint256"
        },
        {
          "internalType": "uint256",
          "name": "maxInvest",
          "type": "uint256"
        },
        {
          "internalType": "enum Projects.ProjectStatus",
          "name": "status",
          "type": "uint8"
        },
        {
          "internalType": "address",
          "name": "authorAddress",
          "type": "address"
        },
        {
          "internalType": "address",
          "name": "tokenAddress",
          "type": "address"
        }
      ],
      "stateMutability": "view",
      "type": "function"
    },
    {
      "inputs": [],
      "name": "renounceOwnership",
      "outputs": [],
      "stateMutability": "nonpayable",
      "type": "function"
    },
    {
      "inputs": [
        {
          "internalType": "address",
          "name": "newOwner",
          "type": "address"
        }
      ],
      "name": "transferOwnership",
      "outputs": [],
      "stateMutability": "nonpayable",
      "type": "function"
    },
    {
      "inputs": [
        {
          "internalType": "uint256",
          "name": "_id",
          "type": "uint256"
        }
      ],
      "name": "withdrawOnProject",
      "outputs": [],
      "stateMutability": "nonpayable",
      "type": "function"
    }
  ],
  "bytecode": "0x60806040523480156200001157600080fd5b5060405162001a2d38038062001a2d8339810160408190526200003491620000f6565b828282620000423362000089565b600180546001600160a01b039485166001600160a01b0319918216179091556002805493851693821693909317909255600380549190931691161790555062000140915050565b600080546001600160a01b038381166001600160a01b0319831681178455604051919092169283917f8be0079c531659141344cd1fd0a4f28419497f9722a3daafe3b4186f6b6457e09190a35050565b80516001600160a01b0381168114620000f157600080fd5b919050565b6000806000606084860312156200010c57600080fd5b6200011784620000d9565b92506200012760208501620000d9565b91506200013760408501620000d9565b90509250925092565b6118dd80620001506000396000f3fe6080604052600436106100a75760003560e01c8063715018a611610064578063715018a6146101805780638da5cb5b14610195578063a3bfb7bd146101bd578063e90d4c06146101dd578063f1244ad814610215578063f2fde38b1461023557600080fd5b806306661abd146100ac578063107046bd146100d557806316509ee21461010b57806344a9ae8c1461012057806354c5a1eb1461014057806360ae7c3b14610160575b600080fd5b3480156100b857600080fd5b506100c260045481565b6040519081526020015b60405180910390f35b3480156100e157600080fd5b506100f56100f0366004611286565b610255565b6040516100cc9a9998979695949392919061131d565b61011e610119366004611286565b61044c565b005b34801561012c57600080fd5b5061011e61013b366004611286565b61064c565b34801561014c57600080fd5b5061011e61015b36600461140a565b610807565b34801561016c57600080fd5b5061011e61017b366004611286565b610a5d565b34801561018c57600080fd5b5061011e610c3e565b3480156101a157600080fd5b506000546040516001600160a01b0390911681526020016100cc565b3480156101c957600080fd5b5061011e6101d8366004611286565b610c52565b3480156101e957600080fd5b506100c26101f83660046114d1565b600660209081526000928352604080842090915290825290205481565b34801561022157600080fd5b5061011e610230366004611286565b610d01565b34801561024157600080fd5b5061011e610250366004611501565b611163565b60056020526000908152604090208054819061027090611525565b80601f016020809104026020016040519081016040528092919081815260200182805461029c90611525565b80156102e95780601f106102be576101008083540402835291602001916102e9565b820191906000526020600020905b8154815290600101906020018083116102cc57829003601f168201915b5050505050908060010180546102fe90611525565b80601f016020809104026020016040519081016040528092919081815260200182805461032a90611525565b80156103775780601f1061034c57610100808354040283529160200191610377565b820191906000526020600020905b81548152906001019060200180831161035a57829003601f168201915b50505050509080600201805461038c90611525565b80601f01602080910402602001604051908101604052809291908181526020018280546103b890611525565b80156104055780601f106103da57610100808354040283529160200191610405565b820191906000526020600020905b8154815290600101906020018083116103e857829003601f168201915b50505060038401546004850154600586015460068701546007880154600890980154969793969295509093509160ff8116916001600160a01b03610100909204821691168a565b8060008060008381526005602052604090206007015460ff166003811115610476576104766112e5565b1461049c5760405162461bcd60e51b81526004016104939061155f565b60405180910390fd5b60008381526005602081815260408084209283015460068352818520338652909252909220549091906104cf90346115a1565b101561050a5760405162461bcd60e51b815260206004820152600a60248201526909cdee840cadcdeeaced60b31b6044820152606401610493565b600680820154600086815260209283526040808220338352909352919091205461053490346115a1565b111561056d5760405162461bcd60e51b81526020600482015260086024820152670a8dede40daeac6d60c31b6044820152606401610493565b3481600301600082825461058191906115a1565b90915550506000848152600660209081526040808320338452909152812080543492906105af9084906115a1565b9091555050604051348152339085907f245cbccbc6875e4b0475a653568fd4f7c2dae5fb8929e33c0d66dc530ba11b009060200160405180910390a380600401548160030154106106465760078101805460ff1916600290811790915560405185917f35872be4c2085eaf9ca9a10d056eefec79968f825846792411ede75f331e93929161063d91906115ba565b60405180910390a25b50505050565b8060008060008381526005602052604090206007015460ff166003811115610676576106766112e5565b146106935760405162461bcd60e51b81526004016104939061155f565b600083815260066020908152604080832033845290915290205483906106eb5760405162461bcd60e51b815260206004820152600d60248201526c139bc818dbdb5b5a5d1b595b9d609a1b6044820152606401610493565b6000848152600660209081526040808320338452825280832054878452600590925282206003018054919283926107239084906115c8565b909155505060008581526006602090815260408083203380855292528083208390555183908381818185875af1925050503d8060008114610780576040519150601f19603f3d011682016040523d82523d6000602084013e610785565b606091505b50509050806107c85760405162461bcd60e51b815260206004820152600f60248201526e1dda5d1a191c985dc819985a5b1959608a1b6044820152606401610493565b604051828152339087907f7fd902d6e186354d1617b957fc4cb4a144f44a19cc5c4525cfb772d707c405c29060200160405180910390a3505050505050565b61080f6111dc565b6004805490600061081f836115db565b91905055506040518061014001604052808a8a8080601f016020809104026020016040519081016040528093929190818152602001838380828437600092019190915250505090825250604080516020601f8b0181900481028201810190925289815291810191908a908a9081908401838280828437600092019190915250505090825250604080516020601f890181900481028201810190925287815291810191908890889081908401838280828437600092018290525093855250505060208083018290526040808401889052606084018790526080840186905260a084018390526001600160a01b038f1660c085015260e090930182905260045482526005905220815181906109329082611659565b50602082015160018201906109479082611659565b506040820151600282019061095c9082611659565b50606082015181600301556080820151816004015560a0820151816005015560c0820151816006015560e08201518160070160006101000a81548160ff021916908360038111156109af576109af6112e5565b021790555061010082810151600783018054610100600160a81b0319166001600160a01b039283169093029290921790915561012090920151600890910180546001600160a01b031916918316919091179055600454604051918c16917f3bac2758dfb680860313153c1c114e3a617804bea3b699f2de895b2fb758b1d891610a49918d908d908d908d908d908d908d908d908d90611742565b60405180910390a250505050505050505050565b8060028060008381526005602052604090206007015460ff166003811115610a8757610a876112e5565b14610aa45760405162461bcd60e51b81526004016104939061155f565b60008381526006602090815260408083203384529091529020548390610afc5760405162461bcd60e51b815260206004820152600d60248201526c139bc818dbdb5b5a5d1b595b9d609a1b6044820152606401610493565b600084815260066020908152604080832033845282528083205487845260059092528220600301549091908290610b349060236117a7565b610b3e91906117c9565b6002546000888152600560205260409081902060080154905163e486033960e01b81526001600160a01b039182166004820152929350169063e4860339906024016020604051808303816000875af1158015610b9e573d6000803e3d6000fd5b505050506040513d601f19601f82011682018060405250810190610bc291906117e0565b60405163a9059cbb60e01b8152336004820152602481018390526001600160a01b03919091169063a9059cbb906044016020604051808303816000875af1158015610c11573d6000803e3d6000fd5b505050506040513d601f19601f82011682018060405250810190610c3591906117fd565b50505050505050565b610c466111dc565b610c506000611236565b565b610c5a6111dc565b8060008060008381526005602052604090206007015460ff166003811115610c8457610c846112e5565b14610ca15760405162461bcd60e51b81526004016104939061155f565b600083815260056020526040902060070180546001919060ff191682800217905550827f35872be4c2085eaf9ca9a10d056eefec79968f825846792411ede75f331e93926001604051610cf491906115ba565b60405180910390a2505050565b600081815260056020526040902060070154819061010090046001600160a01b03163314610d5e5760405162461bcd60e51b815260206004820152600a6024820152692737ba1030baba3437b960b11b6044820152606401610493565b8160028060008381526005602052604090206007015460ff166003811115610d8857610d886112e5565b14610da55760405162461bcd60e51b81526004016104939061155f565b60008481526005602052604080822081516101408101909252805482908290610dcd90611525565b80601f0160208091040260200160405190810160405280929190818152602001828054610df990611525565b8015610e465780601f10610e1b57610100808354040283529160200191610e46565b820191906000526020600020905b815481529060010190602001808311610e2957829003601f168201915b50505050508152602001600182018054610e5f90611525565b80601f0160208091040260200160405190810160405280929190818152602001828054610e8b90611525565b8015610ed85780601f10610ead57610100808354040283529160200191610ed8565b820191906000526020600020905b815481529060010190602001808311610ebb57829003601f168201915b50505050508152602001600282018054610ef190611525565b80601f0160208091040260200160405190810160405280929190818152602001828054610f1d90611525565b8015610f6a5780601f10610f3f57610100808354040283529160200191610f6a565b820191906000526020600020905b815481529060010190602001808311610f4d57829003601f168201915b50505091835250506003828101546020830152600483015460408301526005830154606083015260068301546080830152600783015460a09092019160ff1690811115610fb957610fb96112e5565b6003811115610fca57610fca6112e5565b815260078201546001600160a01b0361010091829004811660208085019190915260089094015481166040938401526002548551948601519286015193516325b211eb60e11b8152959650600095911693634b6423d6936110399391923091601b91829060239060040161181f565b6020604051808303816000875af1158015611058573d6000803e3d6000fd5b505050506040513d601f19601f8201168201806040525081019061107c91906117e0565b60035460015460405163e343361560e01b81526001600160a01b038085166004830152918216602482015292935060009291169063e34336159060440160408051808303816000875af11580156110d7573d6000803e3d6000fd5b505050506040513d601f19601f820116820180604052508101906110fb9190611879565b506000888152600560205260409020600701805491925060039160ff19166001830217905550867f35872be4c2085eaf9ca9a10d056eefec79968f825846792411ede75f331e9392600360405161115291906115ba565b60405180910390a250505050505050565b61116b6111dc565b6001600160a01b0381166111d05760405162461bcd60e51b815260206004820152602660248201527f4f776e61626c653a206e6577206f776e657220697320746865207a65726f206160448201526564647265737360d01b6064820152608401610493565b6111d981611236565b50565b6000546001600160a01b03163314610c505760405162461bcd60e51b815260206004820181905260248201527f4f776e61626c653a2063616c6c6572206973206e6f7420746865206f776e65726044820152606401610493565b600080546001600160a01b038381166001600160a01b0319831681178455604051919092169283917f8be0079c531659141344cd1fd0a4f28419497f9722a3daafe3b4186f6b6457e09190a35050565b60006020828403121561129857600080fd5b5035919050565b6000815180845260005b818110156112c5576020818501810151868301820152016112a9565b506000602082860101526020601f19601f83011685010191505092915050565b634e487b7160e01b600052602160045260246000fd5b6004811061131957634e487b7160e01b600052602160045260246000fd5b9052565b60006101408083526113318184018e61129f565b90508281036020840152611345818d61129f565b90508281036040840152611359818c61129f565b9150508860608301528760808301528660a08301528560c083015261138160e08301866112fb565b6001600160a01b03938416610100830152919092166101209092019190915298975050505050505050565b6001600160a01b03811681146111d957600080fd5b60008083601f8401126113d357600080fd5b50813567ffffffffffffffff8111156113eb57600080fd5b60208301915083602082850101111561140357600080fd5b9250929050565b60008060008060008060008060008060e08b8d03121561142957600080fd5b8a35611434816113ac565b995060208b013567ffffffffffffffff8082111561145157600080fd5b61145d8e838f016113c1565b909b50995060408d013591508082111561147657600080fd5b6114828e838f016113c1565b909950975060608d013591508082111561149b57600080fd5b506114a88d828e016113c1565b9b9e9a9d50989b979a9699969760808101359760a0820135975060c09091013595509350505050565b600080604083850312156114e457600080fd5b8235915060208301356114f6816113ac565b809150509250929050565b60006020828403121561151357600080fd5b813561151e816113ac565b9392505050565b600181811c9082168061153957607f821691505b60208210810361155957634e487b7160e01b600052602260045260246000fd5b50919050565b6020808252601290820152714261642070726f6a6563742073746174757360701b604082015260600190565b634e487b7160e01b600052601160045260246000fd5b808201808211156115b4576115b461158b565b92915050565b602081016115b482846112fb565b818103818111156115b4576115b461158b565b6000600182016115ed576115ed61158b565b5060010190565b634e487b7160e01b600052604160045260246000fd5b601f82111561165457600081815260208120601f850160051c810160208610156116315750805b601f850160051c820191505b818110156116505782815560010161163d565b5050505b505050565b815167ffffffffffffffff811115611673576116736115f4565b611687816116818454611525565b8461160a565b602080601f8311600181146116bc57600084156116a45750858301515b600019600386901b1c1916600185901b178555611650565b600085815260208120601f198616915b828110156116eb578886015182559484019460019091019084016116cc565b50858210156117095787850151600019600388901b60f8161c191681555b5050505050600190811b01905550565b81835281816020850137506000828201602090810191909152601f909101601f19169091010190565b8a815260e06020820152600061175c60e083018b8d611719565b828103604084015261176f818a8c611719565b9050828103606084015261178481888a611719565b6080840196909652505060a081019290925260c090910152979650505050505050565b6000826117c457634e487b7160e01b600052601260045260246000fd5b500490565b80820281158282048414176115b4576115b461158b565b6000602082840312156117f257600080fd5b815161151e816113ac565b60006020828403121561180f57600080fd5b8151801515811461151e57600080fd5b60e08152600061183260e083018a61129f565b8281036020840152611844818a61129f565b6001600160a01b0398891660408501526060840197909752505092909416608083015260a082015260c0019190915292915050565b6000806040838503121561188c57600080fd5b8251611897816113ac565b602093909301519294929350505056fea2646970667358221220a9ff0237992cda214ea6824ac791b8c1326569379740cc2ce722ef6b3ea8319d64736f6c63430008110033",
  "linkReferences": {},
  "deployedLinkReferences": {}
}